{
  "contractName": "KingdomBank",
  "abi": [
    {
      "inputs": [
        {
          "internalType": "contract KingdomSeedCoin",
          "name": "_kgdsc",
          "type": "address"
        },
        {
          "internalType": "contract KingdomAttackCoin",
          "name": "_kgdat",
          "type": "address"
        },
        {
          "internalType": "contract KingdomDefenseCoin",
          "name": "_kgddf",
          "type": "address"
        }
      ],
      "stateMutability": "nonpayable",
      "type": "constructor"
    },
    {
      "anonymous": false,
      "inputs": [
        {
          "indexed": true,
          "internalType": "address",
          "name": "_to",
          "type": "address"
        },
        {
          "indexed": false,
          "internalType": "uint256",
          "name": "_amount",
          "type": "uint256"
        }
      ],
      "name": "HarvestAttackPoints",
      "type": "event"
    },
    {
      "anonymous": false,
      "inputs": [
        {
          "indexed": true,
          "internalType": "address",
          "name": "_to",
          "type": "address"
        },
        {
          "indexed": false,
          "internalType": "uint256",
          "name": "_amount",
          "type": "uint256"
        }
      ],
      "name": "HarvestDefensePoints",
      "type": "event"
    },
    {
      "anonymous": false,
      "inputs": [
        {
          "indexed": true,
          "internalType": "address",
          "name": "_to",
          "type": "address"
        },
        {
          "indexed": false,
          "internalType": "uint256",
          "name": "_amount",
          "type": "uint256"
        },
        {
          "indexed": false,
          "internalType": "uint256",
          "name": "_beforeBurn",
          "type": "uint256"
        }
      ],
      "name": "HarvestRemainingSeedCoins",
      "type": "event"
    },
    {
      "inputs": [],
      "name": "exchangeRate",
      "outputs": [
        {
          "internalType": "uint8",
          "name": "",
          "type": "uint8"
        }
      ],
      "stateMutability": "view",
      "type": "function"
    },
    {
      "inputs": [],
      "name": "exchangeRate_Attackpoints",
      "outputs": [
        {
          "internalType": "uint8",
          "name": "",
          "type": "uint8"
        }
      ],
      "stateMutability": "view",
      "type": "function"
    },
    {
      "inputs": [],
      "name": "exchangeRate_Burnpct",
      "outputs": [
        {
          "internalType": "uint8",
          "name": "",
          "type": "uint8"
        }
      ],
      "stateMutability": "view",
      "type": "function"
    },
    {
      "inputs": [],
      "name": "exchangeRate_Defensepoints",
      "outputs": [
        {
          "internalType": "uint8",
          "name": "",
          "type": "uint8"
        }
      ],
      "stateMutability": "view",
      "type": "function"
    },
    {
      "inputs": [],
      "name": "kgdat",
      "outputs": [
        {
          "internalType": "contract KingdomAttackCoin",
          "name": "",
          "type": "address"
        }
      ],
      "stateMutability": "view",
      "type": "function"
    },
    {
      "inputs": [],
      "name": "kgddf",
      "outputs": [
        {
          "internalType": "contract KingdomDefenseCoin",
          "name": "",
          "type": "address"
        }
      ],
      "stateMutability": "view",
      "type": "function"
    },
    {
      "inputs": [],
      "name": "kgdsc",
      "outputs": [
        {
          "internalType": "contract KingdomSeedCoin",
          "name": "",
          "type": "address"
        }
      ],
      "stateMutability": "view",
      "type": "function"
    },
    {
      "inputs": [],
      "name": "stakingPeriod",
      "outputs": [
        {
          "internalType": "uint256",
          "name": "",
          "type": "uint256"
        }
      ],
      "stateMutability": "view",
      "type": "function"
    },
    {
      "inputs": [],
      "name": "buyForETH",
      "outputs": [],
      "stateMutability": "payable",
      "type": "function"
    },
    {
      "inputs": [],
      "name": "justSendETH",
      "outputs": [
        {
          "internalType": "uint256",
          "name": "",
          "type": "uint256"
        }
      ],
      "stateMutability": "payable",
      "type": "function"
    },
    {
      "inputs": [
        {
          "internalType": "uint256",
          "name": "nrSeedCoins",
          "type": "uint256"
        },
        {
          "internalType": "uint8",
          "name": "targetCoin",
          "type": "uint8"
        }
      ],
      "name": "plantSeeds",
      "outputs": [],
      "stateMutability": "nonpayable",
      "type": "function"
    },
    {
      "inputs": [],
      "name": "getCurrentStakes",
      "outputs": [
        {
          "internalType": "uint256[2]",
          "name": "balances",
          "type": "uint256[2]"
        }
      ],
      "stateMutability": "view",
      "type": "function"
    },
    {
      "inputs": [],
      "name": "harvestAll",
      "outputs": [],
      "stateMutability": "nonpayable",
      "type": "function"
    }
  ],
  "bytecode": "0x60806040526000805463ffffffff1916630a080a64179055603c60015534801561002857600080fd5b50604051610fb2380380610fb2833981016040819052610047916100a1565b600280546001600160a01b039485166001600160a01b0319918216179091556003805493851693821693909317909255600480549190931691161790556100ee565b6001600160a01b038116811461009e57600080fd5b50565b6000806000606084860312156100b657600080fd5b83516100c181610089565b60208501519093506100d281610089565b60408501519092506100e381610089565b809150509250925092565b610eb5806100fd6000396000f3fe6080604052600436106100c25760003560e01c80638ed955b91161007f578063c669b71011610059578063c669b710146101f4578063d4637ddb14610213578063e046670b14610233578063fa4facdb1461023957600080fd5b80638ed955b91461019b578063900294be146101b0578063c03d5b47146101d057600080fd5b806310f7e4ed146100c75780633ba0b9a9146100d1578063411ee0d014610102578063429c3edf1461013a5780636a7a2fa31461015a5780637c62539a1461017b575b600080fd5b6100cf61025b565b005b3480156100dd57600080fd5b506000546100eb9060ff1681565b60405160ff90911681526020015b60405180910390f35b34801561010e57600080fd5b50600454610122906001600160a01b031681565b6040516001600160a01b0390911681526020016100f9565b34801561014657600080fd5b506100cf610155366004610d1f565b6104ca565b34801561016657600080fd5b506000546100eb906301000000900460ff1681565b34801561018757600080fd5b50600354610122906001600160a01b031681565b3480156101a757600080fd5b506100cf61086b565b3480156101bc57600080fd5b50600254610122906001600160a01b031681565b3480156101dc57600080fd5b506101e660015481565b6040519081526020016100f9565b34801561020057600080fd5b506000546100eb90610100900460ff1681565b34801561021f57600080fd5b506000546100eb9062010000900460ff1681565b476101e6565b34801561024557600080fd5b5061024e610b2d565b6040516100f99190610d55565b6002546040516370a0823160e01b81523060048201526000916001600160a01b0316906370a082319060240160206040518083038186803b15801561029f57600080fd5b505afa1580156102b3573d6000803e3d6000fd5b505050506040513d601f19601f820116820180604052508101906102d79190610d86565b116102e157600080fd5b6000341161034f5760405162461bcd60e51b815260206004820152603060248201527f796f75206861766520746f2073656e6420736f6d652045544820746f2067657460448201526f1025b4b733b237b6a9b2b2b231b7b4b760811b60648201526084015b60405180910390fd5b6002546040516370a0823160e01b81523060048201526000916001600160a01b0316906370a082319060240160206040518083038186803b15801561039357600080fd5b505afa1580156103a7573d6000803e3d6000fd5b505050506040513d601f19601f820116820180604052508101906103cb9190610d86565b116104305760405162461bcd60e51b815260206004820152602f60248201527f75686f682c2073727920692063616e27742073656e6420616e79206d6f72652060448201526e25b4b733b237b6a9b2b2b231b7b4b760891b6064820152608401610346565b600080546104419060ff1634610db5565b60025460405163a9059cbb60e01b8152336004820152602481018390529192506001600160a01b03169063a9059cbb90604401602060405180830381600087803b15801561048e57600080fd5b505af11580156104a2573d6000803e3d6000fd5b505050506040513d601f19601f820116820180604052508101906104c69190610dd4565b5050565b6003546040516370a0823160e01b81523060048201526000916001600160a01b0316906370a082319060240160206040518083038186803b15801561050e57600080fd5b505afa158015610522573d6000803e3d6000fd5b505050506040513d601f19601f820116820180604052508101906105469190610d86565b1161055057600080fd5b600480546040516370a0823160e01b815230928101929092526000916001600160a01b03909116906370a082319060240160206040518083038186803b15801561059957600080fd5b505afa1580156105ad573d6000803e3d6000fd5b505050506040513d601f19601f820116820180604052508101906105d19190610d86565b116105db57600080fd5b6002546040516370a0823160e01b81523360048201526000916001600160a01b0316906370a082319060240160206040518083038186803b15801561061f57600080fd5b505afa158015610633573d6000803e3d6000fd5b505050506040513d601f19601f820116820180604052508101906106579190610d86565b90508281101580156106695750600083115b6106d05760405162461bcd60e51b815260206004820152603260248201527f796f7520646f6e2774206861766520656e6f7567682073656564636f696e732160448201527120627579206f7220747261646520736f6d6560701b6064820152608401610346565b60ff821615806106e357508160ff166001145b61074a5760405162461bcd60e51b815260206004820152603260248201527f746172676574436f696e2068617320746f20626520303d61747461636b636f69604482015271371037b910189eb232b332b739b2b1b7b4b760711b6064820152608401610346565b6002546040516323b872dd60e01b8152336004820152306024820152604481018590526001600160a01b03909116906323b872dd90606401602060405180830381600087803b15801561079c57600080fd5b505af11580156107b0573d6000803e3d6000fd5b505050506040513d601f19601f820116820180604052508101906107d49190610dd4565b5060056000336001600160a01b03166001600160a01b0316815260200190815260200160002060405180606001604052808581526020018460ff168152602001600154426108229190610dfd565b90528154600180820184556000938452602093849020835160039093020191825592820151928101805460ff191660ff9094169390931790925560400151600290910155505050565b60005b33600090815260056020526040902054811015610b2a573360009081526005602052604081208054839081106108a6576108a6610e15565b600091825260209182902060408051606081018252600390930290910180548352600181015460ff16938301939093526002909201549181018290529150421115610b1757602081015160ff166109de5760008054825161090f91610100900460ff1690610e2b565b905061091e8260000151610c0d565b60035460405163a9059cbb60e01b8152336004820152602481018390526001600160a01b039091169063a9059cbb90604401602060405180830381600087803b15801561096a57600080fd5b505af115801561097e573d6000803e3d6000fd5b505050506040513d601f19601f820116820180604052508101906109a29190610dd4565b5060405181815233907f9fd4a9248425079a398923cd20daa8e0c103907fb89db4707cb4f2cc343f95469060200160405180910390a250610ad3565b806020015160ff1660011415610ad357600080548251610a079162010000900460ff1690610e2b565b9050610a168260000151610c0d565b6004805460405163a9059cbb60e01b81523392810192909252602482018390526001600160a01b03169063a9059cbb90604401602060405180830381600087803b158015610a6357600080fd5b505af1158015610a77573d6000803e3d6000fd5b505050506040513d601f19601f82011682018060405250810190610a9b9190610dd4565b5060405181815233907fd62aeb2df4f1c7a0c59e15c0dca22ccbcbe42ad0d0dbf99a22c0ad2551c5a1559060200160405180910390a2505b336000908152600560205260409020805483908110610af457610af4610e15565b60009182526020822060039091020181815560018101805460ff19169055600201555b5080610b2281610e4d565b91505061086e565b50565b610b35610d01565b60008060005b33600090815260056020526040902054811015610bf557336000908152600560205260408120805483908110610b7357610b73610e15565b600091825260209182902060408051606081018252600390930290910180548352600181015460ff1693830184905260020154908201529150610bc3578051610bbc9085610dfd565b9350610be2565b806020015160ff1660011415610be2578051610bdf9084610dfd565b92505b5080610bed81610e4d565b915050610b3b565b50604080518082019091529182526020820152919050565b60008054606490610c28906301000000900460ff1684610db5565b610c329190610e2b565b610c3c9083610e68565b60025460405163a9059cbb60e01b8152336004820152602481018390529192506001600160a01b03169063a9059cbb90604401602060405180830381600087803b158015610c8957600080fd5b505af1158015610c9d573d6000803e3d6000fd5b505050506040513d601f19601f82011682018060405250810190610cc19190610dd4565b50604080518281526020810184905233917f11acec8ea502f5c875e157dd1a17389990a9350450464db61ef112521c0d8751910160405180910390a25050565b60405180604001604052806002906020820280368337509192915050565b60008060408385031215610d3257600080fd5b82359150602083013560ff81168114610d4a57600080fd5b809150509250929050565b60408101818360005b6002811015610d7d578151835260209283019290910190600101610d5e565b50505092915050565b600060208284031215610d9857600080fd5b5051919050565b634e487b7160e01b600052601160045260246000fd5b6000816000190483118215151615610dcf57610dcf610d9f565b500290565b600060208284031215610de657600080fd5b81518015158114610df657600080fd5b9392505050565b60008219821115610e1057610e10610d9f565b500190565b634e487b7160e01b600052603260045260246000fd5b600082610e4857634e487b7160e01b600052601260045260246000fd5b500490565b6000600019821415610e6157610e61610d9f565b5060010190565b600082821015610e7a57610e7a610d9f565b50039056fea2646970667358221220d9729638d8436ae61f2461134f53a66986e583921efe57b85098024fd7502e4164736f6c63430008090033",
  "immutableReferences": {},
  "source": "pragma solidity ^0.8;\n\nimport \"./KingdomSeedCoin.sol\";\nimport \"./KingdomAttackCoin.sol\";\nimport \"./KingdomDefenseCoin.sol\";\nimport \"@openzeppelin/contracts/access/Ownable.sol\";\n\n\ncontract KingdomBank {\n    // address public owner;\n    // string public name = \"Kingdom Bank\";\n    uint8 public exchangeRate = 100;\n    // return more defensepoints as attackpoints\n    uint8 public exchangeRate_Attackpoints = 10;\n    uint8 public exchangeRate_Defensepoints = 8;\n    uint8 public exchangeRate_Burnpct = 10;\n    uint public stakingPeriod = 60 seconds;\n    \n    KingdomSeedCoin public kgdsc;\n    KingdomAttackCoin public kgdat;\n    KingdomDefenseCoin public kgddf;\n\n    event HarvestAttackPoints(address indexed _to, uint _amount);\n    event HarvestDefensePoints(address indexed _to, uint _amount);\n    event HarvestRemainingSeedCoins(address indexed _to, uint _amount, uint _beforeBurn);\n    \n    struct Staking {\n        uint seedCoinAmount;\n        uint8 targetCoinType; // 0 = attackCoin, 1 = defenseCoin\n        uint readyTime;\n    }\n    \n    mapping (address => Staking[]) private _Staking;\n\n    constructor(KingdomSeedCoin _kgdsc, KingdomAttackCoin _kgdat, KingdomDefenseCoin _kgddf) {\n        kgdsc = _kgdsc;\n        kgdat = _kgdat;\n        kgddf = _kgddf;\n        // after that the coins need to be transferred to KingdomBank\n        // owner = msg.sender;\n    }\n\n    modifier contractHasSeedcoins {\n        require (kgdsc.balanceOf(address(this)) > 0);\n        _;\n    }\n\n    modifier contractHasAttackcoins {\n        require (kgdat.balanceOf(address(this)) > 0);\n        _;\n    }\n\n    modifier contractHasDefensecoins {\n        require (kgddf.balanceOf(address(this)) > 0);\n        _;\n    }\n    \n    // you can only buy the seed coins \n    function buyForETH() external payable contractHasSeedcoins {\n        require(msg.value > 0, \"you have to send some ETH to get KingdomSeedcoin\");\n        require(kgdsc.balanceOf(address(this)) > 0, \"uhoh, sry i can't send any more KingdomSeedcoin\");\n        \n        uint rewardTokens = msg.value * exchangeRate;\n        kgdsc.transfer(msg.sender, rewardTokens);\n    }\n    \n    function justSendETH() public payable  returns(uint){\n        return address(this).balance;\n    }\n    \n    function plantSeeds(uint nrSeedCoins, uint8 targetCoin) public contractHasAttackcoins contractHasDefensecoins {\n        uint kgdsc_balance = kgdsc.balanceOf(msg.sender);\n        require(kgdsc_balance >= nrSeedCoins && nrSeedCoins > 0, \"you don't have enough seedcoins! buy or trade some\");\n        require(targetCoin == 0 || targetCoin == 1, \"targetCoin has to be 0=attackcoin or 1=defensecoin\");\n        // enter staking\n        // first transact the kgdsc\n        kgdsc.transferFrom(msg.sender, address(this), nrSeedCoins);\n        // kgdsc.transfer(address(this), nrSeedCoins);\n        // then store in array\n        _Staking[msg.sender].push(Staking(\n            nrSeedCoins,\n            targetCoin,\n            block.timestamp + stakingPeriod\n            ));\n    }\n    \n    function getCurrentStakes() public view returns(uint[2] memory balances){\n        uint attackPoints = 0;\n        uint defensePoints = 0;\n        for (uint i = 0; i < _Staking[msg.sender].length; i++) {\n            Staking memory stakeobj = _Staking[msg.sender][i];\n            if (stakeobj.targetCoinType == 0) {\n                attackPoints += stakeobj.seedCoinAmount;\n            }\n            else if (stakeobj.targetCoinType == 1) {\n                defensePoints += stakeobj.seedCoinAmount;\n            }\n        }\n        uint[2] memory res = [attackPoints, defensePoints];\n        return res;\n    }\n\n    function _burnReturnSeedcoins(uint nrSeedCoins) private {\n        uint remainingSeedcoins = nrSeedCoins - (nrSeedCoins * exchangeRate_Burnpct / 100);\n        kgdsc.transfer(msg.sender, remainingSeedcoins);\n        emit HarvestRemainingSeedCoins(msg.sender, remainingSeedcoins, nrSeedCoins);\n    }\n\n    function harvestAll() public {\n        for (uint i = 0; i < _Staking[msg.sender].length; i++) {\n            Staking memory stakeobj = _Staking[msg.sender][i];\n            if (stakeobj.readyTime < block.timestamp) {\n                // ready for harvest\n                if (stakeobj.targetCoinType == 0) {\n                    uint attackPoints = stakeobj.seedCoinAmount / exchangeRate_Attackpoints;\n                    _burnReturnSeedcoins(stakeobj.seedCoinAmount);\n                    kgdat.transfer(msg.sender, attackPoints);\n                    emit HarvestAttackPoints(msg.sender, attackPoints);\n                }\n                else if (stakeobj.targetCoinType == 1) {\n                    uint defensePoints = stakeobj.seedCoinAmount / exchangeRate_Defensepoints;\n                    _burnReturnSeedcoins(stakeobj.seedCoinAmount);\n                    kgddf.transfer(msg.sender, defensePoints);\n                    emit HarvestDefensePoints(msg.sender, defensePoints);\n                }\n                // finally remove from array\n                delete _Staking[msg.sender][i];\n            }\n        }\n    } \n}",
  "sourcePath": "/home/jguese/code/solidity-course/kingdom/contracts/KingdomBank.sol",
  "compiler": {
    "name": "solc",
    "version": "0.8.9+commit.e5eed63a.Emscripten.clang"
  },
  "schemaVersion": "3.4.3",
  "updatedAt": "2021-10-29T11:50:44.544Z",
  "devdoc": {
    "kind": "dev",
    "methods": {},
    "version": 1
  },
  "userdoc": {
    "kind": "user",
    "methods": {},
    "version": 1
  }
}