{
  "contractName": "DecentralBank",
  "abi": [
    {
      "inputs": [],
      "name": "name",
      "outputs": [
        {
          "internalType": "string",
          "name": "",
          "type": "string"
        }
      ],
      "stateMutability": "view",
      "type": "function",
      "constant": true
    },
    {
      "inputs": [],
      "name": "owner",
      "outputs": [
        {
          "internalType": "address",
          "name": "",
          "type": "address"
        }
      ],
      "stateMutability": "view",
      "type": "function",
      "constant": true
    }
  ],
  "bytecode": "0x60c0604052600c60808190526b4a757374696e732042616e6b60a01b60a090815261002d9160019190610040565b5034801561003a57600080fd5b50610114565b82805461004c906100d9565b90600052602060002090601f01602090048101928261006e57600085556100b4565b82601f1061008757805160ff19168380011785556100b4565b828001600101855582156100b4579182015b828111156100b4578251825591602001919060010190610099565b506100c09291506100c4565b5090565b5b808211156100c057600081556001016100c5565b600181811c908216806100ed57607f821691505b6020821081141561010e57634e487b7160e01b600052602260045260246000fd5b50919050565b6101d8806101236000396000f3fe608060405234801561001057600080fd5b50600436106100365760003560e01c806306fdde031461003b5780638da5cb5b14610059575b600080fd5b610043610084565b6040516100509190610112565b60405180910390f35b60005461006c906001600160a01b031681565b6040516001600160a01b039091168152602001610050565b6001805461009190610167565b80601f01602080910402602001604051908101604052809291908181526020018280546100bd90610167565b801561010a5780601f106100df5761010080835404028352916020019161010a565b820191906000526020600020905b8154815290600101906020018083116100ed57829003601f168201915b505050505081565b600060208083528351808285015260005b8181101561013f57858101830151858201604001528201610123565b81811115610151576000604083870101525b50601f01601f1916929092016040019392505050565b600181811c9082168061017b57607f821691505b6020821081141561019c57634e487b7160e01b600052602260045260246000fd5b5091905056fea264697066735822122077e8322c59677fd95ede86faebd1fb803995f3cd62645daa044249714287affd64736f6c63430008090033",
  "immutableReferences": {},
  "source": "pragma solidity ^0.8;\n\ncontract DecentralBank {\n    address public owner;\n    string public name = \"Justins Bank\";\n\n    \n}",
  "sourcePath": "/home/justin/code/solidity-course/defi-staking-app-starter-main/defi-staking-app-starter/contracts/DecentralBank.sol",
  "compiler": {
    "name": "solc",
    "version": "0.8.9+commit.e5eed63a.Emscripten.clang"
  },
  "schemaVersion": "3.4.3",
  "updatedAt": "2021-10-18T17:15:49.037Z",
  "networkType": "ethereum",
  "devdoc": {
    "kind": "dev",
    "methods": {},
    "version": 1
  },
  "userdoc": {
    "kind": "user",
    "methods": {},
    "version": 1
  }
}