{
  "contractName": "DecentralBank",
  "abi": [
    {
      "inputs": [
        {
          "internalType": "contract REW",
          "name": "_rew",
          "type": "address"
        },
        {
          "internalType": "contract Tether",
          "name": "_tether",
          "type": "address"
        }
      ],
      "stateMutability": "nonpayable",
      "type": "constructor"
    },
    {
      "inputs": [],
      "name": "name",
      "outputs": [
        {
          "internalType": "string",
          "name": "",
          "type": "string"
        }
      ],
      "stateMutability": "view",
      "type": "function",
      "constant": true
    },
    {
      "inputs": [],
      "name": "owner",
      "outputs": [
        {
          "internalType": "address",
          "name": "",
          "type": "address"
        }
      ],
      "stateMutability": "view",
      "type": "function",
      "constant": true
    },
    {
      "inputs": [],
      "name": "rwd",
      "outputs": [
        {
          "internalType": "contract REW",
          "name": "",
          "type": "address"
        }
      ],
      "stateMutability": "view",
      "type": "function",
      "constant": true
    },
    {
      "inputs": [],
      "name": "tether",
      "outputs": [
        {
          "internalType": "contract Tether",
          "name": "",
          "type": "address"
        }
      ],
      "stateMutability": "view",
      "type": "function",
      "constant": true
    }
  ],
  "bytecode": "0x60c0604052600c60808190526b4a757374696e732042616e6b60a01b60a090815261002d916001919061008a565b5034801561003a57600080fd5b506040516103d33803806103d38339810160408190526100599161013b565b600380546001600160a01b039384166001600160a01b031991821617909155600280549290931691161790556101b0565b82805461009690610175565b90600052602060002090601f0160209004810192826100b857600085556100fe565b82601f106100d157805160ff19168380011785556100fe565b828001600101855582156100fe579182015b828111156100fe5782518255916020019190600101906100e3565b5061010a92915061010e565b5090565b5b8082111561010a576000815560010161010f565b6001600160a01b038116811461013857600080fd5b50565b6000806040838503121561014e57600080fd5b825161015981610123565b602084015190925061016a81610123565b809150509250929050565b600181811c9082168061018957607f821691505b602082108114156101aa57634e487b7160e01b600052602260045260246000fd5b50919050565b610214806101bf6000396000f3fe608060405234801561001057600080fd5b506004361061004c5760003560e01c806306fdde03146100515780631a8972d31461006f5780635efc071a1461009a5780638da5cb5b146100ad575b600080fd5b6100596100c0565b604051610066919061014e565b60405180910390f35b600354610082906001600160a01b031681565b6040516001600160a01b039091168152602001610066565b600254610082906001600160a01b031681565b600054610082906001600160a01b031681565b600180546100cd906101a3565b80601f01602080910402602001604051908101604052809291908181526020018280546100f9906101a3565b80156101465780601f1061011b57610100808354040283529160200191610146565b820191906000526020600020905b81548152906001019060200180831161012957829003601f168201915b505050505081565b600060208083528351808285015260005b8181101561017b5785810183015185820160400152820161015f565b8181111561018d576000604083870101525b50601f01601f1916929092016040019392505050565b600181811c908216806101b757607f821691505b602082108114156101d857634e487b7160e01b600052602260045260246000fd5b5091905056fea2646970667358221220c9d0f198583164a73a3825dfeb370a12d2174e09f65c12de67d08067aa4cfeed64736f6c63430008090033",
  "immutableReferences": {},
  "source": "pragma solidity ^0.8;\n\nimport \"./REW.sol\";\nimport \"./Tether.sol\";\n\ncontract DecentralBank {\n    address public owner;\n    string public name = \"Justins Bank\";\n    \n    Tether public tether;\n    REW public rwd;\n\n    constructor(REW _rew, Tether _tether) {\n        rwd = _rew;\n        tether = _tether;\n    }\n}",
  "sourcePath": "/home/justin/code/solidity-course/defi-staking-app-starter-main/defi-staking-app-starter/contracts/DecentralBank.sol",
  "compiler": {
    "name": "solc",
    "version": "0.8.9+commit.e5eed63a.Emscripten.clang"
  },
  "schemaVersion": "3.4.3",
  "updatedAt": "2021-10-18T17:45:51.562Z",
  "networkType": "ethereum",
  "devdoc": {
    "kind": "dev",
    "methods": {},
    "version": 1
  },
  "userdoc": {
    "kind": "user",
    "methods": {},
    "version": 1
  }
}