{
	"data": {
		"bytecode": {
			"linkReferences": {},
			"object": "608060405242600360006101000a81548160ff021916908360ff160217905550336000806101000a81548173ffffffffffffffffffffffffffffffffffffffff021916908373ffffffffffffffffffffffffffffffffffffffff1602179055506128778061006e6000396000f3fe6080604052600436106100705760003560e01c80637b83b50b1161004e5780637b83b50b146100d0578063d58d2ca9146100fb578063d65ab5f214610126578063dbdff2c11461013057610070565b80631a39e95f146100755780632f5be23e146100a25780636cbc2ded146100b9575b600080fd5b34801561008157600080fd5b5061008a61015b565b6040516100999392919061210e565b60405180910390f35b3480156100ae57600080fd5b506100b761022a565b005b3480156100c557600080fd5b506100ce610444565b005b3480156100dc57600080fd5b506100e5610926565b6040516100f2919061209a565b60405180910390f35b34801561010757600080fd5b506101106109bc565b60405161011d91906120b5565b60405180910390f35b61012e610a06565b005b34801561013c57600080fd5b50610145610fad565b60405161015291906120b5565b60405180910390f35b600080606060018060003373ffffffffffffffffffffffffffffffffffffffff1673ffffffffffffffffffffffffffffffffffffffff16815260200190815260200160002080549050116101e4576040517f08c379a00000000000000000000000000000000000000000000000000000000081526004016101db90611f3a565b60405180910390fd5b60008060006101f1610fbc565b9350935093505060008260018151811061020e5761020d612413565b5b6020026020010151905080848396509650965050505050909192565b60018060003373ffffffffffffffffffffffffffffffffffffffff1673ffffffffffffffffffffffffffffffffffffffff16815260200190815260200160002080549050116102ae576040517f08c379a00000000000000000000000000000000000000000000000000000000081526004016102a590611f3a565b60405180910390fd5b600160003373ffffffffffffffffffffffffffffffffffffffff1673ffffffffffffffffffffffffffffffffffffffff1681526020019081526020016000206102f56113da565b90806001815401808255809150506001900390600052602060002090602091828204019190069091909190916101000a81548160ff021916908360ff160217905550600080610342610fbc565b9350509250507f5b6662b301732467334bb4eaf29ff040364c7fb973a9c381ba6a359f7c7b7c18600160003373ffffffffffffffffffffffffffffffffffffffff1673ffffffffffffffffffffffffffffffffffffffff1681526020019081526020016000206001815481106103bb576103ba612413565b5b90600052602060002090602091828204019190069054906101000a900460ff1682846040516103ec939291906120d0565b60405180910390a16103fd8261146e565b15610440577fcf34ef537ac33ee1ac626ca1587a0a7e8e51561e5514f8cb36afa1c5102b3bab60405161042f90611f5a565b60405180910390a161043f610444565b5b5050565b60018060003373ffffffffffffffffffffffffffffffffffffffff1673ffffffffffffffffffffffffffffffffffffffff16815260200190815260200160002080549050116104c8576040517f08c379a00000000000000000000000000000000000000000000000000000000081526004016104bf90611f3a565b60405180910390fd5b6000806000806104d6610fbc565b93509350935093506104e78361146e565b6105de575b60118460ff16116105d95760006105016113da565b905060005b6000848260ff168151811061051e5761051d612413565b5b602002602001015160ff16146105415780806105399061233e565b915050610506565b81848260ff168151811061055857610557612413565b5b602002602001019060ff16908160ff168152505061057582611528565b9150600b8260ff1614156105c357601582876105919190612231565b60ff1611156105ae576001866105a79190612231565b95506105be565b600b866105bb9190612231565b95505b6105d2565b81866105cf9190612231565b95505b50506104ec565b6106bb565b60158360ff1614806105f3575060158360ff16115b6105fc57600080fd5b60158360ff161415610660577fb039550cbf8f052ce1f2a53fb806a14844ab67e392e47c471c0bd7be394c460b8282868660405161063d9493929190611ed4565b60405180910390a161064f6019611594565b610657611738565b50505050610924565b60158360ff1611156106ba577f332b058f086353df4a7191245668a08c23eecef4e775592630f9c0a3469934a1828286866040516106a19493929190611cd6565b60405180910390a16106b1611738565b50505050610924565b5b60158360ff1610610701576040517f08c379a00000000000000000000000000000000000000000000000000000000081526004016106f890611ffa565b60405180910390fd5b60118460ff161015610748576040517f08c379a000000000000000000000000000000000000000000000000000000000815260040161073f90611f7a565b60405180910390fd5b60158460ff1614156107a2577f332b058f086353df4a7191245668a08c23eecef4e775592630f9c0a3469934a1828286866040516107899493929190611e08565b60405180910390a1610799611738565b50505050610924565b60158460ff161115610806577fb039550cbf8f052ce1f2a53fb806a14844ab67e392e47c471c0bd7be394c460b828286866040516107e39493929190611e6e565b60405180910390a16107f56014611594565b6107fd611738565b50505050610924565b7fcf34ef537ac33ee1ac626ca1587a0a7e8e51561e5514f8cb36afa1c5102b3bab6040516108339061205a565b60405180910390a18360ff168360ff161115610895577fb039550cbf8f052ce1f2a53fb806a14844ab67e392e47c471c0bd7be394c460b8282868660405161087e9493929190611da2565b60405180910390a16108906014611594565b6108e2565b8260ff168460ff1611156108e1577f332b058f086353df4a7191245668a08c23eecef4e775592630f9c0a3469934a1828286866040516108d89493929190611d3c565b60405180910390a15b5b7fcf34ef537ac33ee1ac626ca1587a0a7e8e51561e5514f8cb36afa1c5102b3bab60405161090f90611fda565b60405180910390a161091f611738565b505050505b565b60003373ffffffffffffffffffffffffffffffffffffffff1660008054906101000a900473ffffffffffffffffffffffffffffffffffffffff1673ffffffffffffffffffffffffffffffffffffffff16146109b6576040517f08c379a00000000000000000000000000000000000000000000000000000000081526004016109ad90611f9a565b60405180910390fd5b47905090565b6000600160003373ffffffffffffffffffffffffffffffffffffffff1673ffffffffffffffffffffffffffffffffffffffff16815260200190815260200160002080549050905090565b6000600160003373ffffffffffffffffffffffffffffffffffffffff1673ffffffffffffffffffffffffffffffffffffffff1681526020019081526020016000208054905014610a8b576040517f08c379a0000000000000000000000000000000000000000000000000000000008152600401610a8290611fba565b60405180910390fd5b600034905060008111610ad3576040517f08c379a0000000000000000000000000000000000000000000000000000000008152600401610aca9061207a565b60405180910390fd5b600160003373ffffffffffffffffffffffffffffffffffffffff1673ffffffffffffffffffffffffffffffffffffffff168152602001908152602001600020610b1a6113da565b90806001815401808255809150506001900390600052602060002090602091828204019190069091909190916101000a81548160ff021916908360ff160217905550600160003373ffffffffffffffffffffffffffffffffffffffff1673ffffffffffffffffffffffffffffffffffffffff168152602001908152602001600020610ba36113da565b90806001815401808255809150506001900390600052602060002090602091828204019190069091909190916101000a81548160ff021916908360ff160217905550600160003373ffffffffffffffffffffffffffffffffffffffff1673ffffffffffffffffffffffffffffffffffffffff168152602001908152602001600020600090806001815401808255809150506001900390600052602060002090602091828204019190069091909190916101000a81548160ff021916908360ff160217905550600160003373ffffffffffffffffffffffffffffffffffffffff1673ffffffffffffffffffffffffffffffffffffffff168152602001908152602001600020610caf6113da565b90806001815401808255809150506001900390600052602060002090602091828204019190069091909190916101000a81548160ff021916908360ff160217905550600160003373ffffffffffffffffffffffffffffffffffffffff1673ffffffffffffffffffffffffffffffffffffffff168152602001908152602001600020610d386113da565b90806001815401808255809150506001900390600052602060002090602091828204019190069091909190916101000a81548160ff021916908360ff16021790555080600260003373ffffffffffffffffffffffffffffffffffffffff1673ffffffffffffffffffffffffffffffffffffffff168152602001908152602001600020819055506000610dc8610fbc565b50509150507fa444b0d8787b50f333af92a857d7dc0557190b21bd4e158224e0024cc9df02ff600160003373ffffffffffffffffffffffffffffffffffffffff1673ffffffffffffffffffffffffffffffffffffffff168152602001908152602001600020600181548110610e4057610e3f612413565b5b90600052602060002090602091828204019190069054906101000a900460ff16600160003373ffffffffffffffffffffffffffffffffffffffff1673ffffffffffffffffffffffffffffffffffffffff168152602001908152602001600020600381548110610eb257610eb1612413565b5b90600052602060002090602091828204019190069054906101000a900460ff16600160003373ffffffffffffffffffffffffffffffffffffffff1673ffffffffffffffffffffffffffffffffffffffff168152602001908152602001600020600481548110610f2457610f23612413565b5b90600052602060002090602091828204019190069054906101000a900460ff1684604051610f55949392919061214c565b60405180910390a1610f668161146e565b15610fa9577fcf34ef537ac33ee1ac626ca1587a0a7e8e51561e5514f8cb36afa1c5102b3bab604051610f9890611f5a565b60405180910390a1610fa8610444565b5b5050565b6000610fb76113da565b905090565b60008060608060018060003373ffffffffffffffffffffffffffffffffffffffff1673ffffffffffffffffffffffffffffffffffffffff1681526020019081526020016000208054905011611046576040517f08c379a000000000000000000000000000000000000000000000000000000000815260040161103d90611f3a565b60405180910390fd5b6000600160003373ffffffffffffffffffffffffffffffffffffffff1673ffffffffffffffffffffffffffffffffffffffff1681526020019081526020016000208054905067ffffffffffffffff8111156110a4576110a3612442565b5b6040519080825280602002602001820160405280156110d25781602001602082028036833780820191505090505b5090506000600160003373ffffffffffffffffffffffffffffffffffffffff1673ffffffffffffffffffffffffffffffffffffffff1681526020019081526020016000208054905067ffffffffffffffff81111561113357611132612442565b5b6040519080825280602002602001820160405280156111615781602001602082028036833780820191505090505b5090506000805b600160003373ffffffffffffffffffffffffffffffffffffffff1673ffffffffffffffffffffffffffffffffffffffff168152602001908152602001600020805490508160ff1610156113a8576000600160003373ffffffffffffffffffffffffffffffffffffffff1673ffffffffffffffffffffffffffffffffffffffff1681526020019081526020016000208260ff168154811061120b5761120a612413565b5b90600052602060002090602091828204019190069054906101000a900460ff1660ff16141561123d5760019150611395565b816112ed576112be600160003373ffffffffffffffffffffffffffffffffffffffff1673ffffffffffffffffffffffffffffffffffffffff1681526020019081526020016000208260ff168154811061129957611298612413565b5b90600052602060002090602091828204019190069054906101000a900460ff16611528565b838260ff16815181106112d4576112d3612413565b5b602002602001019060ff16908160ff1681525050611394565b611369600160003373ffffffffffffffffffffffffffffffffffffffff1673ffffffffffffffffffffffffffffffffffffffff1681526020019081526020016000208260ff168154811061134457611343612413565b5b90600052602060002090602091828204019190069054906101000a900460ff16611528565b848260ff168151811061137f5761137e612413565b5b602002602001019060ff16908160ff16815250505b5b80806113a09061233e565b915050611168565b5060006113b48361184c565b905060006113c18561184c565b9050818185879850985098509850505050505090919293565b6000806002600c44600360009054906101000a900460ff16604051602001611403929190611caa565b6040516020818303038152906040528051906020012060001c6114269190612384565b61143091906121db565b905080600360009054906101000a900460ff1661144d9190612231565b600360006101000a81548160ff021916908360ff1602179055508091505090565b600060018060003373ffffffffffffffffffffffffffffffffffffffff1673ffffffffffffffffffffffffffffffffffffffff16815260200190815260200160002080549050116114f4576040517f08c379a00000000000000000000000000000000000000000000000000000000081526004016114eb90611f3a565b60405180910390fd5b60158260ff1614156115095760019050611523565b60158260ff16111561151e5760019050611523565b600090505b919050565b60008160ff166002111580156115425750600a8260ff1611155b1561154f5781905061158f565b8160ff16600b111580156115675750600d8260ff1611155b1561157557600a905061158f565b600e8260ff16141561158a57600b905061158f565b600090505b919050565b60018060003373ffffffffffffffffffffffffffffffffffffffff1673ffffffffffffffffffffffffffffffffffffffff1681526020019081526020016000208054905011611618576040517f08c379a000000000000000000000000000000000000000000000000000000000815260040161160f90611f3a565b60405180910390fd5b7fcf34ef537ac33ee1ac626ca1587a0a7e8e51561e5514f8cb36afa1c5102b3bab6040516116459061203a565b60405180910390a16000600a8260ff16600260003373ffffffffffffffffffffffffffffffffffffffff1673ffffffffffffffffffffffffffffffffffffffff1681526020019081526020016000205461169f9190612299565b6116a99190612268565b90508047116116ed576040517f08c379a00000000000000000000000000000000000000000000000000000000081526004016116e49061201a565b60405180910390fd5b3373ffffffffffffffffffffffffffffffffffffffff166108fc829081150290604051600060405180830381858888f19350505050158015611733573d6000803e3d6000fd5b505050565b60018060003373ffffffffffffffffffffffffffffffffffffffff1673ffffffffffffffffffffffffffffffffffffffff16815260200190815260200160002080549050116117bc576040517f08c379a00000000000000000000000000000000000000000000000000000000081526004016117b390611f3a565b60405180910390fd5b600160003373ffffffffffffffffffffffffffffffffffffffff1673ffffffffffffffffffffffffffffffffffffffff16815260200190815260200160002060006118079190611941565b600260003373ffffffffffffffffffffffffffffffffffffffff1673ffffffffffffffffffffffffffffffffffffffff16815260200190815260200160002060009055565b600080600090506000805b84518160ff1610156118c7576000858260ff168151811061187b5761187a612413565b5b60200260200101519050600b8160ff1614156118a457838061189c9061233e565b9450506118b3565b80836118b09190612231565b92505b5080806118bf9061233e565b915050611857565b5060005b8260ff168160ff161015611936578260156118e691906122f3565b60ff16600b836118f69190612231565b60ff1611156119135760018261190c9190612231565b9150611923565b600b826119209190612231565b91505b808061192e9061233e565b9150506118cb565b508092505050919050565b50805460008255601f0160209004906000526020600020908101906119669190611969565b50565b5b8082111561198257600081600090555060010161196a565b5090565b60006119928383611c75565b60208301905092915050565b60006119a9826121a1565b6119b381856121b9565b93506119be83612191565b8060005b838110156119ef5781516119d68882611986565b97506119e1836121ac565b9250506001810190506119c2565b5085935050505092915050565b6000611a096041836121ca565b9150611a148261247e565b606082019050919050565b6000611a2c600f836121ca565b9150611a37826124f3565b602082019050919050565b6000611a4f6030836121ca565b9150611a5a8261251c565b604082019050919050565b6000611a726012836121ca565b9150611a7d8261256b565b602082019050919050565b6000611a956021836121ca565b9150611aa082612594565b604082019050919050565b6000611ab8601f836121ca565b9150611ac3826125e3565b602082019050919050565b6000611adb6020836121ca565b9150611ae68261260c565b602082019050919050565b6000611afe6015836121ca565b9150611b0982612635565b602082019050919050565b6000611b216021836121ca565b9150611b2c8261265e565b604082019050919050565b6000611b446022836121ca565b9150611b4f826126ad565b604082019050919050565b6000611b676035836121ca565b9150611b72826126fc565b604082019050919050565b6000611b8a6020836121ca565b9150611b958261274b565b602082019050919050565b6000611bad6014836121ca565b9150611bb882612774565b602082019050919050565b6000611bd06010836121ca565b9150611bdb8261279d565b602082019050919050565b6000611bf36020836121ca565b9150611bfe826127c6565b602082019050919050565b6000611c16601c836121ca565b9150611c21826127ef565b602082019050919050565b6000611c396015836121ca565b9150611c4482612818565b602082019050919050565b611c5881612327565b82525050565b611c6f611c6a82612327565b612368565b82525050565b611c7e81612331565b82525050565b611c8d81612331565b82525050565b611ca4611c9f82612331565b612372565b82525050565b6000611cb68285611c5e565b602082019150611cc68284611c93565b6001820191508190509392505050565b600060a0820190508181036000830152611cf0818761199e565b90508181036020830152611d04818661199e565b9050611d136040830185611c84565b611d206060830184611c84565b8181036080830152611d3181611a65565b905095945050505050565b600060a0820190508181036000830152611d56818761199e565b90508181036020830152611d6a818661199e565b9050611d796040830185611c84565b611d866060830184611c84565b8181036080830152611d9781611a88565b905095945050505050565b600060a0820190508181036000830152611dbc818761199e565b90508181036020830152611dd0818661199e565b9050611ddf6040830185611c84565b611dec6060830184611c84565b8181036080830152611dfd81611b14565b905095945050505050565b600060a0820190508181036000830152611e22818761199e565b90508181036020830152611e36818661199e565b9050611e456040830185611c84565b611e526060830184611c84565b8181036080830152611e6381611b37565b905095945050505050565b600060a0820190508181036000830152611e88818761199e565b90508181036020830152611e9c818661199e565b9050611eab6040830185611c84565b611eb86060830184611c84565b8181036080830152611ec981611be6565b905095945050505050565b600060a0820190508181036000830152611eee818761199e565b90508181036020830152611f02818661199e565b9050611f116040830185611c84565b611f1e6060830184611c84565b8181036080830152611f2f81611c2c565b905095945050505050565b60006020820190508181036000830152611f53816119fc565b9050919050565b60006020820190508181036000830152611f7381611a1f565b9050919050565b60006020820190508181036000830152611f9381611a42565b9050919050565b60006020820190508181036000830152611fb381611aab565b9050919050565b60006020820190508181036000830152611fd381611ace565b9050919050565b60006020820190508181036000830152611ff381611af1565b9050919050565b6000602082019050818103600083015261201381611b5a565b9050919050565b6000602082019050818103600083015261203381611b7d565b9050919050565b6000602082019050818103600083015261205381611ba0565b9050919050565b6000602082019050818103600083015261207381611bc3565b9050919050565b6000602082019050818103600083015261209381611c09565b9050919050565b60006020820190506120af6000830184611c4f565b92915050565b60006020820190506120ca6000830184611c84565b92915050565b60006060820190506120e56000830186611c84565b81810360208301526120f7818561199e565b90506121066040830184611c84565b949350505050565b60006060820190506121236000830186611c84565b6121306020830185611c84565b8181036040830152612142818461199e565b9050949350505050565b60006080820190506121616000830187611c84565b61216e6020830186611c84565b61217b6040830185611c84565b6121886060830184611c84565b95945050505050565b6000819050602082019050919050565b600081519050919050565b6000602082019050919050565b600082825260208201905092915050565b600082825260208201905092915050565b60006121e682612327565b91506121f183612327565b9250827fffffffffffffffffffffffffffffffffffffffffffffffffffffffffffffffff03821115612226576122256123b5565b5b828201905092915050565b600061223c82612331565b915061224783612331565b92508260ff0382111561225d5761225c6123b5565b5b828201905092915050565b600061227382612327565b915061227e83612327565b92508261228e5761228d6123e4565b5b828204905092915050565b60006122a482612327565b91506122af83612327565b9250817fffffffffffffffffffffffffffffffffffffffffffffffffffffffffffffffff04831182151516156122e8576122e76123b5565b5b828202905092915050565b60006122fe82612331565b915061230983612331565b92508282101561231c5761231b6123b5565b5b828203905092915050565b6000819050919050565b600060ff82169050919050565b600061234982612331565b915060ff82141561235d5761235c6123b5565b5b600182019050919050565b6000819050919050565b600061237d82612471565b9050919050565b600061238f82612327565b915061239a83612327565b9250826123aa576123a96123e4565b5b828206905092915050565b7f4e487b7100000000000000000000000000000000000000000000000000000000600052601160045260246000fd5b7f4e487b7100000000000000000000000000000000000000000000000000000000600052601260045260246000fd5b7f4e487b7100000000000000000000000000000000000000000000000000000000600052603260045260246000fd5b7f4e487b7100000000000000000000000000000000000000000000000000000000600052604160045260246000fd5b60008160f81b9050919050565b7f796f75206e65656420746f206861766520612067616d652072756e6e696e672060008201527f746f2072756e20746869732e20706c656173652072756e20737461727447616d60208201527f6500000000000000000000000000000000000000000000000000000000000000604082015250565b7f666f7263696e6720656e6467616d650000000000000000000000000000000000600082015250565b7f6465616c65722073686f756c642068617665206174206c656173742031372e2060008201527f73686f756c646e742068617070656e2100000000000000000000000000000000602082015250565b7f706c617965722069732061626f76652032310000000000000000000000000000600082015250565b7f6465616c657220686173206869676865722073756d207468616e20706c61796560008201527f7200000000000000000000000000000000000000000000000000000000000000602082015250565b7f63616e206f6e6c792062652063616c6c656420627920746865206f776e657200600082015250565b7f6f6e6c79206f6e652067616d6520616c6c6f7765642070657220706c61796572600082015250565b7f726573657474696e672067616d65206e6f772e2e2e0000000000000000000000600082015250565b7f706c6179657220686173206869676865722073756d207468616e206465616c6560008201527f7200000000000000000000000000000000000000000000000000000000000000602082015250565b7f6465616c6572206861732032312e20706c61796572206c657373207468616e2060008201527f3231000000000000000000000000000000000000000000000000000000000000602082015250565b7f706c617965724361726453756d2069732061626f7665206f7220657175616c2060008201527f32312c2073686f756c646e27742068617070656e210000000000000000000000602082015250565b7f6f686f682c2062616e6b20686173206e6f7420656e6f75676820636124484848600082015250565b7f747279696e6720746f207061796f7574202e2e2e000000000000000000000000600082015250565b7f746865207365636f6e6420636173652000000000000000000000000000000000600082015250565b7f6465616c65722069732061626f76652032312c20706c617965722062656c6f77600082015250565b7f796f75206861766520746f2062657420736f6d657468696e672e2e2e00000000600082015250565b7f706c61796572206861732065786163746c79203231000000000000000000000060008201525056fea2646970667358221220a779391fe1d6acef6c84b4dfa700e8c1d2ff36a0d8e57a712556c65123a20a0d64736f6c63430008070033",
			"opcodes": "PUSH1 0x80 PUSH1 0x40 MSTORE TIMESTAMP PUSH1 0x3 PUSH1 0x0 PUSH2 0x100 EXP DUP2 SLOAD DUP2 PUSH1 0xFF MUL NOT AND SWAP1 DUP4 PUSH1 0xFF AND MUL OR SWAP1 SSTORE POP CALLER PUSH1 0x0 DUP1 PUSH2 0x100 EXP DUP2 SLOAD DUP2 PUSH20 0xFFFFFFFFFFFFFFFFFFFFFFFFFFFFFFFFFFFFFFFF MUL NOT AND SWAP1 DUP4 PUSH20 0xFFFFFFFFFFFFFFFFFFFFFFFFFFFFFFFFFFFFFFFF AND MUL OR SWAP1 SSTORE POP PUSH2 0x2877 DUP1 PUSH2 0x6E PUSH1 0x0 CODECOPY PUSH1 0x0 RETURN INVALID PUSH1 0x80 PUSH1 0x40 MSTORE PUSH1 0x4 CALLDATASIZE LT PUSH2 0x70 JUMPI PUSH1 0x0 CALLDATALOAD PUSH1 0xE0 SHR DUP1 PUSH4 0x7B83B50B GT PUSH2 0x4E JUMPI DUP1 PUSH4 0x7B83B50B EQ PUSH2 0xD0 JUMPI DUP1 PUSH4 0xD58D2CA9 EQ PUSH2 0xFB JUMPI DUP1 PUSH4 0xD65AB5F2 EQ PUSH2 0x126 JUMPI DUP1 PUSH4 0xDBDFF2C1 EQ PUSH2 0x130 JUMPI PUSH2 0x70 JUMP JUMPDEST DUP1 PUSH4 0x1A39E95F EQ PUSH2 0x75 JUMPI DUP1 PUSH4 0x2F5BE23E EQ PUSH2 0xA2 JUMPI DUP1 PUSH4 0x6CBC2DED EQ PUSH2 0xB9 JUMPI JUMPDEST PUSH1 0x0 DUP1 REVERT JUMPDEST CALLVALUE DUP1 ISZERO PUSH2 0x81 JUMPI PUSH1 0x0 DUP1 REVERT JUMPDEST POP PUSH2 0x8A PUSH2 0x15B JUMP JUMPDEST PUSH1 0x40 MLOAD PUSH2 0x99 SWAP4 SWAP3 SWAP2 SWAP1 PUSH2 0x210E JUMP JUMPDEST PUSH1 0x40 MLOAD DUP1 SWAP2 SUB SWAP1 RETURN JUMPDEST CALLVALUE DUP1 ISZERO PUSH2 0xAE JUMPI PUSH1 0x0 DUP1 REVERT JUMPDEST POP PUSH2 0xB7 PUSH2 0x22A JUMP JUMPDEST STOP JUMPDEST CALLVALUE DUP1 ISZERO PUSH2 0xC5 JUMPI PUSH1 0x0 DUP1 REVERT JUMPDEST POP PUSH2 0xCE PUSH2 0x444 JUMP JUMPDEST STOP JUMPDEST CALLVALUE DUP1 ISZERO PUSH2 0xDC JUMPI PUSH1 0x0 DUP1 REVERT JUMPDEST POP PUSH2 0xE5 PUSH2 0x926 JUMP JUMPDEST PUSH1 0x40 MLOAD PUSH2 0xF2 SWAP2 SWAP1 PUSH2 0x209A JUMP JUMPDEST PUSH1 0x40 MLOAD DUP1 SWAP2 SUB SWAP1 RETURN JUMPDEST CALLVALUE DUP1 ISZERO PUSH2 0x107 JUMPI PUSH1 0x0 DUP1 REVERT JUMPDEST POP PUSH2 0x110 PUSH2 0x9BC JUMP JUMPDEST PUSH1 0x40 MLOAD PUSH2 0x11D SWAP2 SWAP1 PUSH2 0x20B5 JUMP JUMPDEST PUSH1 0x40 MLOAD DUP1 SWAP2 SUB SWAP1 RETURN JUMPDEST PUSH2 0x12E PUSH2 0xA06 JUMP JUMPDEST STOP JUMPDEST CALLVALUE DUP1 ISZERO PUSH2 0x13C JUMPI PUSH1 0x0 DUP1 REVERT JUMPDEST POP PUSH2 0x145 PUSH2 0xFAD JUMP JUMPDEST PUSH1 0x40 MLOAD PUSH2 0x152 SWAP2 SWAP1 PUSH2 0x20B5 JUMP JUMPDEST PUSH1 0x40 MLOAD DUP1 SWAP2 SUB SWAP1 RETURN JUMPDEST PUSH1 0x0 DUP1 PUSH1 0x60 PUSH1 0x1 DUP1 PUSH1 0x0 CALLER PUSH20 0xFFFFFFFFFFFFFFFFFFFFFFFFFFFFFFFFFFFFFFFF AND PUSH20 0xFFFFFFFFFFFFFFFFFFFFFFFFFFFFFFFFFFFFFFFF AND DUP2 MSTORE PUSH1 0x20 ADD SWAP1 DUP2 MSTORE PUSH1 0x20 ADD PUSH1 0x0 KECCAK256 DUP1 SLOAD SWAP1 POP GT PUSH2 0x1E4 JUMPI PUSH1 0x40 MLOAD PUSH32 0x8C379A000000000000000000000000000000000000000000000000000000000 DUP2 MSTORE PUSH1 0x4 ADD PUSH2 0x1DB SWAP1 PUSH2 0x1F3A JUMP JUMPDEST PUSH1 0x40 MLOAD DUP1 SWAP2 SUB SWAP1 REVERT JUMPDEST PUSH1 0x0 DUP1 PUSH1 0x0 PUSH2 0x1F1 PUSH2 0xFBC JUMP JUMPDEST SWAP4 POP SWAP4 POP SWAP4 POP POP PUSH1 0x0 DUP3 PUSH1 0x1 DUP2 MLOAD DUP2 LT PUSH2 0x20E JUMPI PUSH2 0x20D PUSH2 0x2413 JUMP JUMPDEST JUMPDEST PUSH1 0x20 MUL PUSH1 0x20 ADD ADD MLOAD SWAP1 POP DUP1 DUP5 DUP4 SWAP7 POP SWAP7 POP SWAP7 POP POP POP POP POP SWAP1 SWAP2 SWAP3 JUMP JUMPDEST PUSH1 0x1 DUP1 PUSH1 0x0 CALLER PUSH20 0xFFFFFFFFFFFFFFFFFFFFFFFFFFFFFFFFFFFFFFFF AND PUSH20 0xFFFFFFFFFFFFFFFFFFFFFFFFFFFFFFFFFFFFFFFF AND DUP2 MSTORE PUSH1 0x20 ADD SWAP1 DUP2 MSTORE PUSH1 0x20 ADD PUSH1 0x0 KECCAK256 DUP1 SLOAD SWAP1 POP GT PUSH2 0x2AE JUMPI PUSH1 0x40 MLOAD PUSH32 0x8C379A000000000000000000000000000000000000000000000000000000000 DUP2 MSTORE PUSH1 0x4 ADD PUSH2 0x2A5 SWAP1 PUSH2 0x1F3A JUMP JUMPDEST PUSH1 0x40 MLOAD DUP1 SWAP2 SUB SWAP1 REVERT JUMPDEST PUSH1 0x1 PUSH1 0x0 CALLER PUSH20 0xFFFFFFFFFFFFFFFFFFFFFFFFFFFFFFFFFFFFFFFF AND PUSH20 0xFFFFFFFFFFFFFFFFFFFFFFFFFFFFFFFFFFFFFFFF AND DUP2 MSTORE PUSH1 0x20 ADD SWAP1 DUP2 MSTORE PUSH1 0x20 ADD PUSH1 0x0 KECCAK256 PUSH2 0x2F5 PUSH2 0x13DA JUMP JUMPDEST SWAP1 DUP1 PUSH1 0x1 DUP2 SLOAD ADD DUP1 DUP3 SSTORE DUP1 SWAP2 POP POP PUSH1 0x1 SWAP1 SUB SWAP1 PUSH1 0x0 MSTORE PUSH1 0x20 PUSH1 0x0 KECCAK256 SWAP1 PUSH1 0x20 SWAP2 DUP3 DUP3 DIV ADD SWAP2 SWAP1 MOD SWAP1 SWAP2 SWAP1 SWAP2 SWAP1 SWAP2 PUSH2 0x100 EXP DUP2 SLOAD DUP2 PUSH1 0xFF MUL NOT AND SWAP1 DUP4 PUSH1 0xFF AND MUL OR SWAP1 SSTORE POP PUSH1 0x0 DUP1 PUSH2 0x342 PUSH2 0xFBC JUMP JUMPDEST SWAP4 POP POP SWAP3 POP POP PUSH32 0x5B6662B301732467334BB4EAF29FF040364C7FB973A9C381BA6A359F7C7B7C18 PUSH1 0x1 PUSH1 0x0 CALLER PUSH20 0xFFFFFFFFFFFFFFFFFFFFFFFFFFFFFFFFFFFFFFFF AND PUSH20 0xFFFFFFFFFFFFFFFFFFFFFFFFFFFFFFFFFFFFFFFF AND DUP2 MSTORE PUSH1 0x20 ADD SWAP1 DUP2 MSTORE PUSH1 0x20 ADD PUSH1 0x0 KECCAK256 PUSH1 0x1 DUP2 SLOAD DUP2 LT PUSH2 0x3BB JUMPI PUSH2 0x3BA PUSH2 0x2413 JUMP JUMPDEST JUMPDEST SWAP1 PUSH1 0x0 MSTORE PUSH1 0x20 PUSH1 0x0 KECCAK256 SWAP1 PUSH1 0x20 SWAP2 DUP3 DUP3 DIV ADD SWAP2 SWAP1 MOD SWAP1 SLOAD SWAP1 PUSH2 0x100 EXP SWAP1 DIV PUSH1 0xFF AND DUP3 DUP5 PUSH1 0x40 MLOAD PUSH2 0x3EC SWAP4 SWAP3 SWAP2 SWAP1 PUSH2 0x20D0 JUMP JUMPDEST PUSH1 0x40 MLOAD DUP1 SWAP2 SUB SWAP1 LOG1 PUSH2 0x3FD DUP3 PUSH2 0x146E JUMP JUMPDEST ISZERO PUSH2 0x440 JUMPI PUSH32 0xCF34EF537AC33EE1AC626CA1587A0A7E8E51561E5514F8CB36AFA1C5102B3BAB PUSH1 0x40 MLOAD PUSH2 0x42F SWAP1 PUSH2 0x1F5A JUMP JUMPDEST PUSH1 0x40 MLOAD DUP1 SWAP2 SUB SWAP1 LOG1 PUSH2 0x43F PUSH2 0x444 JUMP JUMPDEST JUMPDEST POP POP JUMP JUMPDEST PUSH1 0x1 DUP1 PUSH1 0x0 CALLER PUSH20 0xFFFFFFFFFFFFFFFFFFFFFFFFFFFFFFFFFFFFFFFF AND PUSH20 0xFFFFFFFFFFFFFFFFFFFFFFFFFFFFFFFFFFFFFFFF AND DUP2 MSTORE PUSH1 0x20 ADD SWAP1 DUP2 MSTORE PUSH1 0x20 ADD PUSH1 0x0 KECCAK256 DUP1 SLOAD SWAP1 POP GT PUSH2 0x4C8 JUMPI PUSH1 0x40 MLOAD PUSH32 0x8C379A000000000000000000000000000000000000000000000000000000000 DUP2 MSTORE PUSH1 0x4 ADD PUSH2 0x4BF SWAP1 PUSH2 0x1F3A JUMP JUMPDEST PUSH1 0x40 MLOAD DUP1 SWAP2 SUB SWAP1 REVERT JUMPDEST PUSH1 0x0 DUP1 PUSH1 0x0 DUP1 PUSH2 0x4D6 PUSH2 0xFBC JUMP JUMPDEST SWAP4 POP SWAP4 POP SWAP4 POP SWAP4 POP PUSH2 0x4E7 DUP4 PUSH2 0x146E JUMP JUMPDEST PUSH2 0x5DE JUMPI JUMPDEST PUSH1 0x11 DUP5 PUSH1 0xFF AND GT PUSH2 0x5D9 JUMPI PUSH1 0x0 PUSH2 0x501 PUSH2 0x13DA JUMP JUMPDEST SWAP1 POP PUSH1 0x0 JUMPDEST PUSH1 0x0 DUP5 DUP3 PUSH1 0xFF AND DUP2 MLOAD DUP2 LT PUSH2 0x51E JUMPI PUSH2 0x51D PUSH2 0x2413 JUMP JUMPDEST JUMPDEST PUSH1 0x20 MUL PUSH1 0x20 ADD ADD MLOAD PUSH1 0xFF AND EQ PUSH2 0x541 JUMPI DUP1 DUP1 PUSH2 0x539 SWAP1 PUSH2 0x233E JUMP JUMPDEST SWAP2 POP POP PUSH2 0x506 JUMP JUMPDEST DUP2 DUP5 DUP3 PUSH1 0xFF AND DUP2 MLOAD DUP2 LT PUSH2 0x558 JUMPI PUSH2 0x557 PUSH2 0x2413 JUMP JUMPDEST JUMPDEST PUSH1 0x20 MUL PUSH1 0x20 ADD ADD SWAP1 PUSH1 0xFF AND SWAP1 DUP2 PUSH1 0xFF AND DUP2 MSTORE POP POP PUSH2 0x575 DUP3 PUSH2 0x1528 JUMP JUMPDEST SWAP2 POP PUSH1 0xB DUP3 PUSH1 0xFF AND EQ ISZERO PUSH2 0x5C3 JUMPI PUSH1 0x15 DUP3 DUP8 PUSH2 0x591 SWAP2 SWAP1 PUSH2 0x2231 JUMP JUMPDEST PUSH1 0xFF AND GT ISZERO PUSH2 0x5AE JUMPI PUSH1 0x1 DUP7 PUSH2 0x5A7 SWAP2 SWAP1 PUSH2 0x2231 JUMP JUMPDEST SWAP6 POP PUSH2 0x5BE JUMP JUMPDEST PUSH1 0xB DUP7 PUSH2 0x5BB SWAP2 SWAP1 PUSH2 0x2231 JUMP JUMPDEST SWAP6 POP JUMPDEST PUSH2 0x5D2 JUMP JUMPDEST DUP2 DUP7 PUSH2 0x5CF SWAP2 SWAP1 PUSH2 0x2231 JUMP JUMPDEST SWAP6 POP JUMPDEST POP POP PUSH2 0x4EC JUMP JUMPDEST PUSH2 0x6BB JUMP JUMPDEST PUSH1 0x15 DUP4 PUSH1 0xFF AND EQ DUP1 PUSH2 0x5F3 JUMPI POP PUSH1 0x15 DUP4 PUSH1 0xFF AND GT JUMPDEST PUSH2 0x5FC JUMPI PUSH1 0x0 DUP1 REVERT JUMPDEST PUSH1 0x15 DUP4 PUSH1 0xFF AND EQ ISZERO PUSH2 0x660 JUMPI PUSH32 0xB039550CBF8F052CE1F2A53FB806A14844AB67E392E47C471C0BD7BE394C460B DUP3 DUP3 DUP7 DUP7 PUSH1 0x40 MLOAD PUSH2 0x63D SWAP5 SWAP4 SWAP3 SWAP2 SWAP1 PUSH2 0x1ED4 JUMP JUMPDEST PUSH1 0x40 MLOAD DUP1 SWAP2 SUB SWAP1 LOG1 PUSH2 0x64F PUSH1 0x19 PUSH2 0x1594 JUMP JUMPDEST PUSH2 0x657 PUSH2 0x1738 JUMP JUMPDEST POP POP POP POP PUSH2 0x924 JUMP JUMPDEST PUSH1 0x15 DUP4 PUSH1 0xFF AND GT ISZERO PUSH2 0x6BA JUMPI PUSH32 0x332B058F086353DF4A7191245668A08C23EECEF4E775592630F9C0A3469934A1 DUP3 DUP3 DUP7 DUP7 PUSH1 0x40 MLOAD PUSH2 0x6A1 SWAP5 SWAP4 SWAP3 SWAP2 SWAP1 PUSH2 0x1CD6 JUMP JUMPDEST PUSH1 0x40 MLOAD DUP1 SWAP2 SUB SWAP1 LOG1 PUSH2 0x6B1 PUSH2 0x1738 JUMP JUMPDEST POP POP POP POP PUSH2 0x924 JUMP JUMPDEST JUMPDEST PUSH1 0x15 DUP4 PUSH1 0xFF AND LT PUSH2 0x701 JUMPI PUSH1 0x40 MLOAD PUSH32 0x8C379A000000000000000000000000000000000000000000000000000000000 DUP2 MSTORE PUSH1 0x4 ADD PUSH2 0x6F8 SWAP1 PUSH2 0x1FFA JUMP JUMPDEST PUSH1 0x40 MLOAD DUP1 SWAP2 SUB SWAP1 REVERT JUMPDEST PUSH1 0x11 DUP5 PUSH1 0xFF AND LT ISZERO PUSH2 0x748 JUMPI PUSH1 0x40 MLOAD PUSH32 0x8C379A000000000000000000000000000000000000000000000000000000000 DUP2 MSTORE PUSH1 0x4 ADD PUSH2 0x73F SWAP1 PUSH2 0x1F7A JUMP JUMPDEST PUSH1 0x40 MLOAD DUP1 SWAP2 SUB SWAP1 REVERT JUMPDEST PUSH1 0x15 DUP5 PUSH1 0xFF AND EQ ISZERO PUSH2 0x7A2 JUMPI PUSH32 0x332B058F086353DF4A7191245668A08C23EECEF4E775592630F9C0A3469934A1 DUP3 DUP3 DUP7 DUP7 PUSH1 0x40 MLOAD PUSH2 0x789 SWAP5 SWAP4 SWAP3 SWAP2 SWAP1 PUSH2 0x1E08 JUMP JUMPDEST PUSH1 0x40 MLOAD DUP1 SWAP2 SUB SWAP1 LOG1 PUSH2 0x799 PUSH2 0x1738 JUMP JUMPDEST POP POP POP POP PUSH2 0x924 JUMP JUMPDEST PUSH1 0x15 DUP5 PUSH1 0xFF AND GT ISZERO PUSH2 0x806 JUMPI PUSH32 0xB039550CBF8F052CE1F2A53FB806A14844AB67E392E47C471C0BD7BE394C460B DUP3 DUP3 DUP7 DUP7 PUSH1 0x40 MLOAD PUSH2 0x7E3 SWAP5 SWAP4 SWAP3 SWAP2 SWAP1 PUSH2 0x1E6E JUMP JUMPDEST PUSH1 0x40 MLOAD DUP1 SWAP2 SUB SWAP1 LOG1 PUSH2 0x7F5 PUSH1 0x14 PUSH2 0x1594 JUMP JUMPDEST PUSH2 0x7FD PUSH2 0x1738 JUMP JUMPDEST POP POP POP POP PUSH2 0x924 JUMP JUMPDEST PUSH32 0xCF34EF537AC33EE1AC626CA1587A0A7E8E51561E5514F8CB36AFA1C5102B3BAB PUSH1 0x40 MLOAD PUSH2 0x833 SWAP1 PUSH2 0x205A JUMP JUMPDEST PUSH1 0x40 MLOAD DUP1 SWAP2 SUB SWAP1 LOG1 DUP4 PUSH1 0xFF AND DUP4 PUSH1 0xFF AND GT ISZERO PUSH2 0x895 JUMPI PUSH32 0xB039550CBF8F052CE1F2A53FB806A14844AB67E392E47C471C0BD7BE394C460B DUP3 DUP3 DUP7 DUP7 PUSH1 0x40 MLOAD PUSH2 0x87E SWAP5 SWAP4 SWAP3 SWAP2 SWAP1 PUSH2 0x1DA2 JUMP JUMPDEST PUSH1 0x40 MLOAD DUP1 SWAP2 SUB SWAP1 LOG1 PUSH2 0x890 PUSH1 0x14 PUSH2 0x1594 JUMP JUMPDEST PUSH2 0x8E2 JUMP JUMPDEST DUP3 PUSH1 0xFF AND DUP5 PUSH1 0xFF AND GT ISZERO PUSH2 0x8E1 JUMPI PUSH32 0x332B058F086353DF4A7191245668A08C23EECEF4E775592630F9C0A3469934A1 DUP3 DUP3 DUP7 DUP7 PUSH1 0x40 MLOAD PUSH2 0x8D8 SWAP5 SWAP4 SWAP3 SWAP2 SWAP1 PUSH2 0x1D3C JUMP JUMPDEST PUSH1 0x40 MLOAD DUP1 SWAP2 SUB SWAP1 LOG1 JUMPDEST JUMPDEST PUSH32 0xCF34EF537AC33EE1AC626CA1587A0A7E8E51561E5514F8CB36AFA1C5102B3BAB PUSH1 0x40 MLOAD PUSH2 0x90F SWAP1 PUSH2 0x1FDA JUMP JUMPDEST PUSH1 0x40 MLOAD DUP1 SWAP2 SUB SWAP1 LOG1 PUSH2 0x91F PUSH2 0x1738 JUMP JUMPDEST POP POP POP POP JUMPDEST JUMP JUMPDEST PUSH1 0x0 CALLER PUSH20 0xFFFFFFFFFFFFFFFFFFFFFFFFFFFFFFFFFFFFFFFF AND PUSH1 0x0 DUP1 SLOAD SWAP1 PUSH2 0x100 EXP SWAP1 DIV PUSH20 0xFFFFFFFFFFFFFFFFFFFFFFFFFFFFFFFFFFFFFFFF AND PUSH20 0xFFFFFFFFFFFFFFFFFFFFFFFFFFFFFFFFFFFFFFFF AND EQ PUSH2 0x9B6 JUMPI PUSH1 0x40 MLOAD PUSH32 0x8C379A000000000000000000000000000000000000000000000000000000000 DUP2 MSTORE PUSH1 0x4 ADD PUSH2 0x9AD SWAP1 PUSH2 0x1F9A JUMP JUMPDEST PUSH1 0x40 MLOAD DUP1 SWAP2 SUB SWAP1 REVERT JUMPDEST SELFBALANCE SWAP1 POP SWAP1 JUMP JUMPDEST PUSH1 0x0 PUSH1 0x1 PUSH1 0x0 CALLER PUSH20 0xFFFFFFFFFFFFFFFFFFFFFFFFFFFFFFFFFFFFFFFF AND PUSH20 0xFFFFFFFFFFFFFFFFFFFFFFFFFFFFFFFFFFFFFFFF AND DUP2 MSTORE PUSH1 0x20 ADD SWAP1 DUP2 MSTORE PUSH1 0x20 ADD PUSH1 0x0 KECCAK256 DUP1 SLOAD SWAP1 POP SWAP1 POP SWAP1 JUMP JUMPDEST PUSH1 0x0 PUSH1 0x1 PUSH1 0x0 CALLER PUSH20 0xFFFFFFFFFFFFFFFFFFFFFFFFFFFFFFFFFFFFFFFF AND PUSH20 0xFFFFFFFFFFFFFFFFFFFFFFFFFFFFFFFFFFFFFFFF AND DUP2 MSTORE PUSH1 0x20 ADD SWAP1 DUP2 MSTORE PUSH1 0x20 ADD PUSH1 0x0 KECCAK256 DUP1 SLOAD SWAP1 POP EQ PUSH2 0xA8B JUMPI PUSH1 0x40 MLOAD PUSH32 0x8C379A000000000000000000000000000000000000000000000000000000000 DUP2 MSTORE PUSH1 0x4 ADD PUSH2 0xA82 SWAP1 PUSH2 0x1FBA JUMP JUMPDEST PUSH1 0x40 MLOAD DUP1 SWAP2 SUB SWAP1 REVERT JUMPDEST PUSH1 0x0 CALLVALUE SWAP1 POP PUSH1 0x0 DUP2 GT PUSH2 0xAD3 JUMPI PUSH1 0x40 MLOAD PUSH32 0x8C379A000000000000000000000000000000000000000000000000000000000 DUP2 MSTORE PUSH1 0x4 ADD PUSH2 0xACA SWAP1 PUSH2 0x207A JUMP JUMPDEST PUSH1 0x40 MLOAD DUP1 SWAP2 SUB SWAP1 REVERT JUMPDEST PUSH1 0x1 PUSH1 0x0 CALLER PUSH20 0xFFFFFFFFFFFFFFFFFFFFFFFFFFFFFFFFFFFFFFFF AND PUSH20 0xFFFFFFFFFFFFFFFFFFFFFFFFFFFFFFFFFFFFFFFF AND DUP2 MSTORE PUSH1 0x20 ADD SWAP1 DUP2 MSTORE PUSH1 0x20 ADD PUSH1 0x0 KECCAK256 PUSH2 0xB1A PUSH2 0x13DA JUMP JUMPDEST SWAP1 DUP1 PUSH1 0x1 DUP2 SLOAD ADD DUP1 DUP3 SSTORE DUP1 SWAP2 POP POP PUSH1 0x1 SWAP1 SUB SWAP1 PUSH1 0x0 MSTORE PUSH1 0x20 PUSH1 0x0 KECCAK256 SWAP1 PUSH1 0x20 SWAP2 DUP3 DUP3 DIV ADD SWAP2 SWAP1 MOD SWAP1 SWAP2 SWAP1 SWAP2 SWAP1 SWAP2 PUSH2 0x100 EXP DUP2 SLOAD DUP2 PUSH1 0xFF MUL NOT AND SWAP1 DUP4 PUSH1 0xFF AND MUL OR SWAP1 SSTORE POP PUSH1 0x1 PUSH1 0x0 CALLER PUSH20 0xFFFFFFFFFFFFFFFFFFFFFFFFFFFFFFFFFFFFFFFF AND PUSH20 0xFFFFFFFFFFFFFFFFFFFFFFFFFFFFFFFFFFFFFFFF AND DUP2 MSTORE PUSH1 0x20 ADD SWAP1 DUP2 MSTORE PUSH1 0x20 ADD PUSH1 0x0 KECCAK256 PUSH2 0xBA3 PUSH2 0x13DA JUMP JUMPDEST SWAP1 DUP1 PUSH1 0x1 DUP2 SLOAD ADD DUP1 DUP3 SSTORE DUP1 SWAP2 POP POP PUSH1 0x1 SWAP1 SUB SWAP1 PUSH1 0x0 MSTORE PUSH1 0x20 PUSH1 0x0 KECCAK256 SWAP1 PUSH1 0x20 SWAP2 DUP3 DUP3 DIV ADD SWAP2 SWAP1 MOD SWAP1 SWAP2 SWAP1 SWAP2 SWAP1 SWAP2 PUSH2 0x100 EXP DUP2 SLOAD DUP2 PUSH1 0xFF MUL NOT AND SWAP1 DUP4 PUSH1 0xFF AND MUL OR SWAP1 SSTORE POP PUSH1 0x1 PUSH1 0x0 CALLER PUSH20 0xFFFFFFFFFFFFFFFFFFFFFFFFFFFFFFFFFFFFFFFF AND PUSH20 0xFFFFFFFFFFFFFFFFFFFFFFFFFFFFFFFFFFFFFFFF AND DUP2 MSTORE PUSH1 0x20 ADD SWAP1 DUP2 MSTORE PUSH1 0x20 ADD PUSH1 0x0 KECCAK256 PUSH1 0x0 SWAP1 DUP1 PUSH1 0x1 DUP2 SLOAD ADD DUP1 DUP3 SSTORE DUP1 SWAP2 POP POP PUSH1 0x1 SWAP1 SUB SWAP1 PUSH1 0x0 MSTORE PUSH1 0x20 PUSH1 0x0 KECCAK256 SWAP1 PUSH1 0x20 SWAP2 DUP3 DUP3 DIV ADD SWAP2 SWAP1 MOD SWAP1 SWAP2 SWAP1 SWAP2 SWAP1 SWAP2 PUSH2 0x100 EXP DUP2 SLOAD DUP2 PUSH1 0xFF MUL NOT AND SWAP1 DUP4 PUSH1 0xFF AND MUL OR SWAP1 SSTORE POP PUSH1 0x1 PUSH1 0x0 CALLER PUSH20 0xFFFFFFFFFFFFFFFFFFFFFFFFFFFFFFFFFFFFFFFF AND PUSH20 0xFFFFFFFFFFFFFFFFFFFFFFFFFFFFFFFFFFFFFFFF AND DUP2 MSTORE PUSH1 0x20 ADD SWAP1 DUP2 MSTORE PUSH1 0x20 ADD PUSH1 0x0 KECCAK256 PUSH2 0xCAF PUSH2 0x13DA JUMP JUMPDEST SWAP1 DUP1 PUSH1 0x1 DUP2 SLOAD ADD DUP1 DUP3 SSTORE DUP1 SWAP2 POP POP PUSH1 0x1 SWAP1 SUB SWAP1 PUSH1 0x0 MSTORE PUSH1 0x20 PUSH1 0x0 KECCAK256 SWAP1 PUSH1 0x20 SWAP2 DUP3 DUP3 DIV ADD SWAP2 SWAP1 MOD SWAP1 SWAP2 SWAP1 SWAP2 SWAP1 SWAP2 PUSH2 0x100 EXP DUP2 SLOAD DUP2 PUSH1 0xFF MUL NOT AND SWAP1 DUP4 PUSH1 0xFF AND MUL OR SWAP1 SSTORE POP PUSH1 0x1 PUSH1 0x0 CALLER PUSH20 0xFFFFFFFFFFFFFFFFFFFFFFFFFFFFFFFFFFFFFFFF AND PUSH20 0xFFFFFFFFFFFFFFFFFFFFFFFFFFFFFFFFFFFFFFFF AND DUP2 MSTORE PUSH1 0x20 ADD SWAP1 DUP2 MSTORE PUSH1 0x20 ADD PUSH1 0x0 KECCAK256 PUSH2 0xD38 PUSH2 0x13DA JUMP JUMPDEST SWAP1 DUP1 PUSH1 0x1 DUP2 SLOAD ADD DUP1 DUP3 SSTORE DUP1 SWAP2 POP POP PUSH1 0x1 SWAP1 SUB SWAP1 PUSH1 0x0 MSTORE PUSH1 0x20 PUSH1 0x0 KECCAK256 SWAP1 PUSH1 0x20 SWAP2 DUP3 DUP3 DIV ADD SWAP2 SWAP1 MOD SWAP1 SWAP2 SWAP1 SWAP2 SWAP1 SWAP2 PUSH2 0x100 EXP DUP2 SLOAD DUP2 PUSH1 0xFF MUL NOT AND SWAP1 DUP4 PUSH1 0xFF AND MUL OR SWAP1 SSTORE POP DUP1 PUSH1 0x2 PUSH1 0x0 CALLER PUSH20 0xFFFFFFFFFFFFFFFFFFFFFFFFFFFFFFFFFFFFFFFF AND PUSH20 0xFFFFFFFFFFFFFFFFFFFFFFFFFFFFFFFFFFFFFFFF AND DUP2 MSTORE PUSH1 0x20 ADD SWAP1 DUP2 MSTORE PUSH1 0x20 ADD PUSH1 0x0 KECCAK256 DUP2 SWAP1 SSTORE POP PUSH1 0x0 PUSH2 0xDC8 PUSH2 0xFBC JUMP JUMPDEST POP POP SWAP2 POP POP PUSH32 0xA444B0D8787B50F333AF92A857D7DC0557190B21BD4E158224E0024CC9DF02FF PUSH1 0x1 PUSH1 0x0 CALLER PUSH20 0xFFFFFFFFFFFFFFFFFFFFFFFFFFFFFFFFFFFFFFFF AND PUSH20 0xFFFFFFFFFFFFFFFFFFFFFFFFFFFFFFFFFFFFFFFF AND DUP2 MSTORE PUSH1 0x20 ADD SWAP1 DUP2 MSTORE PUSH1 0x20 ADD PUSH1 0x0 KECCAK256 PUSH1 0x1 DUP2 SLOAD DUP2 LT PUSH2 0xE40 JUMPI PUSH2 0xE3F PUSH2 0x2413 JUMP JUMPDEST JUMPDEST SWAP1 PUSH1 0x0 MSTORE PUSH1 0x20 PUSH1 0x0 KECCAK256 SWAP1 PUSH1 0x20 SWAP2 DUP3 DUP3 DIV ADD SWAP2 SWAP1 MOD SWAP1 SLOAD SWAP1 PUSH2 0x100 EXP SWAP1 DIV PUSH1 0xFF AND PUSH1 0x1 PUSH1 0x0 CALLER PUSH20 0xFFFFFFFFFFFFFFFFFFFFFFFFFFFFFFFFFFFFFFFF AND PUSH20 0xFFFFFFFFFFFFFFFFFFFFFFFFFFFFFFFFFFFFFFFF AND DUP2 MSTORE PUSH1 0x20 ADD SWAP1 DUP2 MSTORE PUSH1 0x20 ADD PUSH1 0x0 KECCAK256 PUSH1 0x3 DUP2 SLOAD DUP2 LT PUSH2 0xEB2 JUMPI PUSH2 0xEB1 PUSH2 0x2413 JUMP JUMPDEST JUMPDEST SWAP1 PUSH1 0x0 MSTORE PUSH1 0x20 PUSH1 0x0 KECCAK256 SWAP1 PUSH1 0x20 SWAP2 DUP3 DUP3 DIV ADD SWAP2 SWAP1 MOD SWAP1 SLOAD SWAP1 PUSH2 0x100 EXP SWAP1 DIV PUSH1 0xFF AND PUSH1 0x1 PUSH1 0x0 CALLER PUSH20 0xFFFFFFFFFFFFFFFFFFFFFFFFFFFFFFFFFFFFFFFF AND PUSH20 0xFFFFFFFFFFFFFFFFFFFFFFFFFFFFFFFFFFFFFFFF AND DUP2 MSTORE PUSH1 0x20 ADD SWAP1 DUP2 MSTORE PUSH1 0x20 ADD PUSH1 0x0 KECCAK256 PUSH1 0x4 DUP2 SLOAD DUP2 LT PUSH2 0xF24 JUMPI PUSH2 0xF23 PUSH2 0x2413 JUMP JUMPDEST JUMPDEST SWAP1 PUSH1 0x0 MSTORE PUSH1 0x20 PUSH1 0x0 KECCAK256 SWAP1 PUSH1 0x20 SWAP2 DUP3 DUP3 DIV ADD SWAP2 SWAP1 MOD SWAP1 SLOAD SWAP1 PUSH2 0x100 EXP SWAP1 DIV PUSH1 0xFF AND DUP5 PUSH1 0x40 MLOAD PUSH2 0xF55 SWAP5 SWAP4 SWAP3 SWAP2 SWAP1 PUSH2 0x214C JUMP JUMPDEST PUSH1 0x40 MLOAD DUP1 SWAP2 SUB SWAP1 LOG1 PUSH2 0xF66 DUP2 PUSH2 0x146E JUMP JUMPDEST ISZERO PUSH2 0xFA9 JUMPI PUSH32 0xCF34EF537AC33EE1AC626CA1587A0A7E8E51561E5514F8CB36AFA1C5102B3BAB PUSH1 0x40 MLOAD PUSH2 0xF98 SWAP1 PUSH2 0x1F5A JUMP JUMPDEST PUSH1 0x40 MLOAD DUP1 SWAP2 SUB SWAP1 LOG1 PUSH2 0xFA8 PUSH2 0x444 JUMP JUMPDEST JUMPDEST POP POP JUMP JUMPDEST PUSH1 0x0 PUSH2 0xFB7 PUSH2 0x13DA JUMP JUMPDEST SWAP1 POP SWAP1 JUMP JUMPDEST PUSH1 0x0 DUP1 PUSH1 0x60 DUP1 PUSH1 0x1 DUP1 PUSH1 0x0 CALLER PUSH20 0xFFFFFFFFFFFFFFFFFFFFFFFFFFFFFFFFFFFFFFFF AND PUSH20 0xFFFFFFFFFFFFFFFFFFFFFFFFFFFFFFFFFFFFFFFF AND DUP2 MSTORE PUSH1 0x20 ADD SWAP1 DUP2 MSTORE PUSH1 0x20 ADD PUSH1 0x0 KECCAK256 DUP1 SLOAD SWAP1 POP GT PUSH2 0x1046 JUMPI PUSH1 0x40 MLOAD PUSH32 0x8C379A000000000000000000000000000000000000000000000000000000000 DUP2 MSTORE PUSH1 0x4 ADD PUSH2 0x103D SWAP1 PUSH2 0x1F3A JUMP JUMPDEST PUSH1 0x40 MLOAD DUP1 SWAP2 SUB SWAP1 REVERT JUMPDEST PUSH1 0x0 PUSH1 0x1 PUSH1 0x0 CALLER PUSH20 0xFFFFFFFFFFFFFFFFFFFFFFFFFFFFFFFFFFFFFFFF AND PUSH20 0xFFFFFFFFFFFFFFFFFFFFFFFFFFFFFFFFFFFFFFFF AND DUP2 MSTORE PUSH1 0x20 ADD SWAP1 DUP2 MSTORE PUSH1 0x20 ADD PUSH1 0x0 KECCAK256 DUP1 SLOAD SWAP1 POP PUSH8 0xFFFFFFFFFFFFFFFF DUP2 GT ISZERO PUSH2 0x10A4 JUMPI PUSH2 0x10A3 PUSH2 0x2442 JUMP JUMPDEST JUMPDEST PUSH1 0x40 MLOAD SWAP1 DUP1 DUP3 MSTORE DUP1 PUSH1 0x20 MUL PUSH1 0x20 ADD DUP3 ADD PUSH1 0x40 MSTORE DUP1 ISZERO PUSH2 0x10D2 JUMPI DUP2 PUSH1 0x20 ADD PUSH1 0x20 DUP3 MUL DUP1 CALLDATASIZE DUP4 CALLDATACOPY DUP1 DUP3 ADD SWAP2 POP POP SWAP1 POP JUMPDEST POP SWAP1 POP PUSH1 0x0 PUSH1 0x1 PUSH1 0x0 CALLER PUSH20 0xFFFFFFFFFFFFFFFFFFFFFFFFFFFFFFFFFFFFFFFF AND PUSH20 0xFFFFFFFFFFFFFFFFFFFFFFFFFFFFFFFFFFFFFFFF AND DUP2 MSTORE PUSH1 0x20 ADD SWAP1 DUP2 MSTORE PUSH1 0x20 ADD PUSH1 0x0 KECCAK256 DUP1 SLOAD SWAP1 POP PUSH8 0xFFFFFFFFFFFFFFFF DUP2 GT ISZERO PUSH2 0x1133 JUMPI PUSH2 0x1132 PUSH2 0x2442 JUMP JUMPDEST JUMPDEST PUSH1 0x40 MLOAD SWAP1 DUP1 DUP3 MSTORE DUP1 PUSH1 0x20 MUL PUSH1 0x20 ADD DUP3 ADD PUSH1 0x40 MSTORE DUP1 ISZERO PUSH2 0x1161 JUMPI DUP2 PUSH1 0x20 ADD PUSH1 0x20 DUP3 MUL DUP1 CALLDATASIZE DUP4 CALLDATACOPY DUP1 DUP3 ADD SWAP2 POP POP SWAP1 POP JUMPDEST POP SWAP1 POP PUSH1 0x0 DUP1 JUMPDEST PUSH1 0x1 PUSH1 0x0 CALLER PUSH20 0xFFFFFFFFFFFFFFFFFFFFFFFFFFFFFFFFFFFFFFFF AND PUSH20 0xFFFFFFFFFFFFFFFFFFFFFFFFFFFFFFFFFFFFFFFF AND DUP2 MSTORE PUSH1 0x20 ADD SWAP1 DUP2 MSTORE PUSH1 0x20 ADD PUSH1 0x0 KECCAK256 DUP1 SLOAD SWAP1 POP DUP2 PUSH1 0xFF AND LT ISZERO PUSH2 0x13A8 JUMPI PUSH1 0x0 PUSH1 0x1 PUSH1 0x0 CALLER PUSH20 0xFFFFFFFFFFFFFFFFFFFFFFFFFFFFFFFFFFFFFFFF AND PUSH20 0xFFFFFFFFFFFFFFFFFFFFFFFFFFFFFFFFFFFFFFFF AND DUP2 MSTORE PUSH1 0x20 ADD SWAP1 DUP2 MSTORE PUSH1 0x20 ADD PUSH1 0x0 KECCAK256 DUP3 PUSH1 0xFF AND DUP2 SLOAD DUP2 LT PUSH2 0x120B JUMPI PUSH2 0x120A PUSH2 0x2413 JUMP JUMPDEST JUMPDEST SWAP1 PUSH1 0x0 MSTORE PUSH1 0x20 PUSH1 0x0 KECCAK256 SWAP1 PUSH1 0x20 SWAP2 DUP3 DUP3 DIV ADD SWAP2 SWAP1 MOD SWAP1 SLOAD SWAP1 PUSH2 0x100 EXP SWAP1 DIV PUSH1 0xFF AND PUSH1 0xFF AND EQ ISZERO PUSH2 0x123D JUMPI PUSH1 0x1 SWAP2 POP PUSH2 0x1395 JUMP JUMPDEST DUP2 PUSH2 0x12ED JUMPI PUSH2 0x12BE PUSH1 0x1 PUSH1 0x0 CALLER PUSH20 0xFFFFFFFFFFFFFFFFFFFFFFFFFFFFFFFFFFFFFFFF AND PUSH20 0xFFFFFFFFFFFFFFFFFFFFFFFFFFFFFFFFFFFFFFFF AND DUP2 MSTORE PUSH1 0x20 ADD SWAP1 DUP2 MSTORE PUSH1 0x20 ADD PUSH1 0x0 KECCAK256 DUP3 PUSH1 0xFF AND DUP2 SLOAD DUP2 LT PUSH2 0x1299 JUMPI PUSH2 0x1298 PUSH2 0x2413 JUMP JUMPDEST JUMPDEST SWAP1 PUSH1 0x0 MSTORE PUSH1 0x20 PUSH1 0x0 KECCAK256 SWAP1 PUSH1 0x20 SWAP2 DUP3 DUP3 DIV ADD SWAP2 SWAP1 MOD SWAP1 SLOAD SWAP1 PUSH2 0x100 EXP SWAP1 DIV PUSH1 0xFF AND PUSH2 0x1528 JUMP JUMPDEST DUP4 DUP3 PUSH1 0xFF AND DUP2 MLOAD DUP2 LT PUSH2 0x12D4 JUMPI PUSH2 0x12D3 PUSH2 0x2413 JUMP JUMPDEST JUMPDEST PUSH1 0x20 MUL PUSH1 0x20 ADD ADD SWAP1 PUSH1 0xFF AND SWAP1 DUP2 PUSH1 0xFF AND DUP2 MSTORE POP POP PUSH2 0x1394 JUMP JUMPDEST PUSH2 0x1369 PUSH1 0x1 PUSH1 0x0 CALLER PUSH20 0xFFFFFFFFFFFFFFFFFFFFFFFFFFFFFFFFFFFFFFFF AND PUSH20 0xFFFFFFFFFFFFFFFFFFFFFFFFFFFFFFFFFFFFFFFF AND DUP2 MSTORE PUSH1 0x20 ADD SWAP1 DUP2 MSTORE PUSH1 0x20 ADD PUSH1 0x0 KECCAK256 DUP3 PUSH1 0xFF AND DUP2 SLOAD DUP2 LT PUSH2 0x1344 JUMPI PUSH2 0x1343 PUSH2 0x2413 JUMP JUMPDEST JUMPDEST SWAP1 PUSH1 0x0 MSTORE PUSH1 0x20 PUSH1 0x0 KECCAK256 SWAP1 PUSH1 0x20 SWAP2 DUP3 DUP3 DIV ADD SWAP2 SWAP1 MOD SWAP1 SLOAD SWAP1 PUSH2 0x100 EXP SWAP1 DIV PUSH1 0xFF AND PUSH2 0x1528 JUMP JUMPDEST DUP5 DUP3 PUSH1 0xFF AND DUP2 MLOAD DUP2 LT PUSH2 0x137F JUMPI PUSH2 0x137E PUSH2 0x2413 JUMP JUMPDEST JUMPDEST PUSH1 0x20 MUL PUSH1 0x20 ADD ADD SWAP1 PUSH1 0xFF AND SWAP1 DUP2 PUSH1 0xFF AND DUP2 MSTORE POP POP JUMPDEST JUMPDEST DUP1 DUP1 PUSH2 0x13A0 SWAP1 PUSH2 0x233E JUMP JUMPDEST SWAP2 POP POP PUSH2 0x1168 JUMP JUMPDEST POP PUSH1 0x0 PUSH2 0x13B4 DUP4 PUSH2 0x184C JUMP JUMPDEST SWAP1 POP PUSH1 0x0 PUSH2 0x13C1 DUP6 PUSH2 0x184C JUMP JUMPDEST SWAP1 POP DUP2 DUP2 DUP6 DUP8 SWAP9 POP SWAP9 POP SWAP9 POP SWAP9 POP POP POP POP POP POP SWAP1 SWAP2 SWAP3 SWAP4 JUMP JUMPDEST PUSH1 0x0 DUP1 PUSH1 0x2 PUSH1 0xC DIFFICULTY PUSH1 0x3 PUSH1 0x0 SWAP1 SLOAD SWAP1 PUSH2 0x100 EXP SWAP1 DIV PUSH1 0xFF AND PUSH1 0x40 MLOAD PUSH1 0x20 ADD PUSH2 0x1403 SWAP3 SWAP2 SWAP1 PUSH2 0x1CAA JUMP JUMPDEST PUSH1 0x40 MLOAD PUSH1 0x20 DUP2 DUP4 SUB SUB DUP2 MSTORE SWAP1 PUSH1 0x40 MSTORE DUP1 MLOAD SWAP1 PUSH1 0x20 ADD KECCAK256 PUSH1 0x0 SHR PUSH2 0x1426 SWAP2 SWAP1 PUSH2 0x2384 JUMP JUMPDEST PUSH2 0x1430 SWAP2 SWAP1 PUSH2 0x21DB JUMP JUMPDEST SWAP1 POP DUP1 PUSH1 0x3 PUSH1 0x0 SWAP1 SLOAD SWAP1 PUSH2 0x100 EXP SWAP1 DIV PUSH1 0xFF AND PUSH2 0x144D SWAP2 SWAP1 PUSH2 0x2231 JUMP JUMPDEST PUSH1 0x3 PUSH1 0x0 PUSH2 0x100 EXP DUP2 SLOAD DUP2 PUSH1 0xFF MUL NOT AND SWAP1 DUP4 PUSH1 0xFF AND MUL OR SWAP1 SSTORE POP DUP1 SWAP2 POP POP SWAP1 JUMP JUMPDEST PUSH1 0x0 PUSH1 0x1 DUP1 PUSH1 0x0 CALLER PUSH20 0xFFFFFFFFFFFFFFFFFFFFFFFFFFFFFFFFFFFFFFFF AND PUSH20 0xFFFFFFFFFFFFFFFFFFFFFFFFFFFFFFFFFFFFFFFF AND DUP2 MSTORE PUSH1 0x20 ADD SWAP1 DUP2 MSTORE PUSH1 0x20 ADD PUSH1 0x0 KECCAK256 DUP1 SLOAD SWAP1 POP GT PUSH2 0x14F4 JUMPI PUSH1 0x40 MLOAD PUSH32 0x8C379A000000000000000000000000000000000000000000000000000000000 DUP2 MSTORE PUSH1 0x4 ADD PUSH2 0x14EB SWAP1 PUSH2 0x1F3A JUMP JUMPDEST PUSH1 0x40 MLOAD DUP1 SWAP2 SUB SWAP1 REVERT JUMPDEST PUSH1 0x15 DUP3 PUSH1 0xFF AND EQ ISZERO PUSH2 0x1509 JUMPI PUSH1 0x1 SWAP1 POP PUSH2 0x1523 JUMP JUMPDEST PUSH1 0x15 DUP3 PUSH1 0xFF AND GT ISZERO PUSH2 0x151E JUMPI PUSH1 0x1 SWAP1 POP PUSH2 0x1523 JUMP JUMPDEST PUSH1 0x0 SWAP1 POP JUMPDEST SWAP2 SWAP1 POP JUMP JUMPDEST PUSH1 0x0 DUP2 PUSH1 0xFF AND PUSH1 0x2 GT ISZERO DUP1 ISZERO PUSH2 0x1542 JUMPI POP PUSH1 0xA DUP3 PUSH1 0xFF AND GT ISZERO JUMPDEST ISZERO PUSH2 0x154F JUMPI DUP2 SWAP1 POP PUSH2 0x158F JUMP JUMPDEST DUP2 PUSH1 0xFF AND PUSH1 0xB GT ISZERO DUP1 ISZERO PUSH2 0x1567 JUMPI POP PUSH1 0xD DUP3 PUSH1 0xFF AND GT ISZERO JUMPDEST ISZERO PUSH2 0x1575 JUMPI PUSH1 0xA SWAP1 POP PUSH2 0x158F JUMP JUMPDEST PUSH1 0xE DUP3 PUSH1 0xFF AND EQ ISZERO PUSH2 0x158A JUMPI PUSH1 0xB SWAP1 POP PUSH2 0x158F JUMP JUMPDEST PUSH1 0x0 SWAP1 POP JUMPDEST SWAP2 SWAP1 POP JUMP JUMPDEST PUSH1 0x1 DUP1 PUSH1 0x0 CALLER PUSH20 0xFFFFFFFFFFFFFFFFFFFFFFFFFFFFFFFFFFFFFFFF AND PUSH20 0xFFFFFFFFFFFFFFFFFFFFFFFFFFFFFFFFFFFFFFFF AND DUP2 MSTORE PUSH1 0x20 ADD SWAP1 DUP2 MSTORE PUSH1 0x20 ADD PUSH1 0x0 KECCAK256 DUP1 SLOAD SWAP1 POP GT PUSH2 0x1618 JUMPI PUSH1 0x40 MLOAD PUSH32 0x8C379A000000000000000000000000000000000000000000000000000000000 DUP2 MSTORE PUSH1 0x4 ADD PUSH2 0x160F SWAP1 PUSH2 0x1F3A JUMP JUMPDEST PUSH1 0x40 MLOAD DUP1 SWAP2 SUB SWAP1 REVERT JUMPDEST PUSH32 0xCF34EF537AC33EE1AC626CA1587A0A7E8E51561E5514F8CB36AFA1C5102B3BAB PUSH1 0x40 MLOAD PUSH2 0x1645 SWAP1 PUSH2 0x203A JUMP JUMPDEST PUSH1 0x40 MLOAD DUP1 SWAP2 SUB SWAP1 LOG1 PUSH1 0x0 PUSH1 0xA DUP3 PUSH1 0xFF AND PUSH1 0x2 PUSH1 0x0 CALLER PUSH20 0xFFFFFFFFFFFFFFFFFFFFFFFFFFFFFFFFFFFFFFFF AND PUSH20 0xFFFFFFFFFFFFFFFFFFFFFFFFFFFFFFFFFFFFFFFF AND DUP2 MSTORE PUSH1 0x20 ADD SWAP1 DUP2 MSTORE PUSH1 0x20 ADD PUSH1 0x0 KECCAK256 SLOAD PUSH2 0x169F SWAP2 SWAP1 PUSH2 0x2299 JUMP JUMPDEST PUSH2 0x16A9 SWAP2 SWAP1 PUSH2 0x2268 JUMP JUMPDEST SWAP1 POP DUP1 SELFBALANCE GT PUSH2 0x16ED JUMPI PUSH1 0x40 MLOAD PUSH32 0x8C379A000000000000000000000000000000000000000000000000000000000 DUP2 MSTORE PUSH1 0x4 ADD PUSH2 0x16E4 SWAP1 PUSH2 0x201A JUMP JUMPDEST PUSH1 0x40 MLOAD DUP1 SWAP2 SUB SWAP1 REVERT JUMPDEST CALLER PUSH20 0xFFFFFFFFFFFFFFFFFFFFFFFFFFFFFFFFFFFFFFFF AND PUSH2 0x8FC DUP3 SWAP1 DUP2 ISZERO MUL SWAP1 PUSH1 0x40 MLOAD PUSH1 0x0 PUSH1 0x40 MLOAD DUP1 DUP4 SUB DUP2 DUP6 DUP9 DUP9 CALL SWAP4 POP POP POP POP ISZERO DUP1 ISZERO PUSH2 0x1733 JUMPI RETURNDATASIZE PUSH1 0x0 DUP1 RETURNDATACOPY RETURNDATASIZE PUSH1 0x0 REVERT JUMPDEST POP POP POP JUMP JUMPDEST PUSH1 0x1 DUP1 PUSH1 0x0 CALLER PUSH20 0xFFFFFFFFFFFFFFFFFFFFFFFFFFFFFFFFFFFFFFFF AND PUSH20 0xFFFFFFFFFFFFFFFFFFFFFFFFFFFFFFFFFFFFFFFF AND DUP2 MSTORE PUSH1 0x20 ADD SWAP1 DUP2 MSTORE PUSH1 0x20 ADD PUSH1 0x0 KECCAK256 DUP1 SLOAD SWAP1 POP GT PUSH2 0x17BC JUMPI PUSH1 0x40 MLOAD PUSH32 0x8C379A000000000000000000000000000000000000000000000000000000000 DUP2 MSTORE PUSH1 0x4 ADD PUSH2 0x17B3 SWAP1 PUSH2 0x1F3A JUMP JUMPDEST PUSH1 0x40 MLOAD DUP1 SWAP2 SUB SWAP1 REVERT JUMPDEST PUSH1 0x1 PUSH1 0x0 CALLER PUSH20 0xFFFFFFFFFFFFFFFFFFFFFFFFFFFFFFFFFFFFFFFF AND PUSH20 0xFFFFFFFFFFFFFFFFFFFFFFFFFFFFFFFFFFFFFFFF AND DUP2 MSTORE PUSH1 0x20 ADD SWAP1 DUP2 MSTORE PUSH1 0x20 ADD PUSH1 0x0 KECCAK256 PUSH1 0x0 PUSH2 0x1807 SWAP2 SWAP1 PUSH2 0x1941 JUMP JUMPDEST PUSH1 0x2 PUSH1 0x0 CALLER PUSH20 0xFFFFFFFFFFFFFFFFFFFFFFFFFFFFFFFFFFFFFFFF AND PUSH20 0xFFFFFFFFFFFFFFFFFFFFFFFFFFFFFFFFFFFFFFFF AND DUP2 MSTORE PUSH1 0x20 ADD SWAP1 DUP2 MSTORE PUSH1 0x20 ADD PUSH1 0x0 KECCAK256 PUSH1 0x0 SWAP1 SSTORE JUMP JUMPDEST PUSH1 0x0 DUP1 PUSH1 0x0 SWAP1 POP PUSH1 0x0 DUP1 JUMPDEST DUP5 MLOAD DUP2 PUSH1 0xFF AND LT ISZERO PUSH2 0x18C7 JUMPI PUSH1 0x0 DUP6 DUP3 PUSH1 0xFF AND DUP2 MLOAD DUP2 LT PUSH2 0x187B JUMPI PUSH2 0x187A PUSH2 0x2413 JUMP JUMPDEST JUMPDEST PUSH1 0x20 MUL PUSH1 0x20 ADD ADD MLOAD SWAP1 POP PUSH1 0xB DUP2 PUSH1 0xFF AND EQ ISZERO PUSH2 0x18A4 JUMPI DUP4 DUP1 PUSH2 0x189C SWAP1 PUSH2 0x233E JUMP JUMPDEST SWAP5 POP POP PUSH2 0x18B3 JUMP JUMPDEST DUP1 DUP4 PUSH2 0x18B0 SWAP2 SWAP1 PUSH2 0x2231 JUMP JUMPDEST SWAP3 POP JUMPDEST POP DUP1 DUP1 PUSH2 0x18BF SWAP1 PUSH2 0x233E JUMP JUMPDEST SWAP2 POP POP PUSH2 0x1857 JUMP JUMPDEST POP PUSH1 0x0 JUMPDEST DUP3 PUSH1 0xFF AND DUP2 PUSH1 0xFF AND LT ISZERO PUSH2 0x1936 JUMPI DUP3 PUSH1 0x15 PUSH2 0x18E6 SWAP2 SWAP1 PUSH2 0x22F3 JUMP JUMPDEST PUSH1 0xFF AND PUSH1 0xB DUP4 PUSH2 0x18F6 SWAP2 SWAP1 PUSH2 0x2231 JUMP JUMPDEST PUSH1 0xFF AND GT ISZERO PUSH2 0x1913 JUMPI PUSH1 0x1 DUP3 PUSH2 0x190C SWAP2 SWAP1 PUSH2 0x2231 JUMP JUMPDEST SWAP2 POP PUSH2 0x1923 JUMP JUMPDEST PUSH1 0xB DUP3 PUSH2 0x1920 SWAP2 SWAP1 PUSH2 0x2231 JUMP JUMPDEST SWAP2 POP JUMPDEST DUP1 DUP1 PUSH2 0x192E SWAP1 PUSH2 0x233E JUMP JUMPDEST SWAP2 POP POP PUSH2 0x18CB JUMP JUMPDEST POP DUP1 SWAP3 POP POP POP SWAP2 SWAP1 POP JUMP JUMPDEST POP DUP1 SLOAD PUSH1 0x0 DUP3 SSTORE PUSH1 0x1F ADD PUSH1 0x20 SWAP1 DIV SWAP1 PUSH1 0x0 MSTORE PUSH1 0x20 PUSH1 0x0 KECCAK256 SWAP1 DUP2 ADD SWAP1 PUSH2 0x1966 SWAP2 SWAP1 PUSH2 0x1969 JUMP JUMPDEST POP JUMP JUMPDEST JUMPDEST DUP1 DUP3 GT ISZERO PUSH2 0x1982 JUMPI PUSH1 0x0 DUP2 PUSH1 0x0 SWAP1 SSTORE POP PUSH1 0x1 ADD PUSH2 0x196A JUMP JUMPDEST POP SWAP1 JUMP JUMPDEST PUSH1 0x0 PUSH2 0x1992 DUP4 DUP4 PUSH2 0x1C75 JUMP JUMPDEST PUSH1 0x20 DUP4 ADD SWAP1 POP SWAP3 SWAP2 POP POP JUMP JUMPDEST PUSH1 0x0 PUSH2 0x19A9 DUP3 PUSH2 0x21A1 JUMP JUMPDEST PUSH2 0x19B3 DUP2 DUP6 PUSH2 0x21B9 JUMP JUMPDEST SWAP4 POP PUSH2 0x19BE DUP4 PUSH2 0x2191 JUMP JUMPDEST DUP1 PUSH1 0x0 JUMPDEST DUP4 DUP2 LT ISZERO PUSH2 0x19EF JUMPI DUP2 MLOAD PUSH2 0x19D6 DUP9 DUP3 PUSH2 0x1986 JUMP JUMPDEST SWAP8 POP PUSH2 0x19E1 DUP4 PUSH2 0x21AC JUMP JUMPDEST SWAP3 POP POP PUSH1 0x1 DUP2 ADD SWAP1 POP PUSH2 0x19C2 JUMP JUMPDEST POP DUP6 SWAP4 POP POP POP POP SWAP3 SWAP2 POP POP JUMP JUMPDEST PUSH1 0x0 PUSH2 0x1A09 PUSH1 0x41 DUP4 PUSH2 0x21CA JUMP JUMPDEST SWAP2 POP PUSH2 0x1A14 DUP3 PUSH2 0x247E JUMP JUMPDEST PUSH1 0x60 DUP3 ADD SWAP1 POP SWAP2 SWAP1 POP JUMP JUMPDEST PUSH1 0x0 PUSH2 0x1A2C PUSH1 0xF DUP4 PUSH2 0x21CA JUMP JUMPDEST SWAP2 POP PUSH2 0x1A37 DUP3 PUSH2 0x24F3 JUMP JUMPDEST PUSH1 0x20 DUP3 ADD SWAP1 POP SWAP2 SWAP1 POP JUMP JUMPDEST PUSH1 0x0 PUSH2 0x1A4F PUSH1 0x30 DUP4 PUSH2 0x21CA JUMP JUMPDEST SWAP2 POP PUSH2 0x1A5A DUP3 PUSH2 0x251C JUMP JUMPDEST PUSH1 0x40 DUP3 ADD SWAP1 POP SWAP2 SWAP1 POP JUMP JUMPDEST PUSH1 0x0 PUSH2 0x1A72 PUSH1 0x12 DUP4 PUSH2 0x21CA JUMP JUMPDEST SWAP2 POP PUSH2 0x1A7D DUP3 PUSH2 0x256B JUMP JUMPDEST PUSH1 0x20 DUP3 ADD SWAP1 POP SWAP2 SWAP1 POP JUMP JUMPDEST PUSH1 0x0 PUSH2 0x1A95 PUSH1 0x21 DUP4 PUSH2 0x21CA JUMP JUMPDEST SWAP2 POP PUSH2 0x1AA0 DUP3 PUSH2 0x2594 JUMP JUMPDEST PUSH1 0x40 DUP3 ADD SWAP1 POP SWAP2 SWAP1 POP JUMP JUMPDEST PUSH1 0x0 PUSH2 0x1AB8 PUSH1 0x1F DUP4 PUSH2 0x21CA JUMP JUMPDEST SWAP2 POP PUSH2 0x1AC3 DUP3 PUSH2 0x25E3 JUMP JUMPDEST PUSH1 0x20 DUP3 ADD SWAP1 POP SWAP2 SWAP1 POP JUMP JUMPDEST PUSH1 0x0 PUSH2 0x1ADB PUSH1 0x20 DUP4 PUSH2 0x21CA JUMP JUMPDEST SWAP2 POP PUSH2 0x1AE6 DUP3 PUSH2 0x260C JUMP JUMPDEST PUSH1 0x20 DUP3 ADD SWAP1 POP SWAP2 SWAP1 POP JUMP JUMPDEST PUSH1 0x0 PUSH2 0x1AFE PUSH1 0x15 DUP4 PUSH2 0x21CA JUMP JUMPDEST SWAP2 POP PUSH2 0x1B09 DUP3 PUSH2 0x2635 JUMP JUMPDEST PUSH1 0x20 DUP3 ADD SWAP1 POP SWAP2 SWAP1 POP JUMP JUMPDEST PUSH1 0x0 PUSH2 0x1B21 PUSH1 0x21 DUP4 PUSH2 0x21CA JUMP JUMPDEST SWAP2 POP PUSH2 0x1B2C DUP3 PUSH2 0x265E JUMP JUMPDEST PUSH1 0x40 DUP3 ADD SWAP1 POP SWAP2 SWAP1 POP JUMP JUMPDEST PUSH1 0x0 PUSH2 0x1B44 PUSH1 0x22 DUP4 PUSH2 0x21CA JUMP JUMPDEST SWAP2 POP PUSH2 0x1B4F DUP3 PUSH2 0x26AD JUMP JUMPDEST PUSH1 0x40 DUP3 ADD SWAP1 POP SWAP2 SWAP1 POP JUMP JUMPDEST PUSH1 0x0 PUSH2 0x1B67 PUSH1 0x35 DUP4 PUSH2 0x21CA JUMP JUMPDEST SWAP2 POP PUSH2 0x1B72 DUP3 PUSH2 0x26FC JUMP JUMPDEST PUSH1 0x40 DUP3 ADD SWAP1 POP SWAP2 SWAP1 POP JUMP JUMPDEST PUSH1 0x0 PUSH2 0x1B8A PUSH1 0x20 DUP4 PUSH2 0x21CA JUMP JUMPDEST SWAP2 POP PUSH2 0x1B95 DUP3 PUSH2 0x274B JUMP JUMPDEST PUSH1 0x20 DUP3 ADD SWAP1 POP SWAP2 SWAP1 POP JUMP JUMPDEST PUSH1 0x0 PUSH2 0x1BAD PUSH1 0x14 DUP4 PUSH2 0x21CA JUMP JUMPDEST SWAP2 POP PUSH2 0x1BB8 DUP3 PUSH2 0x2774 JUMP JUMPDEST PUSH1 0x20 DUP3 ADD SWAP1 POP SWAP2 SWAP1 POP JUMP JUMPDEST PUSH1 0x0 PUSH2 0x1BD0 PUSH1 0x10 DUP4 PUSH2 0x21CA JUMP JUMPDEST SWAP2 POP PUSH2 0x1BDB DUP3 PUSH2 0x279D JUMP JUMPDEST PUSH1 0x20 DUP3 ADD SWAP1 POP SWAP2 SWAP1 POP JUMP JUMPDEST PUSH1 0x0 PUSH2 0x1BF3 PUSH1 0x20 DUP4 PUSH2 0x21CA JUMP JUMPDEST SWAP2 POP PUSH2 0x1BFE DUP3 PUSH2 0x27C6 JUMP JUMPDEST PUSH1 0x20 DUP3 ADD SWAP1 POP SWAP2 SWAP1 POP JUMP JUMPDEST PUSH1 0x0 PUSH2 0x1C16 PUSH1 0x1C DUP4 PUSH2 0x21CA JUMP JUMPDEST SWAP2 POP PUSH2 0x1C21 DUP3 PUSH2 0x27EF JUMP JUMPDEST PUSH1 0x20 DUP3 ADD SWAP1 POP SWAP2 SWAP1 POP JUMP JUMPDEST PUSH1 0x0 PUSH2 0x1C39 PUSH1 0x15 DUP4 PUSH2 0x21CA JUMP JUMPDEST SWAP2 POP PUSH2 0x1C44 DUP3 PUSH2 0x2818 JUMP JUMPDEST PUSH1 0x20 DUP3 ADD SWAP1 POP SWAP2 SWAP1 POP JUMP JUMPDEST PUSH2 0x1C58 DUP2 PUSH2 0x2327 JUMP JUMPDEST DUP3 MSTORE POP POP JUMP JUMPDEST PUSH2 0x1C6F PUSH2 0x1C6A DUP3 PUSH2 0x2327 JUMP JUMPDEST PUSH2 0x2368 JUMP JUMPDEST DUP3 MSTORE POP POP JUMP JUMPDEST PUSH2 0x1C7E DUP2 PUSH2 0x2331 JUMP JUMPDEST DUP3 MSTORE POP POP JUMP JUMPDEST PUSH2 0x1C8D DUP2 PUSH2 0x2331 JUMP JUMPDEST DUP3 MSTORE POP POP JUMP JUMPDEST PUSH2 0x1CA4 PUSH2 0x1C9F DUP3 PUSH2 0x2331 JUMP JUMPDEST PUSH2 0x2372 JUMP JUMPDEST DUP3 MSTORE POP POP JUMP JUMPDEST PUSH1 0x0 PUSH2 0x1CB6 DUP3 DUP6 PUSH2 0x1C5E JUMP JUMPDEST PUSH1 0x20 DUP3 ADD SWAP2 POP PUSH2 0x1CC6 DUP3 DUP5 PUSH2 0x1C93 JUMP JUMPDEST PUSH1 0x1 DUP3 ADD SWAP2 POP DUP2 SWAP1 POP SWAP4 SWAP3 POP POP POP JUMP JUMPDEST PUSH1 0x0 PUSH1 0xA0 DUP3 ADD SWAP1 POP DUP2 DUP2 SUB PUSH1 0x0 DUP4 ADD MSTORE PUSH2 0x1CF0 DUP2 DUP8 PUSH2 0x199E JUMP JUMPDEST SWAP1 POP DUP2 DUP2 SUB PUSH1 0x20 DUP4 ADD MSTORE PUSH2 0x1D04 DUP2 DUP7 PUSH2 0x199E JUMP JUMPDEST SWAP1 POP PUSH2 0x1D13 PUSH1 0x40 DUP4 ADD DUP6 PUSH2 0x1C84 JUMP JUMPDEST PUSH2 0x1D20 PUSH1 0x60 DUP4 ADD DUP5 PUSH2 0x1C84 JUMP JUMPDEST DUP2 DUP2 SUB PUSH1 0x80 DUP4 ADD MSTORE PUSH2 0x1D31 DUP2 PUSH2 0x1A65 JUMP JUMPDEST SWAP1 POP SWAP6 SWAP5 POP POP POP POP POP JUMP JUMPDEST PUSH1 0x0 PUSH1 0xA0 DUP3 ADD SWAP1 POP DUP2 DUP2 SUB PUSH1 0x0 DUP4 ADD MSTORE PUSH2 0x1D56 DUP2 DUP8 PUSH2 0x199E JUMP JUMPDEST SWAP1 POP DUP2 DUP2 SUB PUSH1 0x20 DUP4 ADD MSTORE PUSH2 0x1D6A DUP2 DUP7 PUSH2 0x199E JUMP JUMPDEST SWAP1 POP PUSH2 0x1D79 PUSH1 0x40 DUP4 ADD DUP6 PUSH2 0x1C84 JUMP JUMPDEST PUSH2 0x1D86 PUSH1 0x60 DUP4 ADD DUP5 PUSH2 0x1C84 JUMP JUMPDEST DUP2 DUP2 SUB PUSH1 0x80 DUP4 ADD MSTORE PUSH2 0x1D97 DUP2 PUSH2 0x1A88 JUMP JUMPDEST SWAP1 POP SWAP6 SWAP5 POP POP POP POP POP JUMP JUMPDEST PUSH1 0x0 PUSH1 0xA0 DUP3 ADD SWAP1 POP DUP2 DUP2 SUB PUSH1 0x0 DUP4 ADD MSTORE PUSH2 0x1DBC DUP2 DUP8 PUSH2 0x199E JUMP JUMPDEST SWAP1 POP DUP2 DUP2 SUB PUSH1 0x20 DUP4 ADD MSTORE PUSH2 0x1DD0 DUP2 DUP7 PUSH2 0x199E JUMP JUMPDEST SWAP1 POP PUSH2 0x1DDF PUSH1 0x40 DUP4 ADD DUP6 PUSH2 0x1C84 JUMP JUMPDEST PUSH2 0x1DEC PUSH1 0x60 DUP4 ADD DUP5 PUSH2 0x1C84 JUMP JUMPDEST DUP2 DUP2 SUB PUSH1 0x80 DUP4 ADD MSTORE PUSH2 0x1DFD DUP2 PUSH2 0x1B14 JUMP JUMPDEST SWAP1 POP SWAP6 SWAP5 POP POP POP POP POP JUMP JUMPDEST PUSH1 0x0 PUSH1 0xA0 DUP3 ADD SWAP1 POP DUP2 DUP2 SUB PUSH1 0x0 DUP4 ADD MSTORE PUSH2 0x1E22 DUP2 DUP8 PUSH2 0x199E JUMP JUMPDEST SWAP1 POP DUP2 DUP2 SUB PUSH1 0x20 DUP4 ADD MSTORE PUSH2 0x1E36 DUP2 DUP7 PUSH2 0x199E JUMP JUMPDEST SWAP1 POP PUSH2 0x1E45 PUSH1 0x40 DUP4 ADD DUP6 PUSH2 0x1C84 JUMP JUMPDEST PUSH2 0x1E52 PUSH1 0x60 DUP4 ADD DUP5 PUSH2 0x1C84 JUMP JUMPDEST DUP2 DUP2 SUB PUSH1 0x80 DUP4 ADD MSTORE PUSH2 0x1E63 DUP2 PUSH2 0x1B37 JUMP JUMPDEST SWAP1 POP SWAP6 SWAP5 POP POP POP POP POP JUMP JUMPDEST PUSH1 0x0 PUSH1 0xA0 DUP3 ADD SWAP1 POP DUP2 DUP2 SUB PUSH1 0x0 DUP4 ADD MSTORE PUSH2 0x1E88 DUP2 DUP8 PUSH2 0x199E JUMP JUMPDEST SWAP1 POP DUP2 DUP2 SUB PUSH1 0x20 DUP4 ADD MSTORE PUSH2 0x1E9C DUP2 DUP7 PUSH2 0x199E JUMP JUMPDEST SWAP1 POP PUSH2 0x1EAB PUSH1 0x40 DUP4 ADD DUP6 PUSH2 0x1C84 JUMP JUMPDEST PUSH2 0x1EB8 PUSH1 0x60 DUP4 ADD DUP5 PUSH2 0x1C84 JUMP JUMPDEST DUP2 DUP2 SUB PUSH1 0x80 DUP4 ADD MSTORE PUSH2 0x1EC9 DUP2 PUSH2 0x1BE6 JUMP JUMPDEST SWAP1 POP SWAP6 SWAP5 POP POP POP POP POP JUMP JUMPDEST PUSH1 0x0 PUSH1 0xA0 DUP3 ADD SWAP1 POP DUP2 DUP2 SUB PUSH1 0x0 DUP4 ADD MSTORE PUSH2 0x1EEE DUP2 DUP8 PUSH2 0x199E JUMP JUMPDEST SWAP1 POP DUP2 DUP2 SUB PUSH1 0x20 DUP4 ADD MSTORE PUSH2 0x1F02 DUP2 DUP7 PUSH2 0x199E JUMP JUMPDEST SWAP1 POP PUSH2 0x1F11 PUSH1 0x40 DUP4 ADD DUP6 PUSH2 0x1C84 JUMP JUMPDEST PUSH2 0x1F1E PUSH1 0x60 DUP4 ADD DUP5 PUSH2 0x1C84 JUMP JUMPDEST DUP2 DUP2 SUB PUSH1 0x80 DUP4 ADD MSTORE PUSH2 0x1F2F DUP2 PUSH2 0x1C2C JUMP JUMPDEST SWAP1 POP SWAP6 SWAP5 POP POP POP POP POP JUMP JUMPDEST PUSH1 0x0 PUSH1 0x20 DUP3 ADD SWAP1 POP DUP2 DUP2 SUB PUSH1 0x0 DUP4 ADD MSTORE PUSH2 0x1F53 DUP2 PUSH2 0x19FC JUMP JUMPDEST SWAP1 POP SWAP2 SWAP1 POP JUMP JUMPDEST PUSH1 0x0 PUSH1 0x20 DUP3 ADD SWAP1 POP DUP2 DUP2 SUB PUSH1 0x0 DUP4 ADD MSTORE PUSH2 0x1F73 DUP2 PUSH2 0x1A1F JUMP JUMPDEST SWAP1 POP SWAP2 SWAP1 POP JUMP JUMPDEST PUSH1 0x0 PUSH1 0x20 DUP3 ADD SWAP1 POP DUP2 DUP2 SUB PUSH1 0x0 DUP4 ADD MSTORE PUSH2 0x1F93 DUP2 PUSH2 0x1A42 JUMP JUMPDEST SWAP1 POP SWAP2 SWAP1 POP JUMP JUMPDEST PUSH1 0x0 PUSH1 0x20 DUP3 ADD SWAP1 POP DUP2 DUP2 SUB PUSH1 0x0 DUP4 ADD MSTORE PUSH2 0x1FB3 DUP2 PUSH2 0x1AAB JUMP JUMPDEST SWAP1 POP SWAP2 SWAP1 POP JUMP JUMPDEST PUSH1 0x0 PUSH1 0x20 DUP3 ADD SWAP1 POP DUP2 DUP2 SUB PUSH1 0x0 DUP4 ADD MSTORE PUSH2 0x1FD3 DUP2 PUSH2 0x1ACE JUMP JUMPDEST SWAP1 POP SWAP2 SWAP1 POP JUMP JUMPDEST PUSH1 0x0 PUSH1 0x20 DUP3 ADD SWAP1 POP DUP2 DUP2 SUB PUSH1 0x0 DUP4 ADD MSTORE PUSH2 0x1FF3 DUP2 PUSH2 0x1AF1 JUMP JUMPDEST SWAP1 POP SWAP2 SWAP1 POP JUMP JUMPDEST PUSH1 0x0 PUSH1 0x20 DUP3 ADD SWAP1 POP DUP2 DUP2 SUB PUSH1 0x0 DUP4 ADD MSTORE PUSH2 0x2013 DUP2 PUSH2 0x1B5A JUMP JUMPDEST SWAP1 POP SWAP2 SWAP1 POP JUMP JUMPDEST PUSH1 0x0 PUSH1 0x20 DUP3 ADD SWAP1 POP DUP2 DUP2 SUB PUSH1 0x0 DUP4 ADD MSTORE PUSH2 0x2033 DUP2 PUSH2 0x1B7D JUMP JUMPDEST SWAP1 POP SWAP2 SWAP1 POP JUMP JUMPDEST PUSH1 0x0 PUSH1 0x20 DUP3 ADD SWAP1 POP DUP2 DUP2 SUB PUSH1 0x0 DUP4 ADD MSTORE PUSH2 0x2053 DUP2 PUSH2 0x1BA0 JUMP JUMPDEST SWAP1 POP SWAP2 SWAP1 POP JUMP JUMPDEST PUSH1 0x0 PUSH1 0x20 DUP3 ADD SWAP1 POP DUP2 DUP2 SUB PUSH1 0x0 DUP4 ADD MSTORE PUSH2 0x2073 DUP2 PUSH2 0x1BC3 JUMP JUMPDEST SWAP1 POP SWAP2 SWAP1 POP JUMP JUMPDEST PUSH1 0x0 PUSH1 0x20 DUP3 ADD SWAP1 POP DUP2 DUP2 SUB PUSH1 0x0 DUP4 ADD MSTORE PUSH2 0x2093 DUP2 PUSH2 0x1C09 JUMP JUMPDEST SWAP1 POP SWAP2 SWAP1 POP JUMP JUMPDEST PUSH1 0x0 PUSH1 0x20 DUP3 ADD SWAP1 POP PUSH2 0x20AF PUSH1 0x0 DUP4 ADD DUP5 PUSH2 0x1C4F JUMP JUMPDEST SWAP3 SWAP2 POP POP JUMP JUMPDEST PUSH1 0x0 PUSH1 0x20 DUP3 ADD SWAP1 POP PUSH2 0x20CA PUSH1 0x0 DUP4 ADD DUP5 PUSH2 0x1C84 JUMP JUMPDEST SWAP3 SWAP2 POP POP JUMP JUMPDEST PUSH1 0x0 PUSH1 0x60 DUP3 ADD SWAP1 POP PUSH2 0x20E5 PUSH1 0x0 DUP4 ADD DUP7 PUSH2 0x1C84 JUMP JUMPDEST DUP2 DUP2 SUB PUSH1 0x20 DUP4 ADD MSTORE PUSH2 0x20F7 DUP2 DUP6 PUSH2 0x199E JUMP JUMPDEST SWAP1 POP PUSH2 0x2106 PUSH1 0x40 DUP4 ADD DUP5 PUSH2 0x1C84 JUMP JUMPDEST SWAP5 SWAP4 POP POP POP POP JUMP JUMPDEST PUSH1 0x0 PUSH1 0x60 DUP3 ADD SWAP1 POP PUSH2 0x2123 PUSH1 0x0 DUP4 ADD DUP7 PUSH2 0x1C84 JUMP JUMPDEST PUSH2 0x2130 PUSH1 0x20 DUP4 ADD DUP6 PUSH2 0x1C84 JUMP JUMPDEST DUP2 DUP2 SUB PUSH1 0x40 DUP4 ADD MSTORE PUSH2 0x2142 DUP2 DUP5 PUSH2 0x199E JUMP JUMPDEST SWAP1 POP SWAP5 SWAP4 POP POP POP POP JUMP JUMPDEST PUSH1 0x0 PUSH1 0x80 DUP3 ADD SWAP1 POP PUSH2 0x2161 PUSH1 0x0 DUP4 ADD DUP8 PUSH2 0x1C84 JUMP JUMPDEST PUSH2 0x216E PUSH1 0x20 DUP4 ADD DUP7 PUSH2 0x1C84 JUMP JUMPDEST PUSH2 0x217B PUSH1 0x40 DUP4 ADD DUP6 PUSH2 0x1C84 JUMP JUMPDEST PUSH2 0x2188 PUSH1 0x60 DUP4 ADD DUP5 PUSH2 0x1C84 JUMP JUMPDEST SWAP6 SWAP5 POP POP POP POP POP JUMP JUMPDEST PUSH1 0x0 DUP2 SWAP1 POP PUSH1 0x20 DUP3 ADD SWAP1 POP SWAP2 SWAP1 POP JUMP JUMPDEST PUSH1 0x0 DUP2 MLOAD SWAP1 POP SWAP2 SWAP1 POP JUMP JUMPDEST PUSH1 0x0 PUSH1 0x20 DUP3 ADD SWAP1 POP SWAP2 SWAP1 POP JUMP JUMPDEST PUSH1 0x0 DUP3 DUP3 MSTORE PUSH1 0x20 DUP3 ADD SWAP1 POP SWAP3 SWAP2 POP POP JUMP JUMPDEST PUSH1 0x0 DUP3 DUP3 MSTORE PUSH1 0x20 DUP3 ADD SWAP1 POP SWAP3 SWAP2 POP POP JUMP JUMPDEST PUSH1 0x0 PUSH2 0x21E6 DUP3 PUSH2 0x2327 JUMP JUMPDEST SWAP2 POP PUSH2 0x21F1 DUP4 PUSH2 0x2327 JUMP JUMPDEST SWAP3 POP DUP3 PUSH32 0xFFFFFFFFFFFFFFFFFFFFFFFFFFFFFFFFFFFFFFFFFFFFFFFFFFFFFFFFFFFFFFFF SUB DUP3 GT ISZERO PUSH2 0x2226 JUMPI PUSH2 0x2225 PUSH2 0x23B5 JUMP JUMPDEST JUMPDEST DUP3 DUP3 ADD SWAP1 POP SWAP3 SWAP2 POP POP JUMP JUMPDEST PUSH1 0x0 PUSH2 0x223C DUP3 PUSH2 0x2331 JUMP JUMPDEST SWAP2 POP PUSH2 0x2247 DUP4 PUSH2 0x2331 JUMP JUMPDEST SWAP3 POP DUP3 PUSH1 0xFF SUB DUP3 GT ISZERO PUSH2 0x225D JUMPI PUSH2 0x225C PUSH2 0x23B5 JUMP JUMPDEST JUMPDEST DUP3 DUP3 ADD SWAP1 POP SWAP3 SWAP2 POP POP JUMP JUMPDEST PUSH1 0x0 PUSH2 0x2273 DUP3 PUSH2 0x2327 JUMP JUMPDEST SWAP2 POP PUSH2 0x227E DUP4 PUSH2 0x2327 JUMP JUMPDEST SWAP3 POP DUP3 PUSH2 0x228E JUMPI PUSH2 0x228D PUSH2 0x23E4 JUMP JUMPDEST JUMPDEST DUP3 DUP3 DIV SWAP1 POP SWAP3 SWAP2 POP POP JUMP JUMPDEST PUSH1 0x0 PUSH2 0x22A4 DUP3 PUSH2 0x2327 JUMP JUMPDEST SWAP2 POP PUSH2 0x22AF DUP4 PUSH2 0x2327 JUMP JUMPDEST SWAP3 POP DUP2 PUSH32 0xFFFFFFFFFFFFFFFFFFFFFFFFFFFFFFFFFFFFFFFFFFFFFFFFFFFFFFFFFFFFFFFF DIV DUP4 GT DUP3 ISZERO ISZERO AND ISZERO PUSH2 0x22E8 JUMPI PUSH2 0x22E7 PUSH2 0x23B5 JUMP JUMPDEST JUMPDEST DUP3 DUP3 MUL SWAP1 POP SWAP3 SWAP2 POP POP JUMP JUMPDEST PUSH1 0x0 PUSH2 0x22FE DUP3 PUSH2 0x2331 JUMP JUMPDEST SWAP2 POP PUSH2 0x2309 DUP4 PUSH2 0x2331 JUMP JUMPDEST SWAP3 POP DUP3 DUP3 LT ISZERO PUSH2 0x231C JUMPI PUSH2 0x231B PUSH2 0x23B5 JUMP JUMPDEST JUMPDEST DUP3 DUP3 SUB SWAP1 POP SWAP3 SWAP2 POP POP JUMP JUMPDEST PUSH1 0x0 DUP2 SWAP1 POP SWAP2 SWAP1 POP JUMP JUMPDEST PUSH1 0x0 PUSH1 0xFF DUP3 AND SWAP1 POP SWAP2 SWAP1 POP JUMP JUMPDEST PUSH1 0x0 PUSH2 0x2349 DUP3 PUSH2 0x2331 JUMP JUMPDEST SWAP2 POP PUSH1 0xFF DUP3 EQ ISZERO PUSH2 0x235D JUMPI PUSH2 0x235C PUSH2 0x23B5 JUMP JUMPDEST JUMPDEST PUSH1 0x1 DUP3 ADD SWAP1 POP SWAP2 SWAP1 POP JUMP JUMPDEST PUSH1 0x0 DUP2 SWAP1 POP SWAP2 SWAP1 POP JUMP JUMPDEST PUSH1 0x0 PUSH2 0x237D DUP3 PUSH2 0x2471 JUMP JUMPDEST SWAP1 POP SWAP2 SWAP1 POP JUMP JUMPDEST PUSH1 0x0 PUSH2 0x238F DUP3 PUSH2 0x2327 JUMP JUMPDEST SWAP2 POP PUSH2 0x239A DUP4 PUSH2 0x2327 JUMP JUMPDEST SWAP3 POP DUP3 PUSH2 0x23AA JUMPI PUSH2 0x23A9 PUSH2 0x23E4 JUMP JUMPDEST JUMPDEST DUP3 DUP3 MOD SWAP1 POP SWAP3 SWAP2 POP POP JUMP JUMPDEST PUSH32 0x4E487B7100000000000000000000000000000000000000000000000000000000 PUSH1 0x0 MSTORE PUSH1 0x11 PUSH1 0x4 MSTORE PUSH1 0x24 PUSH1 0x0 REVERT JUMPDEST PUSH32 0x4E487B7100000000000000000000000000000000000000000000000000000000 PUSH1 0x0 MSTORE PUSH1 0x12 PUSH1 0x4 MSTORE PUSH1 0x24 PUSH1 0x0 REVERT JUMPDEST PUSH32 0x4E487B7100000000000000000000000000000000000000000000000000000000 PUSH1 0x0 MSTORE PUSH1 0x32 PUSH1 0x4 MSTORE PUSH1 0x24 PUSH1 0x0 REVERT JUMPDEST PUSH32 0x4E487B7100000000000000000000000000000000000000000000000000000000 PUSH1 0x0 MSTORE PUSH1 0x41 PUSH1 0x4 MSTORE PUSH1 0x24 PUSH1 0x0 REVERT JUMPDEST PUSH1 0x0 DUP2 PUSH1 0xF8 SHL SWAP1 POP SWAP2 SWAP1 POP JUMP JUMPDEST PUSH32 0x796F75206E65656420746F206861766520612067616D652072756E6E696E6720 PUSH1 0x0 DUP3 ADD MSTORE PUSH32 0x746F2072756E20746869732E20706C656173652072756E20737461727447616D PUSH1 0x20 DUP3 ADD MSTORE PUSH32 0x6500000000000000000000000000000000000000000000000000000000000000 PUSH1 0x40 DUP3 ADD MSTORE POP JUMP JUMPDEST PUSH32 0x666F7263696E6720656E6467616D650000000000000000000000000000000000 PUSH1 0x0 DUP3 ADD MSTORE POP JUMP JUMPDEST PUSH32 0x6465616C65722073686F756C642068617665206174206C656173742031372E20 PUSH1 0x0 DUP3 ADD MSTORE PUSH32 0x73686F756C646E742068617070656E2100000000000000000000000000000000 PUSH1 0x20 DUP3 ADD MSTORE POP JUMP JUMPDEST PUSH32 0x706C617965722069732061626F76652032310000000000000000000000000000 PUSH1 0x0 DUP3 ADD MSTORE POP JUMP JUMPDEST PUSH32 0x6465616C657220686173206869676865722073756D207468616E20706C617965 PUSH1 0x0 DUP3 ADD MSTORE PUSH32 0x7200000000000000000000000000000000000000000000000000000000000000 PUSH1 0x20 DUP3 ADD MSTORE POP JUMP JUMPDEST PUSH32 0x63616E206F6E6C792062652063616C6C656420627920746865206F776E657200 PUSH1 0x0 DUP3 ADD MSTORE POP JUMP JUMPDEST PUSH32 0x6F6E6C79206F6E652067616D6520616C6C6F7765642070657220706C61796572 PUSH1 0x0 DUP3 ADD MSTORE POP JUMP JUMPDEST PUSH32 0x726573657474696E672067616D65206E6F772E2E2E0000000000000000000000 PUSH1 0x0 DUP3 ADD MSTORE POP JUMP JUMPDEST PUSH32 0x706C6179657220686173206869676865722073756D207468616E206465616C65 PUSH1 0x0 DUP3 ADD MSTORE PUSH32 0x7200000000000000000000000000000000000000000000000000000000000000 PUSH1 0x20 DUP3 ADD MSTORE POP JUMP JUMPDEST PUSH32 0x6465616C6572206861732032312E20706C61796572206C657373207468616E20 PUSH1 0x0 DUP3 ADD MSTORE PUSH32 0x3231000000000000000000000000000000000000000000000000000000000000 PUSH1 0x20 DUP3 ADD MSTORE POP JUMP JUMPDEST PUSH32 0x706C617965724361726453756D2069732061626F7665206F7220657175616C20 PUSH1 0x0 DUP3 ADD MSTORE PUSH32 0x32312C2073686F756C646E27742068617070656E210000000000000000000000 PUSH1 0x20 DUP3 ADD MSTORE POP JUMP JUMPDEST PUSH32 0x6F686F682C2062616E6B20686173206E6F7420656E6F75676820636124484848 PUSH1 0x0 DUP3 ADD MSTORE POP JUMP JUMPDEST PUSH32 0x747279696E6720746F207061796F7574202E2E2E000000000000000000000000 PUSH1 0x0 DUP3 ADD MSTORE POP JUMP JUMPDEST PUSH32 0x746865207365636F6E6420636173652000000000000000000000000000000000 PUSH1 0x0 DUP3 ADD MSTORE POP JUMP JUMPDEST PUSH32 0x6465616C65722069732061626F76652032312C20706C617965722062656C6F77 PUSH1 0x0 DUP3 ADD MSTORE POP JUMP JUMPDEST PUSH32 0x796F75206861766520746F2062657420736F6D657468696E672E2E2E00000000 PUSH1 0x0 DUP3 ADD MSTORE POP JUMP JUMPDEST PUSH32 0x706C61796572206861732065786163746C792032310000000000000000000000 PUSH1 0x0 DUP3 ADD MSTORE POP JUMP INVALID LOG2 PUSH5 0x6970667358 0x22 SLT KECCAK256 0xA7 PUSH26 0x391FE1D6ACEF6C84B4DFA700E8C1D2FF36A0D8E57A712556C651 0x23 LOG2 EXP 0xD PUSH5 0x736F6C6343 STOP ADDMOD SMOD STOP CALLER "
		},
		"gasEstimates": {
			"creation": {
				"codeDepositCost": "2071800",
				"executionCost": "50708",
				"totalCost": "2122508"
			},
			"external": {
				"drawCard()": "infinite",
				"endGame()": "infinite",
				"getBankBalance()": "2603",
				"getCurrentCards()": "infinite",
				"getNrGames()": "2562",
				"getRandomNumber()": "infinite",
				"startGame()": "infinite"
			},
			"internal": {
				"_aceCheckSum(uint8[] memory)": "infinite",
				"_checkValues()": "infinite",
				"_checkWinOrLooseCondition(uint8)": "infinite",
				"_getCardValue(uint8)": "221",
				"_handleLoss()": "infinite",
				"_handleWin(uint8)": "infinite",
				"_random()": "infinite",
				"_resetGame()": "infinite"
			}
		},
		"methodIdentifiers": {
			"drawCard()": "2f5be23e",
			"endGame()": "6cbc2ded",
			"getBankBalance()": "7b83b50b",
			"getCurrentCards()": "1a39e95f",
			"getNrGames()": "d58d2ca9",
			"getRandomNumber()": "dbdff2c1",
			"startGame()": "d65ab5f2"
		}
	},
	"abi": [
		{
			"inputs": [],
			"stateMutability": "payable",
			"type": "constructor"
		},
		{
			"anonymous": false,
			"inputs": [
				{
					"indexed": false,
					"internalType": "uint8",
					"name": "d2",
					"type": "uint8"
				},
				{
					"indexed": false,
					"internalType": "uint8[]",
					"name": "playerCards",
					"type": "uint8[]"
				},
				{
					"indexed": false,
					"internalType": "uint8",
					"name": "playerSum",
					"type": "uint8"
				}
			],
			"name": "DrawCard",
			"type": "event"
		},
		{
			"anonymous": false,
			"inputs": [
				{
					"indexed": false,
					"internalType": "uint8[]",
					"name": "dealerCards",
					"type": "uint8[]"
				},
				{
					"indexed": false,
					"internalType": "uint8[]",
					"name": "playerCards",
					"type": "uint8[]"
				},
				{
					"indexed": false,
					"internalType": "uint8",
					"name": "dealerSum",
					"type": "uint8"
				},
				{
					"indexed": false,
					"internalType": "uint8",
					"name": "playerSum",
					"type": "uint8"
				},
				{
					"indexed": false,
					"internalType": "string",
					"name": "winDescription",
					"type": "string"
				}
			],
			"name": "GameLost",
			"type": "event"
		},
		{
			"anonymous": false,
			"inputs": [
				{
					"indexed": false,
					"internalType": "uint8",
					"name": "d2",
					"type": "uint8"
				},
				{
					"indexed": false,
					"internalType": "uint8",
					"name": "p1",
					"type": "uint8"
				},
				{
					"indexed": false,
					"internalType": "uint8",
					"name": "p2",
					"type": "uint8"
				},
				{
					"indexed": false,
					"internalType": "uint8",
					"name": "playerSum",
					"type": "uint8"
				}
			],
			"name": "GameStart",
			"type": "event"
		},
		{
			"anonymous": false,
			"inputs": [
				{
					"indexed": false,
					"internalType": "uint8[]",
					"name": "dealerCards",
					"type": "uint8[]"
				},
				{
					"indexed": false,
					"internalType": "uint8[]",
					"name": "playerCards",
					"type": "uint8[]"
				},
				{
					"indexed": false,
					"internalType": "uint8",
					"name": "dealerSum",
					"type": "uint8"
				},
				{
					"indexed": false,
					"internalType": "uint8",
					"name": "playerSum",
					"type": "uint8"
				},
				{
					"indexed": false,
					"internalType": "string",
					"name": "winDescription",
					"type": "string"
				}
			],
			"name": "GameWon",
			"type": "event"
		},
		{
			"anonymous": false,
			"inputs": [
				{
					"indexed": false,
					"internalType": "string",
					"name": "message",
					"type": "string"
				}
			],
			"name": "Log",
			"type": "event"
		},
		{
			"inputs": [],
			"name": "drawCard",
			"outputs": [],
			"stateMutability": "nonpayable",
			"type": "function"
		},
		{
			"inputs": [],
			"name": "endGame",
			"outputs": [],
			"stateMutability": "nonpayable",
			"type": "function"
		},
		{
			"inputs": [],
			"name": "getBankBalance",
			"outputs": [
				{
					"internalType": "uint256",
					"name": "",
					"type": "uint256"
				}
			],
			"stateMutability": "view",
			"type": "function"
		},
		{
			"inputs": [],
			"name": "getCurrentCards",
			"outputs": [
				{
					"internalType": "uint8",
					"name": "",
					"type": "uint8"
				},
				{
					"internalType": "uint8",
					"name": "",
					"type": "uint8"
				},
				{
					"internalType": "uint8[]",
					"name": "",
					"type": "uint8[]"
				}
			],
			"stateMutability": "view",
			"type": "function"
		},
		{
			"inputs": [],
			"name": "getNrGames",
			"outputs": [
				{
					"internalType": "uint8",
					"name": "",
					"type": "uint8"
				}
			],
			"stateMutability": "view",
			"type": "function"
		},
		{
			"inputs": [],
			"name": "getRandomNumber",
			"outputs": [
				{
					"internalType": "uint8",
					"name": "",
					"type": "uint8"
				}
			],
			"stateMutability": "nonpayable",
			"type": "function"
		},
		{
			"inputs": [],
			"name": "startGame",
			"outputs": [],
			"stateMutability": "payable",
			"type": "function"
		}
	]
}