{
  "contractName": "KingdomTitles",
  "abi": [
    {
      "inputs": [
        {
          "internalType": "contract KingdomSeedCoin",
          "name": "kgdsc",
          "type": "address"
        },
        {
          "internalType": "contract KingdomAttackCoin",
          "name": "kgdat",
          "type": "address"
        },
        {
          "internalType": "contract KingdomDefenseCoin",
          "name": "kgddf",
          "type": "address"
        }
      ],
      "stateMutability": "nonpayable",
      "type": "constructor"
    },
    {
      "anonymous": false,
      "inputs": [
        {
          "indexed": true,
          "internalType": "address",
          "name": "owner",
          "type": "address"
        },
        {
          "indexed": true,
          "internalType": "address",
          "name": "approved",
          "type": "address"
        },
        {
          "indexed": true,
          "internalType": "uint256",
          "name": "tokenId",
          "type": "uint256"
        }
      ],
      "name": "Approval",
      "type": "event"
    },
    {
      "anonymous": false,
      "inputs": [
        {
          "indexed": true,
          "internalType": "address",
          "name": "owner",
          "type": "address"
        },
        {
          "indexed": true,
          "internalType": "address",
          "name": "operator",
          "type": "address"
        },
        {
          "indexed": false,
          "internalType": "bool",
          "name": "approved",
          "type": "bool"
        }
      ],
      "name": "ApprovalForAll",
      "type": "event"
    },
    {
      "anonymous": false,
      "inputs": [
        {
          "indexed": true,
          "internalType": "address",
          "name": "_to",
          "type": "address"
        },
        {
          "indexed": false,
          "internalType": "uint256",
          "name": "_amount",
          "type": "uint256"
        }
      ],
      "name": "HarvestAttackPoints",
      "type": "event"
    },
    {
      "anonymous": false,
      "inputs": [
        {
          "indexed": true,
          "internalType": "address",
          "name": "_to",
          "type": "address"
        },
        {
          "indexed": false,
          "internalType": "uint256",
          "name": "_amount",
          "type": "uint256"
        }
      ],
      "name": "HarvestDefensePoints",
      "type": "event"
    },
    {
      "anonymous": false,
      "inputs": [
        {
          "indexed": true,
          "internalType": "address",
          "name": "_to",
          "type": "address"
        },
        {
          "indexed": false,
          "internalType": "uint256",
          "name": "_amount",
          "type": "uint256"
        },
        {
          "indexed": false,
          "internalType": "uint256",
          "name": "_beforeBurn",
          "type": "uint256"
        }
      ],
      "name": "HarvestRemainingSeedCoins",
      "type": "event"
    },
    {
      "anonymous": false,
      "inputs": [
        {
          "indexed": true,
          "internalType": "address",
          "name": "from",
          "type": "address"
        },
        {
          "indexed": true,
          "internalType": "address",
          "name": "to",
          "type": "address"
        },
        {
          "indexed": true,
          "internalType": "uint256",
          "name": "tokenId",
          "type": "uint256"
        }
      ],
      "name": "Transfer",
      "type": "event"
    },
    {
      "inputs": [
        {
          "internalType": "address",
          "name": "",
          "type": "address"
        },
        {
          "internalType": "uint256",
          "name": "",
          "type": "uint256"
        }
      ],
      "name": "address2ids",
      "outputs": [
        {
          "internalType": "uint256",
          "name": "",
          "type": "uint256"
        }
      ],
      "stateMutability": "view",
      "type": "function"
    },
    {
      "inputs": [
        {
          "internalType": "address",
          "name": "to",
          "type": "address"
        },
        {
          "internalType": "uint256",
          "name": "tokenId",
          "type": "uint256"
        }
      ],
      "name": "approve",
      "outputs": [],
      "stateMutability": "nonpayable",
      "type": "function"
    },
    {
      "inputs": [],
      "name": "attackCooldown",
      "outputs": [
        {
          "internalType": "uint256",
          "name": "",
          "type": "uint256"
        }
      ],
      "stateMutability": "view",
      "type": "function"
    },
    {
      "inputs": [
        {
          "internalType": "address",
          "name": "owner",
          "type": "address"
        }
      ],
      "name": "balanceOf",
      "outputs": [
        {
          "internalType": "uint256",
          "name": "",
          "type": "uint256"
        }
      ],
      "stateMutability": "view",
      "type": "function"
    },
    {
      "inputs": [],
      "name": "baseUrl",
      "outputs": [
        {
          "internalType": "string",
          "name": "",
          "type": "string"
        }
      ],
      "stateMutability": "view",
      "type": "function"
    },
    {
      "inputs": [],
      "name": "buyForETH",
      "outputs": [],
      "stateMutability": "payable",
      "type": "function"
    },
    {
      "inputs": [],
      "name": "exchangeRate",
      "outputs": [
        {
          "internalType": "uint8",
          "name": "",
          "type": "uint8"
        }
      ],
      "stateMutability": "view",
      "type": "function"
    },
    {
      "inputs": [],
      "name": "exchangeRate_Attackpoints",
      "outputs": [
        {
          "internalType": "uint8",
          "name": "",
          "type": "uint8"
        }
      ],
      "stateMutability": "view",
      "type": "function"
    },
    {
      "inputs": [],
      "name": "exchangeRate_Burnpct",
      "outputs": [
        {
          "internalType": "uint8",
          "name": "",
          "type": "uint8"
        }
      ],
      "stateMutability": "view",
      "type": "function"
    },
    {
      "inputs": [],
      "name": "exchangeRate_Defensepoints",
      "outputs": [
        {
          "internalType": "uint8",
          "name": "",
          "type": "uint8"
        }
      ],
      "stateMutability": "view",
      "type": "function"
    },
    {
      "inputs": [
        {
          "internalType": "uint256",
          "name": "tokenId",
          "type": "uint256"
        }
      ],
      "name": "getApproved",
      "outputs": [
        {
          "internalType": "address",
          "name": "",
          "type": "address"
        }
      ],
      "stateMutability": "view",
      "type": "function"
    },
    {
      "inputs": [],
      "name": "getCurrentStakes",
      "outputs": [
        {
          "internalType": "uint256[2]",
          "name": "balances",
          "type": "uint256[2]"
        }
      ],
      "stateMutability": "view",
      "type": "function"
    },
    {
      "inputs": [],
      "name": "harvestAll",
      "outputs": [],
      "stateMutability": "nonpayable",
      "type": "function"
    },
    {
      "inputs": [
        {
          "internalType": "address",
          "name": "owner",
          "type": "address"
        },
        {
          "internalType": "address",
          "name": "operator",
          "type": "address"
        }
      ],
      "name": "isApprovedForAll",
      "outputs": [
        {
          "internalType": "bool",
          "name": "",
          "type": "bool"
        }
      ],
      "stateMutability": "view",
      "type": "function"
    },
    {
      "inputs": [],
      "name": "justSendETH",
      "outputs": [
        {
          "internalType": "uint256",
          "name": "",
          "type": "uint256"
        }
      ],
      "stateMutability": "payable",
      "type": "function"
    },
    {
      "inputs": [],
      "name": "kgdat",
      "outputs": [
        {
          "internalType": "contract KingdomAttackCoin",
          "name": "",
          "type": "address"
        }
      ],
      "stateMutability": "view",
      "type": "function"
    },
    {
      "inputs": [],
      "name": "kgddf",
      "outputs": [
        {
          "internalType": "contract KingdomDefenseCoin",
          "name": "",
          "type": "address"
        }
      ],
      "stateMutability": "view",
      "type": "function"
    },
    {
      "inputs": [],
      "name": "kgdsc",
      "outputs": [
        {
          "internalType": "contract KingdomSeedCoin",
          "name": "",
          "type": "address"
        }
      ],
      "stateMutability": "view",
      "type": "function"
    },
    {
      "inputs": [
        {
          "internalType": "uint256",
          "name": "",
          "type": "uint256"
        }
      ],
      "name": "kingdomtitles",
      "outputs": [
        {
          "internalType": "uint256",
          "name": "attackPoints",
          "type": "uint256"
        },
        {
          "internalType": "uint256",
          "name": "defensePoints",
          "type": "uint256"
        },
        {
          "internalType": "uint256",
          "name": "readyTimeAttack",
          "type": "uint256"
        }
      ],
      "stateMutability": "view",
      "type": "function"
    },
    {
      "inputs": [],
      "name": "name",
      "outputs": [
        {
          "internalType": "string",
          "name": "",
          "type": "string"
        }
      ],
      "stateMutability": "view",
      "type": "function"
    },
    {
      "inputs": [
        {
          "internalType": "uint256",
          "name": "tokenId",
          "type": "uint256"
        }
      ],
      "name": "ownerOf",
      "outputs": [
        {
          "internalType": "address",
          "name": "",
          "type": "address"
        }
      ],
      "stateMutability": "view",
      "type": "function"
    },
    {
      "inputs": [
        {
          "internalType": "uint256",
          "name": "nrSeedCoins",
          "type": "uint256"
        },
        {
          "internalType": "uint8",
          "name": "targetCoin",
          "type": "uint8"
        }
      ],
      "name": "plantSeeds",
      "outputs": [],
      "stateMutability": "nonpayable",
      "type": "function"
    },
    {
      "inputs": [
        {
          "internalType": "address",
          "name": "from",
          "type": "address"
        },
        {
          "internalType": "address",
          "name": "to",
          "type": "address"
        },
        {
          "internalType": "uint256",
          "name": "tokenId",
          "type": "uint256"
        }
      ],
      "name": "safeTransferFrom",
      "outputs": [],
      "stateMutability": "nonpayable",
      "type": "function"
    },
    {
      "inputs": [
        {
          "internalType": "address",
          "name": "from",
          "type": "address"
        },
        {
          "internalType": "address",
          "name": "to",
          "type": "address"
        },
        {
          "internalType": "uint256",
          "name": "tokenId",
          "type": "uint256"
        },
        {
          "internalType": "bytes",
          "name": "_data",
          "type": "bytes"
        }
      ],
      "name": "safeTransferFrom",
      "outputs": [],
      "stateMutability": "nonpayable",
      "type": "function"
    },
    {
      "inputs": [
        {
          "internalType": "address",
          "name": "operator",
          "type": "address"
        },
        {
          "internalType": "bool",
          "name": "approved",
          "type": "bool"
        }
      ],
      "name": "setApprovalForAll",
      "outputs": [],
      "stateMutability": "nonpayable",
      "type": "function"
    },
    {
      "inputs": [],
      "name": "stakingPeriod",
      "outputs": [
        {
          "internalType": "uint256",
          "name": "",
          "type": "uint256"
        }
      ],
      "stateMutability": "view",
      "type": "function"
    },
    {
      "inputs": [
        {
          "internalType": "bytes4",
          "name": "interfaceId",
          "type": "bytes4"
        }
      ],
      "name": "supportsInterface",
      "outputs": [
        {
          "internalType": "bool",
          "name": "",
          "type": "bool"
        }
      ],
      "stateMutability": "view",
      "type": "function"
    },
    {
      "inputs": [],
      "name": "symbol",
      "outputs": [
        {
          "internalType": "string",
          "name": "",
          "type": "string"
        }
      ],
      "stateMutability": "view",
      "type": "function"
    },
    {
      "inputs": [
        {
          "internalType": "uint256",
          "name": "tokenId",
          "type": "uint256"
        }
      ],
      "name": "tokenURI",
      "outputs": [
        {
          "internalType": "string",
          "name": "",
          "type": "string"
        }
      ],
      "stateMutability": "view",
      "type": "function"
    },
    {
      "inputs": [],
      "name": "totalSupply",
      "outputs": [
        {
          "internalType": "uint16",
          "name": "",
          "type": "uint16"
        }
      ],
      "stateMutability": "view",
      "type": "function"
    },
    {
      "inputs": [
        {
          "internalType": "address",
          "name": "from",
          "type": "address"
        },
        {
          "internalType": "address",
          "name": "to",
          "type": "address"
        },
        {
          "internalType": "uint256",
          "name": "tokenId",
          "type": "uint256"
        }
      ],
      "name": "transferFrom",
      "outputs": [],
      "stateMutability": "nonpayable",
      "type": "function"
    },
    {
      "inputs": [],
      "name": "currentPosition",
      "outputs": [
        {
          "internalType": "uint256",
          "name": "",
          "type": "uint256"
        }
      ],
      "stateMutability": "view",
      "type": "function"
    },
    {
      "inputs": [
        {
          "internalType": "address",
          "name": "player",
          "type": "address"
        }
      ],
      "name": "awardItem",
      "outputs": [
        {
          "internalType": "uint256",
          "name": "",
          "type": "uint256"
        }
      ],
      "stateMutability": "nonpayable",
      "type": "function"
    },
    {
      "inputs": [
        {
          "internalType": "uint256",
          "name": "itemId",
          "type": "uint256"
        }
      ],
      "name": "reverseItem",
      "outputs": [
        {
          "internalType": "bool",
          "name": "",
          "type": "bool"
        }
      ],
      "stateMutability": "nonpayable",
      "type": "function"
    },
    {
      "inputs": [
        {
          "internalType": "uint256",
          "name": "_tokenId",
          "type": "uint256"
        }
      ],
      "name": "tokenMetadata",
      "outputs": [
        {
          "internalType": "string",
          "name": "infoUrl",
          "type": "string"
        }
      ],
      "stateMutability": "view",
      "type": "function"
    },
    {
      "inputs": [
        {
          "internalType": "address",
          "name": "_own",
          "type": "address"
        }
      ],
      "name": "returnIdsOfAddress",
      "outputs": [
        {
          "internalType": "uint256[]",
          "name": "ownedIds",
          "type": "uint256[]"
        }
      ],
      "stateMutability": "view",
      "type": "function"
    }
  ],
  "bytecode": "0x6006805463ffffffff1916630a080a64179055603c6007819055600e5560e0604052602560808181529062002d3860a03980516200004691600f9160209091019062000155565b503480156200005457600080fd5b5060405162002d5d38038062002d5d833981016040819052620000779162000214565b604080518082018252600e81526d4b696e67646f6d205469746c657360901b60208083019182528351808501909452600384526212d1d160ea1b9084015281518693869386939092620000cd9160009162000155565b508051620000e390600190602084019062000155565b5050600880546001600160a01b039586166001600160a01b031991821617909155600980549486169482169490941790935550600a80549190931691161790556200012b3390565b600c80546001600160a01b0319166001600160a01b039290921691909117905550620002a5915050565b828054620001639062000268565b90600052602060002090601f016020900481019282620001875760008555620001d2565b82601f10620001a257805160ff1916838001178555620001d2565b82800160010185558215620001d2579182015b82811115620001d2578251825591602001919060010190620001b5565b50620001e0929150620001e4565b5090565b5b80821115620001e05760008155600101620001e5565b6001600160a01b03811681146200021157600080fd5b50565b6000806000606084860312156200022a57600080fd5b83516200023781620001fb565b60208501519093506200024a81620001fb565b60408501519092506200025d81620001fb565b809150509250925092565b600181811c908216806200027d57607f821691505b602082108114156200029f57634e487b7160e01b600052602260045260246000fd5b50919050565b612a8380620002b56000396000f3fe60806040526004361061020f5760003560e01c806370a0823111610118578063c87b56dd116100a0578063e73961f51161006f578063e73961f514610608578063e985e9c51461061e578063f08b7b7314610667578063f2fb212014610687578063fa4facdb146106a757600080fd5b8063c87b56dd146105ad578063d4637ddb146105cd578063d534d636146105ed578063e046670b1461060257600080fd5b806395d89b41116100e757806395d89b4114610523578063a22cb46514610538578063b88d4fde14610558578063c03d5b4714610578578063c669b7101461058e57600080fd5b806370a08231146104a05780637c62539a146104ce5780638ed955b9146104ee578063900294be1461050357600080fd5b80632756985c1161019b578063429c3edf1161016a578063429c3edf1461040a5780635bcabf041461042a5780636352211e1461043f5780636914db601461045f5780636a7a2fa31461047f57600080fd5b80632756985c1461037e5780633ba0b9a91461039e578063411ee0d0146103ca57806342842e0e146103ea57600080fd5b806310f7e4ed116101e257806310f7e4ed146102c557806313245c95146102cd57806318160ddd146102fa5780631cf95ed61461032357806323b872dd1461035e57600080fd5b806301ffc9a71461021457806306fdde0314610249578063081812fc1461026b578063095ea7b3146102a3575b600080fd5b34801561022057600080fd5b5061023461022f3660046123b2565b6106c9565b60405190151581526020015b60405180910390f35b34801561025557600080fd5b5061025e61071b565b6040516102409190612427565b34801561027757600080fd5b5061028b61028636600461243a565b6107ad565b6040516001600160a01b039091168152602001610240565b3480156102af57600080fd5b506102c36102be36600461246a565b610847565b005b6102c361095d565b3480156102d957600080fd5b506102ed6102e8366004612494565b610bc9565b60405161024091906124af565b34801561030657600080fd5b5061031061271081565b60405161ffff9091168152602001610240565b34801561032f57600080fd5b5061034361033e36600461243a565b610c36565b60408051938452602084019290925290820152606001610240565b34801561036a57600080fd5b506102c36103793660046124f3565b610c5e565b34801561038a57600080fd5b5061023461039936600461243a565b610c8f565b3480156103aa57600080fd5b506006546103b89060ff1681565b60405160ff9091168152602001610240565b3480156103d657600080fd5b50600a5461028b906001600160a01b031681565b3480156103f657600080fd5b506102c36104053660046124f3565b610e23565b34801561041657600080fd5b506102c361042536600461252f565b610e3e565b34801561043657600080fd5b5061025e6111da565b34801561044b57600080fd5b5061028b61045a36600461243a565b611268565b34801561046b57600080fd5b5061025e61047a36600461243a565b6112df565b34801561048b57600080fd5b506006546103b8906301000000900460ff1681565b3480156104ac57600080fd5b506104c06104bb366004612494565b611313565b604051908152602001610240565b3480156104da57600080fd5b5060095461028b906001600160a01b031681565b3480156104fa57600080fd5b506102c361139a565b34801561050f57600080fd5b5060085461028b906001600160a01b031681565b34801561052f57600080fd5b5061025e611661565b34801561054457600080fd5b506102c3610553366004612573565b611670565b34801561056457600080fd5b506102c36105733660046125b5565b611735565b34801561058457600080fd5b506104c060075481565b34801561059a57600080fd5b506006546103b890610100900460ff1681565b3480156105b957600080fd5b5061025e6105c836600461243a565b61176d565b3480156105d957600080fd5b506006546103b89062010000900460ff1681565b3480156105f957600080fd5b506104c0611855565b476104c0565b34801561061457600080fd5b506104c0600e5481565b34801561062a57600080fd5b50610234610639366004612691565b6001600160a01b03918216600090815260056020908152604080832093909416825291909152205460ff1690565b34801561067357600080fd5b506104c061068236600461246a565b611865565b34801561069357600080fd5b506104c06106a2366004612494565b611897565b3480156106b357600080fd5b506106bc6119fa565b60405161024091906126c4565b60006001600160e01b031982166380ac58cd60e01b14806106fa57506001600160e01b03198216635b5e139f60e01b145b8061071557506301ffc9a760e01b6001600160e01b03198316145b92915050565b60606000805461072a906126f5565b80601f0160208091040260200160405190810160405280929190818152602001828054610756906126f5565b80156107a35780601f10610778576101008083540402835291602001916107a3565b820191906000526020600020905b81548152906001019060200180831161078657829003601f168201915b5050505050905090565b6000818152600260205260408120546001600160a01b031661082b5760405162461bcd60e51b815260206004820152602c60248201527f4552433732313a20617070726f76656420717565727920666f72206e6f6e657860448201526b34b9ba32b73a103a37b5b2b760a11b60648201526084015b60405180910390fd5b506000908152600460205260409020546001600160a01b031690565b600061085282611268565b9050806001600160a01b0316836001600160a01b031614156108c05760405162461bcd60e51b815260206004820152602160248201527f4552433732313a20617070726f76616c20746f2063757272656e74206f776e656044820152603960f91b6064820152608401610822565b336001600160a01b03821614806108dc57506108dc8133610639565b61094e5760405162461bcd60e51b815260206004820152603860248201527f4552433732313a20617070726f76652063616c6c6572206973206e6f74206f7760448201527f6e6572206e6f7220617070726f76656420666f7220616c6c00000000000000006064820152608401610822565b6109588383611ada565b505050565b6008546040516370a0823160e01b81523060048201526000916001600160a01b0316906370a082319060240160206040518083038186803b1580156109a157600080fd5b505afa1580156109b5573d6000803e3d6000fd5b505050506040513d601f19601f820116820180604052508101906109d99190612730565b116109e357600080fd5b60003411610a4c5760405162461bcd60e51b815260206004820152603060248201527f796f75206861766520746f2073656e6420736f6d652045544820746f2067657460448201526f1025b4b733b237b6a9b2b2b231b7b4b760811b6064820152608401610822565b6008546040516370a0823160e01b81523060048201526000916001600160a01b0316906370a082319060240160206040518083038186803b158015610a9057600080fd5b505afa158015610aa4573d6000803e3d6000fd5b505050506040513d601f19601f82011682018060405250810190610ac89190612730565b11610b2d5760405162461bcd60e51b815260206004820152602f60248201527f75686f682c2073727920692063616e27742073656e6420616e79206d6f72652060448201526e25b4b733b237b6a9b2b2b231b7b4b760891b6064820152608401610822565b600654600090610b409060ff163461275f565b60085460405163a9059cbb60e01b8152336004820152602481018390529192506001600160a01b03169063a9059cbb90604401602060405180830381600087803b158015610b8d57600080fd5b505af1158015610ba1573d6000803e3d6000fd5b505050506040513d601f19601f82011682018060405250810190610bc5919061277e565b5050565b6001600160a01b03811660009081526175406020908152604091829020805483518184028101840190945280845260609392830182828015610c2a57602002820191906000526020600020905b815481526020019060010190808311610c16575b50505050509050919050565b6010816127108110610c4757600080fd5b600302018054600182015460029092015490925083565b610c683382611b48565b610c845760405162461bcd60e51b81526004016108229061279b565b610958838383611c3f565b600c546000906001600160a01b03163314610cd75760405162461bcd60e51b81526020600482015260086024820152673337b7b59037b33360c11b6044820152606401610822565b6000610ce283611268565b9050610cef813085611c3f565b611a0a60005b6001600160a01b03831660009081526175406020526040902054811015610d6f576001600160a01b038316600090815261754060205260409020805486919083908110610d4457610d446127ec565b90600052602060002001541415610d5d57809150610d6f565b80610d6781612802565b915050610cf5565b5080611a0a1415610de15760405162461bcd60e51b815260206004820152603660248201527f72657665727365206974656d2066756e6374696f6e2e2e2e206974656d206e6f6044820152757420666f756e6420696e20616464726573733269647360501b6064820152608401610822565b6001600160a01b038216600090815261754060205260409020805482908110610e0c57610e0c6127ec565b60009182526020822001555060019150505b919050565b61095883838360405180602001604052806000815250611735565b6009546040516370a0823160e01b81523060048201526000916001600160a01b0316906370a082319060240160206040518083038186803b158015610e8257600080fd5b505afa158015610e96573d6000803e3d6000fd5b505050506040513d601f19601f82011682018060405250810190610eba9190612730565b11610ec457600080fd5b600a546040516370a0823160e01b81523060048201526000916001600160a01b0316906370a082319060240160206040518083038186803b158015610f0857600080fd5b505afa158015610f1c573d6000803e3d6000fd5b505050506040513d601f19601f82011682018060405250810190610f409190612730565b11610f4a57600080fd5b6008546040516370a0823160e01b81523360048201526000916001600160a01b0316906370a082319060240160206040518083038186803b158015610f8e57600080fd5b505afa158015610fa2573d6000803e3d6000fd5b505050506040513d601f19601f82011682018060405250810190610fc69190612730565b9050828110158015610fd85750600083115b61103f5760405162461bcd60e51b815260206004820152603260248201527f796f7520646f6e2774206861766520656e6f7567682073656564636f696e732160448201527120627579206f7220747261646520736f6d6560701b6064820152608401610822565b60ff8216158061105257508160ff166001145b6110b95760405162461bcd60e51b815260206004820152603260248201527f746172676574436f696e2068617320746f20626520303d61747461636b636f69604482015271371037b910189eb232b332b739b2b1b7b4b760711b6064820152608401610822565b6008546040516323b872dd60e01b8152336004820152306024820152604481018590526001600160a01b03909116906323b872dd90606401602060405180830381600087803b15801561110b57600080fd5b505af115801561111f573d6000803e3d6000fd5b505050506040513d601f19601f82011682018060405250810190611143919061277e565b50600b6000336001600160a01b03166001600160a01b0316815260200190815260200160002060405180606001604052808581526020018460ff16815260200160075442611191919061281d565b90528154600180820184556000938452602093849020835160039093020191825592820151928101805460ff191660ff9094169390931790925560400151600290910155505050565b600f80546111e7906126f5565b80601f0160208091040260200160405190810160405280929190818152602001828054611213906126f5565b80156112605780601f1061123557610100808354040283529160200191611260565b820191906000526020600020905b81548152906001019060200180831161124357829003601f168201915b505050505081565b6000818152600260205260408120546001600160a01b0316806107155760405162461bcd60e51b815260206004820152602960248201527f4552433732313a206f776e657220717565727920666f72206e6f6e657869737460448201526832b73a103a37b5b2b760b91b6064820152608401610822565b6060600f6112ec83611ddf565b6040516020016112fd929190612851565b6040516020818303038152906040529050919050565b60006001600160a01b03821661137e5760405162461bcd60e51b815260206004820152602a60248201527f4552433732313a2062616c616e636520717565727920666f7220746865207a65604482015269726f206164647265737360b01b6064820152608401610822565b506001600160a01b031660009081526003602052604090205490565b60005b336000908152600b602052604090205481101561165e57336000908152600b602052604081208054839081106113d5576113d56127ec565b600091825260209182902060408051606081018252600390930290910180548352600181015460ff1693830193909352600290920154918101829052915042111561164b57602081015160ff166115105760065481516000916114419161010090910460ff169061290e565b90506114508260000151611f08565b60095460405163a9059cbb60e01b8152336004820152602481018390526001600160a01b039091169063a9059cbb90604401602060405180830381600087803b15801561149c57600080fd5b505af11580156114b0573d6000803e3d6000fd5b505050506040513d601f19601f820116820180604052508101906114d4919061277e565b5060405181815233907f9fd4a9248425079a398923cd20daa8e0c103907fb89db4707cb4f2cc343f95469060200160405180910390a250611607565b806020015160ff166001141561160757600654815160009161153c916201000090910460ff169061290e565b905061154b8260000151611f08565b600a5460405163a9059cbb60e01b8152336004820152602481018390526001600160a01b039091169063a9059cbb90604401602060405180830381600087803b15801561159757600080fd5b505af11580156115ab573d6000803e3d6000fd5b505050506040513d601f19601f820116820180604052508101906115cf919061277e565b5060405181815233907fd62aeb2df4f1c7a0c59e15c0dca22ccbcbe42ad0d0dbf99a22c0ad2551c5a1559060200160405180910390a2505b336000908152600b60205260409020805483908110611628576116286127ec565b60009182526020822060039091020181815560018101805460ff19169055600201555b508061165681612802565b91505061139d565b50565b60606001805461072a906126f5565b6001600160a01b0382163314156116c95760405162461bcd60e51b815260206004820152601960248201527f4552433732313a20617070726f766520746f2063616c6c6572000000000000006044820152606401610822565b3360008181526005602090815260408083206001600160a01b03871680855290835292819020805460ff191686151590811790915590519081529192917f17307eab39ab6107e8899845ad3d59bd9653f200f220920489ca2b5937696c31910160405180910390a35050565b61173f3383611b48565b61175b5760405162461bcd60e51b81526004016108229061279b565b61176784848484611ffe565b50505050565b6000818152600260205260409020546060906001600160a01b03166117ec5760405162461bcd60e51b815260206004820152602f60248201527f4552433732314d657461646174613a2055524920717565727920666f72206e6f60448201526e3732bc34b9ba32b73a103a37b5b2b760891b6064820152608401610822565b600061180360408051602081019091526000815290565b90506000815111611823576040518060200160405280600081525061184e565b8061182d84612031565b60405160200161183e929190612922565b6040516020818303038152906040525b9392505050565b6000611860600d5490565b905090565b617540602052816000526040600020818154811061188257600080fd5b90600052602060002001600091509150505481565b600c546000906001600160a01b031633146118df5760405162461bcd60e51b81526020600482015260086024820152673337b7b59037b33360c11b6044820152606401610822565b6127106118eb600d5490565b106119425760405162461bcd60e51b815260206004820152602160248201527f75686f682c206e6f207469746c657320617661696c61626c6520616e796d6f726044820152606560f81b6064820152608401610822565b611950600d80546001019055565b600061195b600d5490565b9050611967838261212f565b6001600160a01b038316600090815261754060209081526040808320805460018101825590845282842001849055805160608101825283815291820192909252600e5490918201906119b9904261281d565b905260108261271081106119cf576119cf6127ec565b8251600391909102919091019081556020820151600182015560409091015160029091015592915050565b611a0261237e565b60008060005b336000908152600b6020526040902054811015611ac257336000908152600b60205260408120805483908110611a4057611a406127ec565b600091825260209182902060408051606081018252600390930290910180548352600181015460ff1693830184905260020154908201529150611a90578051611a89908561281d565b9350611aaf565b806020015160ff1660011415611aaf578051611aac908461281d565b92505b5080611aba81612802565b915050611a08565b50604080518082019091529182526020820152919050565b600081815260046020526040902080546001600160a01b0319166001600160a01b0384169081179091558190611b0f82611268565b6001600160a01b03167f8c5be1e5ebec7d5bd14f71427d1e84f3dd0314c0f7b2291e5b200ac8c7c3b92560405160405180910390a45050565b6000818152600260205260408120546001600160a01b0316611bc15760405162461bcd60e51b815260206004820152602c60248201527f4552433732313a206f70657261746f7220717565727920666f72206e6f6e657860448201526b34b9ba32b73a103a37b5b2b760a11b6064820152608401610822565b6000611bcc83611268565b9050806001600160a01b0316846001600160a01b03161480611c075750836001600160a01b0316611bfc846107ad565b6001600160a01b0316145b80611c3757506001600160a01b0380821660009081526005602090815260408083209388168352929052205460ff165b949350505050565b826001600160a01b0316611c5282611268565b6001600160a01b031614611cba5760405162461bcd60e51b815260206004820152602960248201527f4552433732313a207472616e73666572206f6620746f6b656e2074686174206960448201526839903737ba1037bbb760b91b6064820152608401610822565b6001600160a01b038216611d1c5760405162461bcd60e51b8152602060048201526024808201527f4552433732313a207472616e7366657220746f20746865207a65726f206164646044820152637265737360e01b6064820152608401610822565b611d27600082611ada565b6001600160a01b0383166000908152600360205260408120805460019290611d50908490612951565b90915550506001600160a01b0382166000908152600360205260408120805460019290611d7e90849061281d565b909155505060008181526002602052604080822080546001600160a01b0319166001600160a01b0386811691821790925591518493918716917fddf252ad1be2c89b69c2b068fc378daa952ba7f163c4a11628f55a4df523b3ef91a4505050565b606081611e035750506040805180820190915260018152600360fc1b602082015290565b8160005b8115611e2d5780611e1781612802565b9150611e269050600a8361290e565b9150611e07565b60008167ffffffffffffffff811115611e4857611e4861259f565b6040519080825280601f01601f191660200182016040528015611e72576020820181803683370190505b509050815b8515611eff57611e88600182612951565b90506000611e97600a8861290e565b611ea290600a61275f565b611eac9088612951565b611eb7906030612968565b905060008160f81b905080848481518110611ed457611ed46127ec565b60200101906001600160f81b031916908160001a905350611ef6600a8961290e565b97505050611e77565b50949350505050565b600654600090606490611f25906301000000900460ff168461275f565b611f2f919061290e565b611f399083612951565b60085460405163a9059cbb60e01b8152336004820152602481018390529192506001600160a01b03169063a9059cbb90604401602060405180830381600087803b158015611f8657600080fd5b505af1158015611f9a573d6000803e3d6000fd5b505050506040513d601f19601f82011682018060405250810190611fbe919061277e565b50604080518281526020810184905233917f11acec8ea502f5c875e157dd1a17389990a9350450464db61ef112521c0d8751910160405180910390a25050565b612009848484611c3f565b61201584848484612271565b6117675760405162461bcd60e51b81526004016108229061298d565b6060816120555750506040805180820190915260018152600360fc1b602082015290565b8160005b811561207f578061206981612802565b91506120789050600a8361290e565b9150612059565b60008167ffffffffffffffff81111561209a5761209a61259f565b6040519080825280601f01601f1916602001820160405280156120c4576020820181803683370190505b5090505b8415611c37576120d9600183612951565b91506120e6600a866129df565b6120f190603061281d565b60f81b818381518110612106576121066127ec565b60200101906001600160f81b031916908160001a905350612128600a8661290e565b94506120c8565b6001600160a01b0382166121855760405162461bcd60e51b815260206004820181905260248201527f4552433732313a206d696e7420746f20746865207a65726f20616464726573736044820152606401610822565b6000818152600260205260409020546001600160a01b0316156121ea5760405162461bcd60e51b815260206004820152601c60248201527f4552433732313a20746f6b656e20616c7265616479206d696e746564000000006044820152606401610822565b6001600160a01b038216600090815260036020526040812080546001929061221390849061281d565b909155505060008181526002602052604080822080546001600160a01b0319166001600160a01b03861690811790915590518392907fddf252ad1be2c89b69c2b068fc378daa952ba7f163c4a11628f55a4df523b3ef908290a45050565b60006001600160a01b0384163b1561237357604051630a85bd0160e11b81526001600160a01b0385169063150b7a02906122b59033908990889088906004016129f3565b602060405180830381600087803b1580156122cf57600080fd5b505af19250505080156122ff575060408051601f3d908101601f191682019092526122fc91810190612a30565b60015b612359573d80801561232d576040519150601f19603f3d011682016040523d82523d6000602084013e612332565b606091505b5080516123515760405162461bcd60e51b81526004016108229061298d565b805181602001fd5b6001600160e01b031916630a85bd0160e11b149050611c37565b506001949350505050565b60405180604001604052806002906020820280368337509192915050565b6001600160e01b03198116811461165e57600080fd5b6000602082840312156123c457600080fd5b813561184e8161239c565b60005b838110156123ea5781810151838201526020016123d2565b838111156117675750506000910152565b600081518084526124138160208601602086016123cf565b601f01601f19169290920160200192915050565b60208152600061184e60208301846123fb565b60006020828403121561244c57600080fd5b5035919050565b80356001600160a01b0381168114610e1e57600080fd5b6000806040838503121561247d57600080fd5b61248683612453565b946020939093013593505050565b6000602082840312156124a657600080fd5b61184e82612453565b6020808252825182820181905260009190848201906040850190845b818110156124e7578351835292840192918401916001016124cb565b50909695505050505050565b60008060006060848603121561250857600080fd5b61251184612453565b925061251f60208501612453565b9150604084013590509250925092565b6000806040838503121561254257600080fd5b82359150602083013560ff8116811461255a57600080fd5b809150509250929050565b801515811461165e57600080fd5b6000806040838503121561258657600080fd5b61258f83612453565b9150602083013561255a81612565565b634e487b7160e01b600052604160045260246000fd5b600080600080608085870312156125cb57600080fd5b6125d485612453565b93506125e260208601612453565b925060408501359150606085013567ffffffffffffffff8082111561260657600080fd5b818701915087601f83011261261a57600080fd5b81358181111561262c5761262c61259f565b604051601f8201601f19908116603f011681019083821181831017156126545761265461259f565b816040528281528a602084870101111561266d57600080fd5b82602086016020830137600060208483010152809550505050505092959194509250565b600080604083850312156126a457600080fd5b6126ad83612453565b91506126bb60208401612453565b90509250929050565b60408101818360005b60028110156126ec5781518352602092830192909101906001016126cd565b50505092915050565b600181811c9082168061270957607f821691505b6020821081141561272a57634e487b7160e01b600052602260045260246000fd5b50919050565b60006020828403121561274257600080fd5b5051919050565b634e487b7160e01b600052601160045260246000fd5b600081600019048311821515161561277957612779612749565b500290565b60006020828403121561279057600080fd5b815161184e81612565565b60208082526031908201527f4552433732313a207472616e736665722063616c6c6572206973206e6f74206f6040820152701ddb995c881b9bdc88185c1c1c9bdd9959607a1b606082015260800190565b634e487b7160e01b600052603260045260246000fd5b600060001982141561281657612816612749565b5060010190565b6000821982111561283057612830612749565b500190565b600081516128478185602086016123cf565b9290920192915050565b600080845481600182811c91508083168061286d57607f831692505b602080841082141561288d57634e487b7160e01b86526022600452602486fd5b8180156128a157600181146128b2576128df565b60ff198616895284890196506128df565b60008b81526020902060005b868110156128d75781548b8201529085019083016128be565b505084890196505b5050505050506128ef8185612835565b95945050505050565b634e487b7160e01b600052601260045260246000fd5b60008261291d5761291d6128f8565b500490565b600083516129348184602088016123cf565b8351908301906129488183602088016123cf565b01949350505050565b60008282101561296357612963612749565b500390565b600060ff821660ff84168060ff0382111561298557612985612749565b019392505050565b60208082526032908201527f4552433732313a207472616e7366657220746f206e6f6e20455243373231526560408201527131b2b4bb32b91034b6b83632b6b2b73a32b960711b606082015260800190565b6000826129ee576129ee6128f8565b500690565b6001600160a01b0385811682528416602082015260408101839052608060608201819052600090612a26908301846123fb565b9695505050505050565b600060208284031215612a4257600080fd5b815161184e8161239c56fea2646970667358221220507c4db1deb7ad3b57e6969545c5f19d8d8cfa452f4cfa2e9a7b12458f59192164736f6c6343000809003368747470733a2f2f7777772e6b696e67646f6d63727970746f2e636f6d2f7469746c65732f",
  "immutableReferences": {},
  "source": "pragma solidity ^0.8;\n\nimport \"@openzeppelin/contracts/token/ERC721/ERC721.sol\";\nimport \"@openzeppelin/contracts/utils/Counters.sol\";\nimport \"@openzeppelin/contracts/access/Ownable.sol\";\nimport \"./KingdomBank.sol\";\n\ncontract KingdomTitles is ERC721, KingdomBank {\n    using Counters for Counters.Counter;\n    \n    address private _owner;\n    \n    Counters.Counter private _tokenIds;\n    uint16 constant public totalSupply = 10000;\n    uint public attackCooldown = 60 seconds;\n    string public baseUrl = \"https://www.kingdomcrypto.com/titles/\";\n\n    struct KingdomTitle {\n        uint attackPoints;\n        uint defensePoints;\n        uint readyTimeAttack;\n    }\n\n    KingdomTitle[totalSupply] public kingdomtitles;\n\n    mapping (address => uint[]) public address2ids;\n\n    constructor(KingdomSeedCoin kgdsc, KingdomAttackCoin kgdat, KingdomDefenseCoin kgddf) ERC721(\"Kingdom Titles\", \"KGD\") KingdomBank(kgdsc, kgdat, kgddf) {\n        _owner = _msgSender();\n    }\n\n    modifier onlyOwner {\n        require(_owner == msg.sender, \"fook off\");\n        _;\n    }\n\n    function uint2str(uint _i) internal pure returns (string memory _uintAsString) {\n        if (_i == 0) {\n            return \"0\";\n        }\n        uint j = _i;\n        uint len;\n        while (j != 0) {\n            len++;\n            j /= 10;\n        }\n        bytes memory bstr = new bytes(len);\n        uint k = len;\n        while (_i != 0) {\n            k = k-1;\n            uint8 temp = (48 + uint8(_i - _i / 10 * 10));\n            bytes1 b1 = bytes1(temp);\n            bstr[k] = b1;\n            _i /= 10;\n        }\n        return string(bstr);\n    }\n\n    function currentPosition() public view returns (uint256) {\n        return uint256(_tokenIds.current());\n    }\n\n    function awardItem(address player) public onlyOwner returns (uint256) {\n        require(_tokenIds.current() < totalSupply, \"uhoh, no titles available anymore\");\n\n        // todo: get rid of tokenIds and exchange with struct\n        _tokenIds.increment();      \n\n        uint256 newItemId = _tokenIds.current();\n        _mint(player, newItemId);\n\n        // mark it down in address2ids\n        address2ids[player].push(newItemId);\n\n        // then add data to storage\n        kingdomtitles[newItemId] = KingdomTitle(0,0,block.timestamp + attackCooldown);\n\n        return newItemId;\n    }\n\n    function reverseItem(uint256 itemId) public onlyOwner returns (bool) {\n        address ownerOfItem = ownerOf(itemId);\n        _transfer(ownerOfItem, address(this), itemId);\n        uint pos = 6666;\n        for (uint i = 0; i < address2ids[ownerOfItem].length; i++) {\n            if (address2ids[ownerOfItem][i] == itemId) {\n                pos = i;\n                break;\n            }\n        }\n        require(pos != 6666, \"reverse item function... item not found in address2ids\");\n        delete address2ids[ownerOfItem][pos];\n        return true;\n    }\n\n    function tokenMetadata(uint256 _tokenId) public view returns (string memory infoUrl) {\n        return string(abi.encodePacked(baseUrl, uint2str(_tokenId)));\n    }\n\n    function returnIdsOfAddress(address _own) external view returns (uint256[] memory ownedIds) {\n        return address2ids[_own];\n    }\n}",
  "sourcePath": "/home/jguese/code/solidity-course/kingdom/contracts/KingdomTitles.sol",
  "compiler": {
    "name": "solc",
    "version": "0.8.9+commit.e5eed63a.Emscripten.clang"
  },
  "schemaVersion": "3.4.3",
  "updatedAt": "2021-10-29T11:50:44.603Z",
  "devdoc": {
    "kind": "dev",
    "methods": {
      "approve(address,uint256)": {
        "details": "See {IERC721-approve}."
      },
      "balanceOf(address)": {
        "details": "See {IERC721-balanceOf}."
      },
      "getApproved(uint256)": {
        "details": "See {IERC721-getApproved}."
      },
      "isApprovedForAll(address,address)": {
        "details": "See {IERC721-isApprovedForAll}."
      },
      "name()": {
        "details": "See {IERC721Metadata-name}."
      },
      "ownerOf(uint256)": {
        "details": "See {IERC721-ownerOf}."
      },
      "safeTransferFrom(address,address,uint256)": {
        "details": "See {IERC721-safeTransferFrom}."
      },
      "safeTransferFrom(address,address,uint256,bytes)": {
        "details": "See {IERC721-safeTransferFrom}."
      },
      "setApprovalForAll(address,bool)": {
        "details": "See {IERC721-setApprovalForAll}."
      },
      "supportsInterface(bytes4)": {
        "details": "See {IERC165-supportsInterface}."
      },
      "symbol()": {
        "details": "See {IERC721Metadata-symbol}."
      },
      "tokenURI(uint256)": {
        "details": "See {IERC721Metadata-tokenURI}."
      },
      "transferFrom(address,address,uint256)": {
        "details": "See {IERC721-transferFrom}."
      }
    },
    "version": 1
  },
  "userdoc": {
    "kind": "user",
    "methods": {},
    "version": 1
  }
}