{
  "contractName": "KingdomTitles",
  "abi": [
    {
      "inputs": [
        {
          "internalType": "contract KingdomSeedCoin",
          "name": "kgdsc",
          "type": "address"
        },
        {
          "internalType": "contract KingdomAttackCoin",
          "name": "kgdat",
          "type": "address"
        },
        {
          "internalType": "contract KingdomDefenseCoin",
          "name": "kgddf",
          "type": "address"
        }
      ],
      "stateMutability": "nonpayable",
      "type": "constructor"
    },
    {
      "anonymous": false,
      "inputs": [
        {
          "indexed": true,
          "internalType": "address",
          "name": "owner",
          "type": "address"
        },
        {
          "indexed": true,
          "internalType": "address",
          "name": "approved",
          "type": "address"
        },
        {
          "indexed": true,
          "internalType": "uint256",
          "name": "tokenId",
          "type": "uint256"
        }
      ],
      "name": "Approval",
      "type": "event"
    },
    {
      "anonymous": false,
      "inputs": [
        {
          "indexed": true,
          "internalType": "address",
          "name": "owner",
          "type": "address"
        },
        {
          "indexed": true,
          "internalType": "address",
          "name": "operator",
          "type": "address"
        },
        {
          "indexed": false,
          "internalType": "bool",
          "name": "approved",
          "type": "bool"
        }
      ],
      "name": "ApprovalForAll",
      "type": "event"
    },
    {
      "anonymous": false,
      "inputs": [
        {
          "indexed": true,
          "internalType": "address",
          "name": "_to",
          "type": "address"
        },
        {
          "indexed": false,
          "internalType": "uint256",
          "name": "_amount",
          "type": "uint256"
        }
      ],
      "name": "HarvestAttackPoints",
      "type": "event"
    },
    {
      "anonymous": false,
      "inputs": [
        {
          "indexed": true,
          "internalType": "address",
          "name": "_to",
          "type": "address"
        },
        {
          "indexed": false,
          "internalType": "uint256",
          "name": "_amount",
          "type": "uint256"
        }
      ],
      "name": "HarvestDefensePoints",
      "type": "event"
    },
    {
      "anonymous": false,
      "inputs": [
        {
          "indexed": true,
          "internalType": "address",
          "name": "_to",
          "type": "address"
        },
        {
          "indexed": false,
          "internalType": "uint256",
          "name": "_amount",
          "type": "uint256"
        },
        {
          "indexed": false,
          "internalType": "uint256",
          "name": "_beforeBurn",
          "type": "uint256"
        }
      ],
      "name": "HarvestRemainingSeedCoins",
      "type": "event"
    },
    {
      "anonymous": false,
      "inputs": [
        {
          "indexed": true,
          "internalType": "address",
          "name": "from",
          "type": "address"
        },
        {
          "indexed": true,
          "internalType": "address",
          "name": "to",
          "type": "address"
        },
        {
          "indexed": true,
          "internalType": "uint256",
          "name": "tokenId",
          "type": "uint256"
        }
      ],
      "name": "Transfer",
      "type": "event"
    },
    {
      "anonymous": false,
      "inputs": [
        {
          "indexed": true,
          "internalType": "address",
          "name": "_from",
          "type": "address"
        },
        {
          "indexed": false,
          "internalType": "uint256",
          "name": "_amount",
          "type": "uint256"
        }
      ],
      "name": "enterStakingAttackPoints",
      "type": "event"
    },
    {
      "anonymous": false,
      "inputs": [
        {
          "indexed": true,
          "internalType": "address",
          "name": "_from",
          "type": "address"
        },
        {
          "indexed": false,
          "internalType": "uint256",
          "name": "_amount",
          "type": "uint256"
        }
      ],
      "name": "enterStakingDefensePoints",
      "type": "event"
    },
    {
      "inputs": [
        {
          "internalType": "address",
          "name": "",
          "type": "address"
        },
        {
          "internalType": "uint256",
          "name": "",
          "type": "uint256"
        }
      ],
      "name": "address2ids",
      "outputs": [
        {
          "internalType": "uint256",
          "name": "",
          "type": "uint256"
        }
      ],
      "stateMutability": "view",
      "type": "function"
    },
    {
      "inputs": [
        {
          "internalType": "address",
          "name": "to",
          "type": "address"
        },
        {
          "internalType": "uint256",
          "name": "tokenId",
          "type": "uint256"
        }
      ],
      "name": "approve",
      "outputs": [],
      "stateMutability": "nonpayable",
      "type": "function"
    },
    {
      "inputs": [],
      "name": "attackCooldown",
      "outputs": [
        {
          "internalType": "uint256",
          "name": "",
          "type": "uint256"
        }
      ],
      "stateMutability": "view",
      "type": "function"
    },
    {
      "inputs": [
        {
          "internalType": "address",
          "name": "owner",
          "type": "address"
        }
      ],
      "name": "balanceOf",
      "outputs": [
        {
          "internalType": "uint256",
          "name": "",
          "type": "uint256"
        }
      ],
      "stateMutability": "view",
      "type": "function"
    },
    {
      "inputs": [],
      "name": "baseUrl",
      "outputs": [
        {
          "internalType": "string",
          "name": "",
          "type": "string"
        }
      ],
      "stateMutability": "view",
      "type": "function"
    },
    {
      "inputs": [],
      "name": "buyForETH",
      "outputs": [],
      "stateMutability": "payable",
      "type": "function"
    },
    {
      "inputs": [],
      "name": "exchangeRate",
      "outputs": [
        {
          "internalType": "uint8",
          "name": "",
          "type": "uint8"
        }
      ],
      "stateMutability": "view",
      "type": "function"
    },
    {
      "inputs": [],
      "name": "exchangeRate_Attackpoints",
      "outputs": [
        {
          "internalType": "uint8",
          "name": "",
          "type": "uint8"
        }
      ],
      "stateMutability": "view",
      "type": "function"
    },
    {
      "inputs": [],
      "name": "exchangeRate_Burnpct",
      "outputs": [
        {
          "internalType": "uint8",
          "name": "",
          "type": "uint8"
        }
      ],
      "stateMutability": "view",
      "type": "function"
    },
    {
      "inputs": [],
      "name": "exchangeRate_Defensepoints",
      "outputs": [
        {
          "internalType": "uint8",
          "name": "",
          "type": "uint8"
        }
      ],
      "stateMutability": "view",
      "type": "function"
    },
    {
      "inputs": [
        {
          "internalType": "uint256",
          "name": "tokenId",
          "type": "uint256"
        }
      ],
      "name": "getApproved",
      "outputs": [
        {
          "internalType": "address",
          "name": "",
          "type": "address"
        }
      ],
      "stateMutability": "view",
      "type": "function"
    },
    {
      "inputs": [],
      "name": "getCurrentStakes",
      "outputs": [
        {
          "internalType": "uint256[2]",
          "name": "",
          "type": "uint256[2]"
        }
      ],
      "stateMutability": "view",
      "type": "function"
    },
    {
      "inputs": [],
      "name": "getTimeUntilStakingDone",
      "outputs": [
        {
          "internalType": "uint256[2]",
          "name": "timeuntildone",
          "type": "uint256[2]"
        }
      ],
      "stateMutability": "view",
      "type": "function"
    },
    {
      "inputs": [],
      "name": "harvestAll",
      "outputs": [],
      "stateMutability": "nonpayable",
      "type": "function"
    },
    {
      "inputs": [
        {
          "internalType": "address",
          "name": "owner",
          "type": "address"
        },
        {
          "internalType": "address",
          "name": "operator",
          "type": "address"
        }
      ],
      "name": "isApprovedForAll",
      "outputs": [
        {
          "internalType": "bool",
          "name": "",
          "type": "bool"
        }
      ],
      "stateMutability": "view",
      "type": "function"
    },
    {
      "inputs": [],
      "name": "justSendETH",
      "outputs": [
        {
          "internalType": "uint256",
          "name": "",
          "type": "uint256"
        }
      ],
      "stateMutability": "payable",
      "type": "function"
    },
    {
      "inputs": [],
      "name": "kgdat",
      "outputs": [
        {
          "internalType": "contract KingdomAttackCoin",
          "name": "",
          "type": "address"
        }
      ],
      "stateMutability": "view",
      "type": "function"
    },
    {
      "inputs": [],
      "name": "kgddf",
      "outputs": [
        {
          "internalType": "contract KingdomDefenseCoin",
          "name": "",
          "type": "address"
        }
      ],
      "stateMutability": "view",
      "type": "function"
    },
    {
      "inputs": [],
      "name": "kgdsc",
      "outputs": [
        {
          "internalType": "contract KingdomSeedCoin",
          "name": "",
          "type": "address"
        }
      ],
      "stateMutability": "view",
      "type": "function"
    },
    {
      "inputs": [
        {
          "internalType": "uint256",
          "name": "",
          "type": "uint256"
        }
      ],
      "name": "kingdomtitles",
      "outputs": [
        {
          "internalType": "uint256",
          "name": "attackPoints",
          "type": "uint256"
        },
        {
          "internalType": "uint256",
          "name": "defensePoints",
          "type": "uint256"
        },
        {
          "internalType": "uint256",
          "name": "readyTimeAttack",
          "type": "uint256"
        }
      ],
      "stateMutability": "view",
      "type": "function"
    },
    {
      "inputs": [],
      "name": "name",
      "outputs": [
        {
          "internalType": "string",
          "name": "",
          "type": "string"
        }
      ],
      "stateMutability": "view",
      "type": "function"
    },
    {
      "inputs": [
        {
          "internalType": "uint256",
          "name": "tokenId",
          "type": "uint256"
        }
      ],
      "name": "ownerOf",
      "outputs": [
        {
          "internalType": "address",
          "name": "",
          "type": "address"
        }
      ],
      "stateMutability": "view",
      "type": "function"
    },
    {
      "inputs": [
        {
          "internalType": "uint256",
          "name": "nrSeedCoins",
          "type": "uint256"
        },
        {
          "internalType": "uint8",
          "name": "targetCoin",
          "type": "uint8"
        }
      ],
      "name": "plantSeeds",
      "outputs": [],
      "stateMutability": "nonpayable",
      "type": "function"
    },
    {
      "inputs": [
        {
          "internalType": "address",
          "name": "from",
          "type": "address"
        },
        {
          "internalType": "address",
          "name": "to",
          "type": "address"
        },
        {
          "internalType": "uint256",
          "name": "tokenId",
          "type": "uint256"
        }
      ],
      "name": "safeTransferFrom",
      "outputs": [],
      "stateMutability": "nonpayable",
      "type": "function"
    },
    {
      "inputs": [
        {
          "internalType": "address",
          "name": "from",
          "type": "address"
        },
        {
          "internalType": "address",
          "name": "to",
          "type": "address"
        },
        {
          "internalType": "uint256",
          "name": "tokenId",
          "type": "uint256"
        },
        {
          "internalType": "bytes",
          "name": "_data",
          "type": "bytes"
        }
      ],
      "name": "safeTransferFrom",
      "outputs": [],
      "stateMutability": "nonpayable",
      "type": "function"
    },
    {
      "inputs": [
        {
          "internalType": "address",
          "name": "operator",
          "type": "address"
        },
        {
          "internalType": "bool",
          "name": "approved",
          "type": "bool"
        }
      ],
      "name": "setApprovalForAll",
      "outputs": [],
      "stateMutability": "nonpayable",
      "type": "function"
    },
    {
      "inputs": [],
      "name": "stakingPeriod",
      "outputs": [
        {
          "internalType": "uint256",
          "name": "",
          "type": "uint256"
        }
      ],
      "stateMutability": "view",
      "type": "function"
    },
    {
      "inputs": [
        {
          "internalType": "bytes4",
          "name": "interfaceId",
          "type": "bytes4"
        }
      ],
      "name": "supportsInterface",
      "outputs": [
        {
          "internalType": "bool",
          "name": "",
          "type": "bool"
        }
      ],
      "stateMutability": "view",
      "type": "function"
    },
    {
      "inputs": [],
      "name": "symbol",
      "outputs": [
        {
          "internalType": "string",
          "name": "",
          "type": "string"
        }
      ],
      "stateMutability": "view",
      "type": "function"
    },
    {
      "inputs": [
        {
          "internalType": "uint256",
          "name": "",
          "type": "uint256"
        }
      ],
      "name": "titleId2Rank",
      "outputs": [
        {
          "internalType": "uint256",
          "name": "",
          "type": "uint256"
        }
      ],
      "stateMutability": "view",
      "type": "function"
    },
    {
      "inputs": [
        {
          "internalType": "uint256",
          "name": "tokenId",
          "type": "uint256"
        }
      ],
      "name": "tokenURI",
      "outputs": [
        {
          "internalType": "string",
          "name": "",
          "type": "string"
        }
      ],
      "stateMutability": "view",
      "type": "function"
    },
    {
      "inputs": [],
      "name": "totalSupply",
      "outputs": [
        {
          "internalType": "uint16",
          "name": "",
          "type": "uint16"
        }
      ],
      "stateMutability": "view",
      "type": "function"
    },
    {
      "inputs": [
        {
          "internalType": "address",
          "name": "from",
          "type": "address"
        },
        {
          "internalType": "address",
          "name": "to",
          "type": "address"
        },
        {
          "internalType": "uint256",
          "name": "tokenId",
          "type": "uint256"
        }
      ],
      "name": "transferFrom",
      "outputs": [],
      "stateMutability": "nonpayable",
      "type": "function"
    },
    {
      "inputs": [],
      "name": "currentPosition",
      "outputs": [
        {
          "internalType": "uint256",
          "name": "",
          "type": "uint256"
        }
      ],
      "stateMutability": "view",
      "type": "function"
    },
    {
      "inputs": [
        {
          "internalType": "address",
          "name": "player",
          "type": "address"
        }
      ],
      "name": "awardItem",
      "outputs": [
        {
          "internalType": "uint256",
          "name": "",
          "type": "uint256"
        }
      ],
      "stateMutability": "nonpayable",
      "type": "function"
    },
    {
      "inputs": [
        {
          "internalType": "uint256",
          "name": "itemId",
          "type": "uint256"
        }
      ],
      "name": "reverseItem",
      "outputs": [
        {
          "internalType": "bool",
          "name": "",
          "type": "bool"
        }
      ],
      "stateMutability": "nonpayable",
      "type": "function"
    },
    {
      "inputs": [
        {
          "internalType": "uint256",
          "name": "_tokenId",
          "type": "uint256"
        }
      ],
      "name": "tokenMetadata",
      "outputs": [
        {
          "internalType": "string",
          "name": "infoUrl",
          "type": "string"
        }
      ],
      "stateMutability": "view",
      "type": "function"
    },
    {
      "inputs": [
        {
          "internalType": "address",
          "name": "_own",
          "type": "address"
        }
      ],
      "name": "returnIdsOfAddress",
      "outputs": [
        {
          "internalType": "uint256[]",
          "name": "ownedIds",
          "type": "uint256[]"
        }
      ],
      "stateMutability": "view",
      "type": "function"
    }
  ],
  "bytecode": "0x6006805463ffffffff1916630a080a64179055603c6007819055600d5560e0604052602560808181529062002f5a60a03980516200004691600e916020909101906200015f565b503480156200005457600080fd5b5060405162002f7f38038062002f7f83398101604081905262000077916200021e565b604080518082018252600e81526d4b696e67646f6d205469746c657360901b60208083019182528351808501909452600384526212d1d160ea1b9084015281518693869386939092620000cd916000916200015f565b508051620000e39060019060208401906200015f565b5050600880546001600160a01b039586166001600160a01b031991821617909155600980549486169482169490941790935550600a80549190931691161790556200012b3390565b600c80546001600160a01b0319166001600160a01b03929092169190911790555050617540805460ff1916905550620002af565b8280546200016d9062000272565b90600052602060002090601f016020900481019282620001915760008555620001dc565b82601f10620001ac57805160ff1916838001178555620001dc565b82800160010185558215620001dc579182015b82811115620001dc578251825591602001919060010190620001bf565b50620001ea929150620001ee565b5090565b5b80821115620001ea5760008155600101620001ef565b6001600160a01b03811681146200021b57600080fd5b50565b6000806000606084860312156200023457600080fd5b8351620002418162000205565b6020850151909350620002548162000205565b6040850151909250620002678162000205565b809150509250925092565b600181811c908216806200028757607f821691505b60208210811415620002a957634e487b7160e01b600052602260045260246000fd5b50919050565b612c9b80620002bf6000396000f3fe6080604052600436106102255760003560e01c80637c62539a11610123578063c6a3550f116100ab578063e73961f51161006f578063e73961f514610672578063e985e9c514610688578063f08b7b73146106d1578063f2fb2120146106f1578063fa4facdb1461071157600080fd5b8063c6a3550f146105e5578063c87b56dd14610613578063d4637ddb14610633578063d534d63614610653578063e046670b1461066c57600080fd5b806395d89b41116100f257806395d89b411461055b578063a22cb46514610570578063b88d4fde14610590578063c03d5b47146105b0578063c669b710146105c657600080fd5b80637c62539a146104e457806384505e6a146105045780638ed955b914610526578063900294be1461053b57600080fd5b80632756985c116101b15780635bcabf04116101755780635bcabf04146104405780636352211e146104555780636914db60146104755780636a7a2fa31461049557806370a08231146104b657600080fd5b80632756985c146103945780633ba0b9a9146103b4578063411ee0d0146103e057806342842e0e14610400578063429c3edf1461042057600080fd5b806310f7e4ed116101f857806310f7e4ed146102db57806313245c95146102e357806318160ddd146103105780631cf95ed61461033957806323b872dd1461037457600080fd5b806301ffc9a71461022a57806306fdde031461025f578063081812fc14610281578063095ea7b3146102b9575b600080fd5b34801561023657600080fd5b5061024a6102453660046125aa565b610726565b60405190151581526020015b60405180910390f35b34801561026b57600080fd5b50610274610778565b604051610256919061261f565b34801561028d57600080fd5b506102a161029c366004612632565b61080a565b6040516001600160a01b039091168152602001610256565b3480156102c557600080fd5b506102d96102d4366004612662565b6108a4565b005b6102d96109ba565b3480156102ef57600080fd5b506103036102fe36600461268c565b610c26565b60405161025691906126a7565b34801561031c57600080fd5b5061032661271081565b60405161ffff9091168152602001610256565b34801561034557600080fd5b50610359610354366004612632565b610c93565b60408051938452602084019290925290820152606001610256565b34801561038057600080fd5b506102d961038f3660046126eb565b610cbb565b3480156103a057600080fd5b5061024a6103af366004612632565b610cec565b3480156103c057600080fd5b506006546103ce9060ff1681565b60405160ff9091168152602001610256565b3480156103ec57600080fd5b50600a546102a1906001600160a01b031681565b34801561040c57600080fd5b506102d961041b3660046126eb565b610e80565b34801561042c57600080fd5b506102d961043b366004612727565b610e9b565b34801561044c57600080fd5b506102746112bb565b34801561046157600080fd5b506102a1610470366004612632565b611349565b34801561048157600080fd5b50610274610490366004612632565b6113c0565b3480156104a157600080fd5b506006546103ce906301000000900460ff1681565b3480156104c257600080fd5b506104d66104d136600461268c565b6113f4565b604051908152602001610256565b3480156104f057600080fd5b506009546102a1906001600160a01b031681565b34801561051057600080fd5b5061051961147b565b604051610256919061275d565b34801561053257600080fd5b506102d9611565565b34801561054757600080fd5b506008546102a1906001600160a01b031681565b34801561056757600080fd5b5061027461182c565b34801561057c57600080fd5b506102d961058b36600461279c565b61183b565b34801561059c57600080fd5b506102d96105ab3660046127de565b611900565b3480156105bc57600080fd5b506104d660075481565b3480156105d257600080fd5b506006546103ce90610100900460ff1681565b3480156105f157600080fd5b506104d6610600366004612632565b61753f6020526000908152604090205481565b34801561061f57600080fd5b5061027461062e366004612632565b611938565b34801561063f57600080fd5b506006546103ce9062010000900460ff1681565b34801561065f57600080fd5b506175405460ff166104d6565b476104d6565b34801561067e57600080fd5b506104d6600d5481565b34801561069457600080fd5b5061024a6106a33660046128ba565b6001600160a01b03918216600090815260056020908152604080832093909416825291909152205460ff1690565b3480156106dd57600080fd5b506104d66106ec366004612662565b611a20565b3480156106fd57600080fd5b506104d661070c36600461268c565b611a52565b34801561071d57600080fd5b50610519611bf2565b60006001600160e01b031982166380ac58cd60e01b148061075757506001600160e01b03198216635b5e139f60e01b145b8061077257506301ffc9a760e01b6001600160e01b03198316145b92915050565b606060008054610787906128ed565b80601f01602080910402602001604051908101604052809291908181526020018280546107b3906128ed565b80156108005780601f106107d557610100808354040283529160200191610800565b820191906000526020600020905b8154815290600101906020018083116107e357829003601f168201915b5050505050905090565b6000818152600260205260408120546001600160a01b03166108885760405162461bcd60e51b815260206004820152602c60248201527f4552433732313a20617070726f76656420717565727920666f72206e6f6e657860448201526b34b9ba32b73a103a37b5b2b760a11b60648201526084015b60405180910390fd5b506000908152600460205260409020546001600160a01b031690565b60006108af82611349565b9050806001600160a01b0316836001600160a01b0316141561091d5760405162461bcd60e51b815260206004820152602160248201527f4552433732313a20617070726f76616c20746f2063757272656e74206f776e656044820152603960f91b606482015260840161087f565b336001600160a01b0382161480610939575061093981336106a3565b6109ab5760405162461bcd60e51b815260206004820152603860248201527f4552433732313a20617070726f76652063616c6c6572206973206e6f74206f7760448201527f6e6572206e6f7220617070726f76656420666f7220616c6c0000000000000000606482015260840161087f565b6109b58383611cd2565b505050565b6008546040516370a0823160e01b81523060048201526000916001600160a01b0316906370a082319060240160206040518083038186803b1580156109fe57600080fd5b505afa158015610a12573d6000803e3d6000fd5b505050506040513d601f19601f82011682018060405250810190610a369190612928565b11610a4057600080fd5b60003411610aa95760405162461bcd60e51b815260206004820152603060248201527f796f75206861766520746f2073656e6420736f6d652045544820746f2067657460448201526f1025b4b733b237b6a9b2b2b231b7b4b760811b606482015260840161087f565b6008546040516370a0823160e01b81523060048201526000916001600160a01b0316906370a082319060240160206040518083038186803b158015610aed57600080fd5b505afa158015610b01573d6000803e3d6000fd5b505050506040513d601f19601f82011682018060405250810190610b259190612928565b11610b8a5760405162461bcd60e51b815260206004820152602f60248201527f75686f682c2073727920692063616e27742073656e6420616e79206d6f72652060448201526e25b4b733b237b6a9b2b2b231b7b4b760891b606482015260840161087f565b600654600090610b9d9060ff1634612957565b60085460405163a9059cbb60e01b8152336004820152602481018390529192506001600160a01b03169063a9059cbb90604401602060405180830381600087803b158015610bea57600080fd5b505af1158015610bfe573d6000803e3d6000fd5b505050506040513d601f19601f82011682018060405250810190610c229190612976565b5050565b6001600160a01b03811660009081526175416020908152604091829020805483518184028101840190945280845260609392830182828015610c8757602002820191906000526020600020905b815481526020019060010190808311610c73575b50505050509050919050565b600f816127108110610ca457600080fd5b600302018054600182015460029092015490925083565b610cc53382611d40565b610ce15760405162461bcd60e51b815260040161087f90612993565b6109b5838383611e37565b600c546000906001600160a01b03163314610d345760405162461bcd60e51b81526020600482015260086024820152673337b7b59037b33360c11b604482015260640161087f565b6000610d3f83611349565b9050610d4c813085611e37565b611a0a60005b6001600160a01b03831660009081526175416020526040902054811015610dcc576001600160a01b038316600090815261754160205260409020805486919083908110610da157610da16129e4565b90600052602060002001541415610dba57809150610dcc565b80610dc4816129fa565b915050610d52565b5080611a0a1415610e3e5760405162461bcd60e51b815260206004820152603660248201527f72657665727365206974656d2066756e6374696f6e2e2e2e206974656d206e6f6044820152757420666f756e6420696e20616464726573733269647360501b606482015260840161087f565b6001600160a01b038216600090815261754160205260409020805482908110610e6957610e696129e4565b60009182526020822001555060019150505b919050565b6109b583838360405180602001604052806000815250611900565b6009546040516370a0823160e01b81523060048201526000916001600160a01b0316906370a082319060240160206040518083038186803b158015610edf57600080fd5b505afa158015610ef3573d6000803e3d6000fd5b505050506040513d601f19601f82011682018060405250810190610f179190612928565b11610f2157600080fd5b600a546040516370a0823160e01b81523060048201526000916001600160a01b0316906370a082319060240160206040518083038186803b158015610f6557600080fd5b505afa158015610f79573d6000803e3d6000fd5b505050506040513d601f19601f82011682018060405250810190610f9d9190612928565b11610fa757600080fd5b6008546040516370a0823160e01b81523360048201526000916001600160a01b0316906370a082319060240160206040518083038186803b158015610feb57600080fd5b505afa158015610fff573d6000803e3d6000fd5b505050506040513d601f19601f820116820180604052508101906110239190612928565b90508281101580156110355750600083115b61109c5760405162461bcd60e51b815260206004820152603260248201527f796f7520646f6e2774206861766520656e6f7567682073656564636f696e732160448201527120627579206f7220747261646520736f6d6560701b606482015260840161087f565b60ff821615806110af57508160ff166001145b6111165760405162461bcd60e51b815260206004820152603260248201527f746172676574436f696e2068617320746f20626520303d61747461636b636f69604482015271371037b910189eb232b332b739b2b1b7b4b760711b606482015260840161087f565b60ff82166111585760405183815233907f44d00596aedd88fca0607c9a84113fd638c9a070d5ef8d77c072080b688d8e349060200160405180910390a261119a565b8160ff166001141561119a5760405183815233907f049b4d6e22c9904766197183f9dc1f362cefb04f39e3850a8b7d83ff2c26216f9060200160405180910390a25b6008546040516323b872dd60e01b8152336004820152306024820152604481018590526001600160a01b03909116906323b872dd90606401602060405180830381600087803b1580156111ec57600080fd5b505af1158015611200573d6000803e3d6000fd5b505050506040513d601f19601f820116820180604052508101906112249190612976565b50600b6000336001600160a01b03166001600160a01b0316815260200190815260200160002060405180606001604052808581526020018460ff168152602001600754426112729190612a15565b90528154600180820184556000938452602093849020835160039093020191825592820151928101805460ff191660ff9094169390931790925560400151600290910155505050565b600e80546112c8906128ed565b80601f01602080910402602001604051908101604052809291908181526020018280546112f4906128ed565b80156113415780601f1061131657610100808354040283529160200191611341565b820191906000526020600020905b81548152906001019060200180831161132457829003601f168201915b505050505081565b6000818152600260205260408120546001600160a01b0316806107725760405162461bcd60e51b815260206004820152602960248201527f4552433732313a206f776e657220717565727920666f72206e6f6e657869737460448201526832b73a103a37b5b2b760b91b606482015260840161087f565b6060600e6113cd83611fd7565b6040516020016113de929190612a49565b6040516020818303038152906040529050919050565b60006001600160a01b03821661145f5760405162461bcd60e51b815260206004820152602a60248201527f4552433732313a2062616c616e636520717565727920666f7220746865207a65604482015269726f206164647265737360b01b606482015260840161087f565b506001600160a01b031660009081526003602052604090205490565b611483612576565b60005b336000908152600b602052604090205481101561156157336000908152600b602052604081208054839081106114be576114be6129e4565b600091825260209182902060408051606081018252600390930290910180548352600181015460ff16938301849052600201549082015291506115205742816040015111156115175760168360005b602002015261154e565b6000838161150d565b806020015160ff166001141561154e57428160400151111561154657601783600161150d565b600060208401525b5080611559816129fa565b915050611486565b5090565b60005b336000908152600b602052604090205481101561182957336000908152600b602052604081208054839081106115a0576115a06129e4565b600091825260209182902060408051606081018252600390930290910180548352600181015460ff1693830193909352600290920154918101829052915042111561181657602081015160ff166116db57600654815160009161160c9161010090910460ff1690612b06565b905061161b8260000151612100565b60095460405163a9059cbb60e01b8152336004820152602481018390526001600160a01b039091169063a9059cbb90604401602060405180830381600087803b15801561166757600080fd5b505af115801561167b573d6000803e3d6000fd5b505050506040513d601f19601f8201168201806040525081019061169f9190612976565b5060405181815233907f9fd4a9248425079a398923cd20daa8e0c103907fb89db4707cb4f2cc343f95469060200160405180910390a2506117d2565b806020015160ff16600114156117d2576006548151600091611707916201000090910460ff1690612b06565b90506117168260000151612100565b600a5460405163a9059cbb60e01b8152336004820152602481018390526001600160a01b039091169063a9059cbb90604401602060405180830381600087803b15801561176257600080fd5b505af1158015611776573d6000803e3d6000fd5b505050506040513d601f19601f8201168201806040525081019061179a9190612976565b5060405181815233907fd62aeb2df4f1c7a0c59e15c0dca22ccbcbe42ad0d0dbf99a22c0ad2551c5a1559060200160405180910390a2505b336000908152600b602052604090208054839081106117f3576117f36129e4565b60009182526020822060039091020181815560018101805460ff19169055600201555b5080611821816129fa565b915050611568565b50565b606060018054610787906128ed565b6001600160a01b0382163314156118945760405162461bcd60e51b815260206004820152601960248201527f4552433732313a20617070726f766520746f2063616c6c657200000000000000604482015260640161087f565b3360008181526005602090815260408083206001600160a01b03871680855290835292819020805460ff191686151590811790915590519081529192917f17307eab39ab6107e8899845ad3d59bd9653f200f220920489ca2b5937696c31910160405180910390a35050565b61190a3383611d40565b6119265760405162461bcd60e51b815260040161087f90612993565b611932848484846121f6565b50505050565b6000818152600260205260409020546060906001600160a01b03166119b75760405162461bcd60e51b815260206004820152602f60248201527f4552433732314d657461646174613a2055524920717565727920666f72206e6f60448201526e3732bc34b9ba32b73a103a37b5b2b760891b606482015260840161087f565b60006119ce60408051602081019091526000815290565b905060008151116119ee5760405180602001604052806000815250611a19565b806119f884612229565b604051602001611a09929190612b1a565b6040516020818303038152906040525b9392505050565b6175416020528160005260406000208181548110611a3d57600080fd5b90600052602060002001600091509150505481565b600c546000906001600160a01b03163314611a9a5760405162461bcd60e51b81526020600482015260086024820152673337b7b59037b33360c11b604482015260640161087f565b6175405461271060ff90911610611afd5760405162461bcd60e51b815260206004820152602160248201527f75686f682c206e6f207469746c657320617661696c61626c6520616e796d6f726044820152606560f81b606482015260840161087f565b61754054600090611b129060ff166001612b49565b60ff169050611b218382612327565b6001600160a01b03831660009081526175416020908152604080832080546001810182559084528284200184905583835261753f8252808320849055805160608101825283815291820192909252600d549091820190611b819042612a15565b9052600f826127108110611b9757611b976129e4565b82516003919091029190910190815560208201516001820155604090910151600290910155617540805460ff16906000611bd083612b6e565b91906101000a81548160ff021916908360ff1602179055505080915050919050565b611bfa612576565b60008060005b336000908152600b6020526040902054811015611cba57336000908152600b60205260408120805483908110611c3857611c386129e4565b600091825260209182902060408051606081018252600390930290910180548352600181015460ff1693830184905260020154908201529150611c88578051611c819085612a15565b9350611ca7565b806020015160ff1660011415611ca7578051611ca49084612a15565b92505b5080611cb2816129fa565b915050611c00565b50604080518082019091529182526020820152919050565b600081815260046020526040902080546001600160a01b0319166001600160a01b0384169081179091558190611d0782611349565b6001600160a01b03167f8c5be1e5ebec7d5bd14f71427d1e84f3dd0314c0f7b2291e5b200ac8c7c3b92560405160405180910390a45050565b6000818152600260205260408120546001600160a01b0316611db95760405162461bcd60e51b815260206004820152602c60248201527f4552433732313a206f70657261746f7220717565727920666f72206e6f6e657860448201526b34b9ba32b73a103a37b5b2b760a11b606482015260840161087f565b6000611dc483611349565b9050806001600160a01b0316846001600160a01b03161480611dff5750836001600160a01b0316611df48461080a565b6001600160a01b0316145b80611e2f57506001600160a01b0380821660009081526005602090815260408083209388168352929052205460ff165b949350505050565b826001600160a01b0316611e4a82611349565b6001600160a01b031614611eb25760405162461bcd60e51b815260206004820152602960248201527f4552433732313a207472616e73666572206f6620746f6b656e2074686174206960448201526839903737ba1037bbb760b91b606482015260840161087f565b6001600160a01b038216611f145760405162461bcd60e51b8152602060048201526024808201527f4552433732313a207472616e7366657220746f20746865207a65726f206164646044820152637265737360e01b606482015260840161087f565b611f1f600082611cd2565b6001600160a01b0383166000908152600360205260408120805460019290611f48908490612b8e565b90915550506001600160a01b0382166000908152600360205260408120805460019290611f76908490612a15565b909155505060008181526002602052604080822080546001600160a01b0319166001600160a01b0386811691821790925591518493918716917fddf252ad1be2c89b69c2b068fc378daa952ba7f163c4a11628f55a4df523b3ef91a4505050565b606081611ffb5750506040805180820190915260018152600360fc1b602082015290565b8160005b8115612025578061200f816129fa565b915061201e9050600a83612b06565b9150611fff565b60008167ffffffffffffffff811115612040576120406127c8565b6040519080825280601f01601f19166020018201604052801561206a576020820181803683370190505b509050815b85156120f757612080600182612b8e565b9050600061208f600a88612b06565b61209a90600a612957565b6120a49088612b8e565b6120af906030612b49565b905060008160f81b9050808484815181106120cc576120cc6129e4565b60200101906001600160f81b031916908160001a9053506120ee600a89612b06565b9750505061206f565b50949350505050565b60065460009060649061211d906301000000900460ff1684612957565b6121279190612b06565b6121319083612b8e565b60085460405163a9059cbb60e01b8152336004820152602481018390529192506001600160a01b03169063a9059cbb90604401602060405180830381600087803b15801561217e57600080fd5b505af1158015612192573d6000803e3d6000fd5b505050506040513d601f19601f820116820180604052508101906121b69190612976565b50604080518281526020810184905233917f11acec8ea502f5c875e157dd1a17389990a9350450464db61ef112521c0d8751910160405180910390a25050565b612201848484611e37565b61220d84848484612469565b6119325760405162461bcd60e51b815260040161087f90612ba5565b60608161224d5750506040805180820190915260018152600360fc1b602082015290565b8160005b81156122775780612261816129fa565b91506122709050600a83612b06565b9150612251565b60008167ffffffffffffffff811115612292576122926127c8565b6040519080825280601f01601f1916602001820160405280156122bc576020820181803683370190505b5090505b8415611e2f576122d1600183612b8e565b91506122de600a86612bf7565b6122e9906030612a15565b60f81b8183815181106122fe576122fe6129e4565b60200101906001600160f81b031916908160001a905350612320600a86612b06565b94506122c0565b6001600160a01b03821661237d5760405162461bcd60e51b815260206004820181905260248201527f4552433732313a206d696e7420746f20746865207a65726f2061646472657373604482015260640161087f565b6000818152600260205260409020546001600160a01b0316156123e25760405162461bcd60e51b815260206004820152601c60248201527f4552433732313a20746f6b656e20616c7265616479206d696e74656400000000604482015260640161087f565b6001600160a01b038216600090815260036020526040812080546001929061240b908490612a15565b909155505060008181526002602052604080822080546001600160a01b0319166001600160a01b03861690811790915590518392907fddf252ad1be2c89b69c2b068fc378daa952ba7f163c4a11628f55a4df523b3ef908290a45050565b60006001600160a01b0384163b1561256b57604051630a85bd0160e11b81526001600160a01b0385169063150b7a02906124ad903390899088908890600401612c0b565b602060405180830381600087803b1580156124c757600080fd5b505af19250505080156124f7575060408051601f3d908101601f191682019092526124f491810190612c48565b60015b612551573d808015612525576040519150601f19603f3d011682016040523d82523d6000602084013e61252a565b606091505b5080516125495760405162461bcd60e51b815260040161087f90612ba5565b805181602001fd5b6001600160e01b031916630a85bd0160e11b149050611e2f565b506001949350505050565b60405180604001604052806002906020820280368337509192915050565b6001600160e01b03198116811461182957600080fd5b6000602082840312156125bc57600080fd5b8135611a1981612594565b60005b838110156125e25781810151838201526020016125ca565b838111156119325750506000910152565b6000815180845261260b8160208601602086016125c7565b601f01601f19169290920160200192915050565b602081526000611a1960208301846125f3565b60006020828403121561264457600080fd5b5035919050565b80356001600160a01b0381168114610e7b57600080fd5b6000806040838503121561267557600080fd5b61267e8361264b565b946020939093013593505050565b60006020828403121561269e57600080fd5b611a198261264b565b6020808252825182820181905260009190848201906040850190845b818110156126df578351835292840192918401916001016126c3565b50909695505050505050565b60008060006060848603121561270057600080fd5b6127098461264b565b92506127176020850161264b565b9150604084013590509250925092565b6000806040838503121561273a57600080fd5b82359150602083013560ff8116811461275257600080fd5b809150509250929050565b60408101818360005b6002811015612785578151835260209283019290910190600101612766565b50505092915050565b801515811461182957600080fd5b600080604083850312156127af57600080fd5b6127b88361264b565b915060208301356127528161278e565b634e487b7160e01b600052604160045260246000fd5b600080600080608085870312156127f457600080fd5b6127fd8561264b565b935061280b6020860161264b565b925060408501359150606085013567ffffffffffffffff8082111561282f57600080fd5b818701915087601f83011261284357600080fd5b813581811115612855576128556127c8565b604051601f8201601f19908116603f0116810190838211818310171561287d5761287d6127c8565b816040528281528a602084870101111561289657600080fd5b82602086016020830137600060208483010152809550505050505092959194509250565b600080604083850312156128cd57600080fd5b6128d68361264b565b91506128e46020840161264b565b90509250929050565b600181811c9082168061290157607f821691505b6020821081141561292257634e487b7160e01b600052602260045260246000fd5b50919050565b60006020828403121561293a57600080fd5b5051919050565b634e487b7160e01b600052601160045260246000fd5b600081600019048311821515161561297157612971612941565b500290565b60006020828403121561298857600080fd5b8151611a198161278e565b60208082526031908201527f4552433732313a207472616e736665722063616c6c6572206973206e6f74206f6040820152701ddb995c881b9bdc88185c1c1c9bdd9959607a1b606082015260800190565b634e487b7160e01b600052603260045260246000fd5b6000600019821415612a0e57612a0e612941565b5060010190565b60008219821115612a2857612a28612941565b500190565b60008151612a3f8185602086016125c7565b9290920192915050565b600080845481600182811c915080831680612a6557607f831692505b6020808410821415612a8557634e487b7160e01b86526022600452602486fd5b818015612a995760018114612aaa57612ad7565b60ff19861689528489019650612ad7565b60008b81526020902060005b86811015612acf5781548b820152908501908301612ab6565b505084890196505b505050505050612ae78185612a2d565b95945050505050565b634e487b7160e01b600052601260045260246000fd5b600082612b1557612b15612af0565b500490565b60008351612b2c8184602088016125c7565b835190830190612b408183602088016125c7565b01949350505050565b600060ff821660ff84168060ff03821115612b6657612b66612941565b019392505050565b600060ff821660ff811415612b8557612b85612941565b60010192915050565b600082821015612ba057612ba0612941565b500390565b60208082526032908201527f4552433732313a207472616e7366657220746f206e6f6e20455243373231526560408201527131b2b4bb32b91034b6b83632b6b2b73a32b960711b606082015260800190565b600082612c0657612c06612af0565b500690565b6001600160a01b0385811682528416602082015260408101839052608060608201819052600090612c3e908301846125f3565b9695505050505050565b600060208284031215612c5a57600080fd5b8151611a198161259456fea2646970667358221220af7265db44d5258d8ca3b92b29cab8c2e0705119fc832faa94b231a8debee87464736f6c6343000809003368747470733a2f2f7777772e6b696e67646f6d63727970746f2e636f6d2f7469746c65732f",
  "immutableReferences": {},
  "source": "pragma solidity ^0.8;\n\nimport \"@openzeppelin/contracts/token/ERC721/ERC721.sol\";\nimport \"@openzeppelin/contracts/access/Ownable.sol\";\nimport \"./KingdomBank.sol\";\n\ncontract KingdomTitles is ERC721, KingdomBank {\n    \n    address private _owner;\n    \n    uint16 constant public totalSupply = 10000;\n    uint public attackCooldown = 60 seconds;\n    string public baseUrl = \"https://www.kingdomcrypto.com/titles/\";\n\n    struct KingdomTitle {\n        uint attackPoints;\n        uint defensePoints;\n        uint readyTimeAttack;\n    }\n\n    KingdomTitle[totalSupply] public kingdomtitles;\n\n    mapping (uint => uint) public titleId2Rank;\n    uint8 internal titleCount;\n\n    mapping (address => uint[]) public address2ids;\n\n    constructor(KingdomSeedCoin kgdsc, KingdomAttackCoin kgdat, KingdomDefenseCoin kgddf) ERC721(\"Kingdom Titles\", \"KGD\") KingdomBank(kgdsc, kgdat, kgddf) {\n        _owner = _msgSender();\n        titleCount = 0;\n    }\n\n    modifier onlyOwner {\n        require(_owner == msg.sender, \"fook off\");\n        _;\n    }\n\n    function uint2str(uint _i) internal pure returns (string memory _uintAsString) {\n        if (_i == 0) {\n            return \"0\";\n        }\n        uint j = _i;\n        uint len;\n        while (j != 0) {\n            len++;\n            j /= 10;\n        }\n        bytes memory bstr = new bytes(len);\n        uint k = len;\n        while (_i != 0) {\n            k = k-1;\n            uint8 temp = (48 + uint8(_i - _i / 10 * 10));\n            bytes1 b1 = bytes1(temp);\n            bstr[k] = b1;\n            _i /= 10;\n        }\n        return string(bstr);\n    }\n\n    function currentPosition() public view returns (uint256) {\n        return uint256(titleCount);\n    }\n\n    function awardItem(address player) public onlyOwner returns (uint256) {\n        require(titleCount < totalSupply, \"uhoh, no titles available anymore\");  \n\n        uint256 newItemId = titleCount + 1;\n        _mint(player, newItemId);\n\n        // mark it down in address2ids\n        address2ids[player].push(newItemId);\n\n        // then add data to storage\n        titleId2Rank[newItemId] = newItemId;\n        kingdomtitles[newItemId] = KingdomTitle(0,0,block.timestamp + attackCooldown);\n\n        titleCount++;\n\n        return newItemId;\n    }\n\n    function reverseItem(uint256 itemId) public onlyOwner returns (bool) {\n        address ownerOfItem = ownerOf(itemId);\n        _transfer(ownerOfItem, address(this), itemId);\n        uint pos = 6666;\n        for (uint i = 0; i < address2ids[ownerOfItem].length; i++) {\n            if (address2ids[ownerOfItem][i] == itemId) {\n                pos = i;\n                break;\n            }\n        }\n        require(pos != 6666, \"reverse item function... item not found in address2ids\");\n        delete address2ids[ownerOfItem][pos];\n        return true;\n    }\n\n    function tokenMetadata(uint256 _tokenId) public view returns (string memory infoUrl) {\n        return string(abi.encodePacked(baseUrl, uint2str(_tokenId)));\n    }\n\n    function returnIdsOfAddress(address _own) public view returns (uint256[] memory ownedIds) {\n        ownedIds = address2ids[_own];\n        // for (uint i = 0; i < ownedIds.length; i++) {\n        //     ranksOfIds[i] = titleId2Rank[ownedIds[i]];\n        // }\n        return ownedIds;\n    }\n}",
  "sourcePath": "/home/justin/code/solidity-course/kingdom/contracts/KingdomTitles.sol",
  "compiler": {
    "name": "solc",
    "version": "0.8.9+commit.e5eed63a.Emscripten.clang"
  },
  "schemaVersion": "3.4.3",
  "updatedAt": "2021-11-11T11:02:23.653Z",
  "devdoc": {
    "kind": "dev",
    "methods": {
      "approve(address,uint256)": {
        "details": "See {IERC721-approve}."
      },
      "balanceOf(address)": {
        "details": "See {IERC721-balanceOf}."
      },
      "getApproved(uint256)": {
        "details": "See {IERC721-getApproved}."
      },
      "isApprovedForAll(address,address)": {
        "details": "See {IERC721-isApprovedForAll}."
      },
      "name()": {
        "details": "See {IERC721Metadata-name}."
      },
      "ownerOf(uint256)": {
        "details": "See {IERC721-ownerOf}."
      },
      "safeTransferFrom(address,address,uint256)": {
        "details": "See {IERC721-safeTransferFrom}."
      },
      "safeTransferFrom(address,address,uint256,bytes)": {
        "details": "See {IERC721-safeTransferFrom}."
      },
      "setApprovalForAll(address,bool)": {
        "details": "See {IERC721-setApprovalForAll}."
      },
      "supportsInterface(bytes4)": {
        "details": "See {IERC165-supportsInterface}."
      },
      "symbol()": {
        "details": "See {IERC721Metadata-symbol}."
      },
      "tokenURI(uint256)": {
        "details": "See {IERC721Metadata-tokenURI}."
      },
      "transferFrom(address,address,uint256)": {
        "details": "See {IERC721-transferFrom}."
      }
    },
    "version": 1
  },
  "userdoc": {
    "kind": "user",
    "methods": {},
    "version": 1
  }
}