{
  "contractName": "KingdomGameMechanic",
  "abi": [
    {
      "inputs": [
        {
          "internalType": "contract KingdomSeedCoin",
          "name": "_kgdsc",
          "type": "address"
        },
        {
          "internalType": "contract KingdomAttackCoin",
          "name": "_kgdat",
          "type": "address"
        },
        {
          "internalType": "contract KingdomDefenseCoin",
          "name": "_kgddf",
          "type": "address"
        }
      ],
      "stateMutability": "nonpayable",
      "type": "constructor"
    },
    {
      "anonymous": false,
      "inputs": [
        {
          "indexed": true,
          "internalType": "address",
          "name": "owner",
          "type": "address"
        },
        {
          "indexed": true,
          "internalType": "address",
          "name": "approved",
          "type": "address"
        },
        {
          "indexed": true,
          "internalType": "uint256",
          "name": "tokenId",
          "type": "uint256"
        }
      ],
      "name": "Approval",
      "type": "event"
    },
    {
      "anonymous": false,
      "inputs": [
        {
          "indexed": true,
          "internalType": "address",
          "name": "owner",
          "type": "address"
        },
        {
          "indexed": true,
          "internalType": "address",
          "name": "operator",
          "type": "address"
        },
        {
          "indexed": false,
          "internalType": "bool",
          "name": "approved",
          "type": "bool"
        }
      ],
      "name": "ApprovalForAll",
      "type": "event"
    },
    {
      "anonymous": false,
      "inputs": [
        {
          "indexed": false,
          "internalType": "address",
          "name": "attacker",
          "type": "address"
        },
        {
          "indexed": false,
          "internalType": "address",
          "name": "defender",
          "type": "address"
        },
        {
          "indexed": false,
          "internalType": "uint8",
          "name": "attacker_id",
          "type": "uint8"
        },
        {
          "indexed": false,
          "internalType": "uint8",
          "name": "defender_id",
          "type": "uint8"
        },
        {
          "indexed": false,
          "internalType": "uint256",
          "name": "attackPointsBefore",
          "type": "uint256"
        },
        {
          "indexed": false,
          "internalType": "uint256",
          "name": "defensePointsBefore",
          "type": "uint256"
        },
        {
          "indexed": false,
          "internalType": "uint256",
          "name": "deadAttackers",
          "type": "uint256"
        },
        {
          "indexed": false,
          "internalType": "uint256",
          "name": "deadDefenders",
          "type": "uint256"
        },
        {
          "indexed": false,
          "internalType": "uint256",
          "name": "denominator",
          "type": "uint256"
        },
        {
          "indexed": false,
          "internalType": "uint256",
          "name": "remainder",
          "type": "uint256"
        },
        {
          "indexed": false,
          "internalType": "bool",
          "name": "won",
          "type": "bool"
        }
      ],
      "name": "Attack",
      "type": "event"
    },
    {
      "anonymous": false,
      "inputs": [
        {
          "indexed": true,
          "internalType": "address",
          "name": "_to",
          "type": "address"
        },
        {
          "indexed": false,
          "internalType": "uint256",
          "name": "_amount",
          "type": "uint256"
        }
      ],
      "name": "HarvestAttackPoints",
      "type": "event"
    },
    {
      "anonymous": false,
      "inputs": [
        {
          "indexed": true,
          "internalType": "address",
          "name": "_to",
          "type": "address"
        },
        {
          "indexed": false,
          "internalType": "uint256",
          "name": "_amount",
          "type": "uint256"
        }
      ],
      "name": "HarvestDefensePoints",
      "type": "event"
    },
    {
      "anonymous": false,
      "inputs": [
        {
          "indexed": true,
          "internalType": "address",
          "name": "_to",
          "type": "address"
        },
        {
          "indexed": false,
          "internalType": "uint256",
          "name": "_amount",
          "type": "uint256"
        },
        {
          "indexed": false,
          "internalType": "uint256",
          "name": "_beforeBurn",
          "type": "uint256"
        }
      ],
      "name": "HarvestRemainingSeedCoins",
      "type": "event"
    },
    {
      "anonymous": false,
      "inputs": [
        {
          "indexed": false,
          "internalType": "uint256",
          "name": "error",
          "type": "uint256"
        }
      ],
      "name": "Log",
      "type": "event"
    },
    {
      "anonymous": false,
      "inputs": [
        {
          "indexed": false,
          "internalType": "address",
          "name": "attacker",
          "type": "address"
        },
        {
          "indexed": false,
          "internalType": "address",
          "name": "defender",
          "type": "address"
        },
        {
          "indexed": false,
          "internalType": "uint8",
          "name": "new_attacker_id",
          "type": "uint8"
        }
      ],
      "name": "Sacked",
      "type": "event"
    },
    {
      "anonymous": false,
      "inputs": [
        {
          "indexed": true,
          "internalType": "address",
          "name": "from",
          "type": "address"
        },
        {
          "indexed": true,
          "internalType": "address",
          "name": "to",
          "type": "address"
        },
        {
          "indexed": true,
          "internalType": "uint256",
          "name": "tokenId",
          "type": "uint256"
        }
      ],
      "name": "Transfer",
      "type": "event"
    },
    {
      "anonymous": false,
      "inputs": [
        {
          "indexed": true,
          "internalType": "address",
          "name": "_from",
          "type": "address"
        },
        {
          "indexed": false,
          "internalType": "uint256",
          "name": "_amount",
          "type": "uint256"
        }
      ],
      "name": "enterStakingAttackPoints",
      "type": "event"
    },
    {
      "anonymous": false,
      "inputs": [
        {
          "indexed": true,
          "internalType": "address",
          "name": "_from",
          "type": "address"
        },
        {
          "indexed": false,
          "internalType": "uint256",
          "name": "_amount",
          "type": "uint256"
        }
      ],
      "name": "enterStakingDefensePoints",
      "type": "event"
    },
    {
      "inputs": [
        {
          "internalType": "address",
          "name": "",
          "type": "address"
        },
        {
          "internalType": "uint256",
          "name": "",
          "type": "uint256"
        }
      ],
      "name": "address2ids",
      "outputs": [
        {
          "internalType": "uint256",
          "name": "",
          "type": "uint256"
        }
      ],
      "stateMutability": "view",
      "type": "function",
      "constant": true
    },
    {
      "inputs": [
        {
          "internalType": "address",
          "name": "to",
          "type": "address"
        },
        {
          "internalType": "uint256",
          "name": "tokenId",
          "type": "uint256"
        }
      ],
      "name": "approve",
      "outputs": [],
      "stateMutability": "nonpayable",
      "type": "function"
    },
    {
      "inputs": [],
      "name": "attackCooldown",
      "outputs": [
        {
          "internalType": "uint256",
          "name": "",
          "type": "uint256"
        }
      ],
      "stateMutability": "view",
      "type": "function",
      "constant": true
    },
    {
      "inputs": [
        {
          "internalType": "address",
          "name": "player",
          "type": "address"
        }
      ],
      "name": "awardItem",
      "outputs": [
        {
          "internalType": "uint256",
          "name": "",
          "type": "uint256"
        }
      ],
      "stateMutability": "nonpayable",
      "type": "function"
    },
    {
      "inputs": [
        {
          "internalType": "address",
          "name": "owner",
          "type": "address"
        }
      ],
      "name": "balanceOf",
      "outputs": [
        {
          "internalType": "uint256",
          "name": "",
          "type": "uint256"
        }
      ],
      "stateMutability": "view",
      "type": "function",
      "constant": true
    },
    {
      "inputs": [],
      "name": "baseUrl",
      "outputs": [
        {
          "internalType": "string",
          "name": "",
          "type": "string"
        }
      ],
      "stateMutability": "view",
      "type": "function",
      "constant": true
    },
    {
      "inputs": [],
      "name": "buyForETH",
      "outputs": [],
      "stateMutability": "payable",
      "type": "function",
      "payable": true
    },
    {
      "inputs": [],
      "name": "currentPosition",
      "outputs": [
        {
          "internalType": "uint256",
          "name": "",
          "type": "uint256"
        }
      ],
      "stateMutability": "view",
      "type": "function",
      "constant": true
    },
    {
      "inputs": [],
      "name": "exchangeRate",
      "outputs": [
        {
          "internalType": "uint8",
          "name": "",
          "type": "uint8"
        }
      ],
      "stateMutability": "view",
      "type": "function",
      "constant": true
    },
    {
      "inputs": [],
      "name": "exchangeRate_Attackpoints",
      "outputs": [
        {
          "internalType": "uint8",
          "name": "",
          "type": "uint8"
        }
      ],
      "stateMutability": "view",
      "type": "function",
      "constant": true
    },
    {
      "inputs": [],
      "name": "exchangeRate_Burnpct",
      "outputs": [
        {
          "internalType": "uint8",
          "name": "",
          "type": "uint8"
        }
      ],
      "stateMutability": "view",
      "type": "function",
      "constant": true
    },
    {
      "inputs": [],
      "name": "exchangeRate_Defensepoints",
      "outputs": [
        {
          "internalType": "uint8",
          "name": "",
          "type": "uint8"
        }
      ],
      "stateMutability": "view",
      "type": "function",
      "constant": true
    },
    {
      "inputs": [
        {
          "internalType": "uint256",
          "name": "tokenId",
          "type": "uint256"
        }
      ],
      "name": "getApproved",
      "outputs": [
        {
          "internalType": "address",
          "name": "",
          "type": "address"
        }
      ],
      "stateMutability": "view",
      "type": "function",
      "constant": true
    },
    {
      "inputs": [],
      "name": "getCurrentStakes",
      "outputs": [
        {
          "internalType": "uint256[2]",
          "name": "",
          "type": "uint256[2]"
        }
      ],
      "stateMutability": "view",
      "type": "function",
      "constant": true
    },
    {
      "inputs": [
        {
          "internalType": "uint8",
          "name": "titleId",
          "type": "uint8"
        }
      ],
      "name": "getKingdomTitleStats",
      "outputs": [
        {
          "internalType": "uint256[3]",
          "name": "stats",
          "type": "uint256[3]"
        }
      ],
      "stateMutability": "view",
      "type": "function",
      "constant": true
    },
    {
      "inputs": [],
      "name": "getTimeUntilStakingDone",
      "outputs": [
        {
          "internalType": "uint256[2]",
          "name": "timeuntildone",
          "type": "uint256[2]"
        }
      ],
      "stateMutability": "view",
      "type": "function",
      "constant": true
    },
    {
      "inputs": [],
      "name": "harvestAll",
      "outputs": [],
      "stateMutability": "nonpayable",
      "type": "function"
    },
    {
      "inputs": [
        {
          "internalType": "address",
          "name": "owner",
          "type": "address"
        },
        {
          "internalType": "address",
          "name": "operator",
          "type": "address"
        }
      ],
      "name": "isApprovedForAll",
      "outputs": [
        {
          "internalType": "bool",
          "name": "",
          "type": "bool"
        }
      ],
      "stateMutability": "view",
      "type": "function",
      "constant": true
    },
    {
      "inputs": [],
      "name": "justSendETH",
      "outputs": [
        {
          "internalType": "uint256",
          "name": "",
          "type": "uint256"
        }
      ],
      "stateMutability": "payable",
      "type": "function",
      "payable": true
    },
    {
      "inputs": [],
      "name": "kgdat",
      "outputs": [
        {
          "internalType": "contract KingdomAttackCoin",
          "name": "",
          "type": "address"
        }
      ],
      "stateMutability": "view",
      "type": "function",
      "constant": true
    },
    {
      "inputs": [],
      "name": "kgddf",
      "outputs": [
        {
          "internalType": "contract KingdomDefenseCoin",
          "name": "",
          "type": "address"
        }
      ],
      "stateMutability": "view",
      "type": "function",
      "constant": true
    },
    {
      "inputs": [],
      "name": "kgdsc",
      "outputs": [
        {
          "internalType": "contract KingdomSeedCoin",
          "name": "",
          "type": "address"
        }
      ],
      "stateMutability": "view",
      "type": "function",
      "constant": true
    },
    {
      "inputs": [
        {
          "internalType": "uint256",
          "name": "",
          "type": "uint256"
        }
      ],
      "name": "kingdomtitles",
      "outputs": [
        {
          "internalType": "uint256",
          "name": "attackPoints",
          "type": "uint256"
        },
        {
          "internalType": "uint256",
          "name": "defensePoints",
          "type": "uint256"
        },
        {
          "internalType": "uint256",
          "name": "readyTimeAttack",
          "type": "uint256"
        }
      ],
      "stateMutability": "view",
      "type": "function",
      "constant": true
    },
    {
      "inputs": [],
      "name": "name",
      "outputs": [
        {
          "internalType": "string",
          "name": "",
          "type": "string"
        }
      ],
      "stateMutability": "view",
      "type": "function",
      "constant": true
    },
    {
      "inputs": [
        {
          "internalType": "uint256",
          "name": "tokenId",
          "type": "uint256"
        }
      ],
      "name": "ownerOf",
      "outputs": [
        {
          "internalType": "address",
          "name": "",
          "type": "address"
        }
      ],
      "stateMutability": "view",
      "type": "function",
      "constant": true
    },
    {
      "inputs": [
        {
          "internalType": "uint256",
          "name": "nrSeedCoins",
          "type": "uint256"
        },
        {
          "internalType": "uint8",
          "name": "targetCoin",
          "type": "uint8"
        }
      ],
      "name": "plantSeeds",
      "outputs": [],
      "stateMutability": "nonpayable",
      "type": "function"
    },
    {
      "inputs": [
        {
          "internalType": "address",
          "name": "_own",
          "type": "address"
        }
      ],
      "name": "returnIdsOfAddress",
      "outputs": [
        {
          "internalType": "uint256[]",
          "name": "ownedIds",
          "type": "uint256[]"
        }
      ],
      "stateMutability": "view",
      "type": "function",
      "constant": true
    },
    {
      "inputs": [
        {
          "internalType": "address",
          "name": "_own",
          "type": "address"
        }
      ],
      "name": "returnRanksOfTitles",
      "outputs": [
        {
          "internalType": "uint256[]",
          "name": "",
          "type": "uint256[]"
        }
      ],
      "stateMutability": "view",
      "type": "function",
      "constant": true
    },
    {
      "inputs": [
        {
          "internalType": "uint256",
          "name": "itemId",
          "type": "uint256"
        }
      ],
      "name": "reverseItem",
      "outputs": [
        {
          "internalType": "bool",
          "name": "",
          "type": "bool"
        }
      ],
      "stateMutability": "nonpayable",
      "type": "function"
    },
    {
      "inputs": [
        {
          "internalType": "address",
          "name": "from",
          "type": "address"
        },
        {
          "internalType": "address",
          "name": "to",
          "type": "address"
        },
        {
          "internalType": "uint256",
          "name": "tokenId",
          "type": "uint256"
        }
      ],
      "name": "safeTransferFrom",
      "outputs": [],
      "stateMutability": "nonpayable",
      "type": "function"
    },
    {
      "inputs": [
        {
          "internalType": "address",
          "name": "from",
          "type": "address"
        },
        {
          "internalType": "address",
          "name": "to",
          "type": "address"
        },
        {
          "internalType": "uint256",
          "name": "tokenId",
          "type": "uint256"
        },
        {
          "internalType": "bytes",
          "name": "_data",
          "type": "bytes"
        }
      ],
      "name": "safeTransferFrom",
      "outputs": [],
      "stateMutability": "nonpayable",
      "type": "function"
    },
    {
      "inputs": [
        {
          "internalType": "address",
          "name": "operator",
          "type": "address"
        },
        {
          "internalType": "bool",
          "name": "approved",
          "type": "bool"
        }
      ],
      "name": "setApprovalForAll",
      "outputs": [],
      "stateMutability": "nonpayable",
      "type": "function"
    },
    {
      "inputs": [],
      "name": "stakingPeriod",
      "outputs": [
        {
          "internalType": "uint256",
          "name": "",
          "type": "uint256"
        }
      ],
      "stateMutability": "view",
      "type": "function",
      "constant": true
    },
    {
      "inputs": [
        {
          "internalType": "bytes4",
          "name": "interfaceId",
          "type": "bytes4"
        }
      ],
      "name": "supportsInterface",
      "outputs": [
        {
          "internalType": "bool",
          "name": "",
          "type": "bool"
        }
      ],
      "stateMutability": "view",
      "type": "function",
      "constant": true
    },
    {
      "inputs": [],
      "name": "symbol",
      "outputs": [
        {
          "internalType": "string",
          "name": "",
          "type": "string"
        }
      ],
      "stateMutability": "view",
      "type": "function",
      "constant": true
    },
    {
      "inputs": [
        {
          "internalType": "uint256",
          "name": "",
          "type": "uint256"
        }
      ],
      "name": "titleId2Rank",
      "outputs": [
        {
          "internalType": "uint256",
          "name": "",
          "type": "uint256"
        }
      ],
      "stateMutability": "view",
      "type": "function",
      "constant": true
    },
    {
      "inputs": [
        {
          "internalType": "uint256",
          "name": "_tokenId",
          "type": "uint256"
        }
      ],
      "name": "tokenMetadata",
      "outputs": [
        {
          "internalType": "string",
          "name": "infoUrl",
          "type": "string"
        }
      ],
      "stateMutability": "view",
      "type": "function",
      "constant": true
    },
    {
      "inputs": [
        {
          "internalType": "uint256",
          "name": "tokenId",
          "type": "uint256"
        }
      ],
      "name": "tokenURI",
      "outputs": [
        {
          "internalType": "string",
          "name": "",
          "type": "string"
        }
      ],
      "stateMutability": "view",
      "type": "function",
      "constant": true
    },
    {
      "inputs": [],
      "name": "totalSupply",
      "outputs": [
        {
          "internalType": "uint16",
          "name": "",
          "type": "uint16"
        }
      ],
      "stateMutability": "view",
      "type": "function",
      "constant": true
    },
    {
      "inputs": [
        {
          "internalType": "address",
          "name": "from",
          "type": "address"
        },
        {
          "internalType": "address",
          "name": "to",
          "type": "address"
        },
        {
          "internalType": "uint256",
          "name": "tokenId",
          "type": "uint256"
        }
      ],
      "name": "transferFrom",
      "outputs": [],
      "stateMutability": "nonpayable",
      "type": "function"
    },
    {
      "inputs": [],
      "name": "updateCheck",
      "outputs": [
        {
          "internalType": "string",
          "name": "",
          "type": "string"
        }
      ],
      "stateMutability": "pure",
      "type": "function",
      "constant": true
    },
    {
      "inputs": [
        {
          "internalType": "uint8",
          "name": "id",
          "type": "uint8"
        }
      ],
      "name": "getServants",
      "outputs": [
        {
          "internalType": "uint8",
          "name": "left",
          "type": "uint8"
        },
        {
          "internalType": "uint8",
          "name": "right",
          "type": "uint8"
        }
      ],
      "stateMutability": "view",
      "type": "function",
      "constant": true
    },
    {
      "inputs": [
        {
          "internalType": "uint8",
          "name": "id",
          "type": "uint8"
        }
      ],
      "name": "getBoss",
      "outputs": [
        {
          "internalType": "uint8",
          "name": "bossid",
          "type": "uint8"
        }
      ],
      "stateMutability": "view",
      "type": "function",
      "constant": true
    },
    {
      "inputs": [
        {
          "internalType": "uint8",
          "name": "titleId",
          "type": "uint8"
        }
      ],
      "name": "getTitleStats",
      "outputs": [
        {
          "internalType": "uint256",
          "name": "attackPoints",
          "type": "uint256"
        },
        {
          "internalType": "uint256",
          "name": "defensePoints",
          "type": "uint256"
        },
        {
          "internalType": "bool",
          "name": "ready4attack",
          "type": "bool"
        }
      ],
      "stateMutability": "view",
      "type": "function",
      "constant": true
    },
    {
      "inputs": [
        {
          "internalType": "uint256",
          "name": "nrCoins",
          "type": "uint256"
        },
        {
          "internalType": "uint32",
          "name": "titleId",
          "type": "uint32"
        },
        {
          "internalType": "uint8",
          "name": "coinType",
          "type": "uint8"
        }
      ],
      "name": "assignMilitaryToTitle",
      "outputs": [],
      "stateMutability": "nonpayable",
      "type": "function"
    },
    {
      "inputs": [
        {
          "internalType": "uint8",
          "name": "titleId",
          "type": "uint8"
        }
      ],
      "name": "attackBoss",
      "outputs": [],
      "stateMutability": "nonpayable",
      "type": "function"
    }
  ],
  "bytecode": "0x6006805463ffffffff1916630a080a64179055603c6007819055600d5560e060405260256080818152906200412e60a03980516200004691600e9160209091019062000173565b503480156200005457600080fd5b506040516200415338038062004153833981016040819052620000779162000232565b8282828282826040518060400160405280600e81526020016d4b696e67646f6d205469746c657360901b8152506040518060400160405280600381526020016212d1d160ea1b8152508160009080519060200190620000d892919062000173565b508051620000ee90600190602084019062000173565b5050600880546001600160a01b039586166001600160a01b031991821617909155600980549486169482169490941790935550600a8054919093169116179055620001363390565b600c80546001600160a01b0319166001600160a01b03929092169190911790555050617540805460ff191690555050426175425550620002c39050565b828054620001819062000286565b90600052602060002090601f016020900481019282620001a55760008555620001f0565b82601f10620001c057805160ff1916838001178555620001f0565b82800160010185558215620001f0579182015b82811115620001f0578251825591602001919060010190620001d3565b50620001fe92915062000202565b5090565b5b80821115620001fe576000815560010162000203565b6001600160a01b03811681146200022f57600080fd5b50565b6000806000606084860312156200024857600080fd5b8351620002558162000219565b6020850151909350620002688162000219565b60408501519092506200027b8162000219565b809150509250925092565b600181811c908216806200029b57607f821691505b60208210811415620002bd57634e487b7160e01b600052602260045260246000fd5b50919050565b613e5b80620002d36000396000f3fe60806040526004361061027d5760003560e01c80637c62539a1161014f578063c87b56dd116100c1578063e985e9c51161007a578063e985e9c5146107c9578063e9c81cb3146107e9578063f08b7b7314610816578063f2fb212014610836578063f3852f9714610856578063fa4facdb1461089357600080fd5b8063c87b56dd1461071a578063d4637ddb1461073a578063d534d6361461075a578063e046670b14610773578063e73961f514610779578063e85597401461078f57600080fd5b8063a22cb46511610113578063a22cb46514610657578063a86080d614610677578063b88d4fde14610697578063c03d5b47146106b7578063c669b710146106cd578063c6a3550f146106ec57600080fd5b80637c62539a146105cb57806384505e6a146105eb5780638ed955b91461060d578063900294be1461062257806395d89b411461064257600080fd5b80632756985c116101f357806345405f54116101ac57806345405f54146105075780635bcabf04146105275780636352211e1461053c5780636914db601461055c5780636a7a2fa31461057c57806370a082311461059d57600080fd5b80632756985c1461043b57806339bb0bf81461045b5780633ba0b9a91461047b578063411ee0d0146104a757806342842e0e146104c7578063429c3edf146104e757600080fd5b806313245c951161024557806313245c951461033b57806318160ddd146103685780631a90dfe0146103915780631b4801cc146103c05780631cf95ed6146103e057806323b872dd1461041b57600080fd5b806301ffc9a71461028257806306fdde03146102b7578063081812fc146102d9578063095ea7b31461031157806310f7e4ed14610333575b600080fd5b34801561028e57600080fd5b506102a261029d366004613656565b6108a8565b60405190151581526020015b60405180910390f35b3480156102c357600080fd5b506102cc6108fa565b6040516102ae91906136cb565b3480156102e557600080fd5b506102f96102f43660046136de565b61098c565b6040516001600160a01b0390911681526020016102ae565b34801561031d57600080fd5b5061033161032c36600461370e565b610a26565b005b610331610b3c565b34801561034757600080fd5b5061035b610356366004613738565b610da8565b6040516102ae9190613753565b34801561037457600080fd5b5061037e61271081565b60405161ffff90911681526020016102ae565b34801561039d57600080fd5b506040805180820190915260068152656675636b207560d01b60208201526102cc565b3480156103cc57600080fd5b5061035b6103db366004613738565b610e15565b3480156103ec57600080fd5b506104006103fb3660046136de565b610f3f565b604080519384526020840192909252908201526060016102ae565b34801561042757600080fd5b50610331610436366004613797565b610f67565b34801561044757600080fd5b506102a26104563660046136de565b610f98565b34801561046757600080fd5b506103316104763660046137e4565b61112c565b34801561048757600080fd5b506006546104959060ff1681565b60405160ff90911681526020016102ae565b3480156104b357600080fd5b50600a546102f9906001600160a01b031681565b3480156104d357600080fd5b506103316104e2366004613797565b61158a565b3480156104f357600080fd5b506103316105023660046137ff565b6115a5565b34801561051357600080fd5b50610331610522366004613822565b6119c5565b34801561053357600080fd5b506102cc611e0a565b34801561054857600080fd5b506102f96105573660046136de565b611e98565b34801561056857600080fd5b506102cc6105773660046136de565b611f0f565b34801561058857600080fd5b50600654610495906301000000900460ff1681565b3480156105a957600080fd5b506105bd6105b8366004613738565b611f43565b6040519081526020016102ae565b3480156105d757600080fd5b506009546102f9906001600160a01b031681565b3480156105f757600080fd5b50610600611fca565b6040516102ae9190613869565b34801561061957600080fd5b506103316120b4565b34801561062e57600080fd5b506008546102f9906001600160a01b031681565b34801561064e57600080fd5b506102cc61237b565b34801561066357600080fd5b506103316106723660046138a8565b61238a565b34801561068357600080fd5b506104956106923660046137e4565b61244f565b3480156106a357600080fd5b506103316106b23660046138f5565b612515565b3480156106c357600080fd5b506105bd60075481565b3480156106d957600080fd5b5060065461049590610100900460ff1681565b3480156106f857600080fd5b506105bd6107073660046136de565b61753f6020526000908152604090205481565b34801561072657600080fd5b506102cc6107353660046136de565b612547565b34801561074657600080fd5b506006546104959062010000900460ff1681565b34801561076657600080fd5b506175405460ff166105bd565b476105bd565b34801561078557600080fd5b506105bd600d5481565b34801561079b57600080fd5b506107af6107aa3660046137e4565b61262e565b6040805160ff9384168152929091166020830152016102ae565b3480156107d557600080fd5b506102a26107e43660046139d1565b6126ca565b3480156107f557600080fd5b506108096108043660046137e4565b6126f8565b6040516102ae91906139fb565b34801561082257600080fd5b506105bd61083136600461370e565b612791565b34801561084257600080fd5b506105bd610851366004613738565b6127c3565b34801561086257600080fd5b506108766108713660046137e4565b612963565b6040805193845260208401929092521515908201526060016102ae565b34801561089f57600080fd5b506106006129fd565b60006001600160e01b031982166380ac58cd60e01b14806108d957506001600160e01b03198216635b5e139f60e01b145b806108f457506301ffc9a760e01b6001600160e01b03198316145b92915050565b60606000805461090990613a23565b80601f016020809104026020016040519081016040528092919081815260200182805461093590613a23565b80156109825780601f1061095757610100808354040283529160200191610982565b820191906000526020600020905b81548152906001019060200180831161096557829003601f168201915b5050505050905090565b6000818152600260205260408120546001600160a01b0316610a0a5760405162461bcd60e51b815260206004820152602c60248201527f4552433732313a20617070726f76656420717565727920666f72206e6f6e657860448201526b34b9ba32b73a103a37b5b2b760a11b60648201526084015b60405180910390fd5b506000908152600460205260409020546001600160a01b031690565b6000610a3182611e98565b9050806001600160a01b0316836001600160a01b03161415610a9f5760405162461bcd60e51b815260206004820152602160248201527f4552433732313a20617070726f76616c20746f2063757272656e74206f776e656044820152603960f91b6064820152608401610a01565b336001600160a01b0382161480610abb5750610abb81336126ca565b610b2d5760405162461bcd60e51b815260206004820152603860248201527f4552433732313a20617070726f76652063616c6c6572206973206e6f74206f7760448201527f6e6572206e6f7220617070726f76656420666f7220616c6c00000000000000006064820152608401610a01565b610b378383612add565b505050565b6008546040516370a0823160e01b81523060048201526000916001600160a01b0316906370a082319060240160206040518083038186803b158015610b8057600080fd5b505afa158015610b94573d6000803e3d6000fd5b505050506040513d601f19601f82011682018060405250810190610bb89190613a58565b11610bc257600080fd5b60003411610c2b5760405162461bcd60e51b815260206004820152603060248201527f796f75206861766520746f2073656e6420736f6d652045544820746f2067657460448201526f1025b4b733b237b6a9b2b2b231b7b4b760811b6064820152608401610a01565b6008546040516370a0823160e01b81523060048201526000916001600160a01b0316906370a082319060240160206040518083038186803b158015610c6f57600080fd5b505afa158015610c83573d6000803e3d6000fd5b505050506040513d601f19601f82011682018060405250810190610ca79190613a58565b11610d0c5760405162461bcd60e51b815260206004820152602f60248201527f75686f682c2073727920692063616e27742073656e6420616e79206d6f72652060448201526e25b4b733b237b6a9b2b2b231b7b4b760891b6064820152608401610a01565b600654600090610d1f9060ff1634613a87565b60085460405163a9059cbb60e01b8152336004820152602481018390529192506001600160a01b03169063a9059cbb90604401602060405180830381600087803b158015610d6c57600080fd5b505af1158015610d80573d6000803e3d6000fd5b505050506040513d601f19601f82011682018060405250810190610da49190613aa6565b5050565b6001600160a01b03811660009081526175416020908152604091829020805483518184028101840190945280845260609392830182828015610e0957602002820191906000526020600020905b815481526020019060010190808311610df5575b50505050509050919050565b6001600160a01b038116600090815261754160209081526040808320805482518185028101850190935280835260609493830182828015610e7557602002820191906000526020600020905b815481526020019060010190808311610e61575b505050505090506000815167ffffffffffffffff811115610e9857610e986138df565b604051908082528060200260200182016040528015610ec1578160200160208202803683370190505b5090508151600014610f385760005b8251811015610f365761753f6000848381518110610ef057610ef0613ac3565b6020026020010151815260200190815260200160002054828281518110610f1957610f19613ac3565b602090810291909101015280610f2e81613ad9565b915050610ed0565b505b9392505050565b600f816127108110610f5057600080fd5b600302018054600182015460029092015490925083565b610f713382612b4b565b610f8d5760405162461bcd60e51b8152600401610a0190613af4565b610b37838383612c22565b600c546000906001600160a01b03163314610fe05760405162461bcd60e51b81526020600482015260086024820152673337b7b59037b33360c11b6044820152606401610a01565b6000610feb83611e98565b9050610ff8813085612c22565b611a0a60005b6001600160a01b03831660009081526175416020526040902054811015611078576001600160a01b03831660009081526175416020526040902080548691908390811061104d5761104d613ac3565b9060005260206000200154141561106657809150611078565b8061107081613ad9565b915050610ffe565b5080611a0a14156110ea5760405162461bcd60e51b815260206004820152603660248201527f72657665727365206974656d2066756e6374696f6e2e2e2e206974656d206e6f6044820152757420666f756e6420696e20616464726573733269647360501b6064820152608401610a01565b6001600160a01b03821660009081526175416020526040902080548290811061111557611115613ac3565b60009182526020822001555060019150505b919050565b600061113733611f43565b1161119f5760405162461bcd60e51b815260206004820152603260248201527f746f2075736520746869732066756e6374696f6e20796f75206e6565642061206044820152717469746c652120676f20627579206f6e652160701b6064820152608401610a01565b6111a933306126ca565b61121b5760405162461bcd60e51b815260206004820152603d60248201527f796f75206e65656420746f2063616c6c20736574417070726f76616c466f724160448201527f6c6c20696e206f7264657220746f20706c617920612067616d652e2e2e0000006064820152608401610a01565b3361122860ff8316611e98565b6001600160a01b0316146112905760405162461bcd60e51b815260206004820152602960248201527f736f7272792c206f6e6c7920746865206f776e65722063616e2061747461636b6044820152682068697320626f737360b81b6064820152608401610a01565b600061129b8261244f565b905060006112ab8260ff16611e98565b90506112b781306126ca565b61139b5760405162461bcd60e51b815260206004820152609760248201527f796f757220626f7373206e6565647320746f20736574417070726f766564466f60448201527f72416c6c20746f207468697320636f6e74726163742c206f746865727769736560648201527f20746865206d656368616e69736d20646f6573206e6f7420776f726b2e20486560848201527f206f6e6c79206561726e73206d6f6e6579206966207468617420617070726f7660a48201527f616c20686173206265656e207365742074686f7567682e00000000000000000060c482015260e401610a01565b6001600160a01b0381163314156113f45760405162461bcd60e51b815260206004820152601e60248201527f626f792c20646f6e27742061747461636b20796f757273656c6620706c7a00006044820152606401610a01565b60008061140085612963565b9250509150806114865760405162461bcd60e51b815260206004820152604560248201527f796f75722061747461636b20636f6f6c646f776e206973206e6f7420646f776e60448201527f207965742e20706c656173652074727920616761696e20616674657220636f6f606482015264363237bbb760d91b608482015260a401610a01565b600061149185612963565b50915060009050600a6114a583600f613a87565b6114af9190613b5b565b905060006114bb612dc2565b90506000806114ca8785612e29565b91509150600080600060038511156114eb5750600091508690506001611568565b600285111561152657508690506001611505600a8b613b5b565b9250605a8660ff1611156115215761151e600289613b5b565b91505b611568565b6001851180156115365750600584115b1561155d57506001611549600289613b5b565b915061155660028b613b5b565b9250611568565b50505060ff83168060005b61157b8d8d338e8e8d89898d8d8b612e55565b50505050505050505050505050565b610b3783838360405180602001604052806000815250612515565b6009546040516370a0823160e01b81523060048201526000916001600160a01b0316906370a082319060240160206040518083038186803b1580156115e957600080fd5b505afa1580156115fd573d6000803e3d6000fd5b505050506040513d601f19601f820116820180604052508101906116219190613a58565b1161162b57600080fd5b600a546040516370a0823160e01b81523060048201526000916001600160a01b0316906370a082319060240160206040518083038186803b15801561166f57600080fd5b505afa158015611683573d6000803e3d6000fd5b505050506040513d601f19601f820116820180604052508101906116a79190613a58565b116116b157600080fd5b6008546040516370a0823160e01b81523360048201526000916001600160a01b0316906370a082319060240160206040518083038186803b1580156116f557600080fd5b505afa158015611709573d6000803e3d6000fd5b505050506040513d601f19601f8201168201806040525081019061172d9190613a58565b905082811015801561173f5750600083115b6117a65760405162461bcd60e51b815260206004820152603260248201527f796f7520646f6e2774206861766520656e6f7567682073656564636f696e732160448201527120627579206f7220747261646520736f6d6560701b6064820152608401610a01565b60ff821615806117b957508160ff166001145b6118205760405162461bcd60e51b815260206004820152603260248201527f746172676574436f696e2068617320746f20626520303d61747461636b636f69604482015271371037b910189eb232b332b739b2b1b7b4b760711b6064820152608401610a01565b60ff82166118625760405183815233907f44d00596aedd88fca0607c9a84113fd638c9a070d5ef8d77c072080b688d8e349060200160405180910390a26118a4565b8160ff16600114156118a45760405183815233907f049b4d6e22c9904766197183f9dc1f362cefb04f39e3850a8b7d83ff2c26216f9060200160405180910390a25b6008546040516323b872dd60e01b8152336004820152306024820152604481018590526001600160a01b03909116906323b872dd90606401602060405180830381600087803b1580156118f657600080fd5b505af115801561190a573d6000803e3d6000fd5b505050506040513d601f19601f8201168201806040525081019061192e9190613aa6565b50600b6000336001600160a01b03166001600160a01b0316815260200190815260200160002060405180606001604052808581526020018460ff1681526020016007544261197c9190613b6f565b90528154600180820184556000938452602093849020835160039093020191825592820151928101805460ff191660ff9094169390931790925560400151600290910155505050565b60006119d46175405460ff1690565b90508263ffffffff1660001080156119f25750808363ffffffff1611155b611a3e5760405162461bcd60e51b815260206004820152601c60248201527f7469746c65206964206973206e6f74207965742061737369676e6564000000006044820152606401610a01565b60ff82161580611a5157508160ff166001145b611ab85760405162461bcd60e51b815260206004820152603260248201527f6f7468657220636f696e207479706573206e6f7420737570706f72746564207960448201527165742c206d7573742062652030206f72203160701b6064820152608401610a01565b60ff8216611c5d576009546040516370a0823160e01b815233600482015285916001600160a01b0316906370a082319060240160206040518083038186803b158015611b0357600080fd5b505afa158015611b17573d6000803e3d6000fd5b505050506040513d601f19601f82011682018060405250810190611b3b9190613a58565b1015611b985760405162461bcd60e51b815260206004820152602660248201527f796f7520646f206e6f7420686176652074686174206d616e792061747461636b60448201526520636f696e7360d01b6064820152608401610a01565b6009546040516323b872dd60e01b8152336004820152306024820152604481018690526001600160a01b03909116906323b872dd90606401602060405180830381600087803b158015611bea57600080fd5b505af1158015611bfe573d6000803e3d6000fd5b505050506040513d601f19601f82011682018060405250810190611c229190613aa6565b5083600f8463ffffffff166127108110611c3e57611c3e613ac3565b600302018054600090611c52908490613b6f565b90915550611e049050565b8160ff1660011415611e0457600a546040516370a0823160e01b815233600482015285916001600160a01b0316906370a082319060240160206040518083038186803b158015611cac57600080fd5b505afa158015611cc0573d6000803e3d6000fd5b505050506040513d601f19601f82011682018060405250810190611ce49190613a58565b1015611d425760405162461bcd60e51b815260206004820152602760248201527f796f7520646f206e6f7420686176652074686174206d616e7920646566656e736044820152666520636f696e7360c81b6064820152608401610a01565b600a546040516323b872dd60e01b8152336004820152306024820152604481018690526001600160a01b03909116906323b872dd90606401602060405180830381600087803b158015611d9457600080fd5b505af1158015611da8573d6000803e3d6000fd5b505050506040513d601f19601f82011682018060405250810190611dcc9190613aa6565b5083600f8463ffffffff166127108110611de857611de8613ac3565b600302016001016000828254611dfe9190613b6f565b90915550505b50505050565b600e8054611e1790613a23565b80601f0160208091040260200160405190810160405280929190818152602001828054611e4390613a23565b8015611e905780601f10611e6557610100808354040283529160200191611e90565b820191906000526020600020905b815481529060010190602001808311611e7357829003601f168201915b505050505081565b6000818152600260205260408120546001600160a01b0316806108f45760405162461bcd60e51b815260206004820152602960248201527f4552433732313a206f776e657220717565727920666f72206e6f6e657869737460448201526832b73a103a37b5b2b760b91b6064820152608401610a01565b6060600e611f1c83613042565b604051602001611f2d929190613ba3565b6040516020818303038152906040529050919050565b60006001600160a01b038216611fae5760405162461bcd60e51b815260206004820152602a60248201527f4552433732313a2062616c616e636520717565727920666f7220746865207a65604482015269726f206164647265737360b01b6064820152608401610a01565b506001600160a01b031660009081526003602052604090205490565b611fd2613604565b60005b336000908152600b60205260409020548110156120b057336000908152600b6020526040812080548390811061200d5761200d613ac3565b600091825260209182902060408051606081018252600390930290910180548352600181015460ff169383018490526002015490820152915061206f5742816040015111156120665760168360005b602002015261209d565b6000838161205c565b806020015160ff166001141561209d57428160400151111561209557601783600161205c565b600060208401525b50806120a881613ad9565b915050611fd5565b5090565b60005b336000908152600b602052604090205481101561237857336000908152600b602052604081208054839081106120ef576120ef613ac3565b600091825260209182902060408051606081018252600390930290910180548352600181015460ff1693830193909352600290920154918101829052915042111561236557602081015160ff1661222a57600654815160009161215b9161010090910460ff1690613b5b565b905061216a826000015161316b565b60095460405163a9059cbb60e01b8152336004820152602481018390526001600160a01b039091169063a9059cbb90604401602060405180830381600087803b1580156121b657600080fd5b505af11580156121ca573d6000803e3d6000fd5b505050506040513d601f19601f820116820180604052508101906121ee9190613aa6565b5060405181815233907f9fd4a9248425079a398923cd20daa8e0c103907fb89db4707cb4f2cc343f95469060200160405180910390a250612321565b806020015160ff1660011415612321576006548151600091612256916201000090910460ff1690613b5b565b9050612265826000015161316b565b600a5460405163a9059cbb60e01b8152336004820152602481018390526001600160a01b039091169063a9059cbb90604401602060405180830381600087803b1580156122b157600080fd5b505af11580156122c5573d6000803e3d6000fd5b505050506040513d601f19601f820116820180604052508101906122e99190613aa6565b5060405181815233907fd62aeb2df4f1c7a0c59e15c0dca22ccbcbe42ad0d0dbf99a22c0ad2551c5a1559060200160405180910390a2505b336000908152600b6020526040902080548390811061234257612342613ac3565b60009182526020822060039091020181815560018101805460ff19169055600201555b508061237081613ad9565b9150506120b7565b50565b60606001805461090990613a23565b6001600160a01b0382163314156123e35760405162461bcd60e51b815260206004820152601960248201527f4552433732313a20617070726f766520746f2063616c6c6572000000000000006044820152606401610a01565b3360008181526005602090815260408083206001600160a01b03871680855290835292819020805460ff191686151590811790915590519081529192917f17307eab39ab6107e8899845ad3d59bd9653f200f220920489ca2b5937696c31910160405180910390a35050565b60008061245f6175405460ff1690565b90508260ff1660001080156124775750808360ff1611155b6124bc5760405162461bcd60e51b81526020600482015260166024820152751a59081a5cc81b9bdd081e595d08185cdcda59db995960521b6044820152606401610a01565b8260ff16600114156124d1576000915061250f565b6124dc600284613c4a565b60ff166124f5576124ee600284613c6c565b915061250f565b6002612502600185613c8e565b61250c9190613c6c565b91505b50919050565b61251f3383612b4b565b61253b5760405162461bcd60e51b8152600401610a0190613af4565b611e0484848484613261565b6000818152600260205260409020546060906001600160a01b03166125c65760405162461bcd60e51b815260206004820152602f60248201527f4552433732314d657461646174613a2055524920717565727920666f72206e6f60448201526e3732bc34b9ba32b73a103a37b5b2b760891b6064820152608401610a01565b60006125dd60408051602081019091526000815290565b905060008151116125fd576040518060200160405280600081525061250c565b8061260784613294565b604051602001612618929190613cb1565b6040516020818303038152906040529392505050565b60008060006126406175405460ff1690565b9050808460ff16111561268e5760405162461bcd60e51b81526020600482015260166024820152751a59081a5cc81b9bdd081e595d08185cdcda59db995960521b6044820152606401610a01565b61269784613392565b92506126a28461339f565b9150808360ff1611156126b457600092505b808260ff1611156126c457600091505b50915091565b6001600160a01b03918216600090815260056020908152604080832093909416825291909152205460ff1690565b612700613622565b600f8260ff16612710811061271757612717613ac3565b60030201548152600f60ff8316612710811061273557612735613ac3565b60030201600101548160016003811061275057612750613ac3565b6020020152600f60ff8316612710811061276c5761276c613ac3565b60030201600201548160026003811061278757612787613ac3565b6020020152919050565b61754160205281600052604060002081815481106127ae57600080fd5b90600052602060002001600091509150505481565b600c546000906001600160a01b0316331461280b5760405162461bcd60e51b81526020600482015260086024820152673337b7b59037b33360c11b6044820152606401610a01565b6175405461271060ff9091161061286e5760405162461bcd60e51b815260206004820152602160248201527f75686f682c206e6f207469746c657320617661696c61626c6520616e796d6f726044820152606560f81b6064820152608401610a01565b617540546000906128839060ff166001613ce0565b60ff16905061289283826133b5565b6001600160a01b03831660009081526175416020908152604080832080546001810182559084528284200184905583835261753f8252808320849055805160608101825283815291820192909252600d5490918201906128f29042613b6f565b9052600f82612710811061290857612908613ac3565b82516003919091029190910190815560208201516001820155604090910151600290910155617540805460ff1690600061294183613d05565b91906101000a81548160ff021916908360ff1602179055505080915050919050565b60008060006129756175405460ff1690565b8460ff1611156129d55760405162461bcd60e51b815260206004820152602560248201527f7469746c65206964206e6f74207965742061737369676e65642c20676f20676560448201526474206f6e6560d81b6064820152608401610a01565b60006129e0856126f8565b805160208201516040909201519097919650421115945092505050565b612a05613604565b60008060005b336000908152600b6020526040902054811015612ac557336000908152600b60205260408120805483908110612a4357612a43613ac3565b600091825260209182902060408051606081018252600390930290910180548352600181015460ff1693830184905260020154908201529150612a93578051612a8c9085613b6f565b9350612ab2565b806020015160ff1660011415612ab2578051612aaf9084613b6f565b92505b5080612abd81613ad9565b915050612a0b565b50604080518082019091529182526020820152919050565b600081815260046020526040902080546001600160a01b0319166001600160a01b0384169081179091558190612b1282611e98565b6001600160a01b03167f8c5be1e5ebec7d5bd14f71427d1e84f3dd0314c0f7b2291e5b200ac8c7c3b92560405160405180910390a45050565b6000818152600260205260408120546001600160a01b0316612bc45760405162461bcd60e51b815260206004820152602c60248201527f4552433732313a206f70657261746f7220717565727920666f72206e6f6e657860448201526b34b9ba32b73a103a37b5b2b760a11b6064820152608401610a01565b6000612bcf83611e98565b9050806001600160a01b0316846001600160a01b03161480612c0a5750836001600160a01b0316612bff8461098c565b6001600160a01b0316145b80612c1a5750612c1a81856126ca565b949350505050565b826001600160a01b0316612c3582611e98565b6001600160a01b031614612c9d5760405162461bcd60e51b815260206004820152602960248201527f4552433732313a207472616e73666572206f6620746f6b656e2074686174206960448201526839903737ba1037bbb760b91b6064820152608401610a01565b6001600160a01b038216612cff5760405162461bcd60e51b8152602060048201526024808201527f4552433732313a207472616e7366657220746f20746865207a65726f206164646044820152637265737360e01b6064820152608401610a01565b612d0a600082612add565b6001600160a01b0383166000908152600360205260408120805460019290612d33908490613d25565b90915550506001600160a01b0382166000908152600360205260408120805460019290612d61908490613b6f565b909155505060008181526002602052604080822080546001600160a01b0319166001600160a01b0386811691821790925591518493918716917fddf252ad1be2c89b69c2b068fc378daa952ba7f163c4a11628f55a4df523b3ef91a4505050565b60008060644461754254604051602001612de6929190918252602082015260400190565b6040516020818303038152906040528051906020012060001c612e099190613d3c565b90508060ff1661754254612e1d9190613b6f565b60ff1661754255919050565b600080612e368385613b5b565b9150612e428284613a87565b612e4c9085613d25565b90509250929050565b604080516001600160a01b038b811682528a16602082015260ff8d8116828401528c1660608201526080810189905260a0810188905260c0810187905260e081018890526101008101859052610120810184905282151561014082015290517f47453a6e82aeb952f9b2766261191ffa29fa15db6a8ffa81c432c393729c42e5918190036101600190a184600f8c60ff166127108110612ef757612ef7613ac3565b600302018054600090612f0b908490613d25565b9091555060009050600f60ff8d166127108110612f2a57612f2a613ac3565b600302015411612f875760405162461bcd60e51b815260206004820152602260248201527f75686f682c207468652061747461636b706f696e747320617265207a65726f2e604482015261171760f11b6064820152608401610a01565b83600f8b60ff166127108110612f9f57612f9f613ac3565b600302016001016000828254612fb59190613d25565b9091555060009050600f60ff8c166127108110612fd457612fd4613ac3565b6003020160010154116130355760405162461bcd60e51b815260206004820152602360248201527f75686f682c2074686520646566656e7365706f696e747320617265207a65726f60448201526217171760e91b6064820152608401610a01565b5050505050505050505050565b6060816130665750506040805180820190915260018152600360fc1b602082015290565b8160005b8115613090578061307a81613ad9565b91506130899050600a83613b5b565b915061306a565b60008167ffffffffffffffff8111156130ab576130ab6138df565b6040519080825280601f01601f1916602001820160405280156130d5576020820181803683370190505b509050815b8515613162576130eb600182613d25565b905060006130fa600a88613b5b565b61310590600a613a87565b61310f9088613d25565b61311a906030613ce0565b905060008160f81b90508084848151811061313757613137613ac3565b60200101906001600160f81b031916908160001a905350613159600a89613b5b565b975050506130da565b50949350505050565b600654600090606490613188906301000000900460ff1684613a87565b6131929190613b5b565b61319c9083613d25565b60085460405163a9059cbb60e01b8152336004820152602481018390529192506001600160a01b03169063a9059cbb90604401602060405180830381600087803b1580156131e957600080fd5b505af11580156131fd573d6000803e3d6000fd5b505050506040513d601f19601f820116820180604052508101906132219190613aa6565b50604080518281526020810184905233917f11acec8ea502f5c875e157dd1a17389990a9350450464db61ef112521c0d8751910160405180910390a25050565b61326c848484612c22565b613278848484846134f7565b611e045760405162461bcd60e51b8152600401610a0190613d50565b6060816132b85750506040805180820190915260018152600360fc1b602082015290565b8160005b81156132e257806132cc81613ad9565b91506132db9050600a83613b5b565b91506132bc565b60008167ffffffffffffffff8111156132fd576132fd6138df565b6040519080825280601f01601f191660200182016040528015613327576020820181803683370190505b5090505b8415612c1a5761333c600183613d25565b9150613349600a86613d3c565b613354906030613b6f565b60f81b81838151811061336957613369613ac3565b60200101906001600160f81b031916908160001a90535061338b600a86613b5b565b945061332b565b60006108f4826002613da2565b60006133aa82613392565b6108f4906001613ce0565b6001600160a01b03821661340b5760405162461bcd60e51b815260206004820181905260248201527f4552433732313a206d696e7420746f20746865207a65726f20616464726573736044820152606401610a01565b6000818152600260205260409020546001600160a01b0316156134705760405162461bcd60e51b815260206004820152601c60248201527f4552433732313a20746f6b656e20616c7265616479206d696e746564000000006044820152606401610a01565b6001600160a01b0382166000908152600360205260408120805460019290613499908490613b6f565b909155505060008181526002602052604080822080546001600160a01b0319166001600160a01b03861690811790915590518392907fddf252ad1be2c89b69c2b068fc378daa952ba7f163c4a11628f55a4df523b3ef908290a45050565b60006001600160a01b0384163b156135f957604051630a85bd0160e11b81526001600160a01b0385169063150b7a029061353b903390899088908890600401613dcb565b602060405180830381600087803b15801561355557600080fd5b505af1925050508015613585575060408051601f3d908101601f1916820190925261358291810190613e08565b60015b6135df573d8080156135b3576040519150601f19603f3d011682016040523d82523d6000602084013e6135b8565b606091505b5080516135d75760405162461bcd60e51b8152600401610a0190613d50565b805181602001fd5b6001600160e01b031916630a85bd0160e11b149050612c1a565b506001949350505050565b60405180604001604052806002906020820280368337509192915050565b60405180606001604052806003906020820280368337509192915050565b6001600160e01b03198116811461237857600080fd5b60006020828403121561366857600080fd5b8135610f3881613640565b60005b8381101561368e578181015183820152602001613676565b83811115611e045750506000910152565b600081518084526136b7816020860160208601613673565b601f01601f19169290920160200192915050565b602081526000610f38602083018461369f565b6000602082840312156136f057600080fd5b5035919050565b80356001600160a01b038116811461112757600080fd5b6000806040838503121561372157600080fd5b61372a836136f7565b946020939093013593505050565b60006020828403121561374a57600080fd5b610f38826136f7565b6020808252825182820181905260009190848201906040850190845b8181101561378b5783518352928401929184019160010161376f565b50909695505050505050565b6000806000606084860312156137ac57600080fd5b6137b5846136f7565b92506137c3602085016136f7565b9150604084013590509250925092565b803560ff8116811461112757600080fd5b6000602082840312156137f657600080fd5b610f38826137d3565b6000806040838503121561381257600080fd5b82359150612e4c602084016137d3565b60008060006060848603121561383757600080fd5b83359250602084013563ffffffff8116811461385257600080fd5b9150613860604085016137d3565b90509250925092565b60408101818360005b6002811015613891578151835260209283019290910190600101613872565b50505092915050565b801515811461237857600080fd5b600080604083850312156138bb57600080fd5b6138c4836136f7565b915060208301356138d48161389a565b809150509250929050565b634e487b7160e01b600052604160045260246000fd5b6000806000806080858703121561390b57600080fd5b613914856136f7565b9350613922602086016136f7565b925060408501359150606085013567ffffffffffffffff8082111561394657600080fd5b818701915087601f83011261395a57600080fd5b81358181111561396c5761396c6138df565b604051601f8201601f19908116603f01168101908382118183101715613994576139946138df565b816040528281528a60208487010111156139ad57600080fd5b82602086016020830137600060208483010152809550505050505092959194509250565b600080604083850312156139e457600080fd5b6139ed836136f7565b9150612e4c602084016136f7565b60608101818360005b6003811015613891578151835260209283019290910190600101613a04565b600181811c90821680613a3757607f821691505b6020821081141561250f57634e487b7160e01b600052602260045260246000fd5b600060208284031215613a6a57600080fd5b5051919050565b634e487b7160e01b600052601160045260246000fd5b6000816000190483118215151615613aa157613aa1613a71565b500290565b600060208284031215613ab857600080fd5b8151610f388161389a565b634e487b7160e01b600052603260045260246000fd5b6000600019821415613aed57613aed613a71565b5060010190565b60208082526031908201527f4552433732313a207472616e736665722063616c6c6572206973206e6f74206f6040820152701ddb995c881b9bdc88185c1c1c9bdd9959607a1b606082015260800190565b634e487b7160e01b600052601260045260246000fd5b600082613b6a57613b6a613b45565b500490565b60008219821115613b8257613b82613a71565b500190565b60008151613b99818560208601613673565b9290920192915050565b600080845481600182811c915080831680613bbf57607f831692505b6020808410821415613bdf57634e487b7160e01b86526022600452602486fd5b818015613bf35760018114613c0457613c31565b60ff19861689528489019650613c31565b60008b81526020902060005b86811015613c295781548b820152908501908301613c10565b505084890196505b505050505050613c418185613b87565b95945050505050565b600060ff831680613c5d57613c5d613b45565b8060ff84160691505092915050565b600060ff831680613c7f57613c7f613b45565b8060ff84160491505092915050565b600060ff821660ff841680821015613ca857613ca8613a71565b90039392505050565b60008351613cc3818460208801613673565b835190830190613cd7818360208801613673565b01949350505050565b600060ff821660ff84168060ff03821115613cfd57613cfd613a71565b019392505050565b600060ff821660ff811415613d1c57613d1c613a71565b60010192915050565b600082821015613d3757613d37613a71565b500390565b600082613d4b57613d4b613b45565b500690565b60208082526032908201527f4552433732313a207472616e7366657220746f206e6f6e20455243373231526560408201527131b2b4bb32b91034b6b83632b6b2b73a32b960711b606082015260800190565b600060ff821660ff84168160ff0481118215151615613dc357613dc3613a71565b029392505050565b6001600160a01b0385811682528416602082015260408101839052608060608201819052600090613dfe9083018461369f565b9695505050505050565b600060208284031215613e1a57600080fd5b8151610f388161364056fea2646970667358221220dbe4892e263b5b820bedc8e93aaf89ad058caafd94ce2eeaa7987b2af19d129e64736f6c6343000809003368747470733a2f2f7777772e6b696e67646f6d63727970746f2e636f6d2f7469746c65732f",
  "immutableReferences": {},
  "source": "pragma solidity ^0.8;\n\nimport \"./KingdomTitles.sol\";\n\ncontract KingdomGameMechanic is KingdomTitles {\n\n    uint private nowStore;\n\n    event Log(uint error);\n\n    constructor (KingdomSeedCoin _kgdsc, KingdomAttackCoin _kgdat, KingdomDefenseCoin _kgddf) KingdomTitles(_kgdsc, _kgdat, _kgddf) {\n        nowStore = block.timestamp;\n    }\n\n    event Attack(address attacker, address defender, \n                uint8 attacker_id, uint8 defender_id, \n                uint attackPointsBefore, uint defensePointsBefore,\n                uint deadAttackers, uint deadDefenders,\n                uint denominator, uint remainder, bool won);\n\n    event Sacked(address attacker, address defender, \n                uint8 new_attacker_id);\n\n    modifier hasTitle {\n        require(balanceOf(msg.sender) > 0, \"to use this function you need a title! go buy one!\");\n        _;\n    }\n\n    modifier contractNeedsTotalControl {\n        require(isApprovedForAll(msg.sender, address(this)), \"you need to call setApprovalForAll in order to play a game...\");\n        _;\n    }\n\n    function _random() private returns (uint8) {\n        // random number between 0 and 99\n        uint8 random = uint8( uint(keccak256(abi.encodePacked(block.difficulty, nowStore))) % 100);\n        nowStore = uint8(nowStore + random);\n        return random;\n    }\n\n\n\n    function _getLeftChild(uint8 id) internal pure returns (uint8 left) {\n        return id * 2;\n    }\n\n    function _getRightChild(uint8 id) internal pure returns (uint8 right) {\n        return _getLeftChild(id) + 1;\n    }\n\n    function getServants(uint8 id) public view returns (uint8 left, uint8 right) {\n        uint currentPos = currentPosition();\n        require(id <= currentPos, \"id is not yet assigned\");\n\n        // binary tree\n        left = _getLeftChild(id);\n        right = _getRightChild(id);\n\n        // check if they even exist yet\n        \n        if (left > currentPos) {\n            left = 0;\n        }\n        if (right > currentPos) {\n            right = 0;\n        }\n        return (left, right);\n    }\n\n    function getBoss(uint8 id) public view returns (uint8 bossid) {\n        uint currentPos = currentPosition();\n        require(0 < id && id <= currentPos, \"id is not yet assigned\");\n\n        // remember binary tree\n        if (id == 1) {\n            bossid = 0;\n        }\n        else {\n            if (id % 2 == 0) {\n                // if even\n                bossid = id / 2;\n            }\n            else {\n                // if odd\n                bossid = (id - 1) / 2;\n            }\n        }\n        return bossid;\n    }\n\n    function getTitleStats(uint8 titleId) public view returns (uint attackPoints, uint defensePoints, bool ready4attack){\n        require(titleId <= currentPosition(), \"title id not yet assigned, go get one\");\n        uint[3] memory stats = getKingdomTitleStats(titleId);\n        attackPoints = stats[0];\n        defensePoints = stats[1];\n        ready4attack = stats[2] >= block.timestamp;\n        return (attackPoints, defensePoints, ready4attack);\n    }\n\n    function assignMilitaryToTitle(uint nrCoins, uint32 titleId, uint8 coinType) public {\n        uint currentPos = currentPosition();\n        require(0 < titleId && titleId <= currentPos, \"title id is not yet assigned\");\n        // needs an approve first!\n\n        // first checks\n        // title needs to be owned by sender -> actually allow this for guilds etc\n        // require(ownerOf(titleId) == msg.sender, \"you can not assign Military P\")\n        // check if sender has that amount\n        require(coinType == 0 || coinType == 1, \"other coin types not supported yet, must be 0 or 1\");\n        if (coinType == 0) {\n            // attack points\n            require(kgdat.balanceOf(msg.sender) >= nrCoins, \"you do not have that many attack coins\");\n            kgdat.transferFrom(msg.sender, address(this), nrCoins);\n            kingdomtitles[titleId].attackPoints += nrCoins;\n        }\n        else if (coinType == 1) {\n            // def coins\n            require(kgddf.balanceOf(msg.sender) >= nrCoins, \"you do not have that many defense coins\");\n            kgddf.transferFrom(msg.sender, address(this), nrCoins);\n            kingdomtitles[titleId].defensePoints += nrCoins;\n        }\n    }\n\n    function _attackResults(uint8 attackerId, uint8 defenderId, address attackerAddress, address defenderAddress, uint attackerPoints, uint defenderPoints, uint deadAttackers, uint deadDefenders, uint denominator, uint remainder, bool won) private {\n        // we have to give the title of the looser to the attacker\n        // if (won) {\n        //     // idk how to solve it yet...\n        //     emit Log(attackerAddress);\n        //     transferFrom(defenderAddress, address(this), defenderId);\n        //     emit Sacked(attackerAddress, defenderAddress, \n        //             defenderId);\n        // }\n        // next we have to let the people die accordingly\n        emit Attack(attackerAddress, defenderAddress, \n                attackerId, defenderId, \n                attackerPoints, defenderPoints,\n                deadAttackers, defenderPoints,\n                denominator, remainder, won);\n        // finally update the title struct\n        kingdomtitles[attackerId].attackPoints -= deadAttackers;\n        require(kingdomtitles[attackerId].attackPoints > 0, \"uhoh, the attackpoints are zero...\");\n        kingdomtitles[defenderId].defensePoints -= deadDefenders; \n        require(kingdomtitles[defenderId].defensePoints > 0, \"uhoh, the defensepoints are zero...\");\n    }\n\n    function _divide(uint numerator, uint denominator) private pure returns (uint quotient, uint remainder) {\n        quotient  = numerator / denominator;\n        remainder = numerator - denominator * quotient;\n        return (quotient, remainder);\n    }\n\n    function attackBoss(uint8 titleId) public hasTitle contractNeedsTotalControl {\n        require(ownerOf(titleId) == msg.sender, \"sorry, only the owner can attack his boss\");\n\n        uint8 bossid = getBoss(titleId);\n        address bossid_address = ownerOf(bossid);\n        // check if boss setApprovalForAll as well, required\n        require(isApprovedForAll(bossid_address, address(this)), \"your boss needs to setApprovedForAll to this contract, otherwise the mechanism does not work. He only earns money if that approval has been set though.\");\n\n        require(bossid_address != msg.sender, \"boy, don't attack yourself plz\");\n\n        (uint attacker_Attackpoints, , bool ready4Attack ) = getTitleStats(titleId);\n        require(ready4Attack, \"your attack cooldown is not down yet. please try again after cooldown\");\n\n        ( , uint defender_Defensepoints, ) = getTitleStats(bossid);\n\n        uint tmp_game_defender_Defensepoints = (defender_Defensepoints * 15) / 10; // counts 1.5\n\n        // make it so that more than double attack points is a sure win\n        uint8 randy = _random();\n        (uint quotient, uint remainder) = _divide(attacker_Attackpoints, tmp_game_defender_Defensepoints); // double would be 20\n        uint deadAttackers = 0;\n        uint deadDefenders = 0;\n        bool won = false;\n        if (quotient > 3) {\n            // no discussion needed\n            deadDefenders = defender_Defensepoints;\n            deadAttackers = 0;\n            won = true;\n        }\n        else if (quotient > 2) {\n            // more than double the attackers\n            deadDefenders = defender_Defensepoints;\n            won = true;\n            // some attackers dead except rare case\n            deadAttackers = uint(attacker_Attackpoints / 10);\n            if (randy > 90) {\n                // in a rare case not all defenders die, some can flee\n                deadDefenders = uint(defender_Defensepoints / 2);\n            }\n        }\n        else if (quotient > 1 && remainder > 5) {\n            won = true;\n            deadDefenders = uint(defender_Defensepoints / 2);\n            deadAttackers = uint(attacker_Attackpoints / 2);\n        }\n        else {\n            // tmp\n            won = false;\n            deadDefenders = randy;\n            deadAttackers = randy;\n        }\n\n        _attackResults(titleId, bossid, msg.sender, bossid_address, attacker_Attackpoints, defender_Defensepoints, deadAttackers, deadDefenders, quotient, remainder, won);\n    }\n}",
  "sourcePath": "/home/justin/code/solidity-course/kingdom/contracts/KingdomGameMechanic.sol",
  "compiler": {
    "name": "solc",
    "version": "0.8.9+commit.e5eed63a.Emscripten.clang"
  },
  "schemaVersion": "3.4.3",
  "updatedAt": "2021-11-11T14:22:27.002Z",
  "networkType": "ethereum",
  "devdoc": {
    "kind": "dev",
    "methods": {
      "approve(address,uint256)": {
        "details": "See {IERC721-approve}."
      },
      "balanceOf(address)": {
        "details": "See {IERC721-balanceOf}."
      },
      "getApproved(uint256)": {
        "details": "See {IERC721-getApproved}."
      },
      "isApprovedForAll(address,address)": {
        "details": "See {IERC721-isApprovedForAll}."
      },
      "name()": {
        "details": "See {IERC721Metadata-name}."
      },
      "ownerOf(uint256)": {
        "details": "See {IERC721-ownerOf}."
      },
      "safeTransferFrom(address,address,uint256)": {
        "details": "See {IERC721-safeTransferFrom}."
      },
      "safeTransferFrom(address,address,uint256,bytes)": {
        "details": "See {IERC721-safeTransferFrom}."
      },
      "setApprovalForAll(address,bool)": {
        "details": "See {IERC721-setApprovalForAll}."
      },
      "supportsInterface(bytes4)": {
        "details": "See {IERC165-supportsInterface}."
      },
      "symbol()": {
        "details": "See {IERC721Metadata-symbol}."
      },
      "tokenURI(uint256)": {
        "details": "See {IERC721Metadata-tokenURI}."
      },
      "transferFrom(address,address,uint256)": {
        "details": "See {IERC721-transferFrom}."
      }
    },
    "version": 1
  },
  "userdoc": {
    "kind": "user",
    "methods": {},
    "version": 1
  }
}