{
  "contractName": "KingdomTitles",
  "abi": [
    {
      "inputs": [
        {
          "internalType": "contract KingdomSeedCoin",
          "name": "kgdsc",
          "type": "address"
        },
        {
          "internalType": "contract KingdomAttackCoin",
          "name": "kgdat",
          "type": "address"
        },
        {
          "internalType": "contract KingdomDefenseCoin",
          "name": "kgddf",
          "type": "address"
        }
      ],
      "stateMutability": "nonpayable",
      "type": "constructor"
    },
    {
      "anonymous": false,
      "inputs": [
        {
          "indexed": true,
          "internalType": "address",
          "name": "owner",
          "type": "address"
        },
        {
          "indexed": true,
          "internalType": "address",
          "name": "approved",
          "type": "address"
        },
        {
          "indexed": true,
          "internalType": "uint256",
          "name": "tokenId",
          "type": "uint256"
        }
      ],
      "name": "Approval",
      "type": "event"
    },
    {
      "anonymous": false,
      "inputs": [
        {
          "indexed": true,
          "internalType": "address",
          "name": "owner",
          "type": "address"
        },
        {
          "indexed": true,
          "internalType": "address",
          "name": "operator",
          "type": "address"
        },
        {
          "indexed": false,
          "internalType": "bool",
          "name": "approved",
          "type": "bool"
        }
      ],
      "name": "ApprovalForAll",
      "type": "event"
    },
    {
      "anonymous": false,
      "inputs": [
        {
          "indexed": true,
          "internalType": "address",
          "name": "_to",
          "type": "address"
        },
        {
          "indexed": false,
          "internalType": "uint256",
          "name": "_amount",
          "type": "uint256"
        }
      ],
      "name": "HarvestAttackPoints",
      "type": "event"
    },
    {
      "anonymous": false,
      "inputs": [
        {
          "indexed": true,
          "internalType": "address",
          "name": "_to",
          "type": "address"
        },
        {
          "indexed": false,
          "internalType": "uint256",
          "name": "_amount",
          "type": "uint256"
        }
      ],
      "name": "HarvestDefensePoints",
      "type": "event"
    },
    {
      "anonymous": false,
      "inputs": [
        {
          "indexed": true,
          "internalType": "address",
          "name": "_to",
          "type": "address"
        },
        {
          "indexed": false,
          "internalType": "uint256",
          "name": "_amount",
          "type": "uint256"
        },
        {
          "indexed": false,
          "internalType": "uint256",
          "name": "_beforeBurn",
          "type": "uint256"
        }
      ],
      "name": "HarvestRemainingSeedCoins",
      "type": "event"
    },
    {
      "anonymous": false,
      "inputs": [
        {
          "indexed": true,
          "internalType": "address",
          "name": "from",
          "type": "address"
        },
        {
          "indexed": true,
          "internalType": "address",
          "name": "to",
          "type": "address"
        },
        {
          "indexed": true,
          "internalType": "uint256",
          "name": "tokenId",
          "type": "uint256"
        }
      ],
      "name": "Transfer",
      "type": "event"
    },
    {
      "inputs": [
        {
          "internalType": "address",
          "name": "to",
          "type": "address"
        },
        {
          "internalType": "uint256",
          "name": "tokenId",
          "type": "uint256"
        }
      ],
      "name": "approve",
      "outputs": [],
      "stateMutability": "nonpayable",
      "type": "function"
    },
    {
      "inputs": [
        {
          "internalType": "address",
          "name": "owner",
          "type": "address"
        }
      ],
      "name": "balanceOf",
      "outputs": [
        {
          "internalType": "uint256",
          "name": "",
          "type": "uint256"
        }
      ],
      "stateMutability": "view",
      "type": "function"
    },
    {
      "inputs": [],
      "name": "baseUrl",
      "outputs": [
        {
          "internalType": "string",
          "name": "",
          "type": "string"
        }
      ],
      "stateMutability": "view",
      "type": "function"
    },
    {
      "inputs": [],
      "name": "buyForETH",
      "outputs": [],
      "stateMutability": "payable",
      "type": "function"
    },
    {
      "inputs": [],
      "name": "exchangeRate",
      "outputs": [
        {
          "internalType": "uint8",
          "name": "",
          "type": "uint8"
        }
      ],
      "stateMutability": "view",
      "type": "function"
    },
    {
      "inputs": [],
      "name": "exchangeRate_Attackpoints",
      "outputs": [
        {
          "internalType": "uint8",
          "name": "",
          "type": "uint8"
        }
      ],
      "stateMutability": "view",
      "type": "function"
    },
    {
      "inputs": [],
      "name": "exchangeRate_Burnpct",
      "outputs": [
        {
          "internalType": "uint8",
          "name": "",
          "type": "uint8"
        }
      ],
      "stateMutability": "view",
      "type": "function"
    },
    {
      "inputs": [],
      "name": "exchangeRate_Defensepoints",
      "outputs": [
        {
          "internalType": "uint8",
          "name": "",
          "type": "uint8"
        }
      ],
      "stateMutability": "view",
      "type": "function"
    },
    {
      "inputs": [
        {
          "internalType": "uint256",
          "name": "tokenId",
          "type": "uint256"
        }
      ],
      "name": "getApproved",
      "outputs": [
        {
          "internalType": "address",
          "name": "",
          "type": "address"
        }
      ],
      "stateMutability": "view",
      "type": "function"
    },
    {
      "inputs": [],
      "name": "getCurrentStakes",
      "outputs": [
        {
          "internalType": "uint256[2]",
          "name": "balances",
          "type": "uint256[2]"
        }
      ],
      "stateMutability": "view",
      "type": "function"
    },
    {
      "inputs": [],
      "name": "harvestAll",
      "outputs": [],
      "stateMutability": "nonpayable",
      "type": "function"
    },
    {
      "inputs": [
        {
          "internalType": "address",
          "name": "owner",
          "type": "address"
        },
        {
          "internalType": "address",
          "name": "operator",
          "type": "address"
        }
      ],
      "name": "isApprovedForAll",
      "outputs": [
        {
          "internalType": "bool",
          "name": "",
          "type": "bool"
        }
      ],
      "stateMutability": "view",
      "type": "function"
    },
    {
      "inputs": [],
      "name": "justSendETH",
      "outputs": [
        {
          "internalType": "uint256",
          "name": "",
          "type": "uint256"
        }
      ],
      "stateMutability": "payable",
      "type": "function"
    },
    {
      "inputs": [],
      "name": "kgdat",
      "outputs": [
        {
          "internalType": "contract KingdomAttackCoin",
          "name": "",
          "type": "address"
        }
      ],
      "stateMutability": "view",
      "type": "function"
    },
    {
      "inputs": [],
      "name": "kgddf",
      "outputs": [
        {
          "internalType": "contract KingdomDefenseCoin",
          "name": "",
          "type": "address"
        }
      ],
      "stateMutability": "view",
      "type": "function"
    },
    {
      "inputs": [],
      "name": "kgdsc",
      "outputs": [
        {
          "internalType": "contract KingdomSeedCoin",
          "name": "",
          "type": "address"
        }
      ],
      "stateMutability": "view",
      "type": "function"
    },
    {
      "inputs": [],
      "name": "name",
      "outputs": [
        {
          "internalType": "string",
          "name": "",
          "type": "string"
        }
      ],
      "stateMutability": "view",
      "type": "function"
    },
    {
      "inputs": [
        {
          "internalType": "uint256",
          "name": "tokenId",
          "type": "uint256"
        }
      ],
      "name": "ownerOf",
      "outputs": [
        {
          "internalType": "address",
          "name": "",
          "type": "address"
        }
      ],
      "stateMutability": "view",
      "type": "function"
    },
    {
      "inputs": [
        {
          "internalType": "uint256",
          "name": "nrSeedCoins",
          "type": "uint256"
        },
        {
          "internalType": "uint8",
          "name": "targetCoin",
          "type": "uint8"
        }
      ],
      "name": "plantSeeds",
      "outputs": [],
      "stateMutability": "nonpayable",
      "type": "function"
    },
    {
      "inputs": [
        {
          "internalType": "address",
          "name": "from",
          "type": "address"
        },
        {
          "internalType": "address",
          "name": "to",
          "type": "address"
        },
        {
          "internalType": "uint256",
          "name": "tokenId",
          "type": "uint256"
        }
      ],
      "name": "safeTransferFrom",
      "outputs": [],
      "stateMutability": "nonpayable",
      "type": "function"
    },
    {
      "inputs": [
        {
          "internalType": "address",
          "name": "from",
          "type": "address"
        },
        {
          "internalType": "address",
          "name": "to",
          "type": "address"
        },
        {
          "internalType": "uint256",
          "name": "tokenId",
          "type": "uint256"
        },
        {
          "internalType": "bytes",
          "name": "_data",
          "type": "bytes"
        }
      ],
      "name": "safeTransferFrom",
      "outputs": [],
      "stateMutability": "nonpayable",
      "type": "function"
    },
    {
      "inputs": [
        {
          "internalType": "address",
          "name": "operator",
          "type": "address"
        },
        {
          "internalType": "bool",
          "name": "approved",
          "type": "bool"
        }
      ],
      "name": "setApprovalForAll",
      "outputs": [],
      "stateMutability": "nonpayable",
      "type": "function"
    },
    {
      "inputs": [],
      "name": "stakingPeriod",
      "outputs": [
        {
          "internalType": "uint256",
          "name": "",
          "type": "uint256"
        }
      ],
      "stateMutability": "view",
      "type": "function"
    },
    {
      "inputs": [
        {
          "internalType": "bytes4",
          "name": "interfaceId",
          "type": "bytes4"
        }
      ],
      "name": "supportsInterface",
      "outputs": [
        {
          "internalType": "bool",
          "name": "",
          "type": "bool"
        }
      ],
      "stateMutability": "view",
      "type": "function"
    },
    {
      "inputs": [],
      "name": "symbol",
      "outputs": [
        {
          "internalType": "string",
          "name": "",
          "type": "string"
        }
      ],
      "stateMutability": "view",
      "type": "function"
    },
    {
      "inputs": [
        {
          "internalType": "uint256",
          "name": "tokenId",
          "type": "uint256"
        }
      ],
      "name": "tokenURI",
      "outputs": [
        {
          "internalType": "string",
          "name": "",
          "type": "string"
        }
      ],
      "stateMutability": "view",
      "type": "function"
    },
    {
      "inputs": [],
      "name": "totalSupply",
      "outputs": [
        {
          "internalType": "uint16",
          "name": "",
          "type": "uint16"
        }
      ],
      "stateMutability": "view",
      "type": "function"
    },
    {
      "inputs": [
        {
          "internalType": "address",
          "name": "from",
          "type": "address"
        },
        {
          "internalType": "address",
          "name": "to",
          "type": "address"
        },
        {
          "internalType": "uint256",
          "name": "tokenId",
          "type": "uint256"
        }
      ],
      "name": "transferFrom",
      "outputs": [],
      "stateMutability": "nonpayable",
      "type": "function"
    },
    {
      "inputs": [],
      "name": "currentPosition",
      "outputs": [
        {
          "internalType": "uint256",
          "name": "",
          "type": "uint256"
        }
      ],
      "stateMutability": "view",
      "type": "function"
    },
    {
      "inputs": [
        {
          "internalType": "address",
          "name": "player",
          "type": "address"
        }
      ],
      "name": "awardItem",
      "outputs": [
        {
          "internalType": "uint256",
          "name": "",
          "type": "uint256"
        }
      ],
      "stateMutability": "nonpayable",
      "type": "function"
    },
    {
      "inputs": [
        {
          "internalType": "uint256",
          "name": "itemId",
          "type": "uint256"
        }
      ],
      "name": "reverseItem",
      "outputs": [],
      "stateMutability": "nonpayable",
      "type": "function"
    },
    {
      "inputs": [
        {
          "internalType": "uint256",
          "name": "_tokenId",
          "type": "uint256"
        }
      ],
      "name": "tokenMetadata",
      "outputs": [
        {
          "internalType": "string",
          "name": "infoUrl",
          "type": "string"
        }
      ],
      "stateMutability": "view",
      "type": "function"
    }
  ],
  "bytecode": "0x60806040526064600660006101000a81548160ff021916908360ff160217905550600a600660016101000a81548160ff021916908360ff1602179055506008600660026101000a81548160ff021916908360ff160217905550600a600660036101000a81548160ff021916908360ff160217905550603c600755612710600e60006101000a81548161ffff021916908361ffff16021790555060405180606001604052806025815260200162004b4b60259139600f9080519060200190620000c9929190620002c7565b50348015620000d757600080fd5b5060405162004b7038038062004b708339818101604052810190620000fd91906200047f565b8282826040518060400160405280600e81526020017f4b696e67646f6d205469746c65730000000000000000000000000000000000008152506040518060400160405280600381526020017f4b47440000000000000000000000000000000000000000000000000000000000815250816000908051906020019062000184929190620002c7565b5080600190805190602001906200019d929190620002c7565b50505082600860006101000a81548173ffffffffffffffffffffffffffffffffffffffff021916908373ffffffffffffffffffffffffffffffffffffffff16021790555081600960006101000a81548173ffffffffffffffffffffffffffffffffffffffff021916908373ffffffffffffffffffffffffffffffffffffffff16021790555080600a60006101000a81548173ffffffffffffffffffffffffffffffffffffffff021916908373ffffffffffffffffffffffffffffffffffffffff16021790555050505062000276620002bf60201b60201c565b600c60006101000a81548173ffffffffffffffffffffffffffffffffffffffff021916908373ffffffffffffffffffffffffffffffffffffffff16021790555050505062000540565b600033905090565b828054620002d5906200050a565b90600052602060002090601f016020900481019282620002f9576000855562000345565b82601f106200031457805160ff191683800117855562000345565b8280016001018555821562000345579182015b828111156200034457825182559160200191906001019062000327565b5b50905062000354919062000358565b5090565b5b808211156200037357600081600090555060010162000359565b5090565b600080fd5b600073ffffffffffffffffffffffffffffffffffffffff82169050919050565b6000620003a9826200037c565b9050919050565b6000620003bd826200039c565b9050919050565b620003cf81620003b0565b8114620003db57600080fd5b50565b600081519050620003ef81620003c4565b92915050565b600062000402826200039c565b9050919050565b6200041481620003f5565b81146200042057600080fd5b50565b600081519050620004348162000409565b92915050565b600062000447826200039c565b9050919050565b62000459816200043a565b81146200046557600080fd5b50565b60008151905062000479816200044e565b92915050565b6000806000606084860312156200049b576200049a62000377565b5b6000620004ab86828701620003de565b9350506020620004be8682870162000423565b9250506040620004d18682870162000468565b9150509250925092565b7f4e487b7100000000000000000000000000000000000000000000000000000000600052602260045260246000fd5b600060028204905060018216806200052357607f821691505b602082108114156200053a5762000539620004db565b5b50919050565b6145fb80620005506000396000f3fe6080604052600436106101e35760003560e01c806370a0823111610102578063c669b71011610095578063e046670b11610064578063e046670b146106c5578063e985e9c5146106e3578063f2fb212014610720578063fa4facdb1461075d576101e3565b8063c669b71014610607578063c87b56dd14610632578063d4637ddb1461066f578063d534d6361461069a576101e3565b806395d89b41116100d157806395d89b411461055f578063a22cb4651461058a578063b88d4fde146105b3578063c03d5b47146105dc576101e3565b806370a08231146104b55780637c62539a146104f25780638ed955b91461051d578063900294be14610534576101e3565b80633ba0b9a91161017a5780635bcabf04116101495780635bcabf04146103e55780636352211e146104105780636914db601461044d5780636a7a2fa31461048a576101e3565b80633ba0b9a91461033d578063411ee0d01461036857806342842e0e14610393578063429c3edf146103bc576101e3565b806310f7e4ed116101b657806310f7e4ed146102b657806318160ddd146102c057806323b872dd146102eb5780632756985c14610314576101e3565b806301ffc9a7146101e857806306fdde0314610225578063081812fc14610250578063095ea7b31461028d575b600080fd5b3480156101f457600080fd5b5061020f600480360381019061020a9190612d4f565b610788565b60405161021c9190612d97565b60405180910390f35b34801561023157600080fd5b5061023a61086a565b6040516102479190612e4b565b60405180910390f35b34801561025c57600080fd5b5061027760048036038101906102729190612ea3565b6108fc565b6040516102849190612f11565b60405180910390f35b34801561029957600080fd5b506102b460048036038101906102af9190612f58565b610981565b005b6102be610a99565b005b3480156102cc57600080fd5b506102d5610d55565b6040516102e29190612fb5565b60405180910390f35b3480156102f757600080fd5b50610312600480360381019061030d9190612fd0565b610d69565b005b34801561032057600080fd5b5061033b60048036038101906103369190612ea3565b610dc9565b005b34801561034957600080fd5b50610352610de5565b60405161035f919061303f565b60405180910390f35b34801561037457600080fd5b5061037d610df8565b60405161038a91906130b9565b60405180910390f35b34801561039f57600080fd5b506103ba60048036038101906103b59190612fd0565b610e1e565b005b3480156103c857600080fd5b506103e360048036038101906103de9190613100565b610e3e565b005b3480156103f157600080fd5b506103fa61127f565b6040516104079190612e4b565b60405180910390f35b34801561041c57600080fd5b5061043760048036038101906104329190612ea3565b61130d565b6040516104449190612f11565b60405180910390f35b34801561045957600080fd5b50610474600480360381019061046f9190612ea3565b6113bf565b6040516104819190612e4b565b60405180910390f35b34801561049657600080fd5b5061049f6113f3565b6040516104ac919061303f565b60405180910390f35b3480156104c157600080fd5b506104dc60048036038101906104d79190613140565b611406565b6040516104e9919061317c565b60405180910390f35b3480156104fe57600080fd5b506105076114be565b60405161051491906131b8565b60405180910390f35b34801561052957600080fd5b506105326114e4565b005b34801561054057600080fd5b50610549611905565b60405161055691906131f4565b60405180910390f35b34801561056b57600080fd5b5061057461192b565b6040516105819190612e4b565b60405180910390f35b34801561059657600080fd5b506105b160048036038101906105ac919061323b565b6119bd565b005b3480156105bf57600080fd5b506105da60048036038101906105d591906133b0565b611b3e565b005b3480156105e857600080fd5b506105f1611ba0565b6040516105fe919061317c565b60405180910390f35b34801561061357600080fd5b5061061c611ba6565b604051610629919061303f565b60405180910390f35b34801561063e57600080fd5b5061065960048036038101906106549190612ea3565b611bb9565b6040516106669190612e4b565b60405180910390f35b34801561067b57600080fd5b50610684611c60565b604051610691919061303f565b60405180910390f35b3480156106a657600080fd5b506106af611c73565b6040516106bc919061317c565b60405180910390f35b6106cd611c84565b6040516106da919061317c565b60405180910390f35b3480156106ef57600080fd5b5061070a60048036038101906107059190613433565b611c8c565b6040516107179190612d97565b60405180910390f35b34801561072c57600080fd5b5061074760048036038101906107429190613140565b611d20565b604051610754919061317c565b60405180910390f35b34801561076957600080fd5b50610772611e3c565b60405161077f919061351e565b60405180910390f35b60007f80ac58cd000000000000000000000000000000000000000000000000000000007bffffffffffffffffffffffffffffffffffffffffffffffffffffffff1916827bffffffffffffffffffffffffffffffffffffffffffffffffffffffff1916148061085357507f5b5e139f000000000000000000000000000000000000000000000000000000007bffffffffffffffffffffffffffffffffffffffffffffffffffffffff1916827bffffffffffffffffffffffffffffffffffffffffffffffffffffffff1916145b80610863575061086282611fb5565b5b9050919050565b60606000805461087990613568565b80601f01602080910402602001604051908101604052809291908181526020018280546108a590613568565b80156108f25780601f106108c7576101008083540402835291602001916108f2565b820191906000526020600020905b8154815290600101906020018083116108d557829003601f168201915b5050505050905090565b60006109078261201f565b610946576040517f08c379a000000000000000000000000000000000000000000000000000000000815260040161093d9061360c565b60405180910390fd5b6004600083815260200190815260200160002060009054906101000a900473ffffffffffffffffffffffffffffffffffffffff169050919050565b600061098c8261130d565b90508073ffffffffffffffffffffffffffffffffffffffff168373ffffffffffffffffffffffffffffffffffffffff1614156109fd576040517f08c379a00000000000000000000000000000000000000000000000000000000081526004016109f49061369e565b60405180910390fd5b8073ffffffffffffffffffffffffffffffffffffffff16610a1c61208b565b73ffffffffffffffffffffffffffffffffffffffff161480610a4b5750610a4a81610a4561208b565b611c8c565b5b610a8a576040517f08c379a0000000000000000000000000000000000000000000000000000000008152600401610a8190613730565b60405180910390fd5b610a948383612093565b505050565b6000600860009054906101000a900473ffffffffffffffffffffffffffffffffffffffff1673ffffffffffffffffffffffffffffffffffffffff166370a08231306040518263ffffffff1660e01b8152600401610af69190612f11565b60206040518083038186803b158015610b0e57600080fd5b505afa158015610b22573d6000803e3d6000fd5b505050506040513d601f19601f82011682018060405250810190610b469190613765565b11610b5057600080fd5b60003411610b93576040517f08c379a0000000000000000000000000000000000000000000000000000000008152600401610b8a90613804565b60405180910390fd5b6000600860009054906101000a900473ffffffffffffffffffffffffffffffffffffffff1673ffffffffffffffffffffffffffffffffffffffff166370a08231306040518263ffffffff1660e01b8152600401610bf09190612f11565b60206040518083038186803b158015610c0857600080fd5b505afa158015610c1c573d6000803e3d6000fd5b505050506040513d601f19601f82011682018060405250810190610c409190613765565b11610c80576040517f08c379a0000000000000000000000000000000000000000000000000000000008152600401610c7790613896565b60405180910390fd5b6000600660009054906101000a900460ff1660ff1634610ca091906138e5565b9050600860009054906101000a900473ffffffffffffffffffffffffffffffffffffffff1673ffffffffffffffffffffffffffffffffffffffff1663a9059cbb33836040518363ffffffff1660e01b8152600401610cff92919061393f565b602060405180830381600087803b158015610d1957600080fd5b505af1158015610d2d573d6000803e3d6000fd5b505050506040513d601f19601f82011682018060405250810190610d51919061397d565b5050565b600e60009054906101000a900461ffff1681565b610d7a610d7461208b565b8261214c565b610db9576040517f08c379a0000000000000000000000000000000000000000000000000000000008152600401610db090613a1c565b60405180910390fd5b610dc483838361222a565b505050565b6000610dd48261130d565b9050610de181308461222a565b5050565b600660009054906101000a900460ff1681565b600a60009054906101000a900473ffffffffffffffffffffffffffffffffffffffff1681565b610e3983838360405180602001604052806000815250611b3e565b505050565b6000600960009054906101000a900473ffffffffffffffffffffffffffffffffffffffff1673ffffffffffffffffffffffffffffffffffffffff166370a08231306040518263ffffffff1660e01b8152600401610e9b9190612f11565b60206040518083038186803b158015610eb357600080fd5b505afa158015610ec7573d6000803e3d6000fd5b505050506040513d601f19601f82011682018060405250810190610eeb9190613765565b11610ef557600080fd5b6000600a60009054906101000a900473ffffffffffffffffffffffffffffffffffffffff1673ffffffffffffffffffffffffffffffffffffffff166370a08231306040518263ffffffff1660e01b8152600401610f529190612f11565b60206040518083038186803b158015610f6a57600080fd5b505afa158015610f7e573d6000803e3d6000fd5b505050506040513d601f19601f82011682018060405250810190610fa29190613765565b11610fac57600080fd5b6000600860009054906101000a900473ffffffffffffffffffffffffffffffffffffffff1673ffffffffffffffffffffffffffffffffffffffff166370a08231336040518263ffffffff1660e01b81526004016110099190612f11565b60206040518083038186803b15801561102157600080fd5b505afa158015611035573d6000803e3d6000fd5b505050506040513d601f19601f820116820180604052508101906110599190613765565b905082811015801561106b5750600083115b6110aa576040517f08c379a00000000000000000000000000000000000000000000000000000000081526004016110a190613aae565b60405180910390fd5b60008260ff1614806110bf575060018260ff16145b6110fe576040517f08c379a00000000000000000000000000000000000000000000000000000000081526004016110f590613b40565b60405180910390fd5b600860009054906101000a900473ffffffffffffffffffffffffffffffffffffffff1673ffffffffffffffffffffffffffffffffffffffff166323b872dd3330866040518463ffffffff1660e01b815260040161115d93929190613b60565b602060405180830381600087803b15801561117757600080fd5b505af115801561118b573d6000803e3d6000fd5b505050506040513d601f19601f820116820180604052508101906111af919061397d565b50600b60003373ffffffffffffffffffffffffffffffffffffffff1673ffffffffffffffffffffffffffffffffffffffff16815260200190815260200160002060405180606001604052808581526020018460ff168152602001600754426112179190613b97565b81525090806001815401808255809150506001900390600052602060002090600302016000909190919091506000820151816000015560208201518160010160006101000a81548160ff021916908360ff160217905550604082015181600201555050505050565b600f805461128c90613568565b80601f01602080910402602001604051908101604052809291908181526020018280546112b890613568565b80156113055780601f106112da57610100808354040283529160200191611305565b820191906000526020600020905b8154815290600101906020018083116112e857829003601f168201915b505050505081565b6000806002600084815260200190815260200160002060009054906101000a900473ffffffffffffffffffffffffffffffffffffffff169050600073ffffffffffffffffffffffffffffffffffffffff168173ffffffffffffffffffffffffffffffffffffffff1614156113b6576040517f08c379a00000000000000000000000000000000000000000000000000000000081526004016113ad90613c5f565b60405180910390fd5b80915050919050565b6060600f6113cc83612486565b6040516020016113dd929190613d4f565b6040516020818303038152906040529050919050565b600660039054906101000a900460ff1681565b60008073ffffffffffffffffffffffffffffffffffffffff168273ffffffffffffffffffffffffffffffffffffffff161415611477576040517f08c379a000000000000000000000000000000000000000000000000000000000815260040161146e90613de5565b60405180910390fd5b600360008373ffffffffffffffffffffffffffffffffffffffff1673ffffffffffffffffffffffffffffffffffffffff168152602001908152602001600020549050919050565b600960009054906101000a900473ffffffffffffffffffffffffffffffffffffffff1681565b60005b600b60003373ffffffffffffffffffffffffffffffffffffffff1673ffffffffffffffffffffffffffffffffffffffff16815260200190815260200160002080549050811015611902576000600b60003373ffffffffffffffffffffffffffffffffffffffff1673ffffffffffffffffffffffffffffffffffffffff168152602001908152602001600020828154811061158457611583613e05565b5b9060005260206000209060030201604051806060016040529081600082015481526020016001820160009054906101000a900460ff1660ff1660ff168152602001600282015481525050905042816040015110156118ee576000816020015160ff161415611723576000600660019054906101000a900460ff1660ff1682600001516116109190613e63565b905061161f826000015161260f565b600960009054906101000a900473ffffffffffffffffffffffffffffffffffffffff1673ffffffffffffffffffffffffffffffffffffffff1663a9059cbb33836040518363ffffffff1660e01b815260040161167c92919061393f565b602060405180830381600087803b15801561169657600080fd5b505af11580156116aa573d6000803e3d6000fd5b505050506040513d601f19601f820116820180604052508101906116ce919061397d565b503373ffffffffffffffffffffffffffffffffffffffff167f9fd4a9248425079a398923cd20daa8e0c103907fb89db4707cb4f2cc343f954682604051611715919061317c565b60405180910390a250611867565b6001816020015160ff161415611866576000600660029054906101000a900460ff1660ff1682600001516117579190613e63565b9050611766826000015161260f565b600a60009054906101000a900473ffffffffffffffffffffffffffffffffffffffff1673ffffffffffffffffffffffffffffffffffffffff1663a9059cbb33836040518363ffffffff1660e01b81526004016117c392919061393f565b602060405180830381600087803b1580156117dd57600080fd5b505af11580156117f1573d6000803e3d6000fd5b505050506040513d601f19601f82011682018060405250810190611815919061397d565b503373ffffffffffffffffffffffffffffffffffffffff167fd62aeb2df4f1c7a0c59e15c0dca22ccbcbe42ad0d0dbf99a22c0ad2551c5a1558260405161185c919061317c565b60405180910390a2505b5b600b60003373ffffffffffffffffffffffffffffffffffffffff1673ffffffffffffffffffffffffffffffffffffffff16815260200190815260200160002082815481106118b8576118b7613e05565b5b90600052602060002090600302016000808201600090556001820160006101000a81549060ff0219169055600282016000905550505b5080806118fa90613e94565b9150506114e7565b50565b600860009054906101000a900473ffffffffffffffffffffffffffffffffffffffff1681565b60606001805461193a90613568565b80601f016020809104026020016040519081016040528092919081815260200182805461196690613568565b80156119b35780601f10611988576101008083540402835291602001916119b3565b820191906000526020600020905b81548152906001019060200180831161199657829003601f168201915b5050505050905090565b6119c561208b565b73ffffffffffffffffffffffffffffffffffffffff168273ffffffffffffffffffffffffffffffffffffffff161415611a33576040517f08c379a0000000000000000000000000000000000000000000000000000000008152600401611a2a90613f29565b60405180910390fd5b8060056000611a4061208b565b73ffffffffffffffffffffffffffffffffffffffff1673ffffffffffffffffffffffffffffffffffffffff16815260200190815260200160002060008473ffffffffffffffffffffffffffffffffffffffff1673ffffffffffffffffffffffffffffffffffffffff16815260200190815260200160002060006101000a81548160ff0219169083151502179055508173ffffffffffffffffffffffffffffffffffffffff16611aed61208b565b73ffffffffffffffffffffffffffffffffffffffff167f17307eab39ab6107e8899845ad3d59bd9653f200f220920489ca2b5937696c3183604051611b329190612d97565b60405180910390a35050565b611b4f611b4961208b565b8361214c565b611b8e576040517f08c379a0000000000000000000000000000000000000000000000000000000008152600401611b8590613a1c565b60405180910390fd5b611b9a8484848461274c565b50505050565b60075481565b600660019054906101000a900460ff1681565b6060611bc48261201f565b611c03576040517f08c379a0000000000000000000000000000000000000000000000000000000008152600401611bfa90613fbb565b60405180910390fd5b6000611c0d6127a8565b90506000815111611c2d5760405180602001604052806000815250611c58565b80611c37846127bf565b604051602001611c48929190613fdb565b6040516020818303038152906040525b915050919050565b600660029054906101000a900460ff1681565b6000611c7f600d612920565b905090565b600047905090565b6000600560008473ffffffffffffffffffffffffffffffffffffffff1673ffffffffffffffffffffffffffffffffffffffff16815260200190815260200160002060008373ffffffffffffffffffffffffffffffffffffffff1673ffffffffffffffffffffffffffffffffffffffff16815260200190815260200160002060009054906101000a900460ff16905092915050565b60003373ffffffffffffffffffffffffffffffffffffffff16600c60009054906101000a900473ffffffffffffffffffffffffffffffffffffffff1673ffffffffffffffffffffffffffffffffffffffff1614611db2576040517f08c379a0000000000000000000000000000000000000000000000000000000008152600401611da99061404b565b60405180910390fd5b600e60009054906101000a900461ffff1661ffff16611dd1600d612920565b10611e11576040517f08c379a0000000000000000000000000000000000000000000000000000000008152600401611e08906140dd565b60405180910390fd5b611e1b600d61292e565b6000611e27600d612920565b9050611e338382612944565b80915050919050565b611e44612cc1565b60008060005b600b60003373ffffffffffffffffffffffffffffffffffffffff1673ffffffffffffffffffffffffffffffffffffffff16815260200190815260200160002080549050811015611f92576000600b60003373ffffffffffffffffffffffffffffffffffffffff1673ffffffffffffffffffffffffffffffffffffffff1681526020019081526020016000208281548110611ee757611ee6613e05565b5b9060005260206000209060030201604051806060016040529081600082015481526020016001820160009054906101000a900460ff1660ff1660ff16815260200160028201548152505090506000816020015160ff161415611f5a57806000015184611f539190613b97565b9350611f7e565b6001816020015160ff161415611f7d57806000015183611f7a9190613b97565b92505b5b508080611f8a90613e94565b915050611e4a565b506000604051806040016040528084815260200183815250905080935050505090565b60007f01ffc9a7000000000000000000000000000000000000000000000000000000007bffffffffffffffffffffffffffffffffffffffffffffffffffffffff1916827bffffffffffffffffffffffffffffffffffffffffffffffffffffffff1916149050919050565b60008073ffffffffffffffffffffffffffffffffffffffff166002600084815260200190815260200160002060009054906101000a900473ffffffffffffffffffffffffffffffffffffffff1673ffffffffffffffffffffffffffffffffffffffff1614159050919050565b600033905090565b816004600083815260200190815260200160002060006101000a81548173ffffffffffffffffffffffffffffffffffffffff021916908373ffffffffffffffffffffffffffffffffffffffff160217905550808273ffffffffffffffffffffffffffffffffffffffff166121068361130d565b73ffffffffffffffffffffffffffffffffffffffff167f8c5be1e5ebec7d5bd14f71427d1e84f3dd0314c0f7b2291e5b200ac8c7c3b92560405160405180910390a45050565b60006121578261201f565b612196576040517f08c379a000000000000000000000000000000000000000000000000000000000815260040161218d9061416f565b60405180910390fd5b60006121a18361130d565b90508073ffffffffffffffffffffffffffffffffffffffff168473ffffffffffffffffffffffffffffffffffffffff16148061221057508373ffffffffffffffffffffffffffffffffffffffff166121f8846108fc565b73ffffffffffffffffffffffffffffffffffffffff16145b8061222157506122208185611c8c565b5b91505092915050565b8273ffffffffffffffffffffffffffffffffffffffff1661224a8261130d565b73ffffffffffffffffffffffffffffffffffffffff16146122a0576040517f08c379a000000000000000000000000000000000000000000000000000000000815260040161229790614201565b60405180910390fd5b600073ffffffffffffffffffffffffffffffffffffffff168273ffffffffffffffffffffffffffffffffffffffff161415612310576040517f08c379a000000000000000000000000000000000000000000000000000000000815260040161230790614293565b60405180910390fd5b61231b838383612b12565b612326600082612093565b6001600360008573ffffffffffffffffffffffffffffffffffffffff1673ffffffffffffffffffffffffffffffffffffffff168152602001908152602001600020600082825461237691906142b3565b925050819055506001600360008473ffffffffffffffffffffffffffffffffffffffff1673ffffffffffffffffffffffffffffffffffffffff16815260200190815260200160002060008282546123cd9190613b97565b92505081905550816002600083815260200190815260200160002060006101000a81548173ffffffffffffffffffffffffffffffffffffffff021916908373ffffffffffffffffffffffffffffffffffffffff160217905550808273ffffffffffffffffffffffffffffffffffffffff168473ffffffffffffffffffffffffffffffffffffffff167fddf252ad1be2c89b69c2b068fc378daa952ba7f163c4a11628f55a4df523b3ef60405160405180910390a4505050565b606060008214156124ce576040518060400160405280600181526020017f3000000000000000000000000000000000000000000000000000000000000000815250905061260a565b600082905060005b600082146125005780806124e990613e94565b915050600a826124f99190613e63565b91506124d6565b60008167ffffffffffffffff81111561251c5761251b613285565b5b6040519080825280601f01601f19166020018201604052801561254e5781602001600182028036833780820191505090505b50905060008290505b600086146126025760018161256c91906142b3565b90506000600a808861257e9190613e63565b61258891906138e5565b8761259391906142b3565b603061259f91906142e7565b905060008160f81b9050808484815181106125bd576125bc613e05565b5b60200101907effffffffffffffffffffffffffffffffffffffffffffffffffffffffffffff1916908160001a905350600a886125f99190613e63565b97505050612557565b819450505050505b919050565b60006064600660039054906101000a900460ff1660ff168361263191906138e5565b61263b9190613e63565b8261264691906142b3565b9050600860009054906101000a900473ffffffffffffffffffffffffffffffffffffffff1673ffffffffffffffffffffffffffffffffffffffff1663a9059cbb33836040518363ffffffff1660e01b81526004016126a592919061393f565b602060405180830381600087803b1580156126bf57600080fd5b505af11580156126d3573d6000803e3d6000fd5b505050506040513d601f19601f820116820180604052508101906126f7919061397d565b503373ffffffffffffffffffffffffffffffffffffffff167f11acec8ea502f5c875e157dd1a17389990a9350450464db61ef112521c0d8751828460405161274092919061431e565b60405180910390a25050565b61275784848461222a565b61276384848484612b17565b6127a2576040517f08c379a0000000000000000000000000000000000000000000000000000000008152600401612799906143b9565b60405180910390fd5b50505050565b606060405180602001604052806000815250905090565b60606000821415612807576040518060400160405280600181526020017f3000000000000000000000000000000000000000000000000000000000000000815250905061291b565b600082905060005b6000821461283957808061282290613e94565b915050600a826128329190613e63565b915061280f565b60008167ffffffffffffffff81111561285557612854613285565b5b6040519080825280601f01601f1916602001820160405280156128875781602001600182028036833780820191505090505b5090505b60008514612914576001826128a091906142b3565b9150600a856128af91906143d9565b60306128bb9190613b97565b60f81b8183815181106128d1576128d0613e05565b5b60200101907effffffffffffffffffffffffffffffffffffffffffffffffffffffffffffff1916908160001a905350600a8561290d9190613e63565b945061288b565b8093505050505b919050565b600081600001549050919050565b6001816000016000828254019250508190555050565b600073ffffffffffffffffffffffffffffffffffffffff168273ffffffffffffffffffffffffffffffffffffffff1614156129b4576040517f08c379a00000000000000000000000000000000000000000000000000000000081526004016129ab90614456565b60405180910390fd5b6129bd8161201f565b156129fd576040517f08c379a00000000000000000000000000000000000000000000000000000000081526004016129f4906144c2565b60405180910390fd5b612a0960008383612b12565b6001600360008473ffffffffffffffffffffffffffffffffffffffff1673ffffffffffffffffffffffffffffffffffffffff1681526020019081526020016000206000828254612a599190613b97565b92505081905550816002600083815260200190815260200160002060006101000a81548173ffffffffffffffffffffffffffffffffffffffff021916908373ffffffffffffffffffffffffffffffffffffffff160217905550808273ffffffffffffffffffffffffffffffffffffffff16600073ffffffffffffffffffffffffffffffffffffffff167fddf252ad1be2c89b69c2b068fc378daa952ba7f163c4a11628f55a4df523b3ef60405160405180910390a45050565b505050565b6000612b388473ffffffffffffffffffffffffffffffffffffffff16612cae565b15612ca1578373ffffffffffffffffffffffffffffffffffffffff1663150b7a02612b6161208b565b8786866040518563ffffffff1660e01b8152600401612b839493929190614537565b602060405180830381600087803b158015612b9d57600080fd5b505af1925050508015612bce57506040513d601f19601f82011682018060405250810190612bcb9190614598565b60015b612c51573d8060008114612bfe576040519150601f19603f3d011682016040523d82523d6000602084013e612c03565b606091505b50600081511415612c49576040517f08c379a0000000000000000000000000000000000000000000000000000000008152600401612c40906143b9565b60405180910390fd5b805181602001fd5b63150b7a0260e01b7bffffffffffffffffffffffffffffffffffffffffffffffffffffffff1916817bffffffffffffffffffffffffffffffffffffffffffffffffffffffff191614915050612ca6565b600190505b949350505050565b600080823b905060008111915050919050565b6040518060400160405280600290602082028036833780820191505090505090565b6000604051905090565b600080fd5b600080fd5b60007fffffffff0000000000000000000000000000000000000000000000000000000082169050919050565b612d2c81612cf7565b8114612d3757600080fd5b50565b600081359050612d4981612d23565b92915050565b600060208284031215612d6557612d64612ced565b5b6000612d7384828501612d3a565b91505092915050565b60008115159050919050565b612d9181612d7c565b82525050565b6000602082019050612dac6000830184612d88565b92915050565b600081519050919050565b600082825260208201905092915050565b60005b83811015612dec578082015181840152602081019050612dd1565b83811115612dfb576000848401525b50505050565b6000601f19601f8301169050919050565b6000612e1d82612db2565b612e278185612dbd565b9350612e37818560208601612dce565b612e4081612e01565b840191505092915050565b60006020820190508181036000830152612e658184612e12565b905092915050565b6000819050919050565b612e8081612e6d565b8114612e8b57600080fd5b50565b600081359050612e9d81612e77565b92915050565b600060208284031215612eb957612eb8612ced565b5b6000612ec784828501612e8e565b91505092915050565b600073ffffffffffffffffffffffffffffffffffffffff82169050919050565b6000612efb82612ed0565b9050919050565b612f0b81612ef0565b82525050565b6000602082019050612f266000830184612f02565b92915050565b612f3581612ef0565b8114612f4057600080fd5b50565b600081359050612f5281612f2c565b92915050565b60008060408385031215612f6f57612f6e612ced565b5b6000612f7d85828601612f43565b9250506020612f8e85828601612e8e565b9150509250929050565b600061ffff82169050919050565b612faf81612f98565b82525050565b6000602082019050612fca6000830184612fa6565b92915050565b600080600060608486031215612fe957612fe8612ced565b5b6000612ff786828701612f43565b935050602061300886828701612f43565b925050604061301986828701612e8e565b9150509250925092565b600060ff82169050919050565b61303981613023565b82525050565b60006020820190506130546000830184613030565b92915050565b6000819050919050565b600061307f61307a61307584612ed0565b61305a565b612ed0565b9050919050565b600061309182613064565b9050919050565b60006130a382613086565b9050919050565b6130b381613098565b82525050565b60006020820190506130ce60008301846130aa565b92915050565b6130dd81613023565b81146130e857600080fd5b50565b6000813590506130fa816130d4565b92915050565b6000806040838503121561311757613116612ced565b5b600061312585828601612e8e565b9250506020613136858286016130eb565b9150509250929050565b60006020828403121561315657613155612ced565b5b600061316484828501612f43565b91505092915050565b61317681612e6d565b82525050565b6000602082019050613191600083018461316d565b92915050565b60006131a282613086565b9050919050565b6131b281613197565b82525050565b60006020820190506131cd60008301846131a9565b92915050565b60006131de82613086565b9050919050565b6131ee816131d3565b82525050565b600060208201905061320960008301846131e5565b92915050565b61321881612d7c565b811461322357600080fd5b50565b6000813590506132358161320f565b92915050565b6000806040838503121561325257613251612ced565b5b600061326085828601612f43565b925050602061327185828601613226565b9150509250929050565b600080fd5b600080fd5b7f4e487b7100000000000000000000000000000000000000000000000000000000600052604160045260246000fd5b6132bd82612e01565b810181811067ffffffffffffffff821117156132dc576132db613285565b5b80604052505050565b60006132ef612ce3565b90506132fb82826132b4565b919050565b600067ffffffffffffffff82111561331b5761331a613285565b5b61332482612e01565b9050602081019050919050565b82818337600083830152505050565b600061335361334e84613300565b6132e5565b90508281526020810184848401111561336f5761336e613280565b5b61337a848285613331565b509392505050565b600082601f8301126133975761339661327b565b5b81356133a7848260208601613340565b91505092915050565b600080600080608085870312156133ca576133c9612ced565b5b60006133d887828801612f43565b94505060206133e987828801612f43565b93505060406133fa87828801612e8e565b925050606085013567ffffffffffffffff81111561341b5761341a612cf2565b5b61342787828801613382565b91505092959194509250565b6000806040838503121561344a57613449612ced565b5b600061345885828601612f43565b925050602061346985828601612f43565b9150509250929050565b600060029050919050565b600081905092915050565b6000819050919050565b61349c81612e6d565b82525050565b60006134ae8383613493565b60208301905092915050565b6000602082019050919050565b6134d081613473565b6134da818461347e565b92506134e582613489565b8060005b838110156135165781516134fd87826134a2565b9650613508836134ba565b9250506001810190506134e9565b505050505050565b600060408201905061353360008301846134c7565b92915050565b7f4e487b7100000000000000000000000000000000000000000000000000000000600052602260045260246000fd5b6000600282049050600182168061358057607f821691505b6020821081141561359457613593613539565b5b50919050565b7f4552433732313a20617070726f76656420717565727920666f72206e6f6e657860008201527f697374656e7420746f6b656e0000000000000000000000000000000000000000602082015250565b60006135f6602c83612dbd565b91506136018261359a565b604082019050919050565b60006020820190508181036000830152613625816135e9565b9050919050565b7f4552433732313a20617070726f76616c20746f2063757272656e74206f776e6560008201527f7200000000000000000000000000000000000000000000000000000000000000602082015250565b6000613688602183612dbd565b91506136938261362c565b604082019050919050565b600060208201905081810360008301526136b78161367b565b9050919050565b7f4552433732313a20617070726f76652063616c6c6572206973206e6f74206f7760008201527f6e6572206e6f7220617070726f76656420666f7220616c6c0000000000000000602082015250565b600061371a603883612dbd565b9150613725826136be565b604082019050919050565b600060208201905081810360008301526137498161370d565b9050919050565b60008151905061375f81612e77565b92915050565b60006020828403121561377b5761377a612ced565b5b600061378984828501613750565b91505092915050565b7f796f75206861766520746f2073656e6420736f6d652045544820746f2067657460008201527f204b696e67646f6d53656564636f696e00000000000000000000000000000000602082015250565b60006137ee603083612dbd565b91506137f982613792565b604082019050919050565b6000602082019050818103600083015261381d816137e1565b9050919050565b7f75686f682c2073727920692063616e27742073656e6420616e79206d6f72652060008201527f4b696e67646f6d53656564636f696e0000000000000000000000000000000000602082015250565b6000613880602f83612dbd565b915061388b82613824565b604082019050919050565b600060208201905081810360008301526138af81613873565b9050919050565b7f4e487b7100000000000000000000000000000000000000000000000000000000600052601160045260246000fd5b60006138f082612e6d565b91506138fb83612e6d565b9250817fffffffffffffffffffffffffffffffffffffffffffffffffffffffffffffffff0483118215151615613934576139336138b6565b5b828202905092915050565b60006040820190506139546000830185612f02565b613961602083018461316d565b9392505050565b6000815190506139778161320f565b92915050565b60006020828403121561399357613992612ced565b5b60006139a184828501613968565b91505092915050565b7f4552433732313a207472616e736665722063616c6c6572206973206e6f74206f60008201527f776e6572206e6f7220617070726f766564000000000000000000000000000000602082015250565b6000613a06603183612dbd565b9150613a11826139aa565b604082019050919050565b60006020820190508181036000830152613a35816139f9565b9050919050565b7f796f7520646f6e2774206861766520656e6f7567682073656564636f696e732160008201527f20627579206f7220747261646520736f6d650000000000000000000000000000602082015250565b6000613a98603283612dbd565b9150613aa382613a3c565b604082019050919050565b60006020820190508181036000830152613ac781613a8b565b9050919050565b7f746172676574436f696e2068617320746f20626520303d61747461636b636f6960008201527f6e206f7220313d646566656e7365636f696e0000000000000000000000000000602082015250565b6000613b2a603283612dbd565b9150613b3582613ace565b604082019050919050565b60006020820190508181036000830152613b5981613b1d565b9050919050565b6000606082019050613b756000830186612f02565b613b826020830185612f02565b613b8f604083018461316d565b949350505050565b6000613ba282612e6d565b9150613bad83612e6d565b9250827fffffffffffffffffffffffffffffffffffffffffffffffffffffffffffffffff03821115613be257613be16138b6565b5b828201905092915050565b7f4552433732313a206f776e657220717565727920666f72206e6f6e657869737460008201527f656e7420746f6b656e0000000000000000000000000000000000000000000000602082015250565b6000613c49602983612dbd565b9150613c5482613bed565b604082019050919050565b60006020820190508181036000830152613c7881613c3c565b9050919050565b600081905092915050565b60008190508160005260206000209050919050565b60008154613cac81613568565b613cb68186613c7f565b94506001821660008114613cd15760018114613ce257613d15565b60ff19831686528186019350613d15565b613ceb85613c8a565b60005b83811015613d0d57815481890152600182019150602081019050613cee565b838801955050505b50505092915050565b6000613d2982612db2565b613d338185613c7f565b9350613d43818560208601612dce565b80840191505092915050565b6000613d5b8285613c9f565b9150613d678284613d1e565b91508190509392505050565b7f4552433732313a2062616c616e636520717565727920666f7220746865207a6560008201527f726f206164647265737300000000000000000000000000000000000000000000602082015250565b6000613dcf602a83612dbd565b9150613dda82613d73565b604082019050919050565b60006020820190508181036000830152613dfe81613dc2565b9050919050565b7f4e487b7100000000000000000000000000000000000000000000000000000000600052603260045260246000fd5b7f4e487b7100000000000000000000000000000000000000000000000000000000600052601260045260246000fd5b6000613e6e82612e6d565b9150613e7983612e6d565b925082613e8957613e88613e34565b5b828204905092915050565b6000613e9f82612e6d565b91507fffffffffffffffffffffffffffffffffffffffffffffffffffffffffffffffff821415613ed257613ed16138b6565b5b600182019050919050565b7f4552433732313a20617070726f766520746f2063616c6c657200000000000000600082015250565b6000613f13601983612dbd565b9150613f1e82613edd565b602082019050919050565b60006020820190508181036000830152613f4281613f06565b9050919050565b7f4552433732314d657461646174613a2055524920717565727920666f72206e6f60008201527f6e6578697374656e7420746f6b656e0000000000000000000000000000000000602082015250565b6000613fa5602f83612dbd565b9150613fb082613f49565b604082019050919050565b60006020820190508181036000830152613fd481613f98565b9050919050565b6000613fe78285613d1e565b9150613ff38284613d1e565b91508190509392505050565b7f666f6f6b206f6666000000000000000000000000000000000000000000000000600082015250565b6000614035600883612dbd565b915061404082613fff565b602082019050919050565b6000602082019050818103600083015261406481614028565b9050919050565b7f75686f682c206e6f207469746c657320617661696c61626c6520616e796d6f7260008201527f6500000000000000000000000000000000000000000000000000000000000000602082015250565b60006140c7602183612dbd565b91506140d28261406b565b604082019050919050565b600060208201905081810360008301526140f6816140ba565b9050919050565b7f4552433732313a206f70657261746f7220717565727920666f72206e6f6e657860008201527f697374656e7420746f6b656e0000000000000000000000000000000000000000602082015250565b6000614159602c83612dbd565b9150614164826140fd565b604082019050919050565b600060208201905081810360008301526141888161414c565b9050919050565b7f4552433732313a207472616e73666572206f6620746f6b656e2074686174206960008201527f73206e6f74206f776e0000000000000000000000000000000000000000000000602082015250565b60006141eb602983612dbd565b91506141f68261418f565b604082019050919050565b6000602082019050818103600083015261421a816141de565b9050919050565b7f4552433732313a207472616e7366657220746f20746865207a65726f2061646460008201527f7265737300000000000000000000000000000000000000000000000000000000602082015250565b600061427d602483612dbd565b915061428882614221565b604082019050919050565b600060208201905081810360008301526142ac81614270565b9050919050565b60006142be82612e6d565b91506142c983612e6d565b9250828210156142dc576142db6138b6565b5b828203905092915050565b60006142f282613023565b91506142fd83613023565b92508260ff03821115614313576143126138b6565b5b828201905092915050565b6000604082019050614333600083018561316d565b614340602083018461316d565b9392505050565b7f4552433732313a207472616e7366657220746f206e6f6e20455243373231526560008201527f63656976657220696d706c656d656e7465720000000000000000000000000000602082015250565b60006143a3603283612dbd565b91506143ae82614347565b604082019050919050565b600060208201905081810360008301526143d281614396565b9050919050565b60006143e482612e6d565b91506143ef83612e6d565b9250826143ff576143fe613e34565b5b828206905092915050565b7f4552433732313a206d696e7420746f20746865207a65726f2061646472657373600082015250565b6000614440602083612dbd565b915061444b8261440a565b602082019050919050565b6000602082019050818103600083015261446f81614433565b9050919050565b7f4552433732313a20746f6b656e20616c7265616479206d696e74656400000000600082015250565b60006144ac601c83612dbd565b91506144b782614476565b602082019050919050565b600060208201905081810360008301526144db8161449f565b9050919050565b600081519050919050565b600082825260208201905092915050565b6000614509826144e2565b61451381856144ed565b9350614523818560208601612dce565b61452c81612e01565b840191505092915050565b600060808201905061454c6000830187612f02565b6145596020830186612f02565b614566604083018561316d565b818103606083015261457881846144fe565b905095945050505050565b60008151905061459281612d23565b92915050565b6000602082840312156145ae576145ad612ced565b5b60006145bc84828501614583565b9150509291505056fea26469706673582212200637f12b723107d5b0beaf52d4a61895287753566bc730c40d8c225dc1d9bc5964736f6c6343000809003368747470733a2f2f7777772e6b696e67646f6d63727970746f2e636f6d2f7469746c65732f",
  "immutableReferences": {},
  "source": "pragma solidity ^0.8;\n\nimport \"@openzeppelin/contracts/token/ERC721/ERC721.sol\";\nimport \"@openzeppelin/contracts/utils/Counters.sol\";\nimport \"@openzeppelin/contracts/access/Ownable.sol\";\nimport \"./KingdomBank.sol\";\n\ncontract KingdomTitles is ERC721, KingdomBank {\n    using Counters for Counters.Counter;\n    \n    address private _owner;\n    \n    Counters.Counter private _tokenIds;\n    uint16 public totalSupply = 10000;\n    string public baseUrl = \"https://www.kingdomcrypto.com/titles/\";\n\n    constructor(KingdomSeedCoin kgdsc, KingdomAttackCoin kgdat, KingdomDefenseCoin kgddf) ERC721(\"Kingdom Titles\", \"KGD\") KingdomBank(kgdsc, kgdat, kgddf) {\n        _owner = _msgSender();\n    }\n\n    modifier onlyOwner {\n        require(_owner == msg.sender, \"fook off\");\n        _;\n    }\n\n    function uint2str(uint _i) internal pure returns (string memory _uintAsString) {\n        if (_i == 0) {\n            return \"0\";\n        }\n        uint j = _i;\n        uint len;\n        while (j != 0) {\n            len++;\n            j /= 10;\n        }\n        bytes memory bstr = new bytes(len);\n        uint k = len;\n        while (_i != 0) {\n            k = k-1;\n            uint8 temp = (48 + uint8(_i - _i / 10 * 10));\n            bytes1 b1 = bytes1(temp);\n            bstr[k] = b1;\n            _i /= 10;\n        }\n        return string(bstr);\n    }\n\n    function currentPosition() public view returns (uint256) {\n        return uint256(_tokenIds.current());\n    }\n\n    function awardItem(address player) public onlyOwner returns (uint256) {\n        require(_tokenIds.current() < totalSupply, \"uhoh, no titles available anymore\");\n\n        _tokenIds.increment();      \n\n        uint256 newItemId = _tokenIds.current();\n        _mint(player, newItemId);\n\n        return newItemId;\n    }\n\n    function reverseItem(uint256 itemId) public {\n        address ownerOfItem = ownerOf(itemId);\n        _transfer(ownerOfItem, address(this), itemId);\n    }\n\n    function tokenMetadata(uint256 _tokenId) public view returns (string memory infoUrl) {\n        return string(abi.encodePacked(baseUrl, uint2str(_tokenId)));\n    }\n}",
  "sourcePath": "/home/justin/code/solidity-course/kingdom/contracts/KingdomTitles.sol",
  "compiler": {
    "name": "solc",
    "version": "0.8.9+commit.e5eed63a.Emscripten.clang"
  },
  "schemaVersion": "3.4.3",
  "updatedAt": "2021-10-22T09:02:25.141Z",
  "devdoc": {
    "kind": "dev",
    "methods": {
      "approve(address,uint256)": {
        "details": "See {IERC721-approve}."
      },
      "balanceOf(address)": {
        "details": "See {IERC721-balanceOf}."
      },
      "getApproved(uint256)": {
        "details": "See {IERC721-getApproved}."
      },
      "isApprovedForAll(address,address)": {
        "details": "See {IERC721-isApprovedForAll}."
      },
      "name()": {
        "details": "See {IERC721Metadata-name}."
      },
      "ownerOf(uint256)": {
        "details": "See {IERC721-ownerOf}."
      },
      "safeTransferFrom(address,address,uint256)": {
        "details": "See {IERC721-safeTransferFrom}."
      },
      "safeTransferFrom(address,address,uint256,bytes)": {
        "details": "See {IERC721-safeTransferFrom}."
      },
      "setApprovalForAll(address,bool)": {
        "details": "See {IERC721-setApprovalForAll}."
      },
      "supportsInterface(bytes4)": {
        "details": "See {IERC165-supportsInterface}."
      },
      "symbol()": {
        "details": "See {IERC721Metadata-symbol}."
      },
      "tokenURI(uint256)": {
        "details": "See {IERC721Metadata-tokenURI}."
      },
      "transferFrom(address,address,uint256)": {
        "details": "See {IERC721-transferFrom}."
      }
    },
    "version": 1
  },
  "userdoc": {
    "kind": "user",
    "methods": {},
    "version": 1
  }
}