{
  "contractName": "KingdomTitles",
  "abi": [
    {
      "inputs": [
        {
          "internalType": "contract KingdomSeedCoin",
          "name": "kgdsc",
          "type": "address"
        },
        {
          "internalType": "contract KingdomAttackCoin",
          "name": "kgdat",
          "type": "address"
        },
        {
          "internalType": "contract KingdomDefenseCoin",
          "name": "kgddf",
          "type": "address"
        }
      ],
      "stateMutability": "nonpayable",
      "type": "constructor"
    },
    {
      "anonymous": false,
      "inputs": [
        {
          "indexed": true,
          "internalType": "address",
          "name": "owner",
          "type": "address"
        },
        {
          "indexed": true,
          "internalType": "address",
          "name": "approved",
          "type": "address"
        },
        {
          "indexed": true,
          "internalType": "uint256",
          "name": "tokenId",
          "type": "uint256"
        }
      ],
      "name": "Approval",
      "type": "event"
    },
    {
      "anonymous": false,
      "inputs": [
        {
          "indexed": true,
          "internalType": "address",
          "name": "owner",
          "type": "address"
        },
        {
          "indexed": true,
          "internalType": "address",
          "name": "operator",
          "type": "address"
        },
        {
          "indexed": false,
          "internalType": "bool",
          "name": "approved",
          "type": "bool"
        }
      ],
      "name": "ApprovalForAll",
      "type": "event"
    },
    {
      "anonymous": false,
      "inputs": [
        {
          "indexed": true,
          "internalType": "address",
          "name": "_to",
          "type": "address"
        },
        {
          "indexed": false,
          "internalType": "uint256",
          "name": "_amount",
          "type": "uint256"
        }
      ],
      "name": "HarvestAttackPoints",
      "type": "event"
    },
    {
      "anonymous": false,
      "inputs": [
        {
          "indexed": true,
          "internalType": "address",
          "name": "_to",
          "type": "address"
        },
        {
          "indexed": false,
          "internalType": "uint256",
          "name": "_amount",
          "type": "uint256"
        }
      ],
      "name": "HarvestDefensePoints",
      "type": "event"
    },
    {
      "anonymous": false,
      "inputs": [
        {
          "indexed": true,
          "internalType": "address",
          "name": "_to",
          "type": "address"
        },
        {
          "indexed": false,
          "internalType": "uint256",
          "name": "_amount",
          "type": "uint256"
        },
        {
          "indexed": false,
          "internalType": "uint256",
          "name": "_beforeBurn",
          "type": "uint256"
        }
      ],
      "name": "HarvestRemainingSeedCoins",
      "type": "event"
    },
    {
      "anonymous": false,
      "inputs": [
        {
          "indexed": true,
          "internalType": "address",
          "name": "from",
          "type": "address"
        },
        {
          "indexed": true,
          "internalType": "address",
          "name": "to",
          "type": "address"
        },
        {
          "indexed": true,
          "internalType": "uint256",
          "name": "tokenId",
          "type": "uint256"
        }
      ],
      "name": "Transfer",
      "type": "event"
    },
    {
      "anonymous": false,
      "inputs": [
        {
          "indexed": true,
          "internalType": "address",
          "name": "_from",
          "type": "address"
        },
        {
          "indexed": false,
          "internalType": "uint256",
          "name": "_amount",
          "type": "uint256"
        }
      ],
      "name": "enterStakingAttackPoints",
      "type": "event"
    },
    {
      "anonymous": false,
      "inputs": [
        {
          "indexed": true,
          "internalType": "address",
          "name": "_from",
          "type": "address"
        },
        {
          "indexed": false,
          "internalType": "uint256",
          "name": "_amount",
          "type": "uint256"
        }
      ],
      "name": "enterStakingDefensePoints",
      "type": "event"
    },
    {
      "inputs": [
        {
          "internalType": "address",
          "name": "",
          "type": "address"
        },
        {
          "internalType": "uint256",
          "name": "",
          "type": "uint256"
        }
      ],
      "name": "address2ids",
      "outputs": [
        {
          "internalType": "uint256",
          "name": "",
          "type": "uint256"
        }
      ],
      "stateMutability": "view",
      "type": "function",
      "constant": true
    },
    {
      "inputs": [
        {
          "internalType": "address",
          "name": "to",
          "type": "address"
        },
        {
          "internalType": "uint256",
          "name": "tokenId",
          "type": "uint256"
        }
      ],
      "name": "approve",
      "outputs": [],
      "stateMutability": "nonpayable",
      "type": "function"
    },
    {
      "inputs": [],
      "name": "attackCooldown",
      "outputs": [
        {
          "internalType": "uint256",
          "name": "",
          "type": "uint256"
        }
      ],
      "stateMutability": "view",
      "type": "function",
      "constant": true
    },
    {
      "inputs": [
        {
          "internalType": "address",
          "name": "owner",
          "type": "address"
        }
      ],
      "name": "balanceOf",
      "outputs": [
        {
          "internalType": "uint256",
          "name": "",
          "type": "uint256"
        }
      ],
      "stateMutability": "view",
      "type": "function",
      "constant": true
    },
    {
      "inputs": [],
      "name": "baseUrl",
      "outputs": [
        {
          "internalType": "string",
          "name": "",
          "type": "string"
        }
      ],
      "stateMutability": "view",
      "type": "function",
      "constant": true
    },
    {
      "inputs": [],
      "name": "buyForETH",
      "outputs": [],
      "stateMutability": "payable",
      "type": "function",
      "payable": true
    },
    {
      "inputs": [],
      "name": "exchangeRate",
      "outputs": [
        {
          "internalType": "uint8",
          "name": "",
          "type": "uint8"
        }
      ],
      "stateMutability": "view",
      "type": "function",
      "constant": true
    },
    {
      "inputs": [],
      "name": "exchangeRate_Attackpoints",
      "outputs": [
        {
          "internalType": "uint8",
          "name": "",
          "type": "uint8"
        }
      ],
      "stateMutability": "view",
      "type": "function",
      "constant": true
    },
    {
      "inputs": [],
      "name": "exchangeRate_Burnpct",
      "outputs": [
        {
          "internalType": "uint8",
          "name": "",
          "type": "uint8"
        }
      ],
      "stateMutability": "view",
      "type": "function",
      "constant": true
    },
    {
      "inputs": [],
      "name": "exchangeRate_Defensepoints",
      "outputs": [
        {
          "internalType": "uint8",
          "name": "",
          "type": "uint8"
        }
      ],
      "stateMutability": "view",
      "type": "function",
      "constant": true
    },
    {
      "inputs": [
        {
          "internalType": "uint256",
          "name": "tokenId",
          "type": "uint256"
        }
      ],
      "name": "getApproved",
      "outputs": [
        {
          "internalType": "address",
          "name": "",
          "type": "address"
        }
      ],
      "stateMutability": "view",
      "type": "function",
      "constant": true
    },
    {
      "inputs": [],
      "name": "getCurrentStakes",
      "outputs": [
        {
          "internalType": "uint256[2]",
          "name": "",
          "type": "uint256[2]"
        }
      ],
      "stateMutability": "view",
      "type": "function",
      "constant": true
    },
    {
      "inputs": [],
      "name": "getTimeUntilStakingDone",
      "outputs": [
        {
          "internalType": "uint256[2]",
          "name": "timeuntildone",
          "type": "uint256[2]"
        }
      ],
      "stateMutability": "view",
      "type": "function",
      "constant": true
    },
    {
      "inputs": [],
      "name": "harvestAll",
      "outputs": [],
      "stateMutability": "nonpayable",
      "type": "function"
    },
    {
      "inputs": [
        {
          "internalType": "address",
          "name": "owner",
          "type": "address"
        },
        {
          "internalType": "address",
          "name": "operator",
          "type": "address"
        }
      ],
      "name": "isApprovedForAll",
      "outputs": [
        {
          "internalType": "bool",
          "name": "",
          "type": "bool"
        }
      ],
      "stateMutability": "view",
      "type": "function",
      "constant": true
    },
    {
      "inputs": [],
      "name": "justSendETH",
      "outputs": [
        {
          "internalType": "uint256",
          "name": "",
          "type": "uint256"
        }
      ],
      "stateMutability": "payable",
      "type": "function",
      "payable": true
    },
    {
      "inputs": [],
      "name": "kgdat",
      "outputs": [
        {
          "internalType": "contract KingdomAttackCoin",
          "name": "",
          "type": "address"
        }
      ],
      "stateMutability": "view",
      "type": "function",
      "constant": true
    },
    {
      "inputs": [],
      "name": "kgddf",
      "outputs": [
        {
          "internalType": "contract KingdomDefenseCoin",
          "name": "",
          "type": "address"
        }
      ],
      "stateMutability": "view",
      "type": "function",
      "constant": true
    },
    {
      "inputs": [],
      "name": "kgdsc",
      "outputs": [
        {
          "internalType": "contract KingdomSeedCoin",
          "name": "",
          "type": "address"
        }
      ],
      "stateMutability": "view",
      "type": "function",
      "constant": true
    },
    {
      "inputs": [
        {
          "internalType": "uint256",
          "name": "",
          "type": "uint256"
        }
      ],
      "name": "kingdomtitles",
      "outputs": [
        {
          "internalType": "uint256",
          "name": "attackPoints",
          "type": "uint256"
        },
        {
          "internalType": "uint256",
          "name": "defensePoints",
          "type": "uint256"
        },
        {
          "internalType": "uint256",
          "name": "readyTimeAttack",
          "type": "uint256"
        }
      ],
      "stateMutability": "view",
      "type": "function",
      "constant": true
    },
    {
      "inputs": [],
      "name": "name",
      "outputs": [
        {
          "internalType": "string",
          "name": "",
          "type": "string"
        }
      ],
      "stateMutability": "view",
      "type": "function",
      "constant": true
    },
    {
      "inputs": [
        {
          "internalType": "uint256",
          "name": "tokenId",
          "type": "uint256"
        }
      ],
      "name": "ownerOf",
      "outputs": [
        {
          "internalType": "address",
          "name": "",
          "type": "address"
        }
      ],
      "stateMutability": "view",
      "type": "function",
      "constant": true
    },
    {
      "inputs": [
        {
          "internalType": "uint256",
          "name": "nrSeedCoins",
          "type": "uint256"
        },
        {
          "internalType": "uint8",
          "name": "targetCoin",
          "type": "uint8"
        }
      ],
      "name": "plantSeeds",
      "outputs": [],
      "stateMutability": "nonpayable",
      "type": "function"
    },
    {
      "inputs": [
        {
          "internalType": "address",
          "name": "from",
          "type": "address"
        },
        {
          "internalType": "address",
          "name": "to",
          "type": "address"
        },
        {
          "internalType": "uint256",
          "name": "tokenId",
          "type": "uint256"
        }
      ],
      "name": "safeTransferFrom",
      "outputs": [],
      "stateMutability": "nonpayable",
      "type": "function"
    },
    {
      "inputs": [
        {
          "internalType": "address",
          "name": "from",
          "type": "address"
        },
        {
          "internalType": "address",
          "name": "to",
          "type": "address"
        },
        {
          "internalType": "uint256",
          "name": "tokenId",
          "type": "uint256"
        },
        {
          "internalType": "bytes",
          "name": "_data",
          "type": "bytes"
        }
      ],
      "name": "safeTransferFrom",
      "outputs": [],
      "stateMutability": "nonpayable",
      "type": "function"
    },
    {
      "inputs": [
        {
          "internalType": "address",
          "name": "operator",
          "type": "address"
        },
        {
          "internalType": "bool",
          "name": "approved",
          "type": "bool"
        }
      ],
      "name": "setApprovalForAll",
      "outputs": [],
      "stateMutability": "nonpayable",
      "type": "function"
    },
    {
      "inputs": [],
      "name": "stakingPeriod",
      "outputs": [
        {
          "internalType": "uint256",
          "name": "",
          "type": "uint256"
        }
      ],
      "stateMutability": "view",
      "type": "function",
      "constant": true
    },
    {
      "inputs": [
        {
          "internalType": "bytes4",
          "name": "interfaceId",
          "type": "bytes4"
        }
      ],
      "name": "supportsInterface",
      "outputs": [
        {
          "internalType": "bool",
          "name": "",
          "type": "bool"
        }
      ],
      "stateMutability": "view",
      "type": "function",
      "constant": true
    },
    {
      "inputs": [],
      "name": "symbol",
      "outputs": [
        {
          "internalType": "string",
          "name": "",
          "type": "string"
        }
      ],
      "stateMutability": "view",
      "type": "function",
      "constant": true
    },
    {
      "inputs": [
        {
          "internalType": "uint256",
          "name": "",
          "type": "uint256"
        }
      ],
      "name": "titleId2Rank",
      "outputs": [
        {
          "internalType": "uint256",
          "name": "",
          "type": "uint256"
        }
      ],
      "stateMutability": "view",
      "type": "function",
      "constant": true
    },
    {
      "inputs": [
        {
          "internalType": "uint256",
          "name": "tokenId",
          "type": "uint256"
        }
      ],
      "name": "tokenURI",
      "outputs": [
        {
          "internalType": "string",
          "name": "",
          "type": "string"
        }
      ],
      "stateMutability": "view",
      "type": "function",
      "constant": true
    },
    {
      "inputs": [],
      "name": "totalSupply",
      "outputs": [
        {
          "internalType": "uint16",
          "name": "",
          "type": "uint16"
        }
      ],
      "stateMutability": "view",
      "type": "function",
      "constant": true
    },
    {
      "inputs": [
        {
          "internalType": "address",
          "name": "from",
          "type": "address"
        },
        {
          "internalType": "address",
          "name": "to",
          "type": "address"
        },
        {
          "internalType": "uint256",
          "name": "tokenId",
          "type": "uint256"
        }
      ],
      "name": "transferFrom",
      "outputs": [],
      "stateMutability": "nonpayable",
      "type": "function"
    },
    {
      "inputs": [
        {
          "internalType": "uint8",
          "name": "titleId",
          "type": "uint8"
        }
      ],
      "name": "getKingdomTitleStats",
      "outputs": [
        {
          "internalType": "uint256[3]",
          "name": "stats",
          "type": "uint256[3]"
        }
      ],
      "stateMutability": "view",
      "type": "function",
      "constant": true
    },
    {
      "inputs": [],
      "name": "currentPosition",
      "outputs": [
        {
          "internalType": "uint256",
          "name": "",
          "type": "uint256"
        }
      ],
      "stateMutability": "view",
      "type": "function",
      "constant": true
    },
    {
      "inputs": [
        {
          "internalType": "address",
          "name": "player",
          "type": "address"
        }
      ],
      "name": "awardItem",
      "outputs": [
        {
          "internalType": "uint256",
          "name": "",
          "type": "uint256"
        }
      ],
      "stateMutability": "nonpayable",
      "type": "function"
    },
    {
      "inputs": [
        {
          "internalType": "uint256",
          "name": "itemId",
          "type": "uint256"
        }
      ],
      "name": "reverseItem",
      "outputs": [
        {
          "internalType": "bool",
          "name": "",
          "type": "bool"
        }
      ],
      "stateMutability": "nonpayable",
      "type": "function"
    },
    {
      "inputs": [
        {
          "internalType": "uint256",
          "name": "_tokenId",
          "type": "uint256"
        }
      ],
      "name": "tokenMetadata",
      "outputs": [
        {
          "internalType": "string",
          "name": "infoUrl",
          "type": "string"
        }
      ],
      "stateMutability": "view",
      "type": "function",
      "constant": true
    },
    {
      "inputs": [
        {
          "internalType": "address",
          "name": "_own",
          "type": "address"
        }
      ],
      "name": "returnRanksOfTitles",
      "outputs": [
        {
          "internalType": "uint256[]",
          "name": "",
          "type": "uint256[]"
        }
      ],
      "stateMutability": "view",
      "type": "function",
      "constant": true
    },
    {
      "inputs": [],
      "name": "updateCheck",
      "outputs": [
        {
          "internalType": "string",
          "name": "",
          "type": "string"
        }
      ],
      "stateMutability": "pure",
      "type": "function",
      "constant": true
    },
    {
      "inputs": [
        {
          "internalType": "address",
          "name": "_own",
          "type": "address"
        }
      ],
      "name": "returnIdsOfAddress",
      "outputs": [
        {
          "internalType": "uint256[]",
          "name": "ownedIds",
          "type": "uint256[]"
        }
      ],
      "stateMutability": "view",
      "type": "function",
      "constant": true
    }
  ],
  "bytecode": "0x6006805463ffffffff1916630a080a64179055603c6007819055600d5560e060405260256080818152906200322360a03980516200004691600e916020909101906200015f565b503480156200005457600080fd5b50604051620032483803806200324883398101604081905262000077916200021e565b604080518082018252600e81526d4b696e67646f6d205469746c657360901b60208083019182528351808501909452600384526212d1d160ea1b9084015281518693869386939092620000cd916000916200015f565b508051620000e39060019060208401906200015f565b5050600880546001600160a01b039586166001600160a01b031991821617909155600980549486169482169490941790935550600a80549190931691161790556200012b3390565b600c80546001600160a01b0319166001600160a01b03929092169190911790555050617540805460ff1916905550620002af565b8280546200016d9062000272565b90600052602060002090601f016020900481019282620001915760008555620001dc565b82601f10620001ac57805160ff1916838001178555620001dc565b82800160010185558215620001dc579182015b82811115620001dc578251825591602001919060010190620001bf565b50620001ea929150620001ee565b5090565b5b80821115620001ea5760008155600101620001ef565b6001600160a01b03811681146200021b57600080fd5b50565b6000806000606084860312156200023457600080fd5b8351620002418162000205565b6020850151909350620002548162000205565b6040850151909250620002678162000205565b809150509250925092565b600181811c908216806200028757607f821691505b60208210811415620002a957634e487b7160e01b600052602260045260246000fd5b50919050565b612f6480620002bf6000396000f3fe6080604052600436106102465760003560e01c806370a0823111610139578063c6a3550f116100b6578063e73961f51161007a578063e73961f5146106e2578063e985e9c5146106f8578063e9c81cb314610741578063f08b7b731461076e578063f2fb21201461078e578063fa4facdb146107ae57600080fd5b8063c6a3550f14610655578063c87b56dd14610683578063d4637ddb146106a3578063d534d636146106c3578063e046670b146106dc57600080fd5b806395d89b41116100fd57806395d89b41146105cb578063a22cb465146105e0578063b88d4fde14610600578063c03d5b4714610620578063c669b7101461063657600080fd5b806370a08231146105265780637c62539a1461055457806384505e6a146105745780638ed955b914610596578063900294be146105ab57600080fd5b806323b872dd116101c7578063429c3edf1161018b578063429c3edf146104905780635bcabf04146104b05780636352211e146104c55780636914db60146104e55780636a7a2fa31461050557600080fd5b806323b872dd146103e45780632756985c146104045780633ba0b9a914610424578063411ee0d01461045057806342842e0e1461047057600080fd5b806313245c951161020e57806313245c951461030457806318160ddd146103315780631a90dfe01461035a5780631b4801cc146103895780631cf95ed6146103a957600080fd5b806301ffc9a71461024b57806306fdde0314610280578063081812fc146102a2578063095ea7b3146102da57806310f7e4ed146102fc575b600080fd5b34801561025757600080fd5b5061026b610266366004612827565b6107c3565b60405190151581526020015b60405180910390f35b34801561028c57600080fd5b50610295610815565b604051610277919061289c565b3480156102ae57600080fd5b506102c26102bd3660046128af565b6108a7565b6040516001600160a01b039091168152602001610277565b3480156102e657600080fd5b506102fa6102f53660046128df565b610941565b005b6102fa610a57565b34801561031057600080fd5b5061032461031f366004612909565b610cc3565b6040516102779190612924565b34801561033d57600080fd5b5061034761271081565b60405161ffff9091168152602001610277565b34801561036657600080fd5b506040805180820190915260068152656675636b207560d01b6020820152610295565b34801561039557600080fd5b506103246103a4366004612909565b610d30565b3480156103b557600080fd5b506103c96103c43660046128af565b610e5a565b60408051938452602084019290925290820152606001610277565b3480156103f057600080fd5b506102fa6103ff366004612968565b610e82565b34801561041057600080fd5b5061026b61041f3660046128af565b610eb3565b34801561043057600080fd5b5060065461043e9060ff1681565b60405160ff9091168152602001610277565b34801561045c57600080fd5b50600a546102c2906001600160a01b031681565b34801561047c57600080fd5b506102fa61048b366004612968565b611047565b34801561049c57600080fd5b506102fa6104ab3660046129b5565b611062565b3480156104bc57600080fd5b50610295611482565b3480156104d157600080fd5b506102c26104e03660046128af565b611510565b3480156104f157600080fd5b506102956105003660046128af565b611587565b34801561051157600080fd5b5060065461043e906301000000900460ff1681565b34801561053257600080fd5b50610546610541366004612909565b6115bb565b604051908152602001610277565b34801561056057600080fd5b506009546102c2906001600160a01b031681565b34801561058057600080fd5b50610589611642565b60405161027791906129e1565b3480156105a257600080fd5b506102fa61172c565b3480156105b757600080fd5b506008546102c2906001600160a01b031681565b3480156105d757600080fd5b506102956119f3565b3480156105ec57600080fd5b506102fa6105fb366004612a20565b611a02565b34801561060c57600080fd5b506102fa61061b366004612a6d565b611ac7565b34801561062c57600080fd5b5061054660075481565b34801561064257600080fd5b5060065461043e90610100900460ff1681565b34801561066157600080fd5b506105466106703660046128af565b61753f6020526000908152604090205481565b34801561068f57600080fd5b5061029561069e3660046128af565b611aff565b3480156106af57600080fd5b5060065461043e9062010000900460ff1681565b3480156106cf57600080fd5b506175405460ff16610546565b47610546565b3480156106ee57600080fd5b50610546600d5481565b34801561070457600080fd5b5061026b610713366004612b49565b6001600160a01b03918216600090815260056020908152604080832093909416825291909152205460ff1690565b34801561074d57600080fd5b5061076161075c366004612b73565b611be6565b6040516102779190612b8e565b34801561077a57600080fd5b506105466107893660046128df565b611c7f565b34801561079a57600080fd5b506105466107a9366004612909565b611cb1565b3480156107ba57600080fd5b50610589611e51565b60006001600160e01b031982166380ac58cd60e01b14806107f457506001600160e01b03198216635b5e139f60e01b145b8061080f57506301ffc9a760e01b6001600160e01b03198316145b92915050565b60606000805461082490612bb6565b80601f016020809104026020016040519081016040528092919081815260200182805461085090612bb6565b801561089d5780601f106108725761010080835404028352916020019161089d565b820191906000526020600020905b81548152906001019060200180831161088057829003601f168201915b5050505050905090565b6000818152600260205260408120546001600160a01b03166109255760405162461bcd60e51b815260206004820152602c60248201527f4552433732313a20617070726f76656420717565727920666f72206e6f6e657860448201526b34b9ba32b73a103a37b5b2b760a11b60648201526084015b60405180910390fd5b506000908152600460205260409020546001600160a01b031690565b600061094c82611510565b9050806001600160a01b0316836001600160a01b031614156109ba5760405162461bcd60e51b815260206004820152602160248201527f4552433732313a20617070726f76616c20746f2063757272656e74206f776e656044820152603960f91b606482015260840161091c565b336001600160a01b03821614806109d657506109d68133610713565b610a485760405162461bcd60e51b815260206004820152603860248201527f4552433732313a20617070726f76652063616c6c6572206973206e6f74206f7760448201527f6e6572206e6f7220617070726f76656420666f7220616c6c0000000000000000606482015260840161091c565b610a528383611f31565b505050565b6008546040516370a0823160e01b81523060048201526000916001600160a01b0316906370a082319060240160206040518083038186803b158015610a9b57600080fd5b505afa158015610aaf573d6000803e3d6000fd5b505050506040513d601f19601f82011682018060405250810190610ad39190612bf1565b11610add57600080fd5b60003411610b465760405162461bcd60e51b815260206004820152603060248201527f796f75206861766520746f2073656e6420736f6d652045544820746f2067657460448201526f1025b4b733b237b6a9b2b2b231b7b4b760811b606482015260840161091c565b6008546040516370a0823160e01b81523060048201526000916001600160a01b0316906370a082319060240160206040518083038186803b158015610b8a57600080fd5b505afa158015610b9e573d6000803e3d6000fd5b505050506040513d601f19601f82011682018060405250810190610bc29190612bf1565b11610c275760405162461bcd60e51b815260206004820152602f60248201527f75686f682c2073727920692063616e27742073656e6420616e79206d6f72652060448201526e25b4b733b237b6a9b2b2b231b7b4b760891b606482015260840161091c565b600654600090610c3a9060ff1634612c20565b60085460405163a9059cbb60e01b8152336004820152602481018390529192506001600160a01b03169063a9059cbb90604401602060405180830381600087803b158015610c8757600080fd5b505af1158015610c9b573d6000803e3d6000fd5b505050506040513d601f19601f82011682018060405250810190610cbf9190612c3f565b5050565b6001600160a01b03811660009081526175416020908152604091829020805483518184028101840190945280845260609392830182828015610d2457602002820191906000526020600020905b815481526020019060010190808311610d10575b50505050509050919050565b6001600160a01b038116600090815261754160209081526040808320805482518185028101850190935280835260609493830182828015610d9057602002820191906000526020600020905b815481526020019060010190808311610d7c575b505050505090506000815167ffffffffffffffff811115610db357610db3612a57565b604051908082528060200260200182016040528015610ddc578160200160208202803683370190505b5090508151600014610e535760005b8251811015610e515761753f6000848381518110610e0b57610e0b612c5c565b6020026020010151815260200190815260200160002054828281518110610e3457610e34612c5c565b602090810291909101015280610e4981612c72565b915050610deb565b505b9392505050565b600f816127108110610e6b57600080fd5b600302018054600182015460029092015490925083565b610e8c3382611f9f565b610ea85760405162461bcd60e51b815260040161091c90612c8d565b610a52838383612096565b600c546000906001600160a01b03163314610efb5760405162461bcd60e51b81526020600482015260086024820152673337b7b59037b33360c11b604482015260640161091c565b6000610f0683611510565b9050610f13813085612096565b611a0a60005b6001600160a01b03831660009081526175416020526040902054811015610f93576001600160a01b038316600090815261754160205260409020805486919083908110610f6857610f68612c5c565b90600052602060002001541415610f8157809150610f93565b80610f8b81612c72565b915050610f19565b5080611a0a14156110055760405162461bcd60e51b815260206004820152603660248201527f72657665727365206974656d2066756e6374696f6e2e2e2e206974656d206e6f6044820152757420666f756e6420696e20616464726573733269647360501b606482015260840161091c565b6001600160a01b03821660009081526175416020526040902080548290811061103057611030612c5c565b60009182526020822001555060019150505b919050565b610a5283838360405180602001604052806000815250611ac7565b6009546040516370a0823160e01b81523060048201526000916001600160a01b0316906370a082319060240160206040518083038186803b1580156110a657600080fd5b505afa1580156110ba573d6000803e3d6000fd5b505050506040513d601f19601f820116820180604052508101906110de9190612bf1565b116110e857600080fd5b600a546040516370a0823160e01b81523060048201526000916001600160a01b0316906370a082319060240160206040518083038186803b15801561112c57600080fd5b505afa158015611140573d6000803e3d6000fd5b505050506040513d601f19601f820116820180604052508101906111649190612bf1565b1161116e57600080fd5b6008546040516370a0823160e01b81523360048201526000916001600160a01b0316906370a082319060240160206040518083038186803b1580156111b257600080fd5b505afa1580156111c6573d6000803e3d6000fd5b505050506040513d601f19601f820116820180604052508101906111ea9190612bf1565b90508281101580156111fc5750600083115b6112635760405162461bcd60e51b815260206004820152603260248201527f796f7520646f6e2774206861766520656e6f7567682073656564636f696e732160448201527120627579206f7220747261646520736f6d6560701b606482015260840161091c565b60ff8216158061127657508160ff166001145b6112dd5760405162461bcd60e51b815260206004820152603260248201527f746172676574436f696e2068617320746f20626520303d61747461636b636f69604482015271371037b910189eb232b332b739b2b1b7b4b760711b606482015260840161091c565b60ff821661131f5760405183815233907f44d00596aedd88fca0607c9a84113fd638c9a070d5ef8d77c072080b688d8e349060200160405180910390a2611361565b8160ff16600114156113615760405183815233907f049b4d6e22c9904766197183f9dc1f362cefb04f39e3850a8b7d83ff2c26216f9060200160405180910390a25b6008546040516323b872dd60e01b8152336004820152306024820152604481018590526001600160a01b03909116906323b872dd90606401602060405180830381600087803b1580156113b357600080fd5b505af11580156113c7573d6000803e3d6000fd5b505050506040513d601f19601f820116820180604052508101906113eb9190612c3f565b50600b6000336001600160a01b03166001600160a01b0316815260200190815260200160002060405180606001604052808581526020018460ff168152602001600754426114399190612cde565b90528154600180820184556000938452602093849020835160039093020191825592820151928101805460ff191660ff9094169390931790925560400151600290910155505050565b600e805461148f90612bb6565b80601f01602080910402602001604051908101604052809291908181526020018280546114bb90612bb6565b80156115085780601f106114dd57610100808354040283529160200191611508565b820191906000526020600020905b8154815290600101906020018083116114eb57829003601f168201915b505050505081565b6000818152600260205260408120546001600160a01b03168061080f5760405162461bcd60e51b815260206004820152602960248201527f4552433732313a206f776e657220717565727920666f72206e6f6e657869737460448201526832b73a103a37b5b2b760b91b606482015260840161091c565b6060600e61159483612236565b6040516020016115a5929190612d12565b6040516020818303038152906040529050919050565b60006001600160a01b0382166116265760405162461bcd60e51b815260206004820152602a60248201527f4552433732313a2062616c616e636520717565727920666f7220746865207a65604482015269726f206164647265737360b01b606482015260840161091c565b506001600160a01b031660009081526003602052604090205490565b61164a6127d5565b60005b336000908152600b602052604090205481101561172857336000908152600b6020526040812080548390811061168557611685612c5c565b600091825260209182902060408051606081018252600390930290910180548352600181015460ff16938301849052600201549082015291506116e75742816040015111156116de5760168360005b6020020152611715565b600083816116d4565b806020015160ff166001141561171557428160400151111561170d5760178360016116d4565b600060208401525b508061172081612c72565b91505061164d565b5090565b60005b336000908152600b60205260409020548110156119f057336000908152600b6020526040812080548390811061176757611767612c5c565b600091825260209182902060408051606081018252600390930290910180548352600181015460ff169383019390935260029092015491810182905291504211156119dd57602081015160ff166118a25760065481516000916117d39161010090910460ff1690612dcf565b90506117e2826000015161235f565b60095460405163a9059cbb60e01b8152336004820152602481018390526001600160a01b039091169063a9059cbb90604401602060405180830381600087803b15801561182e57600080fd5b505af1158015611842573d6000803e3d6000fd5b505050506040513d601f19601f820116820180604052508101906118669190612c3f565b5060405181815233907f9fd4a9248425079a398923cd20daa8e0c103907fb89db4707cb4f2cc343f95469060200160405180910390a250611999565b806020015160ff16600114156119995760065481516000916118ce916201000090910460ff1690612dcf565b90506118dd826000015161235f565b600a5460405163a9059cbb60e01b8152336004820152602481018390526001600160a01b039091169063a9059cbb90604401602060405180830381600087803b15801561192957600080fd5b505af115801561193d573d6000803e3d6000fd5b505050506040513d601f19601f820116820180604052508101906119619190612c3f565b5060405181815233907fd62aeb2df4f1c7a0c59e15c0dca22ccbcbe42ad0d0dbf99a22c0ad2551c5a1559060200160405180910390a2505b336000908152600b602052604090208054839081106119ba576119ba612c5c565b60009182526020822060039091020181815560018101805460ff19169055600201555b50806119e881612c72565b91505061172f565b50565b60606001805461082490612bb6565b6001600160a01b038216331415611a5b5760405162461bcd60e51b815260206004820152601960248201527f4552433732313a20617070726f766520746f2063616c6c657200000000000000604482015260640161091c565b3360008181526005602090815260408083206001600160a01b03871680855290835292819020805460ff191686151590811790915590519081529192917f17307eab39ab6107e8899845ad3d59bd9653f200f220920489ca2b5937696c31910160405180910390a35050565b611ad13383611f9f565b611aed5760405162461bcd60e51b815260040161091c90612c8d565b611af984848484612455565b50505050565b6000818152600260205260409020546060906001600160a01b0316611b7e5760405162461bcd60e51b815260206004820152602f60248201527f4552433732314d657461646174613a2055524920717565727920666f72206e6f60448201526e3732bc34b9ba32b73a103a37b5b2b760891b606482015260840161091c565b6000611b9560408051602081019091526000815290565b90506000815111611bb55760405180602001604052806000815250610e53565b80611bbf84612488565b604051602001611bd0929190612de3565b6040516020818303038152906040529392505050565b611bee6127f3565b600f8260ff166127108110611c0557611c05612c5c565b60030201548152600f60ff83166127108110611c2357611c23612c5c565b600302016001015481600160038110611c3e57611c3e612c5c565b6020020152600f60ff83166127108110611c5a57611c5a612c5c565b600302016002015481600260038110611c7557611c75612c5c565b6020020152919050565b6175416020528160005260406000208181548110611c9c57600080fd5b90600052602060002001600091509150505481565b600c546000906001600160a01b03163314611cf95760405162461bcd60e51b81526020600482015260086024820152673337b7b59037b33360c11b604482015260640161091c565b6175405461271060ff90911610611d5c5760405162461bcd60e51b815260206004820152602160248201527f75686f682c206e6f207469746c657320617661696c61626c6520616e796d6f726044820152606560f81b606482015260840161091c565b61754054600090611d719060ff166001612e12565b60ff169050611d808382612586565b6001600160a01b03831660009081526175416020908152604080832080546001810182559084528284200184905583835261753f8252808320849055805160608101825283815291820192909252600d549091820190611de09042612cde565b9052600f826127108110611df657611df6612c5c565b82516003919091029190910190815560208201516001820155604090910151600290910155617540805460ff16906000611e2f83612e37565b91906101000a81548160ff021916908360ff1602179055505080915050919050565b611e596127d5565b60008060005b336000908152600b6020526040902054811015611f1957336000908152600b60205260408120805483908110611e9757611e97612c5c565b600091825260209182902060408051606081018252600390930290910180548352600181015460ff1693830184905260020154908201529150611ee7578051611ee09085612cde565b9350611f06565b806020015160ff1660011415611f06578051611f039084612cde565b92505b5080611f1181612c72565b915050611e5f565b50604080518082019091529182526020820152919050565b600081815260046020526040902080546001600160a01b0319166001600160a01b0384169081179091558190611f6682611510565b6001600160a01b03167f8c5be1e5ebec7d5bd14f71427d1e84f3dd0314c0f7b2291e5b200ac8c7c3b92560405160405180910390a45050565b6000818152600260205260408120546001600160a01b03166120185760405162461bcd60e51b815260206004820152602c60248201527f4552433732313a206f70657261746f7220717565727920666f72206e6f6e657860448201526b34b9ba32b73a103a37b5b2b760a11b606482015260840161091c565b600061202383611510565b9050806001600160a01b0316846001600160a01b0316148061205e5750836001600160a01b0316612053846108a7565b6001600160a01b0316145b8061208e57506001600160a01b0380821660009081526005602090815260408083209388168352929052205460ff165b949350505050565b826001600160a01b03166120a982611510565b6001600160a01b0316146121115760405162461bcd60e51b815260206004820152602960248201527f4552433732313a207472616e73666572206f6620746f6b656e2074686174206960448201526839903737ba1037bbb760b91b606482015260840161091c565b6001600160a01b0382166121735760405162461bcd60e51b8152602060048201526024808201527f4552433732313a207472616e7366657220746f20746865207a65726f206164646044820152637265737360e01b606482015260840161091c565b61217e600082611f31565b6001600160a01b03831660009081526003602052604081208054600192906121a7908490612e57565b90915550506001600160a01b03821660009081526003602052604081208054600192906121d5908490612cde565b909155505060008181526002602052604080822080546001600160a01b0319166001600160a01b0386811691821790925591518493918716917fddf252ad1be2c89b69c2b068fc378daa952ba7f163c4a11628f55a4df523b3ef91a4505050565b60608161225a5750506040805180820190915260018152600360fc1b602082015290565b8160005b8115612284578061226e81612c72565b915061227d9050600a83612dcf565b915061225e565b60008167ffffffffffffffff81111561229f5761229f612a57565b6040519080825280601f01601f1916602001820160405280156122c9576020820181803683370190505b509050815b8515612356576122df600182612e57565b905060006122ee600a88612dcf565b6122f990600a612c20565b6123039088612e57565b61230e906030612e12565b905060008160f81b90508084848151811061232b5761232b612c5c565b60200101906001600160f81b031916908160001a90535061234d600a89612dcf565b975050506122ce565b50949350505050565b60065460009060649061237c906301000000900460ff1684612c20565b6123869190612dcf565b6123909083612e57565b60085460405163a9059cbb60e01b8152336004820152602481018390529192506001600160a01b03169063a9059cbb90604401602060405180830381600087803b1580156123dd57600080fd5b505af11580156123f1573d6000803e3d6000fd5b505050506040513d601f19601f820116820180604052508101906124159190612c3f565b50604080518281526020810184905233917f11acec8ea502f5c875e157dd1a17389990a9350450464db61ef112521c0d8751910160405180910390a25050565b612460848484612096565b61246c848484846126c8565b611af95760405162461bcd60e51b815260040161091c90612e6e565b6060816124ac5750506040805180820190915260018152600360fc1b602082015290565b8160005b81156124d657806124c081612c72565b91506124cf9050600a83612dcf565b91506124b0565b60008167ffffffffffffffff8111156124f1576124f1612a57565b6040519080825280601f01601f19166020018201604052801561251b576020820181803683370190505b5090505b841561208e57612530600183612e57565b915061253d600a86612ec0565b612548906030612cde565b60f81b81838151811061255d5761255d612c5c565b60200101906001600160f81b031916908160001a90535061257f600a86612dcf565b945061251f565b6001600160a01b0382166125dc5760405162461bcd60e51b815260206004820181905260248201527f4552433732313a206d696e7420746f20746865207a65726f2061646472657373604482015260640161091c565b6000818152600260205260409020546001600160a01b0316156126415760405162461bcd60e51b815260206004820152601c60248201527f4552433732313a20746f6b656e20616c7265616479206d696e74656400000000604482015260640161091c565b6001600160a01b038216600090815260036020526040812080546001929061266a908490612cde565b909155505060008181526002602052604080822080546001600160a01b0319166001600160a01b03861690811790915590518392907fddf252ad1be2c89b69c2b068fc378daa952ba7f163c4a11628f55a4df523b3ef908290a45050565b60006001600160a01b0384163b156127ca57604051630a85bd0160e11b81526001600160a01b0385169063150b7a029061270c903390899088908890600401612ed4565b602060405180830381600087803b15801561272657600080fd5b505af1925050508015612756575060408051601f3d908101601f1916820190925261275391810190612f11565b60015b6127b0573d808015612784576040519150601f19603f3d011682016040523d82523d6000602084013e612789565b606091505b5080516127a85760405162461bcd60e51b815260040161091c90612e6e565b805181602001fd5b6001600160e01b031916630a85bd0160e11b14905061208e565b506001949350505050565b60405180604001604052806002906020820280368337509192915050565b60405180606001604052806003906020820280368337509192915050565b6001600160e01b0319811681146119f057600080fd5b60006020828403121561283957600080fd5b8135610e5381612811565b60005b8381101561285f578181015183820152602001612847565b83811115611af95750506000910152565b60008151808452612888816020860160208601612844565b601f01601f19169290920160200192915050565b602081526000610e536020830184612870565b6000602082840312156128c157600080fd5b5035919050565b80356001600160a01b038116811461104257600080fd5b600080604083850312156128f257600080fd5b6128fb836128c8565b946020939093013593505050565b60006020828403121561291b57600080fd5b610e53826128c8565b6020808252825182820181905260009190848201906040850190845b8181101561295c57835183529284019291840191600101612940565b50909695505050505050565b60008060006060848603121561297d57600080fd5b612986846128c8565b9250612994602085016128c8565b9150604084013590509250925092565b803560ff8116811461104257600080fd5b600080604083850312156129c857600080fd5b823591506129d8602084016129a4565b90509250929050565b60408101818360005b6002811015612a095781518352602092830192909101906001016129ea565b50505092915050565b80151581146119f057600080fd5b60008060408385031215612a3357600080fd5b612a3c836128c8565b91506020830135612a4c81612a12565b809150509250929050565b634e487b7160e01b600052604160045260246000fd5b60008060008060808587031215612a8357600080fd5b612a8c856128c8565b9350612a9a602086016128c8565b925060408501359150606085013567ffffffffffffffff80821115612abe57600080fd5b818701915087601f830112612ad257600080fd5b813581811115612ae457612ae4612a57565b604051601f8201601f19908116603f01168101908382118183101715612b0c57612b0c612a57565b816040528281528a6020848701011115612b2557600080fd5b82602086016020830137600060208483010152809550505050505092959194509250565b60008060408385031215612b5c57600080fd5b612b65836128c8565b91506129d8602084016128c8565b600060208284031215612b8557600080fd5b610e53826129a4565b60608101818360005b6003811015612a09578151835260209283019290910190600101612b97565b600181811c90821680612bca57607f821691505b60208210811415612beb57634e487b7160e01b600052602260045260246000fd5b50919050565b600060208284031215612c0357600080fd5b5051919050565b634e487b7160e01b600052601160045260246000fd5b6000816000190483118215151615612c3a57612c3a612c0a565b500290565b600060208284031215612c5157600080fd5b8151610e5381612a12565b634e487b7160e01b600052603260045260246000fd5b6000600019821415612c8657612c86612c0a565b5060010190565b60208082526031908201527f4552433732313a207472616e736665722063616c6c6572206973206e6f74206f6040820152701ddb995c881b9bdc88185c1c1c9bdd9959607a1b606082015260800190565b60008219821115612cf157612cf1612c0a565b500190565b60008151612d08818560208601612844565b9290920192915050565b600080845481600182811c915080831680612d2e57607f831692505b6020808410821415612d4e57634e487b7160e01b86526022600452602486fd5b818015612d625760018114612d7357612da0565b60ff19861689528489019650612da0565b60008b81526020902060005b86811015612d985781548b820152908501908301612d7f565b505084890196505b505050505050612db08185612cf6565b95945050505050565b634e487b7160e01b600052601260045260246000fd5b600082612dde57612dde612db9565b500490565b60008351612df5818460208801612844565b835190830190612e09818360208801612844565b01949350505050565b600060ff821660ff84168060ff03821115612e2f57612e2f612c0a565b019392505050565b600060ff821660ff811415612e4e57612e4e612c0a565b60010192915050565b600082821015612e6957612e69612c0a565b500390565b60208082526032908201527f4552433732313a207472616e7366657220746f206e6f6e20455243373231526560408201527131b2b4bb32b91034b6b83632b6b2b73a32b960711b606082015260800190565b600082612ecf57612ecf612db9565b500690565b6001600160a01b0385811682528416602082015260408101839052608060608201819052600090612f0790830184612870565b9695505050505050565b600060208284031215612f2357600080fd5b8151610e538161281156fea264697066735822122029c9e1cfe14bf231c7db73c76428706e6a83b60d631108dbbbce984e168ea12f64736f6c6343000809003368747470733a2f2f7777772e6b696e67646f6d63727970746f2e636f6d2f7469746c65732f",
  "immutableReferences": {},
  "source": "pragma solidity ^0.8;\n\nimport \"@openzeppelin/contracts/token/ERC721/ERC721.sol\";\nimport \"@openzeppelin/contracts/access/Ownable.sol\";\nimport \"./KingdomBank.sol\";\n\ncontract KingdomTitles is ERC721, KingdomBank {\n    \n    address private _owner;\n    \n    uint16 constant public totalSupply = 10000;\n    uint public attackCooldown = 60 seconds;\n    string public baseUrl = \"https://www.kingdomcrypto.com/titles/\";\n\n    struct KingdomTitle {\n        uint attackPoints;\n        uint defensePoints;\n        uint readyTimeAttack;\n    }\n\n    KingdomTitle[totalSupply] public kingdomtitles;\n\n    mapping (uint => uint) public titleId2Rank;\n    uint8 internal titleCount;\n\n    mapping (address => uint[]) public address2ids;\n\n    constructor(KingdomSeedCoin kgdsc, KingdomAttackCoin kgdat, KingdomDefenseCoin kgddf) ERC721(\"Kingdom Titles\", \"KGD\") KingdomBank(kgdsc, kgdat, kgddf) {\n        _owner = _msgSender();\n        titleCount = 0;\n    }\n\n    modifier onlyOwner {\n        require(_owner == msg.sender, \"fook off\");\n        _;\n    }\n\n    function getKingdomTitleStats(uint8 titleId) public view returns (uint[3] memory stats) {\n        stats[0] = kingdomtitles[titleId].attackPoints;\n        stats[1] = kingdomtitles[titleId].defensePoints;\n        stats[2] = kingdomtitles[titleId].readyTimeAttack;\n    }\n\n    function uint2str(uint _i) internal pure returns (string memory _uintAsString) {\n        if (_i == 0) {\n            return \"0\";\n        }\n        uint j = _i;\n        uint len;\n        while (j != 0) {\n            len++;\n            j /= 10;\n        }\n        bytes memory bstr = new bytes(len);\n        uint k = len;\n        while (_i != 0) {\n            k = k-1;\n            uint8 temp = (48 + uint8(_i - _i / 10 * 10));\n            bytes1 b1 = bytes1(temp);\n            bstr[k] = b1;\n            _i /= 10;\n        }\n        return string(bstr);\n    }\n\n    function currentPosition() public view returns (uint256) {\n        return uint256(titleCount);\n    }\n\n    function awardItem(address player) public onlyOwner returns (uint256) {\n        require(titleCount < totalSupply, \"uhoh, no titles available anymore\");  \n\n        uint256 newItemId = titleCount + 1;\n        _mint(player, newItemId);\n\n        // mark it down in address2ids\n        address2ids[player].push(newItemId);\n\n        // then add data to storage\n        titleId2Rank[newItemId] = newItemId;\n        kingdomtitles[newItemId] = KingdomTitle(0,0,block.timestamp + attackCooldown);\n\n        titleCount++;\n\n        return newItemId;\n    }\n\n    function reverseItem(uint256 itemId) public onlyOwner returns (bool) {\n        address ownerOfItem = ownerOf(itemId);\n        _transfer(ownerOfItem, address(this), itemId);\n        uint pos = 6666;\n        for (uint i = 0; i < address2ids[ownerOfItem].length; i++) {\n            if (address2ids[ownerOfItem][i] == itemId) {\n                pos = i;\n                break;\n            }\n        }\n        require(pos != 6666, \"reverse item function... item not found in address2ids\");\n        delete address2ids[ownerOfItem][pos];\n        return true;\n    }\n\n    function tokenMetadata(uint256 _tokenId) public view returns (string memory infoUrl) {\n        return string(abi.encodePacked(baseUrl, uint2str(_tokenId)));\n    }\n\n    function returnRanksOfTitles(address _own) public view returns (uint256[] memory) {\n        uint256[] memory ids = address2ids[_own];\n        uint256[] memory ranks = new uint256[](ids.length);\n        if (ids.length != 0) {\n            for (uint i = 0; i < ids.length; i++) {\n                ranks[i] = titleId2Rank[ids[i]];\n            }\n        }\n        return ranks;\n    }\n\n    function updateCheck() public pure returns (string memory) {\n        return \"fuck u\";\n    }\n\n    function returnIdsOfAddress(address _own) public view returns (uint256[] memory ownedIds) {\n        return address2ids[_own];\n    }\n}",
  "sourcePath": "/home/justin/code/solidity-course/kingdom/contracts/KingdomTitles.sol",
  "compiler": {
    "name": "solc",
    "version": "0.8.9+commit.e5eed63a.Emscripten.clang"
  },
  "schemaVersion": "3.4.3",
  "updatedAt": "2021-11-11T14:11:51.118Z",
  "networkType": "ethereum",
  "devdoc": {
    "kind": "dev",
    "methods": {
      "approve(address,uint256)": {
        "details": "See {IERC721-approve}."
      },
      "balanceOf(address)": {
        "details": "See {IERC721-balanceOf}."
      },
      "getApproved(uint256)": {
        "details": "See {IERC721-getApproved}."
      },
      "isApprovedForAll(address,address)": {
        "details": "See {IERC721-isApprovedForAll}."
      },
      "name()": {
        "details": "See {IERC721Metadata-name}."
      },
      "ownerOf(uint256)": {
        "details": "See {IERC721-ownerOf}."
      },
      "safeTransferFrom(address,address,uint256)": {
        "details": "See {IERC721-safeTransferFrom}."
      },
      "safeTransferFrom(address,address,uint256,bytes)": {
        "details": "See {IERC721-safeTransferFrom}."
      },
      "setApprovalForAll(address,bool)": {
        "details": "See {IERC721-setApprovalForAll}."
      },
      "supportsInterface(bytes4)": {
        "details": "See {IERC165-supportsInterface}."
      },
      "symbol()": {
        "details": "See {IERC721Metadata-symbol}."
      },
      "tokenURI(uint256)": {
        "details": "See {IERC721Metadata-tokenURI}."
      },
      "transferFrom(address,address,uint256)": {
        "details": "See {IERC721-transferFrom}."
      }
    },
    "version": 1
  },
  "userdoc": {
    "kind": "user",
    "methods": {},
    "version": 1
  }
}