{
  "contractName": "KingdomGameMechanic",
  "abi": [
    {
      "inputs": [
        {
          "internalType": "contract KingdomSeedCoin",
          "name": "kgdsc",
          "type": "address"
        },
        {
          "internalType": "contract KingdomAttackCoin",
          "name": "kgdat",
          "type": "address"
        },
        {
          "internalType": "contract KingdomDefenseCoin",
          "name": "kgddf",
          "type": "address"
        }
      ],
      "stateMutability": "nonpayable",
      "type": "constructor"
    },
    {
      "anonymous": false,
      "inputs": [
        {
          "indexed": true,
          "internalType": "address",
          "name": "owner",
          "type": "address"
        },
        {
          "indexed": true,
          "internalType": "address",
          "name": "approved",
          "type": "address"
        },
        {
          "indexed": true,
          "internalType": "uint256",
          "name": "tokenId",
          "type": "uint256"
        }
      ],
      "name": "Approval",
      "type": "event"
    },
    {
      "anonymous": false,
      "inputs": [
        {
          "indexed": true,
          "internalType": "address",
          "name": "owner",
          "type": "address"
        },
        {
          "indexed": true,
          "internalType": "address",
          "name": "operator",
          "type": "address"
        },
        {
          "indexed": false,
          "internalType": "bool",
          "name": "approved",
          "type": "bool"
        }
      ],
      "name": "ApprovalForAll",
      "type": "event"
    },
    {
      "anonymous": false,
      "inputs": [
        {
          "indexed": false,
          "internalType": "address",
          "name": "attacker",
          "type": "address"
        },
        {
          "indexed": false,
          "internalType": "address",
          "name": "defender",
          "type": "address"
        },
        {
          "indexed": false,
          "internalType": "uint16",
          "name": "attacker_id",
          "type": "uint16"
        },
        {
          "indexed": false,
          "internalType": "uint16",
          "name": "defender_id",
          "type": "uint16"
        },
        {
          "indexed": false,
          "internalType": "uint256",
          "name": "attackPointsBefore",
          "type": "uint256"
        },
        {
          "indexed": false,
          "internalType": "uint256",
          "name": "defensePointsBefore",
          "type": "uint256"
        },
        {
          "indexed": false,
          "internalType": "uint256",
          "name": "deadAttackers",
          "type": "uint256"
        },
        {
          "indexed": false,
          "internalType": "uint256",
          "name": "deadDefenders",
          "type": "uint256"
        },
        {
          "indexed": false,
          "internalType": "uint256",
          "name": "denominator",
          "type": "uint256"
        },
        {
          "indexed": false,
          "internalType": "uint256",
          "name": "remainder",
          "type": "uint256"
        },
        {
          "indexed": false,
          "internalType": "bool",
          "name": "won",
          "type": "bool"
        }
      ],
      "name": "Attack",
      "type": "event"
    },
    {
      "anonymous": false,
      "inputs": [
        {
          "indexed": true,
          "internalType": "address",
          "name": "_to",
          "type": "address"
        },
        {
          "indexed": false,
          "internalType": "uint256",
          "name": "_amount",
          "type": "uint256"
        }
      ],
      "name": "HarvestAttackPoints",
      "type": "event"
    },
    {
      "anonymous": false,
      "inputs": [
        {
          "indexed": true,
          "internalType": "address",
          "name": "_to",
          "type": "address"
        },
        {
          "indexed": false,
          "internalType": "uint256",
          "name": "_amount",
          "type": "uint256"
        }
      ],
      "name": "HarvestDefensePoints",
      "type": "event"
    },
    {
      "anonymous": false,
      "inputs": [
        {
          "indexed": true,
          "internalType": "address",
          "name": "_to",
          "type": "address"
        },
        {
          "indexed": false,
          "internalType": "uint256",
          "name": "_amount",
          "type": "uint256"
        },
        {
          "indexed": false,
          "internalType": "uint256",
          "name": "_beforeBurn",
          "type": "uint256"
        }
      ],
      "name": "HarvestRemainingSeedCoins",
      "type": "event"
    },
    {
      "anonymous": false,
      "inputs": [
        {
          "indexed": false,
          "internalType": "uint256",
          "name": "error",
          "type": "uint256"
        }
      ],
      "name": "Log",
      "type": "event"
    },
    {
      "anonymous": false,
      "inputs": [
        {
          "indexed": false,
          "internalType": "address",
          "name": "attacker",
          "type": "address"
        },
        {
          "indexed": false,
          "internalType": "address",
          "name": "defender",
          "type": "address"
        },
        {
          "indexed": false,
          "internalType": "uint16",
          "name": "new_attacker_id",
          "type": "uint16"
        }
      ],
      "name": "Sacked",
      "type": "event"
    },
    {
      "anonymous": false,
      "inputs": [
        {
          "indexed": true,
          "internalType": "address",
          "name": "from",
          "type": "address"
        },
        {
          "indexed": true,
          "internalType": "address",
          "name": "to",
          "type": "address"
        },
        {
          "indexed": true,
          "internalType": "uint256",
          "name": "tokenId",
          "type": "uint256"
        }
      ],
      "name": "Transfer",
      "type": "event"
    },
    {
      "anonymous": false,
      "inputs": [
        {
          "indexed": true,
          "internalType": "address",
          "name": "_from",
          "type": "address"
        },
        {
          "indexed": false,
          "internalType": "uint256",
          "name": "_amount",
          "type": "uint256"
        }
      ],
      "name": "enterStakingAttackPoints",
      "type": "event"
    },
    {
      "anonymous": false,
      "inputs": [
        {
          "indexed": true,
          "internalType": "address",
          "name": "_from",
          "type": "address"
        },
        {
          "indexed": false,
          "internalType": "uint256",
          "name": "_amount",
          "type": "uint256"
        }
      ],
      "name": "enterStakingDefensePoints",
      "type": "event"
    },
    {
      "inputs": [
        {
          "internalType": "address",
          "name": "",
          "type": "address"
        },
        {
          "internalType": "uint256",
          "name": "",
          "type": "uint256"
        }
      ],
      "name": "address2ids",
      "outputs": [
        {
          "internalType": "uint256",
          "name": "",
          "type": "uint256"
        }
      ],
      "stateMutability": "view",
      "type": "function",
      "constant": true
    },
    {
      "inputs": [
        {
          "internalType": "address",
          "name": "to",
          "type": "address"
        },
        {
          "internalType": "uint256",
          "name": "tokenId",
          "type": "uint256"
        }
      ],
      "name": "approve",
      "outputs": [],
      "stateMutability": "nonpayable",
      "type": "function"
    },
    {
      "inputs": [],
      "name": "attackCooldown",
      "outputs": [
        {
          "internalType": "uint256",
          "name": "",
          "type": "uint256"
        }
      ],
      "stateMutability": "view",
      "type": "function",
      "constant": true
    },
    {
      "inputs": [
        {
          "internalType": "address",
          "name": "player",
          "type": "address"
        }
      ],
      "name": "awardItem",
      "outputs": [
        {
          "internalType": "uint256",
          "name": "",
          "type": "uint256"
        }
      ],
      "stateMutability": "nonpayable",
      "type": "function"
    },
    {
      "inputs": [
        {
          "internalType": "address",
          "name": "owner",
          "type": "address"
        }
      ],
      "name": "balanceOf",
      "outputs": [
        {
          "internalType": "uint256",
          "name": "",
          "type": "uint256"
        }
      ],
      "stateMutability": "view",
      "type": "function",
      "constant": true
    },
    {
      "inputs": [],
      "name": "baseUrl",
      "outputs": [
        {
          "internalType": "string",
          "name": "",
          "type": "string"
        }
      ],
      "stateMutability": "view",
      "type": "function",
      "constant": true
    },
    {
      "inputs": [],
      "name": "buyForETH",
      "outputs": [],
      "stateMutability": "payable",
      "type": "function",
      "payable": true
    },
    {
      "inputs": [],
      "name": "currentPosition",
      "outputs": [
        {
          "internalType": "uint256",
          "name": "",
          "type": "uint256"
        }
      ],
      "stateMutability": "view",
      "type": "function",
      "constant": true
    },
    {
      "inputs": [],
      "name": "exchangeRate",
      "outputs": [
        {
          "internalType": "uint8",
          "name": "",
          "type": "uint8"
        }
      ],
      "stateMutability": "view",
      "type": "function",
      "constant": true
    },
    {
      "inputs": [],
      "name": "exchangeRate_Attackpoints",
      "outputs": [
        {
          "internalType": "uint8",
          "name": "",
          "type": "uint8"
        }
      ],
      "stateMutability": "view",
      "type": "function",
      "constant": true
    },
    {
      "inputs": [],
      "name": "exchangeRate_Burnpct",
      "outputs": [
        {
          "internalType": "uint8",
          "name": "",
          "type": "uint8"
        }
      ],
      "stateMutability": "view",
      "type": "function",
      "constant": true
    },
    {
      "inputs": [],
      "name": "exchangeRate_Defensepoints",
      "outputs": [
        {
          "internalType": "uint8",
          "name": "",
          "type": "uint8"
        }
      ],
      "stateMutability": "view",
      "type": "function",
      "constant": true
    },
    {
      "inputs": [
        {
          "internalType": "uint256",
          "name": "tokenId",
          "type": "uint256"
        }
      ],
      "name": "getApproved",
      "outputs": [
        {
          "internalType": "address",
          "name": "",
          "type": "address"
        }
      ],
      "stateMutability": "view",
      "type": "function",
      "constant": true
    },
    {
      "inputs": [],
      "name": "getCurrentStakes",
      "outputs": [
        {
          "internalType": "uint256[2]",
          "name": "",
          "type": "uint256[2]"
        }
      ],
      "stateMutability": "view",
      "type": "function",
      "constant": true
    },
    {
      "inputs": [],
      "name": "getTimeUntilStakingDone",
      "outputs": [
        {
          "internalType": "uint256[2]",
          "name": "timeuntildone",
          "type": "uint256[2]"
        }
      ],
      "stateMutability": "view",
      "type": "function",
      "constant": true
    },
    {
      "inputs": [],
      "name": "harvestAll",
      "outputs": [],
      "stateMutability": "nonpayable",
      "type": "function"
    },
    {
      "inputs": [
        {
          "internalType": "address",
          "name": "owner",
          "type": "address"
        },
        {
          "internalType": "address",
          "name": "operator",
          "type": "address"
        }
      ],
      "name": "isApprovedForAll",
      "outputs": [
        {
          "internalType": "bool",
          "name": "",
          "type": "bool"
        }
      ],
      "stateMutability": "view",
      "type": "function",
      "constant": true
    },
    {
      "inputs": [],
      "name": "justSendETH",
      "outputs": [
        {
          "internalType": "uint256",
          "name": "",
          "type": "uint256"
        }
      ],
      "stateMutability": "payable",
      "type": "function",
      "payable": true
    },
    {
      "inputs": [],
      "name": "kgdat",
      "outputs": [
        {
          "internalType": "contract KingdomAttackCoin",
          "name": "",
          "type": "address"
        }
      ],
      "stateMutability": "view",
      "type": "function",
      "constant": true
    },
    {
      "inputs": [],
      "name": "kgddf",
      "outputs": [
        {
          "internalType": "contract KingdomDefenseCoin",
          "name": "",
          "type": "address"
        }
      ],
      "stateMutability": "view",
      "type": "function",
      "constant": true
    },
    {
      "inputs": [],
      "name": "kgdsc",
      "outputs": [
        {
          "internalType": "contract KingdomSeedCoin",
          "name": "",
          "type": "address"
        }
      ],
      "stateMutability": "view",
      "type": "function",
      "constant": true
    },
    {
      "inputs": [
        {
          "internalType": "uint256",
          "name": "",
          "type": "uint256"
        }
      ],
      "name": "kingdomtitles",
      "outputs": [
        {
          "internalType": "uint256",
          "name": "attackPoints",
          "type": "uint256"
        },
        {
          "internalType": "uint256",
          "name": "defensePoints",
          "type": "uint256"
        },
        {
          "internalType": "uint256",
          "name": "readyTimeAttack",
          "type": "uint256"
        }
      ],
      "stateMutability": "view",
      "type": "function",
      "constant": true
    },
    {
      "inputs": [],
      "name": "name",
      "outputs": [
        {
          "internalType": "string",
          "name": "",
          "type": "string"
        }
      ],
      "stateMutability": "view",
      "type": "function",
      "constant": true
    },
    {
      "inputs": [
        {
          "internalType": "uint256",
          "name": "tokenId",
          "type": "uint256"
        }
      ],
      "name": "ownerOf",
      "outputs": [
        {
          "internalType": "address",
          "name": "",
          "type": "address"
        }
      ],
      "stateMutability": "view",
      "type": "function",
      "constant": true
    },
    {
      "inputs": [
        {
          "internalType": "uint256",
          "name": "nrSeedCoins",
          "type": "uint256"
        },
        {
          "internalType": "uint8",
          "name": "targetCoin",
          "type": "uint8"
        }
      ],
      "name": "plantSeeds",
      "outputs": [],
      "stateMutability": "nonpayable",
      "type": "function"
    },
    {
      "inputs": [
        {
          "internalType": "address",
          "name": "_own",
          "type": "address"
        }
      ],
      "name": "returnIdsOfAddress",
      "outputs": [
        {
          "internalType": "uint256[]",
          "name": "ownedIds",
          "type": "uint256[]"
        }
      ],
      "stateMutability": "view",
      "type": "function",
      "constant": true
    },
    {
      "inputs": [
        {
          "internalType": "address",
          "name": "_own",
          "type": "address"
        }
      ],
      "name": "returnRanksOfTitles",
      "outputs": [
        {
          "internalType": "uint256[]",
          "name": "ranksOfIds",
          "type": "uint256[]"
        }
      ],
      "stateMutability": "view",
      "type": "function",
      "constant": true
    },
    {
      "inputs": [
        {
          "internalType": "uint256",
          "name": "itemId",
          "type": "uint256"
        }
      ],
      "name": "reverseItem",
      "outputs": [
        {
          "internalType": "bool",
          "name": "",
          "type": "bool"
        }
      ],
      "stateMutability": "nonpayable",
      "type": "function"
    },
    {
      "inputs": [
        {
          "internalType": "address",
          "name": "from",
          "type": "address"
        },
        {
          "internalType": "address",
          "name": "to",
          "type": "address"
        },
        {
          "internalType": "uint256",
          "name": "tokenId",
          "type": "uint256"
        }
      ],
      "name": "safeTransferFrom",
      "outputs": [],
      "stateMutability": "nonpayable",
      "type": "function"
    },
    {
      "inputs": [
        {
          "internalType": "address",
          "name": "from",
          "type": "address"
        },
        {
          "internalType": "address",
          "name": "to",
          "type": "address"
        },
        {
          "internalType": "uint256",
          "name": "tokenId",
          "type": "uint256"
        },
        {
          "internalType": "bytes",
          "name": "_data",
          "type": "bytes"
        }
      ],
      "name": "safeTransferFrom",
      "outputs": [],
      "stateMutability": "nonpayable",
      "type": "function"
    },
    {
      "inputs": [
        {
          "internalType": "address",
          "name": "operator",
          "type": "address"
        },
        {
          "internalType": "bool",
          "name": "approved",
          "type": "bool"
        }
      ],
      "name": "setApprovalForAll",
      "outputs": [],
      "stateMutability": "nonpayable",
      "type": "function"
    },
    {
      "inputs": [],
      "name": "stakingPeriod",
      "outputs": [
        {
          "internalType": "uint256",
          "name": "",
          "type": "uint256"
        }
      ],
      "stateMutability": "view",
      "type": "function",
      "constant": true
    },
    {
      "inputs": [
        {
          "internalType": "bytes4",
          "name": "interfaceId",
          "type": "bytes4"
        }
      ],
      "name": "supportsInterface",
      "outputs": [
        {
          "internalType": "bool",
          "name": "",
          "type": "bool"
        }
      ],
      "stateMutability": "view",
      "type": "function",
      "constant": true
    },
    {
      "inputs": [],
      "name": "symbol",
      "outputs": [
        {
          "internalType": "string",
          "name": "",
          "type": "string"
        }
      ],
      "stateMutability": "view",
      "type": "function",
      "constant": true
    },
    {
      "inputs": [
        {
          "internalType": "uint256",
          "name": "",
          "type": "uint256"
        }
      ],
      "name": "titleId2Rank",
      "outputs": [
        {
          "internalType": "uint256",
          "name": "",
          "type": "uint256"
        }
      ],
      "stateMutability": "view",
      "type": "function",
      "constant": true
    },
    {
      "inputs": [
        {
          "internalType": "uint256",
          "name": "_tokenId",
          "type": "uint256"
        }
      ],
      "name": "tokenMetadata",
      "outputs": [
        {
          "internalType": "string",
          "name": "infoUrl",
          "type": "string"
        }
      ],
      "stateMutability": "view",
      "type": "function",
      "constant": true
    },
    {
      "inputs": [
        {
          "internalType": "uint256",
          "name": "tokenId",
          "type": "uint256"
        }
      ],
      "name": "tokenURI",
      "outputs": [
        {
          "internalType": "string",
          "name": "",
          "type": "string"
        }
      ],
      "stateMutability": "view",
      "type": "function",
      "constant": true
    },
    {
      "inputs": [],
      "name": "totalSupply",
      "outputs": [
        {
          "internalType": "uint16",
          "name": "",
          "type": "uint16"
        }
      ],
      "stateMutability": "view",
      "type": "function",
      "constant": true
    },
    {
      "inputs": [
        {
          "internalType": "address",
          "name": "from",
          "type": "address"
        },
        {
          "internalType": "address",
          "name": "to",
          "type": "address"
        },
        {
          "internalType": "uint256",
          "name": "tokenId",
          "type": "uint256"
        }
      ],
      "name": "transferFrom",
      "outputs": [],
      "stateMutability": "nonpayable",
      "type": "function"
    },
    {
      "inputs": [],
      "name": "updateCheck",
      "outputs": [
        {
          "internalType": "string",
          "name": "",
          "type": "string"
        }
      ],
      "stateMutability": "pure",
      "type": "function",
      "constant": true
    },
    {
      "inputs": [
        {
          "internalType": "uint16",
          "name": "id",
          "type": "uint16"
        }
      ],
      "name": "getServants",
      "outputs": [
        {
          "internalType": "uint16",
          "name": "left",
          "type": "uint16"
        },
        {
          "internalType": "uint16",
          "name": "right",
          "type": "uint16"
        }
      ],
      "stateMutability": "view",
      "type": "function",
      "constant": true
    },
    {
      "inputs": [
        {
          "internalType": "uint16",
          "name": "id",
          "type": "uint16"
        }
      ],
      "name": "getBoss",
      "outputs": [
        {
          "internalType": "uint16",
          "name": "bossid",
          "type": "uint16"
        }
      ],
      "stateMutability": "view",
      "type": "function",
      "constant": true
    },
    {
      "inputs": [
        {
          "internalType": "uint32",
          "name": "titleId",
          "type": "uint32"
        }
      ],
      "name": "getTitleStats",
      "outputs": [
        {
          "internalType": "uint256",
          "name": "attackPoints",
          "type": "uint256"
        },
        {
          "internalType": "uint256",
          "name": "defensePoints",
          "type": "uint256"
        },
        {
          "internalType": "bool",
          "name": "ready4attack",
          "type": "bool"
        }
      ],
      "stateMutability": "view",
      "type": "function",
      "constant": true
    },
    {
      "inputs": [
        {
          "internalType": "uint256",
          "name": "nrCoins",
          "type": "uint256"
        },
        {
          "internalType": "uint32",
          "name": "titleId",
          "type": "uint32"
        },
        {
          "internalType": "uint8",
          "name": "coinType",
          "type": "uint8"
        }
      ],
      "name": "assignMilitaryToTitle",
      "outputs": [],
      "stateMutability": "nonpayable",
      "type": "function"
    },
    {
      "inputs": [
        {
          "internalType": "uint16",
          "name": "titleId",
          "type": "uint16"
        }
      ],
      "name": "attackBoss",
      "outputs": [],
      "stateMutability": "nonpayable",
      "type": "function"
    }
  ],
  "bytecode": "0x6006805463ffffffff1916630a080a64179055603c6007819055600d5560e060405260256080818152906200407a60a03980516200004691600e9160209091019062000173565b503480156200005457600080fd5b506040516200409f3803806200409f833981016040819052620000779162000232565b8282828282826040518060400160405280600e81526020016d4b696e67646f6d205469746c657360901b8152506040518060400160405280600381526020016212d1d160ea1b8152508160009080519060200190620000d892919062000173565b508051620000ee90600190602084019062000173565b5050600880546001600160a01b039586166001600160a01b031991821617909155600980549486169482169490941790935550600a8054919093169116179055620001363390565b600c80546001600160a01b0319166001600160a01b03929092169190911790555050617540805460ff191690555050426175425550620002c39050565b828054620001819062000286565b90600052602060002090601f016020900481019282620001a55760008555620001f0565b82601f10620001c057805160ff1916838001178555620001f0565b82800160010185558215620001f0579182015b82811115620001f0578251825591602001919060010190620001d3565b50620001fe92915062000202565b5090565b5b80821115620001fe576000815560010162000203565b6001600160a01b03811681146200022f57600080fd5b50565b6000806000606084860312156200024857600080fd5b8351620002558162000219565b6020850151909350620002688162000219565b60408501519092506200027b8162000219565b809150509250925092565b600181811c908216806200029b57607f821691505b60208210811415620002bd57634e487b7160e01b600052602260045260246000fd5b50919050565b613da780620002d36000396000f3fe6080604052600436106102725760003560e01c80636914db601161014f578063c03d5b47116100c1578063e046670b1161007a578063e046670b146107e0578063e73961f5146107e6578063e985e9c5146107fc578063f08b7b731461081c578063f2fb21201461083c578063fa4facdb1461085c57600080fd5b8063c03d5b4714610724578063c669b7101461073a578063c6a3550f14610759578063c87b56dd14610787578063d4637ddb146107a7578063d534d636146107c757600080fd5b806384505e6a1161011357806384505e6a146106785780638ed955b91461069a578063900294be146106af57806395d89b41146106cf578063a22cb465146106e4578063b88d4fde1461070457600080fd5b80636914db60146105c95780636a7a2fa3146105e957806370a082311461060a5780637758429f146106385780637c62539a1461065857600080fd5b80632756985c116101e8578063429c3edf116101ac578063429c3edf146104dc57806345405f54146104fc5780635053f6b81461051c5780635bcabf0414610559578063627ce3b81461056e5780636352211e146105a957600080fd5b80632756985c146104305780632c067d6c146104505780633ba0b9a914610470578063411ee0d01461049c57806342842e0e146104bc57600080fd5b806313245c951161023a57806313245c951461033057806318160ddd1461035d5780631a90dfe0146103865780631b4801cc146103b55780631cf95ed6146103d557806323b872dd1461041057600080fd5b806301ffc9a71461027757806306fdde03146102ac578063081812fc146102ce578063095ea7b31461030657806310f7e4ed14610328575b600080fd5b34801561028357600080fd5b50610297610292366004613581565b610871565b60405190151581526020015b60405180910390f35b3480156102b857600080fd5b506102c16108c3565b6040516102a391906135f6565b3480156102da57600080fd5b506102ee6102e9366004613609565b610955565b6040516001600160a01b0390911681526020016102a3565b34801561031257600080fd5b50610326610321366004613639565b6109ef565b005b610326610b05565b34801561033c57600080fd5b5061035061034b366004613663565b610d71565b6040516102a3919061367e565b34801561036957600080fd5b5061037361271081565b60405161ffff90911681526020016102a3565b34801561039257600080fd5b506040805180820190915260068152656675636b207560d01b60208201526102c1565b3480156103c157600080fd5b506103506103d0366004613663565b610dde565b3480156103e157600080fd5b506103f56103f0366004613609565b610ebf565b604080519384526020840192909252908201526060016102a3565b34801561041c57600080fd5b5061032661042b3660046136c2565b610ee7565b34801561043c57600080fd5b5061029761044b366004613609565b610f18565b34801561045c57600080fd5b5061032661046b3660046136fe565b6110ac565b34801561047c57600080fd5b5060065461048a9060ff1681565b60405160ff90911681526020016102a3565b3480156104a857600080fd5b50600a546102ee906001600160a01b031681565b3480156104c857600080fd5b506103266104d73660046136c2565b611514565b3480156104e857600080fd5b506103266104f7366004613733565b61152f565b34801561050857600080fd5b5061032661051736600461376a565b61194f565b34801561052857600080fd5b5061053c6105373660046137a6565b611d94565b6040805193845260208401929092521515908201526060016102a3565b34801561056557600080fd5b506102c1611e7c565b34801561057a57600080fd5b5061058e6105893660046136fe565b611f0a565b6040805161ffff9384168152929091166020830152016102a3565b3480156105b557600080fd5b506102ee6105c4366004613609565b611fa9565b3480156105d557600080fd5b506102c16105e4366004613609565b612020565b3480156105f557600080fd5b5060065461048a906301000000900460ff1681565b34801561061657600080fd5b5061062a610625366004613663565b612054565b6040519081526020016102a3565b34801561064457600080fd5b506103736106533660046136fe565b6120db565b34801561066457600080fd5b506009546102ee906001600160a01b031681565b34801561068457600080fd5b5061068d6121a3565b6040516102a391906137c1565b3480156106a657600080fd5b5061032661228d565b3480156106bb57600080fd5b506008546102ee906001600160a01b031681565b3480156106db57600080fd5b506102c1612554565b3480156106f057600080fd5b506103266106ff366004613800565b612563565b34801561071057600080fd5b5061032661071f36600461384d565b612628565b34801561073057600080fd5b5061062a60075481565b34801561074657600080fd5b5060065461048a90610100900460ff1681565b34801561076557600080fd5b5061062a610774366004613609565b61753f6020526000908152604090205481565b34801561079357600080fd5b506102c16107a2366004613609565b61265a565b3480156107b357600080fd5b5060065461048a9062010000900460ff1681565b3480156107d357600080fd5b506175405460ff1661062a565b4761062a565b3480156107f257600080fd5b5061062a600d5481565b34801561080857600080fd5b50610297610817366004613929565b612741565b34801561082857600080fd5b5061062a610837366004613639565b61276f565b34801561084857600080fd5b5061062a610857366004613663565b6127a1565b34801561086857600080fd5b5061068d612941565b60006001600160e01b031982166380ac58cd60e01b14806108a257506001600160e01b03198216635b5e139f60e01b145b806108bd57506301ffc9a760e01b6001600160e01b03198316145b92915050565b6060600080546108d290613953565b80601f01602080910402602001604051908101604052809291908181526020018280546108fe90613953565b801561094b5780601f106109205761010080835404028352916020019161094b565b820191906000526020600020905b81548152906001019060200180831161092e57829003601f168201915b5050505050905090565b6000818152600260205260408120546001600160a01b03166109d35760405162461bcd60e51b815260206004820152602c60248201527f4552433732313a20617070726f76656420717565727920666f72206e6f6e657860448201526b34b9ba32b73a103a37b5b2b760a11b60648201526084015b60405180910390fd5b506000908152600460205260409020546001600160a01b031690565b60006109fa82611fa9565b9050806001600160a01b0316836001600160a01b03161415610a685760405162461bcd60e51b815260206004820152602160248201527f4552433732313a20617070726f76616c20746f2063757272656e74206f776e656044820152603960f91b60648201526084016109ca565b336001600160a01b0382161480610a845750610a848133612741565b610af65760405162461bcd60e51b815260206004820152603860248201527f4552433732313a20617070726f76652063616c6c6572206973206e6f74206f7760448201527f6e6572206e6f7220617070726f76656420666f7220616c6c000000000000000060648201526084016109ca565b610b008383612a21565b505050565b6008546040516370a0823160e01b81523060048201526000916001600160a01b0316906370a082319060240160206040518083038186803b158015610b4957600080fd5b505afa158015610b5d573d6000803e3d6000fd5b505050506040513d601f19601f82011682018060405250810190610b819190613988565b11610b8b57600080fd5b60003411610bf45760405162461bcd60e51b815260206004820152603060248201527f796f75206861766520746f2073656e6420736f6d652045544820746f2067657460448201526f1025b4b733b237b6a9b2b2b231b7b4b760811b60648201526084016109ca565b6008546040516370a0823160e01b81523060048201526000916001600160a01b0316906370a082319060240160206040518083038186803b158015610c3857600080fd5b505afa158015610c4c573d6000803e3d6000fd5b505050506040513d601f19601f82011682018060405250810190610c709190613988565b11610cd55760405162461bcd60e51b815260206004820152602f60248201527f75686f682c2073727920692063616e27742073656e6420616e79206d6f72652060448201526e25b4b733b237b6a9b2b2b231b7b4b760891b60648201526084016109ca565b600654600090610ce89060ff16346139b7565b60085460405163a9059cbb60e01b8152336004820152602481018390529192506001600160a01b03169063a9059cbb90604401602060405180830381600087803b158015610d3557600080fd5b505af1158015610d49573d6000803e3d6000fd5b505050506040513d601f19601f82011682018060405250810190610d6d91906139d6565b5050565b6001600160a01b03811660009081526175416020908152604091829020805483518184028101840190945280845260609392830182828015610dd257602002820191906000526020600020905b815481526020019060010190808311610dbe575b50505050509050919050565b6001600160a01b038116600090815261754160209081526040808320805482518185028101850190935280835260609493830182828015610e3e57602002820191906000526020600020905b815481526020019060010190808311610e2a575b505050505090508051600014610eb95760005b8151811015610eb75761753f6000838381518110610e7157610e716139f3565b6020026020010151815260200190815260200160002054838281518110610e9a57610e9a6139f3565b602090810291909101015280610eaf81613a09565b915050610e51565b505b50919050565b600f816127108110610ed057600080fd5b600302018054600182015460029092015490925083565b610ef13382612a8f565b610f0d5760405162461bcd60e51b81526004016109ca90613a24565b610b00838383612b66565b600c546000906001600160a01b03163314610f605760405162461bcd60e51b81526020600482015260086024820152673337b7b59037b33360c11b60448201526064016109ca565b6000610f6b83611fa9565b9050610f78813085612b66565b611a0a60005b6001600160a01b03831660009081526175416020526040902054811015610ff8576001600160a01b038316600090815261754160205260409020805486919083908110610fcd57610fcd6139f3565b90600052602060002001541415610fe657809150610ff8565b80610ff081613a09565b915050610f7e565b5080611a0a141561106a5760405162461bcd60e51b815260206004820152603660248201527f72657665727365206974656d2066756e6374696f6e2e2e2e206974656d206e6f6044820152757420666f756e6420696e20616464726573733269647360501b60648201526084016109ca565b6001600160a01b038216600090815261754160205260409020805482908110611095576110956139f3565b60009182526020822001555060019150505b919050565b60006110b733612054565b1161111f5760405162461bcd60e51b815260206004820152603260248201527f746f2075736520746869732066756e6374696f6e20796f75206e6565642061206044820152717469746c652120676f20627579206f6e652160701b60648201526084016109ca565b6111293330612741565b61119b5760405162461bcd60e51b815260206004820152603d60248201527f796f75206e65656420746f2063616c6c20736574417070726f76616c466f724160448201527f6c6c20696e206f7264657220746f20706c617920612067616d652e2e2e00000060648201526084016109ca565b336111a961ffff8316611fa9565b6001600160a01b0316146112115760405162461bcd60e51b815260206004820152602960248201527f736f7272792c206f6e6c7920746865206f776e65722063616e2061747461636b6044820152682068697320626f737360b81b60648201526084016109ca565b600061121c826120db565b9050600061122d8261ffff16611fa9565b90506112398130612741565b61131d5760405162461bcd60e51b815260206004820152609760248201527f796f757220626f7373206e6565647320746f20736574417070726f766564466f60448201527f72416c6c20746f207468697320636f6e74726163742c206f746865727769736560648201527f20746865206d656368616e69736d20646f6573206e6f7420776f726b2e20486560848201527f206f6e6c79206561726e73206d6f6e6579206966207468617420617070726f7660a48201527f616c20686173206265656e207365742074686f7567682e00000000000000000060c482015260e4016109ca565b6001600160a01b0381163314156113765760405162461bcd60e51b815260206004820152601e60248201527f626f792c20646f6e27742061747461636b20796f757273656c6620706c7a000060448201526064016109ca565b6000806113868561ffff16611d94565b92505091508061140c5760405162461bcd60e51b815260206004820152604560248201527f796f75722061747461636b20636f6f6c646f776e206973206e6f7420646f776e60448201527f207965742e20706c656173652074727920616761696e20616674657220636f6f606482015264363237bbb760d91b608482015260a4016109ca565b600061141b8561ffff16611d94565b50915060009050600a61142f83600f6139b7565b6114399190613a8b565b90506000611445612d06565b90506000806114548785612d6d565b915091506000806000600385111561147557506000915086905060016114f2565b60028511156114b05750869050600161148f600a8b613a8b565b9250605a8660ff1611156114ab576114a8600289613a8b565b91505b6114f2565b6001851180156114c05750600584115b156114e7575060016114d3600289613a8b565b91506114e060028b613a8b565b92506114f2565b50505060ff83168060005b6115058d8d338e8e8d89898d8d8b612d99565b50505050505050505050505050565b610b0083838360405180602001604052806000815250612628565b6009546040516370a0823160e01b81523060048201526000916001600160a01b0316906370a082319060240160206040518083038186803b15801561157357600080fd5b505afa158015611587573d6000803e3d6000fd5b505050506040513d601f19601f820116820180604052508101906115ab9190613988565b116115b557600080fd5b600a546040516370a0823160e01b81523060048201526000916001600160a01b0316906370a082319060240160206040518083038186803b1580156115f957600080fd5b505afa15801561160d573d6000803e3d6000fd5b505050506040513d601f19601f820116820180604052508101906116319190613988565b1161163b57600080fd5b6008546040516370a0823160e01b81523360048201526000916001600160a01b0316906370a082319060240160206040518083038186803b15801561167f57600080fd5b505afa158015611693573d6000803e3d6000fd5b505050506040513d601f19601f820116820180604052508101906116b79190613988565b90508281101580156116c95750600083115b6117305760405162461bcd60e51b815260206004820152603260248201527f796f7520646f6e2774206861766520656e6f7567682073656564636f696e732160448201527120627579206f7220747261646520736f6d6560701b60648201526084016109ca565b60ff8216158061174357508160ff166001145b6117aa5760405162461bcd60e51b815260206004820152603260248201527f746172676574436f696e2068617320746f20626520303d61747461636b636f69604482015271371037b910189eb232b332b739b2b1b7b4b760711b60648201526084016109ca565b60ff82166117ec5760405183815233907f44d00596aedd88fca0607c9a84113fd638c9a070d5ef8d77c072080b688d8e349060200160405180910390a261182e565b8160ff166001141561182e5760405183815233907f049b4d6e22c9904766197183f9dc1f362cefb04f39e3850a8b7d83ff2c26216f9060200160405180910390a25b6008546040516323b872dd60e01b8152336004820152306024820152604481018590526001600160a01b03909116906323b872dd90606401602060405180830381600087803b15801561188057600080fd5b505af1158015611894573d6000803e3d6000fd5b505050506040513d601f19601f820116820180604052508101906118b891906139d6565b50600b6000336001600160a01b03166001600160a01b0316815260200190815260200160002060405180606001604052808581526020018460ff168152602001600754426119069190613a9f565b90528154600180820184556000938452602093849020835160039093020191825592820151928101805460ff191660ff9094169390931790925560400151600290910155505050565b600061195e6175405460ff1690565b90508263ffffffff16600010801561197c5750808363ffffffff1611155b6119c85760405162461bcd60e51b815260206004820152601c60248201527f7469746c65206964206973206e6f74207965742061737369676e65640000000060448201526064016109ca565b60ff821615806119db57508160ff166001145b611a425760405162461bcd60e51b815260206004820152603260248201527f6f7468657220636f696e207479706573206e6f7420737570706f72746564207960448201527165742c206d7573742062652030206f72203160701b60648201526084016109ca565b60ff8216611be7576009546040516370a0823160e01b815233600482015285916001600160a01b0316906370a082319060240160206040518083038186803b158015611a8d57600080fd5b505afa158015611aa1573d6000803e3d6000fd5b505050506040513d601f19601f82011682018060405250810190611ac59190613988565b1015611b225760405162461bcd60e51b815260206004820152602660248201527f796f7520646f206e6f7420686176652074686174206d616e792061747461636b60448201526520636f696e7360d01b60648201526084016109ca565b6009546040516323b872dd60e01b8152336004820152306024820152604481018690526001600160a01b03909116906323b872dd90606401602060405180830381600087803b158015611b7457600080fd5b505af1158015611b88573d6000803e3d6000fd5b505050506040513d601f19601f82011682018060405250810190611bac91906139d6565b5083600f8463ffffffff166127108110611bc857611bc86139f3565b600302018054600090611bdc908490613a9f565b90915550611d8e9050565b8160ff1660011415611d8e57600a546040516370a0823160e01b815233600482015285916001600160a01b0316906370a082319060240160206040518083038186803b158015611c3657600080fd5b505afa158015611c4a573d6000803e3d6000fd5b505050506040513d601f19601f82011682018060405250810190611c6e9190613988565b1015611ccc5760405162461bcd60e51b815260206004820152602760248201527f796f7520646f206e6f7420686176652074686174206d616e7920646566656e736044820152666520636f696e7360c81b60648201526084016109ca565b600a546040516323b872dd60e01b8152336004820152306024820152604481018690526001600160a01b03909116906323b872dd90606401602060405180830381600087803b158015611d1e57600080fd5b505af1158015611d32573d6000803e3d6000fd5b505050506040513d601f19601f82011682018060405250810190611d5691906139d6565b5083600f8463ffffffff166127108110611d7257611d726139f3565b600302016001016000828254611d889190613a9f565b90915550505b50505050565b6000806000611da66175405460ff1690565b8463ffffffff161115611e095760405162461bcd60e51b815260206004820152602560248201527f7469746c65206964206e6f74207965742061737369676e65642c20676f20676560448201526474206f6e6560d81b60648201526084016109ca565b600f8463ffffffff166127108110611e2357611e236139f3565b60030201549250600f63ffffffff85166127108110611e4457611e446139f3565b6003020160010154915042600f8563ffffffff166127108110611e6957611e696139f3565b6003020160020154101590509193909250565b600e8054611e8990613953565b80601f0160208091040260200160405190810160405280929190818152602001828054611eb590613953565b8015611f025780601f10611ed757610100808354040283529160200191611f02565b820191906000526020600020905b815481529060010190602001808311611ee557829003601f168201915b505050505081565b6000806000611f1c6175405460ff1690565b9050808461ffff161115611f6b5760405162461bcd60e51b81526020600482015260166024820152751a59081a5cc81b9bdd081e595d08185cdcda59db995960521b60448201526064016109ca565b611f7484612f8b565b9250611f7f84612f98565b9150808361ffff161115611f9257600092505b808261ffff161115611fa357600091505b50915091565b6000818152600260205260408120546001600160a01b0316806108bd5760405162461bcd60e51b815260206004820152602960248201527f4552433732313a206f776e657220717565727920666f72206e6f6e657869737460448201526832b73a103a37b5b2b760b91b60648201526084016109ca565b6060600e61202d83612fae565b60405160200161203e929190613ad3565b6040516020818303038152906040529050919050565b60006001600160a01b0382166120bf5760405162461bcd60e51b815260206004820152602a60248201527f4552433732313a2062616c616e636520717565727920666f7220746865207a65604482015269726f206164647265737360b01b60648201526084016109ca565b506001600160a01b031660009081526003602052604090205490565b6000806120eb6175405460ff1690565b90508261ffff1660001080156121055750808361ffff1611155b61214a5760405162461bcd60e51b81526020600482015260166024820152751a59081a5cc81b9bdd081e595d08185cdcda59db995960521b60448201526064016109ca565b8261ffff16600114156121605760009150610eb9565b61216b600284613b7a565b61ffff166121855761217e600284613b9b565b9150610eb9565b6002612192600185613bbc565b61219c9190613b9b565b9392505050565b6121ab61354d565b60005b336000908152600b602052604090205481101561228957336000908152600b602052604081208054839081106121e6576121e66139f3565b600091825260209182902060408051606081018252600390930290910180548352600181015460ff169383018490526002015490820152915061224857428160400151111561223f5760168360005b6020020152612276565b60008381612235565b806020015160ff166001141561227657428160400151111561226e576017836001612235565b600060208401525b508061228181613a09565b9150506121ae565b5090565b60005b336000908152600b602052604090205481101561255157336000908152600b602052604081208054839081106122c8576122c86139f3565b600091825260209182902060408051606081018252600390930290910180548352600181015460ff1693830193909352600290920154918101829052915042111561253e57602081015160ff166124035760065481516000916123349161010090910460ff1690613a8b565b905061234382600001516130d7565b60095460405163a9059cbb60e01b8152336004820152602481018390526001600160a01b039091169063a9059cbb90604401602060405180830381600087803b15801561238f57600080fd5b505af11580156123a3573d6000803e3d6000fd5b505050506040513d601f19601f820116820180604052508101906123c791906139d6565b5060405181815233907f9fd4a9248425079a398923cd20daa8e0c103907fb89db4707cb4f2cc343f95469060200160405180910390a2506124fa565b806020015160ff16600114156124fa57600654815160009161242f916201000090910460ff1690613a8b565b905061243e82600001516130d7565b600a5460405163a9059cbb60e01b8152336004820152602481018390526001600160a01b039091169063a9059cbb90604401602060405180830381600087803b15801561248a57600080fd5b505af115801561249e573d6000803e3d6000fd5b505050506040513d601f19601f820116820180604052508101906124c291906139d6565b5060405181815233907fd62aeb2df4f1c7a0c59e15c0dca22ccbcbe42ad0d0dbf99a22c0ad2551c5a1559060200160405180910390a2505b336000908152600b6020526040902080548390811061251b5761251b6139f3565b60009182526020822060039091020181815560018101805460ff19169055600201555b508061254981613a09565b915050612290565b50565b6060600180546108d290613953565b6001600160a01b0382163314156125bc5760405162461bcd60e51b815260206004820152601960248201527f4552433732313a20617070726f766520746f2063616c6c65720000000000000060448201526064016109ca565b3360008181526005602090815260408083206001600160a01b03871680855290835292819020805460ff191686151590811790915590519081529192917f17307eab39ab6107e8899845ad3d59bd9653f200f220920489ca2b5937696c31910160405180910390a35050565b6126323383612a8f565b61264e5760405162461bcd60e51b81526004016109ca90613a24565b611d8e848484846131cd565b6000818152600260205260409020546060906001600160a01b03166126d95760405162461bcd60e51b815260206004820152602f60248201527f4552433732314d657461646174613a2055524920717565727920666f72206e6f60448201526e3732bc34b9ba32b73a103a37b5b2b760891b60648201526084016109ca565b60006126f060408051602081019091526000815290565b90506000815111612710576040518060200160405280600081525061219c565b8061271a84613200565b60405160200161272b929190613bdf565b6040516020818303038152906040529392505050565b6001600160a01b03918216600090815260056020908152604080832093909416825291909152205460ff1690565b617541602052816000526040600020818154811061278c57600080fd5b90600052602060002001600091509150505481565b600c546000906001600160a01b031633146127e95760405162461bcd60e51b81526020600482015260086024820152673337b7b59037b33360c11b60448201526064016109ca565b6175405461271060ff9091161061284c5760405162461bcd60e51b815260206004820152602160248201527f75686f682c206e6f207469746c657320617661696c61626c6520616e796d6f726044820152606560f81b60648201526084016109ca565b617540546000906128619060ff166001613c0e565b60ff16905061287083826132fe565b6001600160a01b03831660009081526175416020908152604080832080546001810182559084528284200184905583835261753f8252808320849055805160608101825283815291820192909252600d5490918201906128d09042613a9f565b9052600f8261271081106128e6576128e66139f3565b82516003919091029190910190815560208201516001820155604090910151600290910155617540805460ff1690600061291f83613c33565b91906101000a81548160ff021916908360ff1602179055505080915050919050565b61294961354d565b60008060005b336000908152600b6020526040902054811015612a0957336000908152600b60205260408120805483908110612987576129876139f3565b600091825260209182902060408051606081018252600390930290910180548352600181015460ff16938301849052600201549082015291506129d75780516129d09085613a9f565b93506129f6565b806020015160ff16600114156129f65780516129f39084613a9f565b92505b5080612a0181613a09565b91505061294f565b50604080518082019091529182526020820152919050565b600081815260046020526040902080546001600160a01b0319166001600160a01b0384169081179091558190612a5682611fa9565b6001600160a01b03167f8c5be1e5ebec7d5bd14f71427d1e84f3dd0314c0f7b2291e5b200ac8c7c3b92560405160405180910390a45050565b6000818152600260205260408120546001600160a01b0316612b085760405162461bcd60e51b815260206004820152602c60248201527f4552433732313a206f70657261746f7220717565727920666f72206e6f6e657860448201526b34b9ba32b73a103a37b5b2b760a11b60648201526084016109ca565b6000612b1383611fa9565b9050806001600160a01b0316846001600160a01b03161480612b4e5750836001600160a01b0316612b4384610955565b6001600160a01b0316145b80612b5e5750612b5e8185612741565b949350505050565b826001600160a01b0316612b7982611fa9565b6001600160a01b031614612be15760405162461bcd60e51b815260206004820152602960248201527f4552433732313a207472616e73666572206f6620746f6b656e2074686174206960448201526839903737ba1037bbb760b91b60648201526084016109ca565b6001600160a01b038216612c435760405162461bcd60e51b8152602060048201526024808201527f4552433732313a207472616e7366657220746f20746865207a65726f206164646044820152637265737360e01b60648201526084016109ca565b612c4e600082612a21565b6001600160a01b0383166000908152600360205260408120805460019290612c77908490613c53565b90915550506001600160a01b0382166000908152600360205260408120805460019290612ca5908490613a9f565b909155505060008181526002602052604080822080546001600160a01b0319166001600160a01b0386811691821790925591518493918716917fddf252ad1be2c89b69c2b068fc378daa952ba7f163c4a11628f55a4df523b3ef91a4505050565b60008060644461754254604051602001612d2a929190918252602082015260400190565b6040516020818303038152906040528051906020012060001c612d4d9190613c6a565b90508060ff1661754254612d619190613a9f565b60ff1661754255919050565b600080612d7a8385613a8b565b9150612d8682846139b7565b612d909085613c53565b90509250929050565b604080516001600160a01b038b811682528a16602082015261ffff8d8116828401528c1660608201526080810189905260a0810188905260c0810187905260e081018890526101008101859052610120810184905282151561014082015290517f86384656c60c8909cbb3413e5d14aaae85eda338817c36ff699276a94ba9a8b1918190036101600190a184600f8c61ffff166127108110612e3d57612e3d6139f3565b600302018054600090612e51908490613c53565b9091555060009050600f61ffff8d166127108110612e7157612e716139f3565b600302015411612ece5760405162461bcd60e51b815260206004820152602260248201527f75686f682c207468652061747461636b706f696e747320617265207a65726f2e604482015261171760f11b60648201526084016109ca565b83600f8b61ffff166127108110612ee757612ee76139f3565b600302016001016000828254612efd9190613c53565b9091555060009050600f61ffff8c166127108110612f1d57612f1d6139f3565b600302016001015411612f7e5760405162461bcd60e51b815260206004820152602360248201527f75686f682c2074686520646566656e7365706f696e747320617265207a65726f60448201526217171760e91b60648201526084016109ca565b5050505050505050505050565b60006108bd826002613c7e565b6000612fa382612f8b565b6108bd906001613ca8565b606081612fd25750506040805180820190915260018152600360fc1b602082015290565b8160005b8115612ffc5780612fe681613a09565b9150612ff59050600a83613a8b565b9150612fd6565b60008167ffffffffffffffff81111561301757613017613837565b6040519080825280601f01601f191660200182016040528015613041576020820181803683370190505b509050815b85156130ce57613057600182613c53565b90506000613066600a88613a8b565b61307190600a6139b7565b61307b9088613c53565b613086906030613c0e565b905060008160f81b9050808484815181106130a3576130a36139f3565b60200101906001600160f81b031916908160001a9053506130c5600a89613a8b565b97505050613046565b50949350505050565b6006546000906064906130f4906301000000900460ff16846139b7565b6130fe9190613a8b565b6131089083613c53565b60085460405163a9059cbb60e01b8152336004820152602481018390529192506001600160a01b03169063a9059cbb90604401602060405180830381600087803b15801561315557600080fd5b505af1158015613169573d6000803e3d6000fd5b505050506040513d601f19601f8201168201806040525081019061318d91906139d6565b50604080518281526020810184905233917f11acec8ea502f5c875e157dd1a17389990a9350450464db61ef112521c0d8751910160405180910390a25050565b6131d8848484612b66565b6131e484848484613440565b611d8e5760405162461bcd60e51b81526004016109ca90613cc5565b6060816132245750506040805180820190915260018152600360fc1b602082015290565b8160005b811561324e578061323881613a09565b91506132479050600a83613a8b565b9150613228565b60008167ffffffffffffffff81111561326957613269613837565b6040519080825280601f01601f191660200182016040528015613293576020820181803683370190505b5090505b8415612b5e576132a8600183613c53565b91506132b5600a86613c6a565b6132c0906030613a9f565b60f81b8183815181106132d5576132d56139f3565b60200101906001600160f81b031916908160001a9053506132f7600a86613a8b565b9450613297565b6001600160a01b0382166133545760405162461bcd60e51b815260206004820181905260248201527f4552433732313a206d696e7420746f20746865207a65726f206164647265737360448201526064016109ca565b6000818152600260205260409020546001600160a01b0316156133b95760405162461bcd60e51b815260206004820152601c60248201527f4552433732313a20746f6b656e20616c7265616479206d696e7465640000000060448201526064016109ca565b6001600160a01b03821660009081526003602052604081208054600192906133e2908490613a9f565b909155505060008181526002602052604080822080546001600160a01b0319166001600160a01b03861690811790915590518392907fddf252ad1be2c89b69c2b068fc378daa952ba7f163c4a11628f55a4df523b3ef908290a45050565b60006001600160a01b0384163b1561354257604051630a85bd0160e11b81526001600160a01b0385169063150b7a0290613484903390899088908890600401613d17565b602060405180830381600087803b15801561349e57600080fd5b505af19250505080156134ce575060408051601f3d908101601f191682019092526134cb91810190613d54565b60015b613528573d8080156134fc576040519150601f19603f3d011682016040523d82523d6000602084013e613501565b606091505b5080516135205760405162461bcd60e51b81526004016109ca90613cc5565b805181602001fd5b6001600160e01b031916630a85bd0160e11b149050612b5e565b506001949350505050565b60405180604001604052806002906020820280368337509192915050565b6001600160e01b03198116811461255157600080fd5b60006020828403121561359357600080fd5b813561219c8161356b565b60005b838110156135b95781810151838201526020016135a1565b83811115611d8e5750506000910152565b600081518084526135e281602086016020860161359e565b601f01601f19169290920160200192915050565b60208152600061219c60208301846135ca565b60006020828403121561361b57600080fd5b5035919050565b80356001600160a01b03811681146110a757600080fd5b6000806040838503121561364c57600080fd5b61365583613622565b946020939093013593505050565b60006020828403121561367557600080fd5b61219c82613622565b6020808252825182820181905260009190848201906040850190845b818110156136b65783518352928401929184019160010161369a565b50909695505050505050565b6000806000606084860312156136d757600080fd5b6136e084613622565b92506136ee60208501613622565b9150604084013590509250925092565b60006020828403121561371057600080fd5b813561ffff8116811461219c57600080fd5b803560ff811681146110a757600080fd5b6000806040838503121561374657600080fd5b82359150612d9060208401613722565b803563ffffffff811681146110a757600080fd5b60008060006060848603121561377f57600080fd5b8335925061378f60208501613756565b915061379d60408501613722565b90509250925092565b6000602082840312156137b857600080fd5b61219c82613756565b60408101818360005b60028110156137e95781518352602092830192909101906001016137ca565b50505092915050565b801515811461255157600080fd5b6000806040838503121561381357600080fd5b61381c83613622565b9150602083013561382c816137f2565b809150509250929050565b634e487b7160e01b600052604160045260246000fd5b6000806000806080858703121561386357600080fd5b61386c85613622565b935061387a60208601613622565b925060408501359150606085013567ffffffffffffffff8082111561389e57600080fd5b818701915087601f8301126138b257600080fd5b8135818111156138c4576138c4613837565b604051601f8201601f19908116603f011681019083821181831017156138ec576138ec613837565b816040528281528a602084870101111561390557600080fd5b82602086016020830137600060208483010152809550505050505092959194509250565b6000806040838503121561393c57600080fd5b61394583613622565b9150612d9060208401613622565b600181811c9082168061396757607f821691505b60208210811415610eb957634e487b7160e01b600052602260045260246000fd5b60006020828403121561399a57600080fd5b5051919050565b634e487b7160e01b600052601160045260246000fd5b60008160001904831182151516156139d1576139d16139a1565b500290565b6000602082840312156139e857600080fd5b815161219c816137f2565b634e487b7160e01b600052603260045260246000fd5b6000600019821415613a1d57613a1d6139a1565b5060010190565b60208082526031908201527f4552433732313a207472616e736665722063616c6c6572206973206e6f74206f6040820152701ddb995c881b9bdc88185c1c1c9bdd9959607a1b606082015260800190565b634e487b7160e01b600052601260045260246000fd5b600082613a9a57613a9a613a75565b500490565b60008219821115613ab257613ab26139a1565b500190565b60008151613ac981856020860161359e565b9290920192915050565b600080845481600182811c915080831680613aef57607f831692505b6020808410821415613b0f57634e487b7160e01b86526022600452602486fd5b818015613b235760018114613b3457613b61565b60ff19861689528489019650613b61565b60008b81526020902060005b86811015613b595781548b820152908501908301613b40565b505084890196505b505050505050613b718185613ab7565b95945050505050565b600061ffff80841680613b8f57613b8f613a75565b92169190910692915050565b600061ffff80841680613bb057613bb0613a75565b92169190910492915050565b600061ffff83811690831681811015613bd757613bd76139a1565b039392505050565b60008351613bf181846020880161359e565b835190830190613c0581836020880161359e565b01949350505050565b600060ff821660ff84168060ff03821115613c2b57613c2b6139a1565b019392505050565b600060ff821660ff811415613c4a57613c4a6139a1565b60010192915050565b600082821015613c6557613c656139a1565b500390565b600082613c7957613c79613a75565b500690565b600061ffff80831681851681830481118215151615613c9f57613c9f6139a1565b02949350505050565b600061ffff808316818516808303821115613c0557613c056139a1565b60208082526032908201527f4552433732313a207472616e7366657220746f206e6f6e20455243373231526560408201527131b2b4bb32b91034b6b83632b6b2b73a32b960711b606082015260800190565b6001600160a01b0385811682528416602082015260408101839052608060608201819052600090613d4a908301846135ca565b9695505050505050565b600060208284031215613d6657600080fd5b815161219c8161356b56fea2646970667358221220280ebe4fcc1c1248a52ca77f9c4026d965d8a6801dc8a48722082329badd96ae64736f6c6343000809003368747470733a2f2f7777772e6b696e67646f6d63727970746f2e636f6d2f7469746c65732f",
  "immutableReferences": {},
  "source": "pragma solidity ^0.8;\n\nimport \"./KingdomTitles.sol\";\n\ncontract KingdomGameMechanic is KingdomTitles {\n\n    uint private nowStore;\n\n    event Log(uint error);\n\n    constructor (KingdomSeedCoin kgdsc, KingdomAttackCoin kgdat, KingdomDefenseCoin kgddf) KingdomTitles(kgdsc, kgdat, kgddf) {\n        nowStore = block.timestamp;\n    }\n\n    event Attack(address attacker, address defender, \n                uint16 attacker_id, uint16 defender_id, \n                uint attackPointsBefore, uint defensePointsBefore,\n                uint deadAttackers, uint deadDefenders,\n                uint denominator, uint remainder, bool won);\n\n    event Sacked(address attacker, address defender, \n                uint16 new_attacker_id);\n\n    modifier hasTitle {\n        require(balanceOf(msg.sender) > 0, \"to use this function you need a title! go buy one!\");\n        _;\n    }\n\n    modifier contractNeedsTotalControl {\n        require(isApprovedForAll(msg.sender, address(this)), \"you need to call setApprovalForAll in order to play a game...\");\n        _;\n    }\n\n    function _random() private returns (uint8) {\n        // random number between 0 and 99\n        uint8 random = uint8( uint(keccak256(abi.encodePacked(block.difficulty, nowStore))) % 100);\n        nowStore = uint8(nowStore + random);\n        return random;\n    }\n\n\n\n    function _getLeftChild(uint16 id) internal pure returns (uint16 left) {\n        return id * 2;\n    }\n\n    function _getRightChild(uint16 id) internal pure returns (uint16 right) {\n        return _getLeftChild(id) + 1;\n    }\n\n    function getServants(uint16 id) public view returns (uint16 left, uint16 right) {\n        uint currentPos = currentPosition();\n        require(id <= currentPos, \"id is not yet assigned\");\n\n        // binary tree\n        left = _getLeftChild(id);\n        right = _getRightChild(id);\n\n        // check if they even exist yet\n        \n        if (left > currentPos) {\n            left = 0;\n        }\n        if (right > currentPos) {\n            right = 0;\n        }\n        return (left, right);\n    }\n\n    function getBoss(uint16 id) public view returns (uint16 bossid) {\n        uint currentPos = currentPosition();\n        require(0 < id && id <= currentPos, \"id is not yet assigned\");\n\n        // remember binary tree\n        if (id == 1) {\n            bossid = 0;\n        }\n        else {\n            if (id % 2 == 0) {\n                // if even\n                bossid = id / 2;\n            }\n            else {\n                // if odd\n                bossid = (id - 1) / 2;\n            }\n        }\n        return bossid;\n    }\n\n    function getTitleStats(uint32 titleId) public view returns (uint attackPoints, uint defensePoints, bool ready4attack){\n        require(titleId <= currentPosition(), \"title id not yet assigned, go get one\");\n        attackPoints = kingdomtitles[titleId].attackPoints;\n        defensePoints = kingdomtitles[titleId].defensePoints;\n        ready4attack = kingdomtitles[titleId].readyTimeAttack >= block.timestamp;\n        return (attackPoints, defensePoints, ready4attack);\n    }\n\n    function assignMilitaryToTitle(uint nrCoins, uint32 titleId, uint8 coinType) public {\n        uint currentPos = currentPosition();\n        require(0 < titleId && titleId <= currentPos, \"title id is not yet assigned\");\n        // needs an approve first!\n\n        // first checks\n        // title needs to be owned by sender -> actually allow this for guilds etc\n        // require(ownerOf(titleId) == msg.sender, \"you can not assign Military P\")\n        // check if sender has that amount\n        require(coinType == 0 || coinType == 1, \"other coin types not supported yet, must be 0 or 1\");\n        if (coinType == 0) {\n            // attack points\n            require(kgdat.balanceOf(msg.sender) >= nrCoins, \"you do not have that many attack coins\");\n            kgdat.transferFrom(msg.sender, address(this), nrCoins);\n            kingdomtitles[titleId].attackPoints += nrCoins;\n        }\n        else if (coinType == 1) {\n            // def coins\n            require(kgddf.balanceOf(msg.sender) >= nrCoins, \"you do not have that many defense coins\");\n            kgddf.transferFrom(msg.sender, address(this), nrCoins);\n            kingdomtitles[titleId].defensePoints += nrCoins;\n        }\n    }\n\n    function _attackResults(uint16 attackerId, uint16 defenderId, address attackerAddress, address defenderAddress, uint attackerPoints, uint defenderPoints, uint deadAttackers, uint deadDefenders, uint denominator, uint remainder, bool won) private {\n        // we have to give the title of the looser to the attacker\n        // if (won) {\n        //     // idk how to solve it yet...\n        //     emit Log(attackerAddress);\n        //     transferFrom(defenderAddress, address(this), defenderId);\n        //     emit Sacked(attackerAddress, defenderAddress, \n        //             defenderId);\n        // }\n        // next we have to let the people die accordingly\n        emit Attack(attackerAddress, defenderAddress, \n                attackerId, defenderId, \n                attackerPoints, defenderPoints,\n                deadAttackers, defenderPoints,\n                denominator, remainder, won);\n        // finally update the title struct\n        kingdomtitles[attackerId].attackPoints -= deadAttackers;\n        require(kingdomtitles[attackerId].attackPoints > 0, \"uhoh, the attackpoints are zero...\");\n        kingdomtitles[defenderId].defensePoints -= deadDefenders; \n        require(kingdomtitles[defenderId].defensePoints > 0, \"uhoh, the defensepoints are zero...\");\n    }\n\n    function _divide(uint numerator, uint denominator) private pure returns (uint quotient, uint remainder) {\n        quotient  = numerator / denominator;\n        remainder = numerator - denominator * quotient;\n        return (quotient, remainder);\n    }\n\n    function attackBoss(uint16 titleId) public hasTitle contractNeedsTotalControl {\n        require(ownerOf(titleId) == msg.sender, \"sorry, only the owner can attack his boss\");\n\n        uint16 bossid = getBoss(titleId);\n        address bossid_address = ownerOf(bossid);\n        // check if boss setApprovalForAll as well, required\n        require(isApprovedForAll(bossid_address, address(this)), \"your boss needs to setApprovedForAll to this contract, otherwise the mechanism does not work. He only earns money if that approval has been set though.\");\n\n        require(bossid_address != msg.sender, \"boy, don't attack yourself plz\");\n\n        (uint attacker_Attackpoints, , bool ready4Attack ) = getTitleStats(titleId);\n        require(ready4Attack, \"your attack cooldown is not down yet. please try again after cooldown\");\n\n        ( , uint defender_Defensepoints, ) = getTitleStats(bossid);\n\n        uint tmp_game_defender_Defensepoints = (defender_Defensepoints * 15) / 10; // counts 1.5\n\n        // make it so that more than double attack points is a sure win\n        uint8 randy = _random();\n        (uint quotient, uint remainder) = _divide(attacker_Attackpoints, tmp_game_defender_Defensepoints); // double would be 20\n        uint deadAttackers = 0;\n        uint deadDefenders = 0;\n        bool won = false;\n        if (quotient > 3) {\n            // no discussion needed\n            deadDefenders = defender_Defensepoints;\n            deadAttackers = 0;\n            won = true;\n        }\n        else if (quotient > 2) {\n            // more than double the attackers\n            deadDefenders = defender_Defensepoints;\n            won = true;\n            // some attackers dead except rare case\n            deadAttackers = uint(attacker_Attackpoints / 10);\n            if (randy > 90) {\n                // in a rare case not all defenders die, some can flee\n                deadDefenders = uint(defender_Defensepoints / 2);\n            }\n        }\n        else if (quotient > 1 && remainder > 5) {\n            won = true;\n            deadDefenders = uint(defender_Defensepoints / 2);\n            deadAttackers = uint(attacker_Attackpoints / 2);\n        }\n        else {\n            // tmp\n            won = false;\n            deadDefenders = randy;\n            deadAttackers = randy;\n        }\n\n        _attackResults(titleId, bossid, msg.sender, bossid_address, attacker_Attackpoints, defender_Defensepoints, deadAttackers, deadDefenders, quotient, remainder, won);\n    }\n}",
  "sourcePath": "/home/justin/code/solidity-course/kingdom/contracts/KingdomGameMechanic.sol",
  "compiler": {
    "name": "solc",
    "version": "0.8.9+commit.e5eed63a.Emscripten.clang"
  },
  "schemaVersion": "3.4.3",
  "updatedAt": "2021-11-11T13:42:59.916Z",
  "networkType": "ethereum",
  "devdoc": {
    "kind": "dev",
    "methods": {
      "approve(address,uint256)": {
        "details": "See {IERC721-approve}."
      },
      "balanceOf(address)": {
        "details": "See {IERC721-balanceOf}."
      },
      "getApproved(uint256)": {
        "details": "See {IERC721-getApproved}."
      },
      "isApprovedForAll(address,address)": {
        "details": "See {IERC721-isApprovedForAll}."
      },
      "name()": {
        "details": "See {IERC721Metadata-name}."
      },
      "ownerOf(uint256)": {
        "details": "See {IERC721-ownerOf}."
      },
      "safeTransferFrom(address,address,uint256)": {
        "details": "See {IERC721-safeTransferFrom}."
      },
      "safeTransferFrom(address,address,uint256,bytes)": {
        "details": "See {IERC721-safeTransferFrom}."
      },
      "setApprovalForAll(address,bool)": {
        "details": "See {IERC721-setApprovalForAll}."
      },
      "supportsInterface(bytes4)": {
        "details": "See {IERC165-supportsInterface}."
      },
      "symbol()": {
        "details": "See {IERC721Metadata-symbol}."
      },
      "tokenURI(uint256)": {
        "details": "See {IERC721Metadata-tokenURI}."
      },
      "transferFrom(address,address,uint256)": {
        "details": "See {IERC721-transferFrom}."
      }
    },
    "version": 1
  },
  "userdoc": {
    "kind": "user",
    "methods": {},
    "version": 1
  }
}