{
  "contractName": "KingdomBank",
  "abi": [
    {
      "inputs": [
        {
          "internalType": "contract KingdomSeedCoin",
          "name": "_kgdsc",
          "type": "address"
        },
        {
          "internalType": "contract KingdomAttackCoin",
          "name": "_kgdat",
          "type": "address"
        },
        {
          "internalType": "contract KingdomDefenseCoin",
          "name": "_kgddf",
          "type": "address"
        }
      ],
      "stateMutability": "nonpayable",
      "type": "constructor"
    },
    {
      "anonymous": false,
      "inputs": [
        {
          "indexed": true,
          "internalType": "address",
          "name": "_to",
          "type": "address"
        },
        {
          "indexed": false,
          "internalType": "uint256",
          "name": "_amount",
          "type": "uint256"
        }
      ],
      "name": "HarvestAttackPoints",
      "type": "event"
    },
    {
      "anonymous": false,
      "inputs": [
        {
          "indexed": true,
          "internalType": "address",
          "name": "_to",
          "type": "address"
        },
        {
          "indexed": false,
          "internalType": "uint256",
          "name": "_amount",
          "type": "uint256"
        }
      ],
      "name": "HarvestDefensePoints",
      "type": "event"
    },
    {
      "anonymous": false,
      "inputs": [
        {
          "indexed": true,
          "internalType": "address",
          "name": "_to",
          "type": "address"
        },
        {
          "indexed": false,
          "internalType": "uint256",
          "name": "_amount",
          "type": "uint256"
        },
        {
          "indexed": false,
          "internalType": "uint256",
          "name": "_beforeBurn",
          "type": "uint256"
        }
      ],
      "name": "HarvestRemainingSeedCoins",
      "type": "event"
    },
    {
      "inputs": [],
      "name": "exchangeRate",
      "outputs": [
        {
          "internalType": "uint8",
          "name": "",
          "type": "uint8"
        }
      ],
      "stateMutability": "view",
      "type": "function"
    },
    {
      "inputs": [],
      "name": "exchangeRate_Attackpoints",
      "outputs": [
        {
          "internalType": "uint8",
          "name": "",
          "type": "uint8"
        }
      ],
      "stateMutability": "view",
      "type": "function"
    },
    {
      "inputs": [],
      "name": "exchangeRate_Burnpct",
      "outputs": [
        {
          "internalType": "uint8",
          "name": "",
          "type": "uint8"
        }
      ],
      "stateMutability": "view",
      "type": "function"
    },
    {
      "inputs": [],
      "name": "exchangeRate_Defensepoints",
      "outputs": [
        {
          "internalType": "uint8",
          "name": "",
          "type": "uint8"
        }
      ],
      "stateMutability": "view",
      "type": "function"
    },
    {
      "inputs": [],
      "name": "kgdat",
      "outputs": [
        {
          "internalType": "contract KingdomAttackCoin",
          "name": "",
          "type": "address"
        }
      ],
      "stateMutability": "view",
      "type": "function"
    },
    {
      "inputs": [],
      "name": "kgddf",
      "outputs": [
        {
          "internalType": "contract KingdomDefenseCoin",
          "name": "",
          "type": "address"
        }
      ],
      "stateMutability": "view",
      "type": "function"
    },
    {
      "inputs": [],
      "name": "kgdsc",
      "outputs": [
        {
          "internalType": "contract KingdomSeedCoin",
          "name": "",
          "type": "address"
        }
      ],
      "stateMutability": "view",
      "type": "function"
    },
    {
      "inputs": [],
      "name": "stakingPeriod",
      "outputs": [
        {
          "internalType": "uint256",
          "name": "",
          "type": "uint256"
        }
      ],
      "stateMutability": "view",
      "type": "function"
    },
    {
      "inputs": [],
      "name": "buyForETH",
      "outputs": [],
      "stateMutability": "payable",
      "type": "function"
    },
    {
      "inputs": [],
      "name": "justSendETH",
      "outputs": [
        {
          "internalType": "uint256",
          "name": "",
          "type": "uint256"
        }
      ],
      "stateMutability": "payable",
      "type": "function"
    },
    {
      "inputs": [
        {
          "internalType": "uint256",
          "name": "nrSeedCoins",
          "type": "uint256"
        },
        {
          "internalType": "uint8",
          "name": "targetCoin",
          "type": "uint8"
        }
      ],
      "name": "plantSeeds",
      "outputs": [],
      "stateMutability": "nonpayable",
      "type": "function"
    },
    {
      "inputs": [],
      "name": "getCurrentStakes",
      "outputs": [
        {
          "internalType": "uint256[2]",
          "name": "balances",
          "type": "uint256[2]"
        }
      ],
      "stateMutability": "view",
      "type": "function"
    },
    {
      "inputs": [],
      "name": "harvestAll",
      "outputs": [],
      "stateMutability": "nonpayable",
      "type": "function"
    }
  ],
  "bytecode": "0x608060405260646000806101000a81548160ff021916908360ff160217905550600a600060016101000a81548160ff021916908360ff1602179055506008600060026101000a81548160ff021916908360ff160217905550600a600060036101000a81548160ff021916908360ff160217905550603c6001553480156200008557600080fd5b5060405162001d2038038062001d208339818101604052810190620000ab91906200027f565b82600260006101000a81548173ffffffffffffffffffffffffffffffffffffffff021916908373ffffffffffffffffffffffffffffffffffffffff16021790555081600360006101000a81548173ffffffffffffffffffffffffffffffffffffffff021916908373ffffffffffffffffffffffffffffffffffffffff16021790555080600460006101000a81548173ffffffffffffffffffffffffffffffffffffffff021916908373ffffffffffffffffffffffffffffffffffffffff160217905550505050620002db565b600080fd5b600073ffffffffffffffffffffffffffffffffffffffff82169050919050565b6000620001a9826200017c565b9050919050565b6000620001bd826200019c565b9050919050565b620001cf81620001b0565b8114620001db57600080fd5b50565b600081519050620001ef81620001c4565b92915050565b600062000202826200019c565b9050919050565b6200021481620001f5565b81146200022057600080fd5b50565b600081519050620002348162000209565b92915050565b600062000247826200019c565b9050919050565b62000259816200023a565b81146200026557600080fd5b50565b60008151905062000279816200024e565b92915050565b6000806000606084860312156200029b576200029a62000177565b5b6000620002ab86828701620001de565b9350506020620002be8682870162000223565b9250506040620002d18682870162000268565b9150509250925092565b611a3580620002eb6000396000f3fe6080604052600436106100c25760003560e01c80638ed955b91161007f578063c669b71011610059578063c669b71014610213578063d4637ddb1461023e578063e046670b14610269578063fa4facdb14610287576100c2565b80638ed955b9146101a6578063900294be146101bd578063c03d5b47146101e8576100c2565b806310f7e4ed146100c75780633ba0b9a9146100d1578063411ee0d0146100fc578063429c3edf146101275780636a7a2fa3146101505780637c62539a1461017b575b600080fd5b6100cf6102b2565b005b3480156100dd57600080fd5b506100e661056d565b6040516100f3919061118b565b60405180910390f35b34801561010857600080fd5b5061011161057e565b60405161011e9190611225565b60405180910390f35b34801561013357600080fd5b5061014e600480360381019061014991906112a7565b6105a4565b005b34801561015c57600080fd5b506101656109e5565b604051610172919061118b565b60405180910390f35b34801561018757600080fd5b506101906109f8565b60405161019d9190611308565b60405180910390f35b3480156101b257600080fd5b506101bb610a1e565b005b3480156101c957600080fd5b506101d2610e3d565b6040516101df9190611344565b60405180910390f35b3480156101f457600080fd5b506101fd610e63565b60405161020a919061136e565b60405180910390f35b34801561021f57600080fd5b50610228610e69565b604051610235919061118b565b60405180910390f35b34801561024a57600080fd5b50610253610e7c565b604051610260919061118b565b60405180910390f35b610271610e8f565b60405161027e919061136e565b60405180910390f35b34801561029357600080fd5b5061029c610e97565b6040516102a99190611434565b60405180910390f35b6000600260009054906101000a900473ffffffffffffffffffffffffffffffffffffffff1673ffffffffffffffffffffffffffffffffffffffff166370a08231306040518263ffffffff1660e01b815260040161030f9190611470565b60206040518083038186803b15801561032757600080fd5b505afa15801561033b573d6000803e3d6000fd5b505050506040513d601f19601f8201168201806040525081019061035f91906114a0565b1161036957600080fd5b600034116103ac576040517f08c379a00000000000000000000000000000000000000000000000000000000081526004016103a390611550565b60405180910390fd5b6000600260009054906101000a900473ffffffffffffffffffffffffffffffffffffffff1673ffffffffffffffffffffffffffffffffffffffff166370a08231306040518263ffffffff1660e01b81526004016104099190611470565b60206040518083038186803b15801561042157600080fd5b505afa158015610435573d6000803e3d6000fd5b505050506040513d601f19601f8201168201806040525081019061045991906114a0565b11610499576040517f08c379a0000000000000000000000000000000000000000000000000000000008152600401610490906115e2565b60405180910390fd5b60008060009054906101000a900460ff1660ff16346104b89190611631565b9050600260009054906101000a900473ffffffffffffffffffffffffffffffffffffffff1673ffffffffffffffffffffffffffffffffffffffff1663a9059cbb33836040518363ffffffff1660e01b815260040161051792919061168b565b602060405180830381600087803b15801561053157600080fd5b505af1158015610545573d6000803e3d6000fd5b505050506040513d601f19601f8201168201806040525081019061056991906116ec565b5050565b60008054906101000a900460ff1681565b600460009054906101000a900473ffffffffffffffffffffffffffffffffffffffff1681565b6000600360009054906101000a900473ffffffffffffffffffffffffffffffffffffffff1673ffffffffffffffffffffffffffffffffffffffff166370a08231306040518263ffffffff1660e01b81526004016106019190611470565b60206040518083038186803b15801561061957600080fd5b505afa15801561062d573d6000803e3d6000fd5b505050506040513d601f19601f8201168201806040525081019061065191906114a0565b1161065b57600080fd5b6000600460009054906101000a900473ffffffffffffffffffffffffffffffffffffffff1673ffffffffffffffffffffffffffffffffffffffff166370a08231306040518263ffffffff1660e01b81526004016106b89190611470565b60206040518083038186803b1580156106d057600080fd5b505afa1580156106e4573d6000803e3d6000fd5b505050506040513d601f19601f8201168201806040525081019061070891906114a0565b1161071257600080fd5b6000600260009054906101000a900473ffffffffffffffffffffffffffffffffffffffff1673ffffffffffffffffffffffffffffffffffffffff166370a08231336040518263ffffffff1660e01b815260040161076f9190611470565b60206040518083038186803b15801561078757600080fd5b505afa15801561079b573d6000803e3d6000fd5b505050506040513d601f19601f820116820180604052508101906107bf91906114a0565b90508281101580156107d15750600083115b610810576040517f08c379a00000000000000000000000000000000000000000000000000000000081526004016108079061178b565b60405180910390fd5b60008260ff161480610825575060018260ff16145b610864576040517f08c379a000000000000000000000000000000000000000000000000000000000815260040161085b9061181d565b60405180910390fd5b600260009054906101000a900473ffffffffffffffffffffffffffffffffffffffff1673ffffffffffffffffffffffffffffffffffffffff166323b872dd3330866040518463ffffffff1660e01b81526004016108c39392919061183d565b602060405180830381600087803b1580156108dd57600080fd5b505af11580156108f1573d6000803e3d6000fd5b505050506040513d601f19601f8201168201806040525081019061091591906116ec565b50600560003373ffffffffffffffffffffffffffffffffffffffff1673ffffffffffffffffffffffffffffffffffffffff16815260200190815260200160002060405180606001604052808581526020018460ff1681526020016001544261097d9190611874565b81525090806001815401808255809150506001900390600052602060002090600302016000909190919091506000820151816000015560208201518160010160006101000a81548160ff021916908360ff160217905550604082015181600201555050505050565b600060039054906101000a900460ff1681565b600360009054906101000a900473ffffffffffffffffffffffffffffffffffffffff1681565b60005b600560003373ffffffffffffffffffffffffffffffffffffffff1673ffffffffffffffffffffffffffffffffffffffff16815260200190815260200160002080549050811015610e3a576000600560003373ffffffffffffffffffffffffffffffffffffffff1673ffffffffffffffffffffffffffffffffffffffff1681526020019081526020016000208281548110610abe57610abd6118ca565b5b9060005260206000209060030201604051806060016040529081600082015481526020016001820160009054906101000a900460ff1660ff1660ff16815260200160028201548152505090504281604001511015610e26576000816020015160ff161415610c5c5760008060019054906101000a900460ff1660ff168260000151610b499190611928565b9050610b588260000151611010565b600360009054906101000a900473ffffffffffffffffffffffffffffffffffffffff1673ffffffffffffffffffffffffffffffffffffffff1663a9059cbb33836040518363ffffffff1660e01b8152600401610bb592919061168b565b602060405180830381600087803b158015610bcf57600080fd5b505af1158015610be3573d6000803e3d6000fd5b505050506040513d601f19601f82011682018060405250810190610c0791906116ec565b503373ffffffffffffffffffffffffffffffffffffffff167f9fd4a9248425079a398923cd20daa8e0c103907fb89db4707cb4f2cc343f954682604051610c4e919061136e565b60405180910390a250610d9f565b6001816020015160ff161415610d9e5760008060029054906101000a900460ff1660ff168260000151610c8f9190611928565b9050610c9e8260000151611010565b600460009054906101000a900473ffffffffffffffffffffffffffffffffffffffff1673ffffffffffffffffffffffffffffffffffffffff1663a9059cbb33836040518363ffffffff1660e01b8152600401610cfb92919061168b565b602060405180830381600087803b158015610d1557600080fd5b505af1158015610d29573d6000803e3d6000fd5b505050506040513d601f19601f82011682018060405250810190610d4d91906116ec565b503373ffffffffffffffffffffffffffffffffffffffff167fd62aeb2df4f1c7a0c59e15c0dca22ccbcbe42ad0d0dbf99a22c0ad2551c5a15582604051610d94919061136e565b60405180910390a2505b5b600560003373ffffffffffffffffffffffffffffffffffffffff1673ffffffffffffffffffffffffffffffffffffffff1681526020019081526020016000208281548110610df057610def6118ca565b5b90600052602060002090600302016000808201600090556001820160006101000a81549060ff0219169055600282016000905550505b508080610e3290611959565b915050610a21565b50565b600260009054906101000a900473ffffffffffffffffffffffffffffffffffffffff1681565b60015481565b600060019054906101000a900460ff1681565b600060029054906101000a900460ff1681565b600047905090565b610e9f61114d565b60008060005b600560003373ffffffffffffffffffffffffffffffffffffffff1673ffffffffffffffffffffffffffffffffffffffff16815260200190815260200160002080549050811015610fed576000600560003373ffffffffffffffffffffffffffffffffffffffff1673ffffffffffffffffffffffffffffffffffffffff1681526020019081526020016000208281548110610f4257610f416118ca565b5b9060005260206000209060030201604051806060016040529081600082015481526020016001820160009054906101000a900460ff1660ff1660ff16815260200160028201548152505090506000816020015160ff161415610fb557806000015184610fae9190611874565b9350610fd9565b6001816020015160ff161415610fd857806000015183610fd59190611874565b92505b5b508080610fe590611959565b915050610ea5565b506000604051806040016040528084815260200183815250905080935050505090565b60006064600060039054906101000a900460ff1660ff16836110329190611631565b61103c9190611928565b8261104791906119a2565b9050600260009054906101000a900473ffffffffffffffffffffffffffffffffffffffff1673ffffffffffffffffffffffffffffffffffffffff1663a9059cbb33836040518363ffffffff1660e01b81526004016110a692919061168b565b602060405180830381600087803b1580156110c057600080fd5b505af11580156110d4573d6000803e3d6000fd5b505050506040513d601f19601f820116820180604052508101906110f891906116ec565b503373ffffffffffffffffffffffffffffffffffffffff167f11acec8ea502f5c875e157dd1a17389990a9350450464db61ef112521c0d875182846040516111419291906119d6565b60405180910390a25050565b6040518060400160405280600290602082028036833780820191505090505090565b600060ff82169050919050565b6111858161116f565b82525050565b60006020820190506111a0600083018461117c565b92915050565b600073ffffffffffffffffffffffffffffffffffffffff82169050919050565b6000819050919050565b60006111eb6111e66111e1846111a6565b6111c6565b6111a6565b9050919050565b60006111fd826111d0565b9050919050565b600061120f826111f2565b9050919050565b61121f81611204565b82525050565b600060208201905061123a6000830184611216565b92915050565b600080fd5b6000819050919050565b61125881611245565b811461126357600080fd5b50565b6000813590506112758161124f565b92915050565b6112848161116f565b811461128f57600080fd5b50565b6000813590506112a18161127b565b92915050565b600080604083850312156112be576112bd611240565b5b60006112cc85828601611266565b92505060206112dd85828601611292565b9150509250929050565b60006112f2826111f2565b9050919050565b611302816112e7565b82525050565b600060208201905061131d60008301846112f9565b92915050565b600061132e826111f2565b9050919050565b61133e81611323565b82525050565b60006020820190506113596000830184611335565b92915050565b61136881611245565b82525050565b6000602082019050611383600083018461135f565b92915050565b600060029050919050565b600081905092915050565b6000819050919050565b6113b281611245565b82525050565b60006113c483836113a9565b60208301905092915050565b6000602082019050919050565b6113e681611389565b6113f08184611394565b92506113fb8261139f565b8060005b8381101561142c57815161141387826113b8565b965061141e836113d0565b9250506001810190506113ff565b505050505050565b600060408201905061144960008301846113dd565b92915050565b600061145a826111a6565b9050919050565b61146a8161144f565b82525050565b60006020820190506114856000830184611461565b92915050565b60008151905061149a8161124f565b92915050565b6000602082840312156114b6576114b5611240565b5b60006114c48482850161148b565b91505092915050565b600082825260208201905092915050565b7f796f75206861766520746f2073656e6420736f6d652045544820746f2067657460008201527f204b696e67646f6d53656564636f696e00000000000000000000000000000000602082015250565b600061153a6030836114cd565b9150611545826114de565b604082019050919050565b600060208201905081810360008301526115698161152d565b9050919050565b7f75686f682c2073727920692063616e27742073656e6420616e79206d6f72652060008201527f4b696e67646f6d53656564636f696e0000000000000000000000000000000000602082015250565b60006115cc602f836114cd565b91506115d782611570565b604082019050919050565b600060208201905081810360008301526115fb816115bf565b9050919050565b7f4e487b7100000000000000000000000000000000000000000000000000000000600052601160045260246000fd5b600061163c82611245565b915061164783611245565b9250817fffffffffffffffffffffffffffffffffffffffffffffffffffffffffffffffff04831182151516156116805761167f611602565b5b828202905092915050565b60006040820190506116a06000830185611461565b6116ad602083018461135f565b9392505050565b60008115159050919050565b6116c9816116b4565b81146116d457600080fd5b50565b6000815190506116e6816116c0565b92915050565b60006020828403121561170257611701611240565b5b6000611710848285016116d7565b91505092915050565b7f796f7520646f6e2774206861766520656e6f7567682073656564636f696e732160008201527f20627579206f7220747261646520736f6d650000000000000000000000000000602082015250565b60006117756032836114cd565b915061178082611719565b604082019050919050565b600060208201905081810360008301526117a481611768565b9050919050565b7f746172676574436f696e2068617320746f20626520303d61747461636b636f6960008201527f6e206f7220313d646566656e7365636f696e0000000000000000000000000000602082015250565b60006118076032836114cd565b9150611812826117ab565b604082019050919050565b60006020820190508181036000830152611836816117fa565b9050919050565b60006060820190506118526000830186611461565b61185f6020830185611461565b61186c604083018461135f565b949350505050565b600061187f82611245565b915061188a83611245565b9250827fffffffffffffffffffffffffffffffffffffffffffffffffffffffffffffffff038211156118bf576118be611602565b5b828201905092915050565b7f4e487b7100000000000000000000000000000000000000000000000000000000600052603260045260246000fd5b7f4e487b7100000000000000000000000000000000000000000000000000000000600052601260045260246000fd5b600061193382611245565b915061193e83611245565b92508261194e5761194d6118f9565b5b828204905092915050565b600061196482611245565b91507fffffffffffffffffffffffffffffffffffffffffffffffffffffffffffffffff82141561199757611996611602565b5b600182019050919050565b60006119ad82611245565b91506119b883611245565b9250828210156119cb576119ca611602565b5b828203905092915050565b60006040820190506119eb600083018561135f565b6119f8602083018461135f565b939250505056fea2646970667358221220f69016f848555b32facc78494c0e7a5f4b936ae74bd2e70886c263ed65af8f3464736f6c63430008090033",
  "immutableReferences": {},
  "source": "pragma solidity ^0.8;\n\nimport \"./KingdomSeedCoin.sol\";\nimport \"./KingdomAttackCoin.sol\";\nimport \"./KingdomDefenseCoin.sol\";\nimport \"@openzeppelin/contracts/access/Ownable.sol\";\n\n\ncontract KingdomBank {\n    // address public owner;\n    // string public name = \"Kingdom Bank\";\n    uint8 public exchangeRate = 100;\n    // return more defensepoints as attackpoints\n    uint8 public exchangeRate_Attackpoints = 10;\n    uint8 public exchangeRate_Defensepoints = 8;\n    uint8 public exchangeRate_Burnpct = 10;\n    uint public stakingPeriod = 60 seconds;\n    \n    KingdomSeedCoin public kgdsc;\n    KingdomAttackCoin public kgdat;\n    KingdomDefenseCoin public kgddf;\n\n    event HarvestAttackPoints(address indexed _to, uint _amount);\n    event HarvestDefensePoints(address indexed _to, uint _amount);\n    event HarvestRemainingSeedCoins(address indexed _to, uint _amount, uint _beforeBurn);\n    \n    struct Staking {\n        uint seedCoinAmount;\n        uint8 targetCoinType; // 0 = attackCoin, 1 = defenseCoin\n        uint readyTime;\n    }\n    \n    mapping (address => Staking[]) private _Staking;\n\n    constructor(KingdomSeedCoin _kgdsc, KingdomAttackCoin _kgdat, KingdomDefenseCoin _kgddf) {\n        kgdsc = _kgdsc;\n        kgdat = _kgdat;\n        kgddf = _kgddf;\n        // after that the coins need to be transferred to KingdomBank\n        // owner = msg.sender;\n    }\n\n    modifier contractHasSeedcoins {\n        require (kgdsc.balanceOf(address(this)) > 0);\n        _;\n    }\n\n    modifier contractHasAttackcoins {\n        require (kgdat.balanceOf(address(this)) > 0);\n        _;\n    }\n\n    modifier contractHasDefensecoins {\n        require (kgddf.balanceOf(address(this)) > 0);\n        _;\n    }\n    \n    // you can only buy the seed coins \n    function buyForETH() external payable contractHasSeedcoins {\n        require(msg.value > 0, \"you have to send some ETH to get KingdomSeedcoin\");\n        require(kgdsc.balanceOf(address(this)) > 0, \"uhoh, sry i can't send any more KingdomSeedcoin\");\n        \n        uint rewardTokens = msg.value * exchangeRate;\n        kgdsc.transfer(msg.sender, rewardTokens);\n    }\n    \n    function justSendETH() public payable  returns(uint){\n        return address(this).balance;\n    }\n    \n    function plantSeeds(uint nrSeedCoins, uint8 targetCoin) public contractHasAttackcoins contractHasDefensecoins {\n        uint kgdsc_balance = kgdsc.balanceOf(msg.sender);\n        require(kgdsc_balance >= nrSeedCoins && nrSeedCoins > 0, \"you don't have enough seedcoins! buy or trade some\");\n        require(targetCoin == 0 || targetCoin == 1, \"targetCoin has to be 0=attackcoin or 1=defensecoin\");\n        // enter staking\n        // first transact the kgdsc\n        kgdsc.transferFrom(msg.sender, address(this), nrSeedCoins);\n        // kgdsc.transfer(address(this), nrSeedCoins);\n        // then store in array\n        _Staking[msg.sender].push(Staking(\n            nrSeedCoins,\n            targetCoin,\n            block.timestamp + stakingPeriod\n            ));\n    }\n    \n    function getCurrentStakes() public view returns(uint[2] memory balances){\n        uint attackPoints = 0;\n        uint defensePoints = 0;\n        for (uint i = 0; i < _Staking[msg.sender].length; i++) {\n            Staking memory stakeobj = _Staking[msg.sender][i];\n            if (stakeobj.targetCoinType == 0) {\n                attackPoints += stakeobj.seedCoinAmount;\n            }\n            else if (stakeobj.targetCoinType == 1) {\n                defensePoints += stakeobj.seedCoinAmount;\n            }\n        }\n        uint[2] memory res = [attackPoints, defensePoints];\n        return res;\n    }\n\n    function _burnReturnSeedcoins(uint nrSeedCoins) private {\n        uint remainingSeedcoins = nrSeedCoins - (nrSeedCoins * exchangeRate_Burnpct / 100);\n        kgdsc.transfer(msg.sender, remainingSeedcoins);\n        emit HarvestRemainingSeedCoins(msg.sender, remainingSeedcoins, nrSeedCoins);\n    }\n\n    function harvestAll() public {\n        for (uint i = 0; i < _Staking[msg.sender].length; i++) {\n            Staking memory stakeobj = _Staking[msg.sender][i];\n            if (stakeobj.readyTime < block.timestamp) {\n                // ready for harvest\n                if (stakeobj.targetCoinType == 0) {\n                    uint attackPoints = stakeobj.seedCoinAmount / exchangeRate_Attackpoints;\n                    _burnReturnSeedcoins(stakeobj.seedCoinAmount);\n                    kgdat.transfer(msg.sender, attackPoints);\n                    emit HarvestAttackPoints(msg.sender, attackPoints);\n                }\n                else if (stakeobj.targetCoinType == 1) {\n                    uint defensePoints = stakeobj.seedCoinAmount / exchangeRate_Defensepoints;\n                    _burnReturnSeedcoins(stakeobj.seedCoinAmount);\n                    kgddf.transfer(msg.sender, defensePoints);\n                    emit HarvestDefensePoints(msg.sender, defensePoints);\n                }\n                // finally remove from array\n                delete _Staking[msg.sender][i];\n            }\n        }\n    } \n}",
  "sourcePath": "/home/jguese/code/solidity-course/kingdom/contracts/KingdomBank.sol",
  "compiler": {
    "name": "solc",
    "version": "0.8.9+commit.e5eed63a.Emscripten.clang"
  },
  "schemaVersion": "3.4.3",
  "updatedAt": "2021-10-21T14:49:50.324Z",
  "devdoc": {
    "kind": "dev",
    "methods": {},
    "version": 1
  },
  "userdoc": {
    "kind": "user",
    "methods": {},
    "version": 1
  }
}