{
  "contractName": "KingdomGameMechanic",
  "abi": [
    {
      "inputs": [
        {
          "internalType": "contract KingdomSeedCoin",
          "name": "kgdsc",
          "type": "address"
        },
        {
          "internalType": "contract KingdomAttackCoin",
          "name": "kgdat",
          "type": "address"
        },
        {
          "internalType": "contract KingdomDefenseCoin",
          "name": "kgddf",
          "type": "address"
        }
      ],
      "stateMutability": "nonpayable",
      "type": "constructor"
    },
    {
      "anonymous": false,
      "inputs": [
        {
          "indexed": true,
          "internalType": "address",
          "name": "owner",
          "type": "address"
        },
        {
          "indexed": true,
          "internalType": "address",
          "name": "approved",
          "type": "address"
        },
        {
          "indexed": true,
          "internalType": "uint256",
          "name": "tokenId",
          "type": "uint256"
        }
      ],
      "name": "Approval",
      "type": "event"
    },
    {
      "anonymous": false,
      "inputs": [
        {
          "indexed": true,
          "internalType": "address",
          "name": "owner",
          "type": "address"
        },
        {
          "indexed": true,
          "internalType": "address",
          "name": "operator",
          "type": "address"
        },
        {
          "indexed": false,
          "internalType": "bool",
          "name": "approved",
          "type": "bool"
        }
      ],
      "name": "ApprovalForAll",
      "type": "event"
    },
    {
      "anonymous": false,
      "inputs": [
        {
          "indexed": false,
          "internalType": "address",
          "name": "attacker",
          "type": "address"
        },
        {
          "indexed": false,
          "internalType": "address",
          "name": "defender",
          "type": "address"
        },
        {
          "indexed": false,
          "internalType": "uint16",
          "name": "attacker_id",
          "type": "uint16"
        },
        {
          "indexed": false,
          "internalType": "uint16",
          "name": "defender_id",
          "type": "uint16"
        },
        {
          "indexed": false,
          "internalType": "uint32",
          "name": "attackPoints",
          "type": "uint32"
        },
        {
          "indexed": false,
          "internalType": "uint32",
          "name": "defensePoints",
          "type": "uint32"
        },
        {
          "indexed": false,
          "internalType": "bool",
          "name": "won",
          "type": "bool"
        }
      ],
      "name": "Attack",
      "type": "event"
    },
    {
      "anonymous": false,
      "inputs": [
        {
          "indexed": true,
          "internalType": "address",
          "name": "_to",
          "type": "address"
        },
        {
          "indexed": false,
          "internalType": "uint256",
          "name": "_amount",
          "type": "uint256"
        }
      ],
      "name": "HarvestAttackPoints",
      "type": "event"
    },
    {
      "anonymous": false,
      "inputs": [
        {
          "indexed": true,
          "internalType": "address",
          "name": "_to",
          "type": "address"
        },
        {
          "indexed": false,
          "internalType": "uint256",
          "name": "_amount",
          "type": "uint256"
        }
      ],
      "name": "HarvestDefensePoints",
      "type": "event"
    },
    {
      "anonymous": false,
      "inputs": [
        {
          "indexed": true,
          "internalType": "address",
          "name": "_to",
          "type": "address"
        },
        {
          "indexed": false,
          "internalType": "uint256",
          "name": "_amount",
          "type": "uint256"
        },
        {
          "indexed": false,
          "internalType": "uint256",
          "name": "_beforeBurn",
          "type": "uint256"
        }
      ],
      "name": "HarvestRemainingSeedCoins",
      "type": "event"
    },
    {
      "anonymous": false,
      "inputs": [
        {
          "indexed": false,
          "internalType": "address",
          "name": "attacker",
          "type": "address"
        },
        {
          "indexed": false,
          "internalType": "address",
          "name": "defender",
          "type": "address"
        },
        {
          "indexed": false,
          "internalType": "uint16",
          "name": "new_attacker_id",
          "type": "uint16"
        },
        {
          "indexed": false,
          "internalType": "uint16",
          "name": "new_looser_id",
          "type": "uint16"
        }
      ],
      "name": "Sacked",
      "type": "event"
    },
    {
      "anonymous": false,
      "inputs": [
        {
          "indexed": true,
          "internalType": "address",
          "name": "from",
          "type": "address"
        },
        {
          "indexed": true,
          "internalType": "address",
          "name": "to",
          "type": "address"
        },
        {
          "indexed": true,
          "internalType": "uint256",
          "name": "tokenId",
          "type": "uint256"
        }
      ],
      "name": "Transfer",
      "type": "event"
    },
    {
      "inputs": [
        {
          "internalType": "address",
          "name": "to",
          "type": "address"
        },
        {
          "internalType": "uint256",
          "name": "tokenId",
          "type": "uint256"
        }
      ],
      "name": "approve",
      "outputs": [],
      "stateMutability": "nonpayable",
      "type": "function"
    },
    {
      "inputs": [],
      "name": "attackCooldown",
      "outputs": [
        {
          "internalType": "uint256",
          "name": "",
          "type": "uint256"
        }
      ],
      "stateMutability": "view",
      "type": "function"
    },
    {
      "inputs": [
        {
          "internalType": "address",
          "name": "player",
          "type": "address"
        }
      ],
      "name": "awardItem",
      "outputs": [
        {
          "internalType": "uint256",
          "name": "",
          "type": "uint256"
        }
      ],
      "stateMutability": "nonpayable",
      "type": "function"
    },
    {
      "inputs": [
        {
          "internalType": "address",
          "name": "owner",
          "type": "address"
        }
      ],
      "name": "balanceOf",
      "outputs": [
        {
          "internalType": "uint256",
          "name": "",
          "type": "uint256"
        }
      ],
      "stateMutability": "view",
      "type": "function"
    },
    {
      "inputs": [],
      "name": "baseUrl",
      "outputs": [
        {
          "internalType": "string",
          "name": "",
          "type": "string"
        }
      ],
      "stateMutability": "view",
      "type": "function"
    },
    {
      "inputs": [],
      "name": "buyForETH",
      "outputs": [],
      "stateMutability": "payable",
      "type": "function"
    },
    {
      "inputs": [],
      "name": "currentPosition",
      "outputs": [
        {
          "internalType": "uint256",
          "name": "",
          "type": "uint256"
        }
      ],
      "stateMutability": "view",
      "type": "function"
    },
    {
      "inputs": [],
      "name": "exchangeRate",
      "outputs": [
        {
          "internalType": "uint8",
          "name": "",
          "type": "uint8"
        }
      ],
      "stateMutability": "view",
      "type": "function"
    },
    {
      "inputs": [],
      "name": "exchangeRate_Attackpoints",
      "outputs": [
        {
          "internalType": "uint8",
          "name": "",
          "type": "uint8"
        }
      ],
      "stateMutability": "view",
      "type": "function"
    },
    {
      "inputs": [],
      "name": "exchangeRate_Burnpct",
      "outputs": [
        {
          "internalType": "uint8",
          "name": "",
          "type": "uint8"
        }
      ],
      "stateMutability": "view",
      "type": "function"
    },
    {
      "inputs": [],
      "name": "exchangeRate_Defensepoints",
      "outputs": [
        {
          "internalType": "uint8",
          "name": "",
          "type": "uint8"
        }
      ],
      "stateMutability": "view",
      "type": "function"
    },
    {
      "inputs": [
        {
          "internalType": "uint256",
          "name": "tokenId",
          "type": "uint256"
        }
      ],
      "name": "getApproved",
      "outputs": [
        {
          "internalType": "address",
          "name": "",
          "type": "address"
        }
      ],
      "stateMutability": "view",
      "type": "function"
    },
    {
      "inputs": [],
      "name": "getCurrentStakes",
      "outputs": [
        {
          "internalType": "uint256[2]",
          "name": "balances",
          "type": "uint256[2]"
        }
      ],
      "stateMutability": "view",
      "type": "function"
    },
    {
      "inputs": [],
      "name": "harvestAll",
      "outputs": [],
      "stateMutability": "nonpayable",
      "type": "function"
    },
    {
      "inputs": [
        {
          "internalType": "address",
          "name": "owner",
          "type": "address"
        },
        {
          "internalType": "address",
          "name": "operator",
          "type": "address"
        }
      ],
      "name": "isApprovedForAll",
      "outputs": [
        {
          "internalType": "bool",
          "name": "",
          "type": "bool"
        }
      ],
      "stateMutability": "view",
      "type": "function"
    },
    {
      "inputs": [],
      "name": "justSendETH",
      "outputs": [
        {
          "internalType": "uint256",
          "name": "",
          "type": "uint256"
        }
      ],
      "stateMutability": "payable",
      "type": "function"
    },
    {
      "inputs": [],
      "name": "kgdat",
      "outputs": [
        {
          "internalType": "contract KingdomAttackCoin",
          "name": "",
          "type": "address"
        }
      ],
      "stateMutability": "view",
      "type": "function"
    },
    {
      "inputs": [],
      "name": "kgddf",
      "outputs": [
        {
          "internalType": "contract KingdomDefenseCoin",
          "name": "",
          "type": "address"
        }
      ],
      "stateMutability": "view",
      "type": "function"
    },
    {
      "inputs": [],
      "name": "kgdsc",
      "outputs": [
        {
          "internalType": "contract KingdomSeedCoin",
          "name": "",
          "type": "address"
        }
      ],
      "stateMutability": "view",
      "type": "function"
    },
    {
      "inputs": [],
      "name": "name",
      "outputs": [
        {
          "internalType": "string",
          "name": "",
          "type": "string"
        }
      ],
      "stateMutability": "view",
      "type": "function"
    },
    {
      "inputs": [
        {
          "internalType": "uint256",
          "name": "tokenId",
          "type": "uint256"
        }
      ],
      "name": "ownerOf",
      "outputs": [
        {
          "internalType": "address",
          "name": "",
          "type": "address"
        }
      ],
      "stateMutability": "view",
      "type": "function"
    },
    {
      "inputs": [
        {
          "internalType": "uint256",
          "name": "nrSeedCoins",
          "type": "uint256"
        },
        {
          "internalType": "uint8",
          "name": "targetCoin",
          "type": "uint8"
        }
      ],
      "name": "plantSeeds",
      "outputs": [],
      "stateMutability": "nonpayable",
      "type": "function"
    },
    {
      "inputs": [
        {
          "internalType": "uint256",
          "name": "itemId",
          "type": "uint256"
        }
      ],
      "name": "reverseItem",
      "outputs": [
        {
          "internalType": "bool",
          "name": "",
          "type": "bool"
        }
      ],
      "stateMutability": "nonpayable",
      "type": "function"
    },
    {
      "inputs": [
        {
          "internalType": "address",
          "name": "from",
          "type": "address"
        },
        {
          "internalType": "address",
          "name": "to",
          "type": "address"
        },
        {
          "internalType": "uint256",
          "name": "tokenId",
          "type": "uint256"
        }
      ],
      "name": "safeTransferFrom",
      "outputs": [],
      "stateMutability": "nonpayable",
      "type": "function"
    },
    {
      "inputs": [
        {
          "internalType": "address",
          "name": "from",
          "type": "address"
        },
        {
          "internalType": "address",
          "name": "to",
          "type": "address"
        },
        {
          "internalType": "uint256",
          "name": "tokenId",
          "type": "uint256"
        },
        {
          "internalType": "bytes",
          "name": "_data",
          "type": "bytes"
        }
      ],
      "name": "safeTransferFrom",
      "outputs": [],
      "stateMutability": "nonpayable",
      "type": "function"
    },
    {
      "inputs": [
        {
          "internalType": "address",
          "name": "operator",
          "type": "address"
        },
        {
          "internalType": "bool",
          "name": "approved",
          "type": "bool"
        }
      ],
      "name": "setApprovalForAll",
      "outputs": [],
      "stateMutability": "nonpayable",
      "type": "function"
    },
    {
      "inputs": [],
      "name": "stakingPeriod",
      "outputs": [
        {
          "internalType": "uint256",
          "name": "",
          "type": "uint256"
        }
      ],
      "stateMutability": "view",
      "type": "function"
    },
    {
      "inputs": [
        {
          "internalType": "bytes4",
          "name": "interfaceId",
          "type": "bytes4"
        }
      ],
      "name": "supportsInterface",
      "outputs": [
        {
          "internalType": "bool",
          "name": "",
          "type": "bool"
        }
      ],
      "stateMutability": "view",
      "type": "function"
    },
    {
      "inputs": [],
      "name": "symbol",
      "outputs": [
        {
          "internalType": "string",
          "name": "",
          "type": "string"
        }
      ],
      "stateMutability": "view",
      "type": "function"
    },
    {
      "inputs": [
        {
          "internalType": "uint256",
          "name": "_tokenId",
          "type": "uint256"
        }
      ],
      "name": "tokenMetadata",
      "outputs": [
        {
          "internalType": "string",
          "name": "infoUrl",
          "type": "string"
        }
      ],
      "stateMutability": "view",
      "type": "function"
    },
    {
      "inputs": [
        {
          "internalType": "uint256",
          "name": "tokenId",
          "type": "uint256"
        }
      ],
      "name": "tokenURI",
      "outputs": [
        {
          "internalType": "string",
          "name": "",
          "type": "string"
        }
      ],
      "stateMutability": "view",
      "type": "function"
    },
    {
      "inputs": [],
      "name": "totalSupply",
      "outputs": [
        {
          "internalType": "uint16",
          "name": "",
          "type": "uint16"
        }
      ],
      "stateMutability": "view",
      "type": "function"
    },
    {
      "inputs": [
        {
          "internalType": "address",
          "name": "from",
          "type": "address"
        },
        {
          "internalType": "address",
          "name": "to",
          "type": "address"
        },
        {
          "internalType": "uint256",
          "name": "tokenId",
          "type": "uint256"
        }
      ],
      "name": "transferFrom",
      "outputs": [],
      "stateMutability": "nonpayable",
      "type": "function"
    },
    {
      "inputs": [
        {
          "internalType": "uint16",
          "name": "id",
          "type": "uint16"
        }
      ],
      "name": "getServants",
      "outputs": [
        {
          "internalType": "uint16",
          "name": "left",
          "type": "uint16"
        },
        {
          "internalType": "uint16",
          "name": "right",
          "type": "uint16"
        }
      ],
      "stateMutability": "view",
      "type": "function"
    },
    {
      "inputs": [
        {
          "internalType": "uint16",
          "name": "id",
          "type": "uint16"
        }
      ],
      "name": "getBoss",
      "outputs": [
        {
          "internalType": "uint16",
          "name": "bossid",
          "type": "uint16"
        }
      ],
      "stateMutability": "view",
      "type": "function"
    }
  ],
  "bytecode": "0x60806040526064600660006101000a81548160ff021916908360ff160217905550600a600660016101000a81548160ff021916908360ff1602179055506008600660026101000a81548160ff021916908360ff160217905550600a600660036101000a81548160ff021916908360ff160217905550603c600755612710600e60006101000a81548161ffff021916908361ffff1602179055506040518060600160405280602581526020016200503260259139600f9080519060200190620000c9929190620002d2565b50603c601055348015620000dc57600080fd5b50604051620050573803806200505783398181016040528101906200010291906200048a565b8282828282826040518060400160405280600e81526020017f4b696e67646f6d205469746c65730000000000000000000000000000000000008152506040518060400160405280600381526020017f4b4744000000000000000000000000000000000000000000000000000000000081525081600090805190602001906200018c929190620002d2565b508060019080519060200190620001a5929190620002d2565b50505082600860006101000a81548173ffffffffffffffffffffffffffffffffffffffff021916908373ffffffffffffffffffffffffffffffffffffffff16021790555081600960006101000a81548173ffffffffffffffffffffffffffffffffffffffff021916908373ffffffffffffffffffffffffffffffffffffffff16021790555080600a60006101000a81548173ffffffffffffffffffffffffffffffffffffffff021916908373ffffffffffffffffffffffffffffffffffffffff1602179055505050506200027e620002ca60201b60201c565b600c60006101000a81548173ffffffffffffffffffffffffffffffffffffffff021916908373ffffffffffffffffffffffffffffffffffffffff1602179055505050505050506200054b565b600033905090565b828054620002e09062000515565b90600052602060002090601f01602090048101928262000304576000855562000350565b82601f106200031f57805160ff191683800117855562000350565b8280016001018555821562000350579182015b828111156200034f57825182559160200191906001019062000332565b5b5090506200035f919062000363565b5090565b5b808211156200037e57600081600090555060010162000364565b5090565b600080fd5b600073ffffffffffffffffffffffffffffffffffffffff82169050919050565b6000620003b48262000387565b9050919050565b6000620003c882620003a7565b9050919050565b620003da81620003bb565b8114620003e657600080fd5b50565b600081519050620003fa81620003cf565b92915050565b60006200040d82620003a7565b9050919050565b6200041f8162000400565b81146200042b57600080fd5b50565b6000815190506200043f8162000414565b92915050565b60006200045282620003a7565b9050919050565b620004648162000445565b81146200047057600080fd5b50565b600081519050620004848162000459565b92915050565b600080600060608486031215620004a657620004a562000382565b5b6000620004b686828701620003e9565b9350506020620004c9868287016200042e565b9250506040620004dc8682870162000473565b9150509250925092565b7f4e487b7100000000000000000000000000000000000000000000000000000000600052602260045260246000fd5b600060028204905060018216806200052e57607f821691505b60208210811415620005455762000544620004e6565b5b50919050565b614ad7806200055b6000396000f3fe6080604052600436106102045760003560e01c806370a0823111610118578063c669b710116100a0578063e046670b1161006f578063e046670b14610775578063e73961f514610793578063e985e9c5146107be578063f2fb2120146107fb578063fa4facdb1461083857610204565b8063c669b710146106b7578063c87b56dd146106e2578063d4637ddb1461071f578063d534d6361461074a57610204565b8063900294be116100e7578063900294be146105e457806395d89b411461060f578063a22cb4651461063a578063b88d4fde14610663578063c03d5b471461068c57610204565b806370a08231146105285780637758429f146105655780637c62539a146105a25780638ed955b9146105cd57610204565b80633ba0b9a91161019b5780635bcabf041161016a5780635bcabf041461041a578063627ce3b8146104455780636352211e146104835780636914db60146104c05780636a7a2fa3146104fd57610204565b80633ba0b9a914610372578063411ee0d01461039d57806342842e0e146103c8578063429c3edf146103f157610204565b806310f7e4ed116101d757806310f7e4ed146102d757806318160ddd146102e157806323b872dd1461030c5780632756985c1461033557610204565b806301ffc9a71461020957806306fdde0314610246578063081812fc14610271578063095ea7b3146102ae575b600080fd5b34801561021557600080fd5b50610230600480360381019061022b9190613033565b610863565b60405161023d919061307b565b60405180910390f35b34801561025257600080fd5b5061025b610945565b604051610268919061312f565b60405180910390f35b34801561027d57600080fd5b5061029860048036038101906102939190613187565b6109d7565b6040516102a591906131f5565b60405180910390f35b3480156102ba57600080fd5b506102d560048036038101906102d0919061323c565b610a5c565b005b6102df610b74565b005b3480156102ed57600080fd5b506102f6610e30565b6040516103039190613299565b60405180910390f35b34801561031857600080fd5b50610333600480360381019061032e91906132b4565b610e44565b005b34801561034157600080fd5b5061035c60048036038101906103579190613187565b610ea4565b604051610369919061307b565b60405180910390f35b34801561037e57600080fd5b50610387610f58565b6040516103949190613323565b60405180910390f35b3480156103a957600080fd5b506103b2610f6b565b6040516103bf919061339d565b60405180910390f35b3480156103d457600080fd5b506103ef60048036038101906103ea91906132b4565b610f91565b005b3480156103fd57600080fd5b50610418600480360381019061041391906133e4565b610fb1565b005b34801561042657600080fd5b5061042f6113f2565b60405161043c919061312f565b60405180910390f35b34801561045157600080fd5b5061046c60048036038101906104679190613450565b611480565b60405161047a92919061347d565b60405180910390f35b34801561048f57600080fd5b506104aa60048036038101906104a59190613187565b611514565b6040516104b791906131f5565b60405180910390f35b3480156104cc57600080fd5b506104e760048036038101906104e29190613187565b6115c6565b6040516104f4919061312f565b60405180910390f35b34801561050957600080fd5b506105126115fa565b60405161051f9190613323565b60405180910390f35b34801561053457600080fd5b5061054f600480360381019061054a91906134a6565b61160d565b60405161055c91906134e2565b60405180910390f35b34801561057157600080fd5b5061058c60048036038101906105879190613450565b6116c5565b6040516105999190613299565b60405180910390f35b3480156105ae57600080fd5b506105b7611768565b6040516105c4919061351e565b60405180910390f35b3480156105d957600080fd5b506105e261178e565b005b3480156105f057600080fd5b506105f9611baf565b604051610606919061355a565b60405180910390f35b34801561061b57600080fd5b50610624611bd5565b604051610631919061312f565b60405180910390f35b34801561064657600080fd5b50610661600480360381019061065c91906135a1565b611c67565b005b34801561066f57600080fd5b5061068a60048036038101906106859190613716565b611de8565b005b34801561069857600080fd5b506106a1611e4a565b6040516106ae91906134e2565b60405180910390f35b3480156106c357600080fd5b506106cc611e50565b6040516106d99190613323565b60405180910390f35b3480156106ee57600080fd5b5061070960048036038101906107049190613187565b611e63565b604051610716919061312f565b60405180910390f35b34801561072b57600080fd5b50610734611f0a565b6040516107419190613323565b60405180910390f35b34801561075657600080fd5b5061075f611f1d565b60405161076c91906134e2565b60405180910390f35b61077d611f2e565b60405161078a91906134e2565b60405180910390f35b34801561079f57600080fd5b506107a8611f36565b6040516107b591906134e2565b60405180910390f35b3480156107ca57600080fd5b506107e560048036038101906107e09190613799565b611f3c565b6040516107f2919061307b565b60405180910390f35b34801561080757600080fd5b50610822600480360381019061081d91906134a6565b611fd0565b60405161082f91906134e2565b60405180910390f35b34801561084457600080fd5b5061084d6120ec565b60405161085a9190613884565b60405180910390f35b60007f80ac58cd000000000000000000000000000000000000000000000000000000007bffffffffffffffffffffffffffffffffffffffffffffffffffffffff1916827bffffffffffffffffffffffffffffffffffffffffffffffffffffffff1916148061092e57507f5b5e139f000000000000000000000000000000000000000000000000000000007bffffffffffffffffffffffffffffffffffffffffffffffffffffffff1916827bffffffffffffffffffffffffffffffffffffffffffffffffffffffff1916145b8061093e575061093d82612265565b5b9050919050565b606060008054610954906138ce565b80601f0160208091040260200160405190810160405280929190818152602001828054610980906138ce565b80156109cd5780601f106109a2576101008083540402835291602001916109cd565b820191906000526020600020905b8154815290600101906020018083116109b057829003601f168201915b5050505050905090565b60006109e2826122cf565b610a21576040517f08c379a0000000000000000000000000000000000000000000000000000000008152600401610a1890613972565b60405180910390fd5b6004600083815260200190815260200160002060009054906101000a900473ffffffffffffffffffffffffffffffffffffffff169050919050565b6000610a6782611514565b90508073ffffffffffffffffffffffffffffffffffffffff168373ffffffffffffffffffffffffffffffffffffffff161415610ad8576040517f08c379a0000000000000000000000000000000000000000000000000000000008152600401610acf90613a04565b60405180910390fd5b8073ffffffffffffffffffffffffffffffffffffffff16610af761233b565b73ffffffffffffffffffffffffffffffffffffffff161480610b265750610b2581610b2061233b565b611f3c565b5b610b65576040517f08c379a0000000000000000000000000000000000000000000000000000000008152600401610b5c90613a96565b60405180910390fd5b610b6f8383612343565b505050565b6000600860009054906101000a900473ffffffffffffffffffffffffffffffffffffffff1673ffffffffffffffffffffffffffffffffffffffff166370a08231306040518263ffffffff1660e01b8152600401610bd191906131f5565b60206040518083038186803b158015610be957600080fd5b505afa158015610bfd573d6000803e3d6000fd5b505050506040513d601f19601f82011682018060405250810190610c219190613acb565b11610c2b57600080fd5b60003411610c6e576040517f08c379a0000000000000000000000000000000000000000000000000000000008152600401610c6590613b6a565b60405180910390fd5b6000600860009054906101000a900473ffffffffffffffffffffffffffffffffffffffff1673ffffffffffffffffffffffffffffffffffffffff166370a08231306040518263ffffffff1660e01b8152600401610ccb91906131f5565b60206040518083038186803b158015610ce357600080fd5b505afa158015610cf7573d6000803e3d6000fd5b505050506040513d601f19601f82011682018060405250810190610d1b9190613acb565b11610d5b576040517f08c379a0000000000000000000000000000000000000000000000000000000008152600401610d5290613bfc565b60405180910390fd5b6000600660009054906101000a900460ff1660ff1634610d7b9190613c4b565b9050600860009054906101000a900473ffffffffffffffffffffffffffffffffffffffff1673ffffffffffffffffffffffffffffffffffffffff1663a9059cbb33836040518363ffffffff1660e01b8152600401610dda929190613ca5565b602060405180830381600087803b158015610df457600080fd5b505af1158015610e08573d6000803e3d6000fd5b505050506040513d601f19601f82011682018060405250810190610e2c9190613ce3565b5050565b600e60009054906101000a900461ffff1681565b610e55610e4f61233b565b826123fc565b610e94576040517f08c379a0000000000000000000000000000000000000000000000000000000008152600401610e8b90613d82565b60405180910390fd5b610e9f8383836124da565b505050565b60003373ffffffffffffffffffffffffffffffffffffffff16600c60009054906101000a900473ffffffffffffffffffffffffffffffffffffffff1673ffffffffffffffffffffffffffffffffffffffff1614610f36576040517f08c379a0000000000000000000000000000000000000000000000000000000008152600401610f2d90613dee565b60405180910390fd5b6000610f4183611514565b9050610f4e8130856124da565b6001915050919050565b600660009054906101000a900460ff1681565b600a60009054906101000a900473ffffffffffffffffffffffffffffffffffffffff1681565b610fac83838360405180602001604052806000815250611de8565b505050565b6000600960009054906101000a900473ffffffffffffffffffffffffffffffffffffffff1673ffffffffffffffffffffffffffffffffffffffff166370a08231306040518263ffffffff1660e01b815260040161100e91906131f5565b60206040518083038186803b15801561102657600080fd5b505afa15801561103a573d6000803e3d6000fd5b505050506040513d601f19601f8201168201806040525081019061105e9190613acb565b1161106857600080fd5b6000600a60009054906101000a900473ffffffffffffffffffffffffffffffffffffffff1673ffffffffffffffffffffffffffffffffffffffff166370a08231306040518263ffffffff1660e01b81526004016110c591906131f5565b60206040518083038186803b1580156110dd57600080fd5b505afa1580156110f1573d6000803e3d6000fd5b505050506040513d601f19601f820116820180604052508101906111159190613acb565b1161111f57600080fd5b6000600860009054906101000a900473ffffffffffffffffffffffffffffffffffffffff1673ffffffffffffffffffffffffffffffffffffffff166370a08231336040518263ffffffff1660e01b815260040161117c91906131f5565b60206040518083038186803b15801561119457600080fd5b505afa1580156111a8573d6000803e3d6000fd5b505050506040513d601f19601f820116820180604052508101906111cc9190613acb565b90508281101580156111de5750600083115b61121d576040517f08c379a000000000000000000000000000000000000000000000000000000000815260040161121490613e80565b60405180910390fd5b60008260ff161480611232575060018260ff16145b611271576040517f08c379a000000000000000000000000000000000000000000000000000000000815260040161126890613f12565b60405180910390fd5b600860009054906101000a900473ffffffffffffffffffffffffffffffffffffffff1673ffffffffffffffffffffffffffffffffffffffff166323b872dd3330866040518463ffffffff1660e01b81526004016112d093929190613f32565b602060405180830381600087803b1580156112ea57600080fd5b505af11580156112fe573d6000803e3d6000fd5b505050506040513d601f19601f820116820180604052508101906113229190613ce3565b50600b60003373ffffffffffffffffffffffffffffffffffffffff1673ffffffffffffffffffffffffffffffffffffffff16815260200190815260200160002060405180606001604052808581526020018460ff1681526020016007544261138a9190613f69565b81525090806001815401808255809150506001900390600052602060002090600302016000909190919091506000820151816000015560208201518160010160006101000a81548160ff021916908360ff160217905550604082015181600201555050505050565b600f80546113ff906138ce565b80601f016020809104026020016040519081016040528092919081815260200182805461142b906138ce565b80156114785780601f1061144d57610100808354040283529160200191611478565b820191906000526020600020905b81548152906001019060200180831161145b57829003601f168201915b505050505081565b600080600061148d611f1d565b9050808461ffff1611156114d6576040517f08c379a00000000000000000000000000000000000000000000000000000000081526004016114cd9061400b565b60405180910390fd5b6114df84612736565b92506114ea8461274c565b9150808361ffff1611156114fd57600092505b808261ffff16111561150e57600091505b50915091565b6000806002600084815260200190815260200160002060009054906101000a900473ffffffffffffffffffffffffffffffffffffffff169050600073ffffffffffffffffffffffffffffffffffffffff168173ffffffffffffffffffffffffffffffffffffffff1614156115bd576040517f08c379a00000000000000000000000000000000000000000000000000000000081526004016115b49061409d565b60405180910390fd5b80915050919050565b6060600f6115d38361276a565b6040516020016115e492919061418d565b6040516020818303038152906040529050919050565b600660039054906101000a900460ff1681565b60008073ffffffffffffffffffffffffffffffffffffffff168273ffffffffffffffffffffffffffffffffffffffff16141561167e576040517f08c379a000000000000000000000000000000000000000000000000000000000815260040161167590614223565b60405180910390fd5b600360008373ffffffffffffffffffffffffffffffffffffffff1673ffffffffffffffffffffffffffffffffffffffff168152602001908152602001600020549050919050565b6000806116d0611f1d565b9050808361ffff161115611719576040517f08c379a00000000000000000000000000000000000000000000000000000000081526004016117109061400b565b60405180910390fd5b60006002846117289190614272565b61ffff1614156117465760028361173f91906142a3565b9150611762565b600260018461175591906142d4565b61175f91906142a3565b91505b50919050565b600960009054906101000a900473ffffffffffffffffffffffffffffffffffffffff1681565b60005b600b60003373ffffffffffffffffffffffffffffffffffffffff1673ffffffffffffffffffffffffffffffffffffffff16815260200190815260200160002080549050811015611bac576000600b60003373ffffffffffffffffffffffffffffffffffffffff1673ffffffffffffffffffffffffffffffffffffffff168152602001908152602001600020828154811061182e5761182d614308565b5b9060005260206000209060030201604051806060016040529081600082015481526020016001820160009054906101000a900460ff1660ff1660ff16815260200160028201548152505090504281604001511015611b98576000816020015160ff1614156119cd576000600660019054906101000a900460ff1660ff1682600001516118ba9190614337565b90506118c982600001516128f3565b600960009054906101000a900473ffffffffffffffffffffffffffffffffffffffff1673ffffffffffffffffffffffffffffffffffffffff1663a9059cbb33836040518363ffffffff1660e01b8152600401611926929190613ca5565b602060405180830381600087803b15801561194057600080fd5b505af1158015611954573d6000803e3d6000fd5b505050506040513d601f19601f820116820180604052508101906119789190613ce3565b503373ffffffffffffffffffffffffffffffffffffffff167f9fd4a9248425079a398923cd20daa8e0c103907fb89db4707cb4f2cc343f9546826040516119bf91906134e2565b60405180910390a250611b11565b6001816020015160ff161415611b10576000600660029054906101000a900460ff1660ff168260000151611a019190614337565b9050611a1082600001516128f3565b600a60009054906101000a900473ffffffffffffffffffffffffffffffffffffffff1673ffffffffffffffffffffffffffffffffffffffff1663a9059cbb33836040518363ffffffff1660e01b8152600401611a6d929190613ca5565b602060405180830381600087803b158015611a8757600080fd5b505af1158015611a9b573d6000803e3d6000fd5b505050506040513d601f19601f82011682018060405250810190611abf9190613ce3565b503373ffffffffffffffffffffffffffffffffffffffff167fd62aeb2df4f1c7a0c59e15c0dca22ccbcbe42ad0d0dbf99a22c0ad2551c5a15582604051611b0691906134e2565b60405180910390a2505b5b600b60003373ffffffffffffffffffffffffffffffffffffffff1673ffffffffffffffffffffffffffffffffffffffff1681526020019081526020016000208281548110611b6257611b61614308565b5b90600052602060002090600302016000808201600090556001820160006101000a81549060ff0219169055600282016000905550505b508080611ba490614368565b915050611791565b50565b600860009054906101000a900473ffffffffffffffffffffffffffffffffffffffff1681565b606060018054611be4906138ce565b80601f0160208091040260200160405190810160405280929190818152602001828054611c10906138ce565b8015611c5d5780601f10611c3257610100808354040283529160200191611c5d565b820191906000526020600020905b815481529060010190602001808311611c4057829003601f168201915b5050505050905090565b611c6f61233b565b73ffffffffffffffffffffffffffffffffffffffff168273ffffffffffffffffffffffffffffffffffffffff161415611cdd576040517f08c379a0000000000000000000000000000000000000000000000000000000008152600401611cd4906143fd565b60405180910390fd5b8060056000611cea61233b565b73ffffffffffffffffffffffffffffffffffffffff1673ffffffffffffffffffffffffffffffffffffffff16815260200190815260200160002060008473ffffffffffffffffffffffffffffffffffffffff1673ffffffffffffffffffffffffffffffffffffffff16815260200190815260200160002060006101000a81548160ff0219169083151502179055508173ffffffffffffffffffffffffffffffffffffffff16611d9761233b565b73ffffffffffffffffffffffffffffffffffffffff167f17307eab39ab6107e8899845ad3d59bd9653f200f220920489ca2b5937696c3183604051611ddc919061307b565b60405180910390a35050565b611df9611df361233b565b836123fc565b611e38576040517f08c379a0000000000000000000000000000000000000000000000000000000008152600401611e2f90613d82565b60405180910390fd5b611e4484848484612a30565b50505050565b60075481565b600660019054906101000a900460ff1681565b6060611e6e826122cf565b611ead576040517f08c379a0000000000000000000000000000000000000000000000000000000008152600401611ea49061448f565b60405180910390fd5b6000611eb7612a8c565b90506000815111611ed75760405180602001604052806000815250611f02565b80611ee184612aa3565b604051602001611ef29291906144af565b6040516020818303038152906040525b915050919050565b600660029054906101000a900460ff1681565b6000611f29600d612c04565b905090565b600047905090565b60105481565b6000600560008473ffffffffffffffffffffffffffffffffffffffff1673ffffffffffffffffffffffffffffffffffffffff16815260200190815260200160002060008373ffffffffffffffffffffffffffffffffffffffff1673ffffffffffffffffffffffffffffffffffffffff16815260200190815260200160002060009054906101000a900460ff16905092915050565b60003373ffffffffffffffffffffffffffffffffffffffff16600c60009054906101000a900473ffffffffffffffffffffffffffffffffffffffff1673ffffffffffffffffffffffffffffffffffffffff1614612062576040517f08c379a000000000000000000000000000000000000000000000000000000000815260040161205990613dee565b60405180910390fd5b600e60009054906101000a900461ffff1661ffff16612081600d612c04565b106120c1576040517f08c379a00000000000000000000000000000000000000000000000000000000081526004016120b890614545565b60405180910390fd5b6120cb600d612c12565b60006120d7600d612c04565b90506120e38382612c28565b80915050919050565b6120f4612fa5565b60008060005b600b60003373ffffffffffffffffffffffffffffffffffffffff1673ffffffffffffffffffffffffffffffffffffffff16815260200190815260200160002080549050811015612242576000600b60003373ffffffffffffffffffffffffffffffffffffffff1673ffffffffffffffffffffffffffffffffffffffff168152602001908152602001600020828154811061219757612196614308565b5b9060005260206000209060030201604051806060016040529081600082015481526020016001820160009054906101000a900460ff1660ff1660ff16815260200160028201548152505090506000816020015160ff16141561220a578060000151846122039190613f69565b935061222e565b6001816020015160ff16141561222d5780600001518361222a9190613f69565b92505b5b50808061223a90614368565b9150506120fa565b506000604051806040016040528084815260200183815250905080935050505090565b60007f01ffc9a7000000000000000000000000000000000000000000000000000000007bffffffffffffffffffffffffffffffffffffffffffffffffffffffff1916827bffffffffffffffffffffffffffffffffffffffffffffffffffffffff1916149050919050565b60008073ffffffffffffffffffffffffffffffffffffffff166002600084815260200190815260200160002060009054906101000a900473ffffffffffffffffffffffffffffffffffffffff1673ffffffffffffffffffffffffffffffffffffffff1614159050919050565b600033905090565b816004600083815260200190815260200160002060006101000a81548173ffffffffffffffffffffffffffffffffffffffff021916908373ffffffffffffffffffffffffffffffffffffffff160217905550808273ffffffffffffffffffffffffffffffffffffffff166123b683611514565b73ffffffffffffffffffffffffffffffffffffffff167f8c5be1e5ebec7d5bd14f71427d1e84f3dd0314c0f7b2291e5b200ac8c7c3b92560405160405180910390a45050565b6000612407826122cf565b612446576040517f08c379a000000000000000000000000000000000000000000000000000000000815260040161243d906145d7565b60405180910390fd5b600061245183611514565b90508073ffffffffffffffffffffffffffffffffffffffff168473ffffffffffffffffffffffffffffffffffffffff1614806124c057508373ffffffffffffffffffffffffffffffffffffffff166124a8846109d7565b73ffffffffffffffffffffffffffffffffffffffff16145b806124d157506124d08185611f3c565b5b91505092915050565b8273ffffffffffffffffffffffffffffffffffffffff166124fa82611514565b73ffffffffffffffffffffffffffffffffffffffff1614612550576040517f08c379a000000000000000000000000000000000000000000000000000000000815260040161254790614669565b60405180910390fd5b600073ffffffffffffffffffffffffffffffffffffffff168273ffffffffffffffffffffffffffffffffffffffff1614156125c0576040517f08c379a00000000000000000000000000000000000000000000000000000000081526004016125b7906146fb565b60405180910390fd5b6125cb838383612df6565b6125d6600082612343565b6001600360008573ffffffffffffffffffffffffffffffffffffffff1673ffffffffffffffffffffffffffffffffffffffff1681526020019081526020016000206000828254612626919061471b565b925050819055506001600360008473ffffffffffffffffffffffffffffffffffffffff1673ffffffffffffffffffffffffffffffffffffffff168152602001908152602001600020600082825461267d9190613f69565b92505081905550816002600083815260200190815260200160002060006101000a81548173ffffffffffffffffffffffffffffffffffffffff021916908373ffffffffffffffffffffffffffffffffffffffff160217905550808273ffffffffffffffffffffffffffffffffffffffff168473ffffffffffffffffffffffffffffffffffffffff167fddf252ad1be2c89b69c2b068fc378daa952ba7f163c4a11628f55a4df523b3ef60405160405180910390a4505050565b6000600282612745919061474f565b9050919050565b6000600161275983612736565b612763919061478b565b9050919050565b606060008214156127b2576040518060400160405280600181526020017f300000000000000000000000000000000000000000000000000000000000000081525090506128ee565b600082905060005b600082146127e45780806127cd90614368565b915050600a826127dd9190614337565b91506127ba565b60008167ffffffffffffffff811115612800576127ff6135eb565b5b6040519080825280601f01601f1916602001820160405280156128325781602001600182028036833780820191505090505b50905060008290505b600086146128e657600181612850919061471b565b90506000600a80886128629190614337565b61286c9190613c4b565b87612877919061471b565b603061288391906147c3565b905060008160f81b9050808484815181106128a1576128a0614308565b5b60200101907effffffffffffffffffffffffffffffffffffffffffffffffffffffffffffff1916908160001a905350600a886128dd9190614337565b9750505061283b565b819450505050505b919050565b60006064600660039054906101000a900460ff1660ff16836129159190613c4b565b61291f9190614337565b8261292a919061471b565b9050600860009054906101000a900473ffffffffffffffffffffffffffffffffffffffff1673ffffffffffffffffffffffffffffffffffffffff1663a9059cbb33836040518363ffffffff1660e01b8152600401612989929190613ca5565b602060405180830381600087803b1580156129a357600080fd5b505af11580156129b7573d6000803e3d6000fd5b505050506040513d601f19601f820116820180604052508101906129db9190613ce3565b503373ffffffffffffffffffffffffffffffffffffffff167f11acec8ea502f5c875e157dd1a17389990a9350450464db61ef112521c0d87518284604051612a249291906147fa565b60405180910390a25050565b612a3b8484846124da565b612a4784848484612dfb565b612a86576040517f08c379a0000000000000000000000000000000000000000000000000000000008152600401612a7d90614895565b60405180910390fd5b50505050565b606060405180602001604052806000815250905090565b60606000821415612aeb576040518060400160405280600181526020017f30000000000000000000000000000000000000000000000000000000000000008152509050612bff565b600082905060005b60008214612b1d578080612b0690614368565b915050600a82612b169190614337565b9150612af3565b60008167ffffffffffffffff811115612b3957612b386135eb565b5b6040519080825280601f01601f191660200182016040528015612b6b5781602001600182028036833780820191505090505b5090505b60008514612bf857600182612b84919061471b565b9150600a85612b9391906148b5565b6030612b9f9190613f69565b60f81b818381518110612bb557612bb4614308565b5b60200101907effffffffffffffffffffffffffffffffffffffffffffffffffffffffffffff1916908160001a905350600a85612bf19190614337565b9450612b6f565b8093505050505b919050565b600081600001549050919050565b6001816000016000828254019250508190555050565b600073ffffffffffffffffffffffffffffffffffffffff168273ffffffffffffffffffffffffffffffffffffffff161415612c98576040517f08c379a0000000000000000000000000000000000000000000000000000000008152600401612c8f90614932565b60405180910390fd5b612ca1816122cf565b15612ce1576040517f08c379a0000000000000000000000000000000000000000000000000000000008152600401612cd89061499e565b60405180910390fd5b612ced60008383612df6565b6001600360008473ffffffffffffffffffffffffffffffffffffffff1673ffffffffffffffffffffffffffffffffffffffff1681526020019081526020016000206000828254612d3d9190613f69565b92505081905550816002600083815260200190815260200160002060006101000a81548173ffffffffffffffffffffffffffffffffffffffff021916908373ffffffffffffffffffffffffffffffffffffffff160217905550808273ffffffffffffffffffffffffffffffffffffffff16600073ffffffffffffffffffffffffffffffffffffffff167fddf252ad1be2c89b69c2b068fc378daa952ba7f163c4a11628f55a4df523b3ef60405160405180910390a45050565b505050565b6000612e1c8473ffffffffffffffffffffffffffffffffffffffff16612f92565b15612f85578373ffffffffffffffffffffffffffffffffffffffff1663150b7a02612e4561233b565b8786866040518563ffffffff1660e01b8152600401612e679493929190614a13565b602060405180830381600087803b158015612e8157600080fd5b505af1925050508015612eb257506040513d601f19601f82011682018060405250810190612eaf9190614a74565b60015b612f35573d8060008114612ee2576040519150601f19603f3d011682016040523d82523d6000602084013e612ee7565b606091505b50600081511415612f2d576040517f08c379a0000000000000000000000000000000000000000000000000000000008152600401612f2490614895565b60405180910390fd5b805181602001fd5b63150b7a0260e01b7bffffffffffffffffffffffffffffffffffffffffffffffffffffffff1916817bffffffffffffffffffffffffffffffffffffffffffffffffffffffff191614915050612f8a565b600190505b949350505050565b600080823b905060008111915050919050565b6040518060400160405280600290602082028036833780820191505090505090565b6000604051905090565b600080fd5b600080fd5b60007fffffffff0000000000000000000000000000000000000000000000000000000082169050919050565b61301081612fdb565b811461301b57600080fd5b50565b60008135905061302d81613007565b92915050565b60006020828403121561304957613048612fd1565b5b60006130578482850161301e565b91505092915050565b60008115159050919050565b61307581613060565b82525050565b6000602082019050613090600083018461306c565b92915050565b600081519050919050565b600082825260208201905092915050565b60005b838110156130d05780820151818401526020810190506130b5565b838111156130df576000848401525b50505050565b6000601f19601f8301169050919050565b600061310182613096565b61310b81856130a1565b935061311b8185602086016130b2565b613124816130e5565b840191505092915050565b6000602082019050818103600083015261314981846130f6565b905092915050565b6000819050919050565b61316481613151565b811461316f57600080fd5b50565b6000813590506131818161315b565b92915050565b60006020828403121561319d5761319c612fd1565b5b60006131ab84828501613172565b91505092915050565b600073ffffffffffffffffffffffffffffffffffffffff82169050919050565b60006131df826131b4565b9050919050565b6131ef816131d4565b82525050565b600060208201905061320a60008301846131e6565b92915050565b613219816131d4565b811461322457600080fd5b50565b60008135905061323681613210565b92915050565b6000806040838503121561325357613252612fd1565b5b600061326185828601613227565b925050602061327285828601613172565b9150509250929050565b600061ffff82169050919050565b6132938161327c565b82525050565b60006020820190506132ae600083018461328a565b92915050565b6000806000606084860312156132cd576132cc612fd1565b5b60006132db86828701613227565b93505060206132ec86828701613227565b92505060406132fd86828701613172565b9150509250925092565b600060ff82169050919050565b61331d81613307565b82525050565b60006020820190506133386000830184613314565b92915050565b6000819050919050565b600061336361335e613359846131b4565b61333e565b6131b4565b9050919050565b600061337582613348565b9050919050565b60006133878261336a565b9050919050565b6133978161337c565b82525050565b60006020820190506133b2600083018461338e565b92915050565b6133c181613307565b81146133cc57600080fd5b50565b6000813590506133de816133b8565b92915050565b600080604083850312156133fb576133fa612fd1565b5b600061340985828601613172565b925050602061341a858286016133cf565b9150509250929050565b61342d8161327c565b811461343857600080fd5b50565b60008135905061344a81613424565b92915050565b60006020828403121561346657613465612fd1565b5b60006134748482850161343b565b91505092915050565b6000604082019050613492600083018561328a565b61349f602083018461328a565b9392505050565b6000602082840312156134bc576134bb612fd1565b5b60006134ca84828501613227565b91505092915050565b6134dc81613151565b82525050565b60006020820190506134f760008301846134d3565b92915050565b60006135088261336a565b9050919050565b613518816134fd565b82525050565b6000602082019050613533600083018461350f565b92915050565b60006135448261336a565b9050919050565b61355481613539565b82525050565b600060208201905061356f600083018461354b565b92915050565b61357e81613060565b811461358957600080fd5b50565b60008135905061359b81613575565b92915050565b600080604083850312156135b8576135b7612fd1565b5b60006135c685828601613227565b92505060206135d78582860161358c565b9150509250929050565b600080fd5b600080fd5b7f4e487b7100000000000000000000000000000000000000000000000000000000600052604160045260246000fd5b613623826130e5565b810181811067ffffffffffffffff82111715613642576136416135eb565b5b80604052505050565b6000613655612fc7565b9050613661828261361a565b919050565b600067ffffffffffffffff821115613681576136806135eb565b5b61368a826130e5565b9050602081019050919050565b82818337600083830152505050565b60006136b96136b484613666565b61364b565b9050828152602081018484840111156136d5576136d46135e6565b5b6136e0848285613697565b509392505050565b600082601f8301126136fd576136fc6135e1565b5b813561370d8482602086016136a6565b91505092915050565b600080600080608085870312156137305761372f612fd1565b5b600061373e87828801613227565b945050602061374f87828801613227565b935050604061376087828801613172565b925050606085013567ffffffffffffffff81111561378157613780612fd6565b5b61378d878288016136e8565b91505092959194509250565b600080604083850312156137b0576137af612fd1565b5b60006137be85828601613227565b92505060206137cf85828601613227565b9150509250929050565b600060029050919050565b600081905092915050565b6000819050919050565b61380281613151565b82525050565b600061381483836137f9565b60208301905092915050565b6000602082019050919050565b613836816137d9565b61384081846137e4565b925061384b826137ef565b8060005b8381101561387c5781516138638782613808565b965061386e83613820565b92505060018101905061384f565b505050505050565b6000604082019050613899600083018461382d565b92915050565b7f4e487b7100000000000000000000000000000000000000000000000000000000600052602260045260246000fd5b600060028204905060018216806138e657607f821691505b602082108114156138fa576138f961389f565b5b50919050565b7f4552433732313a20617070726f76656420717565727920666f72206e6f6e657860008201527f697374656e7420746f6b656e0000000000000000000000000000000000000000602082015250565b600061395c602c836130a1565b915061396782613900565b604082019050919050565b6000602082019050818103600083015261398b8161394f565b9050919050565b7f4552433732313a20617070726f76616c20746f2063757272656e74206f776e6560008201527f7200000000000000000000000000000000000000000000000000000000000000602082015250565b60006139ee6021836130a1565b91506139f982613992565b604082019050919050565b60006020820190508181036000830152613a1d816139e1565b9050919050565b7f4552433732313a20617070726f76652063616c6c6572206973206e6f74206f7760008201527f6e6572206e6f7220617070726f76656420666f7220616c6c0000000000000000602082015250565b6000613a806038836130a1565b9150613a8b82613a24565b604082019050919050565b60006020820190508181036000830152613aaf81613a73565b9050919050565b600081519050613ac58161315b565b92915050565b600060208284031215613ae157613ae0612fd1565b5b6000613aef84828501613ab6565b91505092915050565b7f796f75206861766520746f2073656e6420736f6d652045544820746f2067657460008201527f204b696e67646f6d53656564636f696e00000000000000000000000000000000602082015250565b6000613b546030836130a1565b9150613b5f82613af8565b604082019050919050565b60006020820190508181036000830152613b8381613b47565b9050919050565b7f75686f682c2073727920692063616e27742073656e6420616e79206d6f72652060008201527f4b696e67646f6d53656564636f696e0000000000000000000000000000000000602082015250565b6000613be6602f836130a1565b9150613bf182613b8a565b604082019050919050565b60006020820190508181036000830152613c1581613bd9565b9050919050565b7f4e487b7100000000000000000000000000000000000000000000000000000000600052601160045260246000fd5b6000613c5682613151565b9150613c6183613151565b9250817fffffffffffffffffffffffffffffffffffffffffffffffffffffffffffffffff0483118215151615613c9a57613c99613c1c565b5b828202905092915050565b6000604082019050613cba60008301856131e6565b613cc760208301846134d3565b9392505050565b600081519050613cdd81613575565b92915050565b600060208284031215613cf957613cf8612fd1565b5b6000613d0784828501613cce565b91505092915050565b7f4552433732313a207472616e736665722063616c6c6572206973206e6f74206f60008201527f776e6572206e6f7220617070726f766564000000000000000000000000000000602082015250565b6000613d6c6031836130a1565b9150613d7782613d10565b604082019050919050565b60006020820190508181036000830152613d9b81613d5f565b9050919050565b7f666f6f6b206f6666000000000000000000000000000000000000000000000000600082015250565b6000613dd86008836130a1565b9150613de382613da2565b602082019050919050565b60006020820190508181036000830152613e0781613dcb565b9050919050565b7f796f7520646f6e2774206861766520656e6f7567682073656564636f696e732160008201527f20627579206f7220747261646520736f6d650000000000000000000000000000602082015250565b6000613e6a6032836130a1565b9150613e7582613e0e565b604082019050919050565b60006020820190508181036000830152613e9981613e5d565b9050919050565b7f746172676574436f696e2068617320746f20626520303d61747461636b636f6960008201527f6e206f7220313d646566656e7365636f696e0000000000000000000000000000602082015250565b6000613efc6032836130a1565b9150613f0782613ea0565b604082019050919050565b60006020820190508181036000830152613f2b81613eef565b9050919050565b6000606082019050613f4760008301866131e6565b613f5460208301856131e6565b613f6160408301846134d3565b949350505050565b6000613f7482613151565b9150613f7f83613151565b9250827fffffffffffffffffffffffffffffffffffffffffffffffffffffffffffffffff03821115613fb457613fb3613c1c565b5b828201905092915050565b7f6964206973206e6f74207965742061737369676e656400000000000000000000600082015250565b6000613ff56016836130a1565b915061400082613fbf565b602082019050919050565b6000602082019050818103600083015261402481613fe8565b9050919050565b7f4552433732313a206f776e657220717565727920666f72206e6f6e657869737460008201527f656e7420746f6b656e0000000000000000000000000000000000000000000000602082015250565b60006140876029836130a1565b91506140928261402b565b604082019050919050565b600060208201905081810360008301526140b68161407a565b9050919050565b600081905092915050565b60008190508160005260206000209050919050565b600081546140ea816138ce565b6140f481866140bd565b9450600182166000811461410f576001811461412057614153565b60ff19831686528186019350614153565b614129856140c8565b60005b8381101561414b5781548189015260018201915060208101905061412c565b838801955050505b50505092915050565b600061416782613096565b61417181856140bd565b93506141818185602086016130b2565b80840191505092915050565b600061419982856140dd565b91506141a5828461415c565b91508190509392505050565b7f4552433732313a2062616c616e636520717565727920666f7220746865207a6560008201527f726f206164647265737300000000000000000000000000000000000000000000602082015250565b600061420d602a836130a1565b9150614218826141b1565b604082019050919050565b6000602082019050818103600083015261423c81614200565b9050919050565b7f4e487b7100000000000000000000000000000000000000000000000000000000600052601260045260246000fd5b600061427d8261327c565b91506142888361327c565b92508261429857614297614243565b5b828206905092915050565b60006142ae8261327c565b91506142b98361327c565b9250826142c9576142c8614243565b5b828204905092915050565b60006142df8261327c565b91506142ea8361327c565b9250828210156142fd576142fc613c1c565b5b828203905092915050565b7f4e487b7100000000000000000000000000000000000000000000000000000000600052603260045260246000fd5b600061434282613151565b915061434d83613151565b92508261435d5761435c614243565b5b828204905092915050565b600061437382613151565b91507fffffffffffffffffffffffffffffffffffffffffffffffffffffffffffffffff8214156143a6576143a5613c1c565b5b600182019050919050565b7f4552433732313a20617070726f766520746f2063616c6c657200000000000000600082015250565b60006143e76019836130a1565b91506143f2826143b1565b602082019050919050565b60006020820190508181036000830152614416816143da565b9050919050565b7f4552433732314d657461646174613a2055524920717565727920666f72206e6f60008201527f6e6578697374656e7420746f6b656e0000000000000000000000000000000000602082015250565b6000614479602f836130a1565b91506144848261441d565b604082019050919050565b600060208201905081810360008301526144a88161446c565b9050919050565b60006144bb828561415c565b91506144c7828461415c565b91508190509392505050565b7f75686f682c206e6f207469746c657320617661696c61626c6520616e796d6f7260008201527f6500000000000000000000000000000000000000000000000000000000000000602082015250565b600061452f6021836130a1565b915061453a826144d3565b604082019050919050565b6000602082019050818103600083015261455e81614522565b9050919050565b7f4552433732313a206f70657261746f7220717565727920666f72206e6f6e657860008201527f697374656e7420746f6b656e0000000000000000000000000000000000000000602082015250565b60006145c1602c836130a1565b91506145cc82614565565b604082019050919050565b600060208201905081810360008301526145f0816145b4565b9050919050565b7f4552433732313a207472616e73666572206f6620746f6b656e2074686174206960008201527f73206e6f74206f776e0000000000000000000000000000000000000000000000602082015250565b60006146536029836130a1565b915061465e826145f7565b604082019050919050565b6000602082019050818103600083015261468281614646565b9050919050565b7f4552433732313a207472616e7366657220746f20746865207a65726f2061646460008201527f7265737300000000000000000000000000000000000000000000000000000000602082015250565b60006146e56024836130a1565b91506146f082614689565b604082019050919050565b60006020820190508181036000830152614714816146d8565b9050919050565b600061472682613151565b915061473183613151565b92508282101561474457614743613c1c565b5b828203905092915050565b600061475a8261327c565b91506147658361327c565b92508161ffff04831182151516156147805761477f613c1c565b5b828202905092915050565b60006147968261327c565b91506147a18361327c565b92508261ffff038211156147b8576147b7613c1c565b5b828201905092915050565b60006147ce82613307565b91506147d983613307565b92508260ff038211156147ef576147ee613c1c565b5b828201905092915050565b600060408201905061480f60008301856134d3565b61481c60208301846134d3565b9392505050565b7f4552433732313a207472616e7366657220746f206e6f6e20455243373231526560008201527f63656976657220696d706c656d656e7465720000000000000000000000000000602082015250565b600061487f6032836130a1565b915061488a82614823565b604082019050919050565b600060208201905081810360008301526148ae81614872565b9050919050565b60006148c082613151565b91506148cb83613151565b9250826148db576148da614243565b5b828206905092915050565b7f4552433732313a206d696e7420746f20746865207a65726f2061646472657373600082015250565b600061491c6020836130a1565b9150614927826148e6565b602082019050919050565b6000602082019050818103600083015261494b8161490f565b9050919050565b7f4552433732313a20746f6b656e20616c7265616479206d696e74656400000000600082015250565b6000614988601c836130a1565b915061499382614952565b602082019050919050565b600060208201905081810360008301526149b78161497b565b9050919050565b600081519050919050565b600082825260208201905092915050565b60006149e5826149be565b6149ef81856149c9565b93506149ff8185602086016130b2565b614a08816130e5565b840191505092915050565b6000608082019050614a2860008301876131e6565b614a3560208301866131e6565b614a4260408301856134d3565b8181036060830152614a5481846149da565b905095945050505050565b600081519050614a6e81613007565b92915050565b600060208284031215614a8a57614a89612fd1565b5b6000614a9884828501614a5f565b9150509291505056fea2646970667358221220f98c5071ac62dfdddbae1b46fd741e81131219f57dd55abdacf847ee19f38b7d64736f6c6343000809003368747470733a2f2f7777772e6b696e67646f6d63727970746f2e636f6d2f7469746c65732f",
  "immutableReferences": {},
  "source": "pragma solidity ^0.8;\n\nimport \"./KingdomTitles.sol\";\n\ncontract KingdomGameMechanic is KingdomTitles {\n    uint public attackCooldown = 60 seconds;\n\n    constructor (KingdomSeedCoin kgdsc, KingdomAttackCoin kgdat, KingdomDefenseCoin kgddf) KingdomTitles(kgdsc, kgdat, kgddf) {\n\n    }\n\n    event Attack(address attacker, address defender, \n                uint16 attacker_id, uint16 defender_id, \n                uint32 attackPoints, uint32 defensePoints,\n                bool won);\n\n    event Sacked(address attacker, address defender, \n                uint16 new_attacker_id, uint16 new_looser_id);\n\n    struct KingdomTitle {\n        uint32 attackPoints;\n        uint32 defensePoints;\n        uint readyTimeAttack;\n    }\n\n    function _getLeftChild(uint16 id) internal pure returns (uint16 left) {\n        return id * 2;\n    }\n\n    function _getRightChild(uint16 id) internal pure returns (uint16 right) {\n        return _getLeftChild(id) + 1;\n    }\n\n    function getServants(uint16 id) public view returns (uint16 left, uint16 right) {\n        uint currentPos = currentPosition();\n        require(id <= currentPos, \"id is not yet assigned\");\n\n        // binary tree\n        left = _getLeftChild(id);\n        right = _getRightChild(id);\n\n        // check if they even exist yet\n        \n        if (left > currentPos) {\n            left = 0;\n        }\n        if (right > currentPos) {\n            right = 0;\n        }\n        return (left, right);\n    }\n\n    function getBoss(uint16 id) public view returns (uint16 bossid) {\n        uint currentPos = currentPosition();\n        require(id <= currentPos, \"id is not yet assigned\");\n\n        // remember binary tree\n        if (id % 2 == 0) {\n            // if even\n            bossid = id / 2;\n        }\n        else {\n            // if odd\n            bossid = (id - 1) / 2;\n        }\n        return bossid;\n    }\n\n\n}",
  "sourcePath": "/home/justin/code/solidity-course/kingdom/contracts/KingdomGameMechanic.sol",
  "compiler": {
    "name": "solc",
    "version": "0.8.9+commit.e5eed63a.Emscripten.clang"
  },
  "schemaVersion": "3.4.3",
  "updatedAt": "2021-10-22T10:06:38.404Z",
  "devdoc": {
    "kind": "dev",
    "methods": {
      "approve(address,uint256)": {
        "details": "See {IERC721-approve}."
      },
      "balanceOf(address)": {
        "details": "See {IERC721-balanceOf}."
      },
      "getApproved(uint256)": {
        "details": "See {IERC721-getApproved}."
      },
      "isApprovedForAll(address,address)": {
        "details": "See {IERC721-isApprovedForAll}."
      },
      "name()": {
        "details": "See {IERC721Metadata-name}."
      },
      "ownerOf(uint256)": {
        "details": "See {IERC721-ownerOf}."
      },
      "safeTransferFrom(address,address,uint256)": {
        "details": "See {IERC721-safeTransferFrom}."
      },
      "safeTransferFrom(address,address,uint256,bytes)": {
        "details": "See {IERC721-safeTransferFrom}."
      },
      "setApprovalForAll(address,bool)": {
        "details": "See {IERC721-setApprovalForAll}."
      },
      "supportsInterface(bytes4)": {
        "details": "See {IERC165-supportsInterface}."
      },
      "symbol()": {
        "details": "See {IERC721Metadata-symbol}."
      },
      "tokenURI(uint256)": {
        "details": "See {IERC721Metadata-tokenURI}."
      },
      "transferFrom(address,address,uint256)": {
        "details": "See {IERC721-transferFrom}."
      }
    },
    "version": 1
  },
  "userdoc": {
    "kind": "user",
    "methods": {},
    "version": 1
  }
}