{
  "contractName": "KingdomBank",
  "abi": [
    {
      "inputs": [
        {
          "internalType": "contract KingdomSeedCoin",
          "name": "_kgdsc",
          "type": "address"
        },
        {
          "internalType": "contract KingdomAttackCoin",
          "name": "_kgdat",
          "type": "address"
        },
        {
          "internalType": "contract KingdomDefenseCoin",
          "name": "_kgddf",
          "type": "address"
        }
      ],
      "stateMutability": "nonpayable",
      "type": "constructor"
    },
    {
      "anonymous": false,
      "inputs": [
        {
          "indexed": true,
          "internalType": "address",
          "name": "_to",
          "type": "address"
        },
        {
          "indexed": false,
          "internalType": "uint256",
          "name": "_amount",
          "type": "uint256"
        }
      ],
      "name": "HarvestAttackPoints",
      "type": "event"
    },
    {
      "anonymous": false,
      "inputs": [
        {
          "indexed": true,
          "internalType": "address",
          "name": "_to",
          "type": "address"
        },
        {
          "indexed": false,
          "internalType": "uint256",
          "name": "_amount",
          "type": "uint256"
        }
      ],
      "name": "HarvestDefensePoints",
      "type": "event"
    },
    {
      "anonymous": false,
      "inputs": [
        {
          "indexed": true,
          "internalType": "address",
          "name": "_to",
          "type": "address"
        },
        {
          "indexed": false,
          "internalType": "uint256",
          "name": "_amount",
          "type": "uint256"
        }
      ],
      "name": "HarvestRemainingSeedCoins",
      "type": "event"
    },
    {
      "inputs": [],
      "name": "exchangeRate",
      "outputs": [
        {
          "internalType": "uint8",
          "name": "",
          "type": "uint8"
        }
      ],
      "stateMutability": "view",
      "type": "function"
    },
    {
      "inputs": [],
      "name": "exchangeRate_Attackpoints",
      "outputs": [
        {
          "internalType": "uint8",
          "name": "",
          "type": "uint8"
        }
      ],
      "stateMutability": "view",
      "type": "function"
    },
    {
      "inputs": [],
      "name": "exchangeRate_Burnpct",
      "outputs": [
        {
          "internalType": "uint8",
          "name": "",
          "type": "uint8"
        }
      ],
      "stateMutability": "view",
      "type": "function"
    },
    {
      "inputs": [],
      "name": "exchangeRate_Defensepoints",
      "outputs": [
        {
          "internalType": "uint8",
          "name": "",
          "type": "uint8"
        }
      ],
      "stateMutability": "view",
      "type": "function"
    },
    {
      "inputs": [],
      "name": "kgdat",
      "outputs": [
        {
          "internalType": "contract KingdomAttackCoin",
          "name": "",
          "type": "address"
        }
      ],
      "stateMutability": "view",
      "type": "function"
    },
    {
      "inputs": [],
      "name": "kgddf",
      "outputs": [
        {
          "internalType": "contract KingdomDefenseCoin",
          "name": "",
          "type": "address"
        }
      ],
      "stateMutability": "view",
      "type": "function"
    },
    {
      "inputs": [],
      "name": "kgdsc",
      "outputs": [
        {
          "internalType": "contract KingdomSeedCoin",
          "name": "",
          "type": "address"
        }
      ],
      "stateMutability": "view",
      "type": "function"
    },
    {
      "inputs": [],
      "name": "name",
      "outputs": [
        {
          "internalType": "string",
          "name": "",
          "type": "string"
        }
      ],
      "stateMutability": "view",
      "type": "function"
    },
    {
      "inputs": [],
      "name": "owner",
      "outputs": [
        {
          "internalType": "address",
          "name": "",
          "type": "address"
        }
      ],
      "stateMutability": "view",
      "type": "function"
    },
    {
      "inputs": [],
      "name": "stakingPeriod",
      "outputs": [
        {
          "internalType": "uint256",
          "name": "",
          "type": "uint256"
        }
      ],
      "stateMutability": "view",
      "type": "function"
    },
    {
      "inputs": [],
      "name": "buyForETH",
      "outputs": [],
      "stateMutability": "payable",
      "type": "function"
    },
    {
      "inputs": [],
      "name": "justSendETH",
      "outputs": [
        {
          "internalType": "uint256",
          "name": "",
          "type": "uint256"
        }
      ],
      "stateMutability": "payable",
      "type": "function"
    },
    {
      "inputs": [
        {
          "internalType": "uint256",
          "name": "nrSeedCoins",
          "type": "uint256"
        }
      ],
      "name": "plantForAttackpoints",
      "outputs": [],
      "stateMutability": "nonpayable",
      "type": "function"
    },
    {
      "inputs": [],
      "name": "getCurrentStakes",
      "outputs": [
        {
          "internalType": "uint256[2]",
          "name": "balances",
          "type": "uint256[2]"
        }
      ],
      "stateMutability": "view",
      "type": "function"
    },
    {
      "inputs": [],
      "name": "harvestAll",
      "outputs": [],
      "stateMutability": "nonpayable",
      "type": "function"
    }
  ],
  "bytecode": "0x60806040526040518060400160405280600c81526020017f4b696e67646f6d2042616e6b0000000000000000000000000000000000000000815250600190805190602001906200005192919062000205565b506064600260006101000a81548160ff021916908360ff160217905550600a600260016101000a81548160ff021916908360ff16021790555060086002806101000a81548160ff021916908360ff160217905550600a600260036101000a81548160ff021916908360ff160217905550603c600355348015620000d357600080fd5b5060405162001eb938038062001eb98339818101604052810190620000f99190620003bd565b82600460006101000a81548173ffffffffffffffffffffffffffffffffffffffff021916908373ffffffffffffffffffffffffffffffffffffffff16021790555081600560006101000a81548173ffffffffffffffffffffffffffffffffffffffff021916908373ffffffffffffffffffffffffffffffffffffffff16021790555080600660006101000a81548173ffffffffffffffffffffffffffffffffffffffff021916908373ffffffffffffffffffffffffffffffffffffffff160217905550336000806101000a81548173ffffffffffffffffffffffffffffffffffffffff021916908373ffffffffffffffffffffffffffffffffffffffff1602179055505050506200047e565b828054620002139062000448565b90600052602060002090601f01602090048101928262000237576000855562000283565b82601f106200025257805160ff191683800117855562000283565b8280016001018555821562000283579182015b828111156200028257825182559160200191906001019062000265565b5b50905062000292919062000296565b5090565b5b80821115620002b157600081600090555060010162000297565b5090565b600080fd5b600073ffffffffffffffffffffffffffffffffffffffff82169050919050565b6000620002e782620002ba565b9050919050565b6000620002fb82620002da565b9050919050565b6200030d81620002ee565b81146200031957600080fd5b50565b6000815190506200032d8162000302565b92915050565b60006200034082620002da565b9050919050565b620003528162000333565b81146200035e57600080fd5b50565b600081519050620003728162000347565b92915050565b60006200038582620002da565b9050919050565b620003978162000378565b8114620003a357600080fd5b50565b600081519050620003b7816200038c565b92915050565b600080600060608486031215620003d957620003d8620002b5565b5b6000620003e9868287016200031c565b9350506020620003fc8682870162000361565b92505060406200040f86828701620003a6565b9150509250925092565b7f4e487b7100000000000000000000000000000000000000000000000000000000600052602260045260246000fd5b600060028204905060018216806200046157607f821691505b6020821081141562000478576200047762000419565b5b50919050565b611a2b806200048e6000396000f3fe6080604052600436106100e85760003560e01c80638ded81871161008a578063c669b71011610059578063c669b7101461028f578063d4637ddb146102ba578063e046670b146102e5578063fa4facdb14610303576100e8565b80638ded8187146101f95780638ed955b914610222578063900294be14610239578063c03d5b4714610264576100e8565b8063411ee0d0116100c6578063411ee0d01461014d5780636a7a2fa3146101785780637c62539a146101a35780638da5cb5b146101ce576100e8565b806306fdde03146100ed57806310f7e4ed146101185780633ba0b9a914610122575b600080fd5b3480156100f957600080fd5b5061010261032e565b60405161010f9190611221565b60405180910390f35b6101206103bc565b005b34801561012e57600080fd5b50610137610678565b604051610144919061125f565b60405180910390f35b34801561015957600080fd5b5061016261068b565b60405161016f91906112f9565b60405180910390f35b34801561018457600080fd5b5061018d6106b1565b60405161019a919061125f565b60405180910390f35b3480156101af57600080fd5b506101b86106c4565b6040516101c59190611335565b60405180910390f35b3480156101da57600080fd5b506101e36106ea565b6040516101f09190611371565b60405180910390f35b34801561020557600080fd5b50610220600480360381019061021b91906113c7565b61070e565b005b34801561022e57600080fd5b50610237610a44565b005b34801561024557600080fd5b5061024e610e65565b60405161025b9190611415565b60405180910390f35b34801561027057600080fd5b50610279610e8b565b604051610286919061143f565b60405180910390f35b34801561029b57600080fd5b506102a4610e91565b6040516102b1919061125f565b60405180910390f35b3480156102c657600080fd5b506102cf610ea4565b6040516102dc919061125f565b60405180910390f35b6102ed610eb5565b6040516102fa919061143f565b60405180910390f35b34801561030f57600080fd5b50610318610ebd565b6040516103259190611505565b60405180910390f35b6001805461033b9061154f565b80601f01602080910402602001604051908101604052809291908181526020018280546103679061154f565b80156103b45780601f10610389576101008083540402835291602001916103b4565b820191906000526020600020905b81548152906001019060200180831161039757829003601f168201915b505050505081565b6000600460009054906101000a900473ffffffffffffffffffffffffffffffffffffffff1673ffffffffffffffffffffffffffffffffffffffff166370a08231306040518263ffffffff1660e01b81526004016104199190611371565b60206040518083038186803b15801561043157600080fd5b505afa158015610445573d6000803e3d6000fd5b505050506040513d601f19601f820116820180604052508101906104699190611596565b1161047357600080fd5b600034116104b6576040517f08c379a00000000000000000000000000000000000000000000000000000000081526004016104ad90611635565b60405180910390fd5b6000600460009054906101000a900473ffffffffffffffffffffffffffffffffffffffff1673ffffffffffffffffffffffffffffffffffffffff166370a08231306040518263ffffffff1660e01b81526004016105139190611371565b60206040518083038186803b15801561052b57600080fd5b505afa15801561053f573d6000803e3d6000fd5b505050506040513d601f19601f820116820180604052508101906105639190611596565b116105a3576040517f08c379a000000000000000000000000000000000000000000000000000000000815260040161059a906116c7565b60405180910390fd5b6000600260009054906101000a900460ff1660ff16346105c39190611716565b9050600460009054906101000a900473ffffffffffffffffffffffffffffffffffffffff1673ffffffffffffffffffffffffffffffffffffffff1663a9059cbb33836040518363ffffffff1660e01b8152600401610622929190611770565b602060405180830381600087803b15801561063c57600080fd5b505af1158015610650573d6000803e3d6000fd5b505050506040513d601f19601f8201168201806040525081019061067491906117d1565b5050565b600260009054906101000a900460ff1681565b600660009054906101000a900473ffffffffffffffffffffffffffffffffffffffff1681565b600260039054906101000a900460ff1681565b600560009054906101000a900473ffffffffffffffffffffffffffffffffffffffff1681565b60008054906101000a900473ffffffffffffffffffffffffffffffffffffffff1681565b6000600560009054906101000a900473ffffffffffffffffffffffffffffffffffffffff1673ffffffffffffffffffffffffffffffffffffffff166370a08231306040518263ffffffff1660e01b815260040161076b9190611371565b60206040518083038186803b15801561078357600080fd5b505afa158015610797573d6000803e3d6000fd5b505050506040513d601f19601f820116820180604052508101906107bb9190611596565b116107c557600080fd5b6000600460009054906101000a900473ffffffffffffffffffffffffffffffffffffffff1673ffffffffffffffffffffffffffffffffffffffff166370a08231336040518263ffffffff1660e01b81526004016108229190611371565b60206040518083038186803b15801561083a57600080fd5b505afa15801561084e573d6000803e3d6000fd5b505050506040513d601f19601f820116820180604052508101906108729190611596565b90508181101580156108845750600082115b6108c3576040517f08c379a00000000000000000000000000000000000000000000000000000000081526004016108ba90611870565b60405180910390fd5b600460009054906101000a900473ffffffffffffffffffffffffffffffffffffffff1673ffffffffffffffffffffffffffffffffffffffff166323b872dd3330856040518463ffffffff1660e01b815260040161092293929190611890565b602060405180830381600087803b15801561093c57600080fd5b505af1158015610950573d6000803e3d6000fd5b505050506040513d601f19601f8201168201806040525081019061097491906117d1565b50600760003373ffffffffffffffffffffffffffffffffffffffff1673ffffffffffffffffffffffffffffffffffffffff1681526020019081526020016000206040518060600160405280848152602001600060ff168152602001600354426109dd91906118c7565b81525090806001815401808255809150506001900390600052602060002090600302016000909190919091506000820151816000015560208201518160010160006101000a81548160ff021916908360ff1602179055506040820151816002015550505050565b60005b600760003373ffffffffffffffffffffffffffffffffffffffff1673ffffffffffffffffffffffffffffffffffffffff16815260200190815260200160002080549050811015610e62576000600760003373ffffffffffffffffffffffffffffffffffffffff1673ffffffffffffffffffffffffffffffffffffffff1681526020019081526020016000208281548110610ae457610ae361191d565b5b9060005260206000209060030201604051806060016040529081600082015481526020016001820160009054906101000a900460ff1660ff1660ff16815260200160028201548152505090504281604001511015610e4e576000816020015160ff161415610c83576000600260019054906101000a900460ff1660ff168260000151610b70919061197b565b9050610b7f8260000151611036565b600560009054906101000a900473ffffffffffffffffffffffffffffffffffffffff1673ffffffffffffffffffffffffffffffffffffffff1663a9059cbb33836040518363ffffffff1660e01b8152600401610bdc929190611770565b602060405180830381600087803b158015610bf657600080fd5b505af1158015610c0a573d6000803e3d6000fd5b505050506040513d601f19601f82011682018060405250810190610c2e91906117d1565b503373ffffffffffffffffffffffffffffffffffffffff167f9fd4a9248425079a398923cd20daa8e0c103907fb89db4707cb4f2cc343f954682604051610c75919061143f565b60405180910390a250610dc7565b6001816020015160ff161415610dc6576000600260019054906101000a900460ff1660ff168260000151610cb7919061197b565b9050610cc68260000151611036565b600660009054906101000a900473ffffffffffffffffffffffffffffffffffffffff1673ffffffffffffffffffffffffffffffffffffffff1663a9059cbb33836040518363ffffffff1660e01b8152600401610d23929190611770565b602060405180830381600087803b158015610d3d57600080fd5b505af1158015610d51573d6000803e3d6000fd5b505050506040513d601f19601f82011682018060405250810190610d7591906117d1565b503373ffffffffffffffffffffffffffffffffffffffff167fd62aeb2df4f1c7a0c59e15c0dca22ccbcbe42ad0d0dbf99a22c0ad2551c5a15582604051610dbc919061143f565b60405180910390a2505b5b600760003373ffffffffffffffffffffffffffffffffffffffff1673ffffffffffffffffffffffffffffffffffffffff1681526020019081526020016000208281548110610e1857610e1761191d565b5b90600052602060002090600302016000808201600090556001820160006101000a81549060ff0219169055600282016000905550505b508080610e5a906119ac565b915050610a47565b50565b600460009054906101000a900473ffffffffffffffffffffffffffffffffffffffff1681565b60035481565b600260019054906101000a900460ff1681565b60028054906101000a900460ff1681565b600047905090565b610ec5611166565b60008060005b600760003373ffffffffffffffffffffffffffffffffffffffff1673ffffffffffffffffffffffffffffffffffffffff16815260200190815260200160002080549050811015611013576000600760003373ffffffffffffffffffffffffffffffffffffffff1673ffffffffffffffffffffffffffffffffffffffff1681526020019081526020016000208281548110610f6857610f6761191d565b5b9060005260206000209060030201604051806060016040529081600082015481526020016001820160009054906101000a900460ff1660ff1660ff16815260200160028201548152505090506000816020015160ff161415610fdb57806000015184610fd491906118c7565b9350610fff565b6001816020015160ff161415610ffe57806000015183610ffb91906118c7565b92505b5b50808061100b906119ac565b915050610ecb565b506000604051806040016040528084815260200183815250905080935050505090565b60006064600260039054906101000a900460ff1660ff16836110589190611716565b611062919061197b565b9050600460009054906101000a900473ffffffffffffffffffffffffffffffffffffffff1673ffffffffffffffffffffffffffffffffffffffff1663a9059cbb33836040518363ffffffff1660e01b81526004016110c1929190611770565b602060405180830381600087803b1580156110db57600080fd5b505af11580156110ef573d6000803e3d6000fd5b505050506040513d601f19601f8201168201806040525081019061111391906117d1565b503373ffffffffffffffffffffffffffffffffffffffff167f98b209586c8fb861970c060b4175f9c98570d1aa789339bc7ec731e5e216eae18260405161115a919061143f565b60405180910390a25050565b6040518060400160405280600290602082028036833780820191505090505090565b600081519050919050565b600082825260208201905092915050565b60005b838110156111c25780820151818401526020810190506111a7565b838111156111d1576000848401525b50505050565b6000601f19601f8301169050919050565b60006111f382611188565b6111fd8185611193565b935061120d8185602086016111a4565b611216816111d7565b840191505092915050565b6000602082019050818103600083015261123b81846111e8565b905092915050565b600060ff82169050919050565b61125981611243565b82525050565b60006020820190506112746000830184611250565b92915050565b600073ffffffffffffffffffffffffffffffffffffffff82169050919050565b6000819050919050565b60006112bf6112ba6112b58461127a565b61129a565b61127a565b9050919050565b60006112d1826112a4565b9050919050565b60006112e3826112c6565b9050919050565b6112f3816112d8565b82525050565b600060208201905061130e60008301846112ea565b92915050565b600061131f826112c6565b9050919050565b61132f81611314565b82525050565b600060208201905061134a6000830184611326565b92915050565b600061135b8261127a565b9050919050565b61136b81611350565b82525050565b60006020820190506113866000830184611362565b92915050565b600080fd5b6000819050919050565b6113a481611391565b81146113af57600080fd5b50565b6000813590506113c18161139b565b92915050565b6000602082840312156113dd576113dc61138c565b5b60006113eb848285016113b2565b91505092915050565b60006113ff826112c6565b9050919050565b61140f816113f4565b82525050565b600060208201905061142a6000830184611406565b92915050565b61143981611391565b82525050565b60006020820190506114546000830184611430565b92915050565b600060029050919050565b600081905092915050565b6000819050919050565b61148381611391565b82525050565b6000611495838361147a565b60208301905092915050565b6000602082019050919050565b6114b78161145a565b6114c18184611465565b92506114cc82611470565b8060005b838110156114fd5781516114e48782611489565b96506114ef836114a1565b9250506001810190506114d0565b505050505050565b600060408201905061151a60008301846114ae565b92915050565b7f4e487b7100000000000000000000000000000000000000000000000000000000600052602260045260246000fd5b6000600282049050600182168061156757607f821691505b6020821081141561157b5761157a611520565b5b50919050565b6000815190506115908161139b565b92915050565b6000602082840312156115ac576115ab61138c565b5b60006115ba84828501611581565b91505092915050565b7f796f75206861766520746f2073656e6420736f6d652045544820746f2067657460008201527f204b696e67646f6d53656564636f696e00000000000000000000000000000000602082015250565b600061161f603083611193565b915061162a826115c3565b604082019050919050565b6000602082019050818103600083015261164e81611612565b9050919050565b7f75686f682c2073727920692063616e27742073656e6420616e79206d6f72652060008201527f4b696e67646f6d53656564636f696e0000000000000000000000000000000000602082015250565b60006116b1602f83611193565b91506116bc82611655565b604082019050919050565b600060208201905081810360008301526116e0816116a4565b9050919050565b7f4e487b7100000000000000000000000000000000000000000000000000000000600052601160045260246000fd5b600061172182611391565b915061172c83611391565b9250817fffffffffffffffffffffffffffffffffffffffffffffffffffffffffffffffff0483118215151615611765576117646116e7565b5b828202905092915050565b60006040820190506117856000830185611362565b6117926020830184611430565b9392505050565b60008115159050919050565b6117ae81611799565b81146117b957600080fd5b50565b6000815190506117cb816117a5565b92915050565b6000602082840312156117e7576117e661138c565b5b60006117f5848285016117bc565b91505092915050565b7f796f7520646f6e2774206861766520656e6f7567682073656564636f696e732160008201527f20627579206f7220747261646520736f6d650000000000000000000000000000602082015250565b600061185a603283611193565b9150611865826117fe565b604082019050919050565b600060208201905081810360008301526118898161184d565b9050919050565b60006060820190506118a56000830186611362565b6118b26020830185611362565b6118bf6040830184611430565b949350505050565b60006118d282611391565b91506118dd83611391565b9250827fffffffffffffffffffffffffffffffffffffffffffffffffffffffffffffffff03821115611912576119116116e7565b5b828201905092915050565b7f4e487b7100000000000000000000000000000000000000000000000000000000600052603260045260246000fd5b7f4e487b7100000000000000000000000000000000000000000000000000000000600052601260045260246000fd5b600061198682611391565b915061199183611391565b9250826119a1576119a061194c565b5b828204905092915050565b60006119b782611391565b91507fffffffffffffffffffffffffffffffffffffffffffffffffffffffffffffffff8214156119ea576119e96116e7565b5b60018201905091905056fea2646970667358221220d8eaaece22c25547deb563641ca3d4d5f04693b1b7e325b0e92d32ce743a8c7164736f6c63430008090033",
  "immutableReferences": {},
  "source": "pragma solidity ^0.8;\n\nimport \"./KingdomSeedCoin.sol\";\nimport \"./KingdomAttackCoin.sol\";\nimport \"./KingdomDefenseCoin.sol\";\n\ncontract KingdomBank {\n    address public owner;\n    string public name = \"Kingdom Bank\";\n    uint8 public exchangeRate = 100;\n    uint8 public exchangeRate_Attackpoints = 10;\n    uint8 public exchangeRate_Defensepoints = 8;\n    uint8 public exchangeRate_Burnpct = 10;\n    uint public stakingPeriod = 60 seconds;\n    \n    KingdomSeedCoin public kgdsc;\n    KingdomAttackCoin public kgdat;\n    KingdomDefenseCoin public kgddf;\n\n    event HarvestAttackPoints(address indexed _to, uint _amount);\n    event HarvestDefensePoints(address indexed _to, uint _amount);\n    event HarvestRemainingSeedCoins(address indexed _to, uint _amount);\n    \n    struct Staking {\n        uint seedCoinAmount;\n        uint8 targetCoinType; // 0 = attackCoin, 1 = defenseCoin\n        uint readyTime;\n    }\n    \n    mapping (address => Staking[]) private _Staking;\n\n    constructor(KingdomSeedCoin _kgdsc, KingdomAttackCoin _kgdat, KingdomDefenseCoin _kgddf) {\n        kgdsc = _kgdsc;\n        kgdat = _kgdat;\n        kgddf = _kgddf;\n        // after that the coins need to be transferred to KingdomBank\n        owner = msg.sender;\n    }\n\n    modifier contractHasSeedcoins {\n        require (kgdsc.balanceOf(address(this)) > 0);\n        _;\n    }\n\n    modifier contractHasAttackcoins {\n        require (kgdat.balanceOf(address(this)) > 0);\n        _;\n    }\n\n    modifier contractHasDefensecoins {\n        require (kgddf.balanceOf(address(this)) > 0);\n        _;\n    }\n    \n    // you can only buy the seed coins \n    function buyForETH() external payable contractHasSeedcoins {\n        require(msg.value > 0, \"you have to send some ETH to get KingdomSeedcoin\");\n        require(kgdsc.balanceOf(address(this)) > 0, \"uhoh, sry i can't send any more KingdomSeedcoin\");\n        \n        uint rewardTokens = msg.value * exchangeRate;\n        kgdsc.transfer(msg.sender, rewardTokens);\n    }\n    \n    function justSendETH() public payable  returns(uint){\n        return address(this).balance;\n    }\n    \n    function plantForAttackpoints(uint nrSeedCoins) public contractHasAttackcoins {\n        uint kgdsc_balance = kgdsc.balanceOf(msg.sender);\n        require(kgdsc_balance >= nrSeedCoins && nrSeedCoins > 0, \"you don't have enough seedcoins! buy or trade some\");\n        \n        // enter staking\n        // first transact the kgdsc\n        kgdsc.transferFrom(msg.sender, address(this), nrSeedCoins);\n        // kgdsc.transfer(address(this), nrSeedCoins);\n        // then store in array\n        _Staking[msg.sender].push(Staking(\n            nrSeedCoins,\n            0,\n            block.timestamp + stakingPeriod\n            ));\n    }\n    \n    function getCurrentStakes() public view returns(uint[2] memory balances){\n        uint attackPoints = 0;\n        uint defensePoints = 0;\n        for (uint i = 0; i < _Staking[msg.sender].length; i++) {\n            Staking memory stakeobj = _Staking[msg.sender][i];\n            if (stakeobj.targetCoinType == 0) {\n                attackPoints += stakeobj.seedCoinAmount;\n            }\n            else if (stakeobj.targetCoinType == 1) {\n                defensePoints += stakeobj.seedCoinAmount;\n            }\n        }\n        uint[2] memory res = [attackPoints, defensePoints];\n        return res;\n    }\n\n    function _burnReturnSeedcoins(uint nrSeedCoins) private {\n        uint remainingSeedcoins = nrSeedCoins * exchangeRate_Burnpct / 100;\n        kgdsc.transfer(msg.sender, remainingSeedcoins);\n        emit HarvestRemainingSeedCoins(msg.sender, remainingSeedcoins);\n    }\n\n    function harvestAll() public {\n        for (uint i = 0; i < _Staking[msg.sender].length; i++) {\n            Staking memory stakeobj = _Staking[msg.sender][i];\n            if (stakeobj.readyTime < block.timestamp) {\n                // ready for harvest\n                if (stakeobj.targetCoinType == 0) {\n                    uint attackPoints = stakeobj.seedCoinAmount / exchangeRate_Attackpoints;\n                    _burnReturnSeedcoins(stakeobj.seedCoinAmount);\n                    kgdat.transfer(msg.sender, attackPoints);\n                    emit HarvestAttackPoints(msg.sender, attackPoints);\n                }\n                else if (stakeobj.targetCoinType == 1) {\n                    uint defensePoints = stakeobj.seedCoinAmount / exchangeRate_Attackpoints;\n                    _burnReturnSeedcoins(stakeobj.seedCoinAmount);\n                    kgddf.transfer(msg.sender, defensePoints);\n                    emit HarvestDefensePoints(msg.sender, defensePoints);\n                }\n                // finally remove from array\n                delete _Staking[msg.sender][i];\n            }\n        }\n    } \n}",
  "sourcePath": "/home/justin/code/solidity-course/kingdom/contracts/KingdomBank.sol",
  "compiler": {
    "name": "solc",
    "version": "0.8.9+commit.e5eed63a.Emscripten.clang"
  },
  "schemaVersion": "3.4.3",
  "updatedAt": "2021-10-19T17:23:04.854Z",
  "devdoc": {
    "kind": "dev",
    "methods": {},
    "version": 1
  },
  "userdoc": {
    "kind": "user",
    "methods": {},
    "version": 1
  }
}