{
  "contractName": "KingdomBank",
  "abi": [
    {
      "inputs": [
        {
          "internalType": "contract KingdomSeedCoin",
          "name": "_kgdsc",
          "type": "address"
        },
        {
          "internalType": "contract KingdomAttackCoin",
          "name": "_kgdat",
          "type": "address"
        },
        {
          "internalType": "contract KingdomDefenseCoin",
          "name": "_kgddf",
          "type": "address"
        }
      ],
      "stateMutability": "nonpayable",
      "type": "constructor"
    },
    {
      "inputs": [],
      "name": "exchangeRate",
      "outputs": [
        {
          "internalType": "uint8",
          "name": "",
          "type": "uint8"
        }
      ],
      "stateMutability": "view",
      "type": "function"
    },
    {
      "inputs": [],
      "name": "exchangeRate_Attackpoints",
      "outputs": [
        {
          "internalType": "uint8",
          "name": "",
          "type": "uint8"
        }
      ],
      "stateMutability": "view",
      "type": "function"
    },
    {
      "inputs": [],
      "name": "exchangeRate_Burnpct",
      "outputs": [
        {
          "internalType": "uint8",
          "name": "",
          "type": "uint8"
        }
      ],
      "stateMutability": "view",
      "type": "function"
    },
    {
      "inputs": [],
      "name": "exchangeRate_Defensepoints",
      "outputs": [
        {
          "internalType": "uint8",
          "name": "",
          "type": "uint8"
        }
      ],
      "stateMutability": "view",
      "type": "function"
    },
    {
      "inputs": [],
      "name": "kgdat",
      "outputs": [
        {
          "internalType": "contract KingdomAttackCoin",
          "name": "",
          "type": "address"
        }
      ],
      "stateMutability": "view",
      "type": "function"
    },
    {
      "inputs": [],
      "name": "kgddf",
      "outputs": [
        {
          "internalType": "contract KingdomDefenseCoin",
          "name": "",
          "type": "address"
        }
      ],
      "stateMutability": "view",
      "type": "function"
    },
    {
      "inputs": [],
      "name": "kgdsc",
      "outputs": [
        {
          "internalType": "contract KingdomSeedCoin",
          "name": "",
          "type": "address"
        }
      ],
      "stateMutability": "view",
      "type": "function"
    },
    {
      "inputs": [],
      "name": "name",
      "outputs": [
        {
          "internalType": "string",
          "name": "",
          "type": "string"
        }
      ],
      "stateMutability": "view",
      "type": "function"
    },
    {
      "inputs": [],
      "name": "owner",
      "outputs": [
        {
          "internalType": "address",
          "name": "",
          "type": "address"
        }
      ],
      "stateMutability": "view",
      "type": "function"
    },
    {
      "inputs": [],
      "name": "stakingPeriod",
      "outputs": [
        {
          "internalType": "uint256",
          "name": "",
          "type": "uint256"
        }
      ],
      "stateMutability": "view",
      "type": "function"
    },
    {
      "inputs": [],
      "name": "buyForETH",
      "outputs": [],
      "stateMutability": "payable",
      "type": "function"
    },
    {
      "inputs": [
        {
          "internalType": "uint256",
          "name": "nrSeedCoins",
          "type": "uint256"
        }
      ],
      "name": "plantForAttackpoints",
      "outputs": [],
      "stateMutability": "nonpayable",
      "type": "function"
    },
    {
      "inputs": [],
      "name": "getCurrentStakes",
      "outputs": [
        {
          "internalType": "uint256[2]",
          "name": "balances",
          "type": "uint256[2]"
        }
      ],
      "stateMutability": "view",
      "type": "function"
    }
  ],
  "bytecode": "0x60806040526040518060400160405280600c81526020017f4b696e67646f6d2042616e6b0000000000000000000000000000000000000000815250600190805190602001906200005192919062000205565b506064600260006101000a81548160ff021916908360ff160217905550600a600260016101000a81548160ff021916908360ff16021790555060086002806101000a81548160ff021916908360ff160217905550600a600260036101000a81548160ff021916908360ff160217905550603c600355348015620000d357600080fd5b50604051620017e7380380620017e78339818101604052810190620000f99190620003bd565b82600460006101000a81548173ffffffffffffffffffffffffffffffffffffffff021916908373ffffffffffffffffffffffffffffffffffffffff16021790555081600560006101000a81548173ffffffffffffffffffffffffffffffffffffffff021916908373ffffffffffffffffffffffffffffffffffffffff16021790555080600660006101000a81548173ffffffffffffffffffffffffffffffffffffffff021916908373ffffffffffffffffffffffffffffffffffffffff160217905550336000806101000a81548173ffffffffffffffffffffffffffffffffffffffff021916908373ffffffffffffffffffffffffffffffffffffffff1602179055505050506200047e565b828054620002139062000448565b90600052602060002090601f01602090048101928262000237576000855562000283565b82601f106200025257805160ff191683800117855562000283565b8280016001018555821562000283579182015b828111156200028257825182559160200191906001019062000265565b5b50905062000292919062000296565b5090565b5b80821115620002b157600081600090555060010162000297565b5090565b600080fd5b600073ffffffffffffffffffffffffffffffffffffffff82169050919050565b6000620002e782620002ba565b9050919050565b6000620002fb82620002da565b9050919050565b6200030d81620002ee565b81146200031957600080fd5b50565b6000815190506200032d8162000302565b92915050565b60006200034082620002da565b9050919050565b620003528162000333565b81146200035e57600080fd5b50565b600081519050620003728162000347565b92915050565b60006200038582620002da565b9050919050565b620003978162000378565b8114620003a357600080fd5b50565b600081519050620003b7816200038c565b92915050565b600080600060608486031215620003d957620003d8620002b5565b5b6000620003e9868287016200031c565b9350506020620003fc8682870162000361565b92505060406200040f86828701620003a6565b9150509250925092565b7f4e487b7100000000000000000000000000000000000000000000000000000000600052602260045260246000fd5b600060028204905060018216806200046157607f821691505b6020821081141562000478576200047762000419565b5b50919050565b611359806200048e6000396000f3fe6080604052600436106100c25760003560e01c80638da5cb5b1161007f578063c03d5b4711610059578063c03d5b4714610227578063c669b71014610252578063d4637ddb1461027d578063fa4facdb146102a8576100c2565b80638da5cb5b146101a85780638ded8187146101d3578063900294be146101fc576100c2565b806306fdde03146100c757806310f7e4ed146100f25780633ba0b9a9146100fc578063411ee0d0146101275780636a7a2fa3146101525780637c62539a1461017d575b600080fd5b3480156100d357600080fd5b506100dc6102d3565b6040516100e99190610baf565b60405180910390f35b6100fa610361565b005b34801561010857600080fd5b50610111610566565b60405161011e9190610bed565b60405180910390f35b34801561013357600080fd5b5061013c610579565b6040516101499190610c87565b60405180910390f35b34801561015e57600080fd5b5061016761059f565b6040516101749190610bed565b60405180910390f35b34801561018957600080fd5b506101926105b2565b60405161019f9190610cc3565b60405180910390f35b3480156101b457600080fd5b506101bd6105d8565b6040516101ca9190610cff565b60405180910390f35b3480156101df57600080fd5b506101fa60048036038101906101f59190610d55565b6105fc565b005b34801561020857600080fd5b5061021161092b565b60405161021e9190610da3565b60405180910390f35b34801561023357600080fd5b5061023c610951565b6040516102499190610dcd565b60405180910390f35b34801561025e57600080fd5b50610267610957565b6040516102749190610bed565b60405180910390f35b34801561028957600080fd5b5061029261096a565b60405161029f9190610bed565b60405180910390f35b3480156102b457600080fd5b506102bd61097b565b6040516102ca9190610e93565b60405180910390f35b600180546102e090610edd565b80601f016020809104026020016040519081016040528092919081815260200182805461030c90610edd565b80156103595780601f1061032e57610100808354040283529160200191610359565b820191906000526020600020905b81548152906001019060200180831161033c57829003601f168201915b505050505081565b600034116103a4576040517f08c379a000000000000000000000000000000000000000000000000000000000815260040161039b90610f81565b60405180910390fd5b6000600460009054906101000a900473ffffffffffffffffffffffffffffffffffffffff1673ffffffffffffffffffffffffffffffffffffffff166370a08231306040518263ffffffff1660e01b81526004016104019190610cff565b60206040518083038186803b15801561041957600080fd5b505afa15801561042d573d6000803e3d6000fd5b505050506040513d601f19601f820116820180604052508101906104519190610fb6565b11610491576040517f08c379a000000000000000000000000000000000000000000000000000000000815260040161048890611055565b60405180910390fd5b6000600260009054906101000a900460ff1660ff16346104b191906110a4565b9050600460009054906101000a900473ffffffffffffffffffffffffffffffffffffffff1673ffffffffffffffffffffffffffffffffffffffff1663a9059cbb33836040518363ffffffff1660e01b81526004016105109291906110fe565b602060405180830381600087803b15801561052a57600080fd5b505af115801561053e573d6000803e3d6000fd5b505050506040513d601f19601f82011682018060405250810190610562919061115f565b5050565b600260009054906101000a900460ff1681565b600660009054906101000a900473ffffffffffffffffffffffffffffffffffffffff1681565b600260039054906101000a900460ff1681565b600560009054906101000a900473ffffffffffffffffffffffffffffffffffffffff1681565b60008054906101000a900473ffffffffffffffffffffffffffffffffffffffff1681565b6000600460009054906101000a900473ffffffffffffffffffffffffffffffffffffffff1673ffffffffffffffffffffffffffffffffffffffff166370a08231336040518263ffffffff1660e01b81526004016106599190610cff565b60206040518083038186803b15801561067157600080fd5b505afa158015610685573d6000803e3d6000fd5b505050506040513d601f19601f820116820180604052508101906106a99190610fb6565b90508181101580156106bb5750600082115b6106fa576040517f08c379a00000000000000000000000000000000000000000000000000000000081526004016106f1906111fe565b60405180910390fd5b600460009054906101000a900473ffffffffffffffffffffffffffffffffffffffff1673ffffffffffffffffffffffffffffffffffffffff1663095ea7b330846040518363ffffffff1660e01b81526004016107579291906110fe565b602060405180830381600087803b15801561077157600080fd5b505af1158015610785573d6000803e3d6000fd5b505050506040513d601f19601f820116820180604052508101906107a9919061115f565b50600460009054906101000a900473ffffffffffffffffffffffffffffffffffffffff1673ffffffffffffffffffffffffffffffffffffffff166323b872dd3330856040518463ffffffff1660e01b81526004016108099392919061121e565b602060405180830381600087803b15801561082357600080fd5b505af1158015610837573d6000803e3d6000fd5b505050506040513d601f19601f8201168201806040525081019061085b919061115f565b50600760003373ffffffffffffffffffffffffffffffffffffffff1673ffffffffffffffffffffffffffffffffffffffff1681526020019081526020016000206040518060600160405280848152602001600060ff168152602001600354426108c49190611255565b81525090806001815401808255809150506001900390600052602060002090600302016000909190919091506000820151816000015560208201518160010160006101000a81548160ff021916908360ff1602179055506040820151816002015550505050565b600460009054906101000a900473ffffffffffffffffffffffffffffffffffffffff1681565b60035481565b600260019054906101000a900460ff1681565b60028054906101000a900460ff1681565b610983610af4565b60008060005b600760003373ffffffffffffffffffffffffffffffffffffffff1673ffffffffffffffffffffffffffffffffffffffff16815260200190815260200160002080549050811015610ad1576000600760003373ffffffffffffffffffffffffffffffffffffffff1673ffffffffffffffffffffffffffffffffffffffff1681526020019081526020016000208281548110610a2657610a256112ab565b5b9060005260206000209060030201604051806060016040529081600082015481526020016001820160009054906101000a900460ff1660ff1660ff16815260200160028201548152505090506000816020015160ff161415610a9957806000015184610a929190611255565b9350610abd565b6001816020015160ff161415610abc57806000015183610ab99190611255565b92505b5b508080610ac9906112da565b915050610989565b506000604051806040016040528084815260200183815250905080935050505090565b6040518060400160405280600290602082028036833780820191505090505090565b600081519050919050565b600082825260208201905092915050565b60005b83811015610b50578082015181840152602081019050610b35565b83811115610b5f576000848401525b50505050565b6000601f19601f8301169050919050565b6000610b8182610b16565b610b8b8185610b21565b9350610b9b818560208601610b32565b610ba481610b65565b840191505092915050565b60006020820190508181036000830152610bc98184610b76565b905092915050565b600060ff82169050919050565b610be781610bd1565b82525050565b6000602082019050610c026000830184610bde565b92915050565b600073ffffffffffffffffffffffffffffffffffffffff82169050919050565b6000819050919050565b6000610c4d610c48610c4384610c08565b610c28565b610c08565b9050919050565b6000610c5f82610c32565b9050919050565b6000610c7182610c54565b9050919050565b610c8181610c66565b82525050565b6000602082019050610c9c6000830184610c78565b92915050565b6000610cad82610c54565b9050919050565b610cbd81610ca2565b82525050565b6000602082019050610cd86000830184610cb4565b92915050565b6000610ce982610c08565b9050919050565b610cf981610cde565b82525050565b6000602082019050610d146000830184610cf0565b92915050565b600080fd5b6000819050919050565b610d3281610d1f565b8114610d3d57600080fd5b50565b600081359050610d4f81610d29565b92915050565b600060208284031215610d6b57610d6a610d1a565b5b6000610d7984828501610d40565b91505092915050565b6000610d8d82610c54565b9050919050565b610d9d81610d82565b82525050565b6000602082019050610db86000830184610d94565b92915050565b610dc781610d1f565b82525050565b6000602082019050610de26000830184610dbe565b92915050565b600060029050919050565b600081905092915050565b6000819050919050565b610e1181610d1f565b82525050565b6000610e238383610e08565b60208301905092915050565b6000602082019050919050565b610e4581610de8565b610e4f8184610df3565b9250610e5a82610dfe565b8060005b83811015610e8b578151610e728782610e17565b9650610e7d83610e2f565b925050600181019050610e5e565b505050505050565b6000604082019050610ea86000830184610e3c565b92915050565b7f4e487b7100000000000000000000000000000000000000000000000000000000600052602260045260246000fd5b60006002820490506001821680610ef557607f821691505b60208210811415610f0957610f08610eae565b5b50919050565b7f796f75206861766520746f2073656e6420736f6d652045544820746f2067657460008201527f204b696e67646f6d53656564636f696e00000000000000000000000000000000602082015250565b6000610f6b603083610b21565b9150610f7682610f0f565b604082019050919050565b60006020820190508181036000830152610f9a81610f5e565b9050919050565b600081519050610fb081610d29565b92915050565b600060208284031215610fcc57610fcb610d1a565b5b6000610fda84828501610fa1565b91505092915050565b7f75686f682c2073727920692063616e27742073656e6420616e79206d6f72652060008201527f4b696e67646f6d53656564636f696e0000000000000000000000000000000000602082015250565b600061103f602f83610b21565b915061104a82610fe3565b604082019050919050565b6000602082019050818103600083015261106e81611032565b9050919050565b7f4e487b7100000000000000000000000000000000000000000000000000000000600052601160045260246000fd5b60006110af82610d1f565b91506110ba83610d1f565b9250817fffffffffffffffffffffffffffffffffffffffffffffffffffffffffffffffff04831182151516156110f3576110f2611075565b5b828202905092915050565b60006040820190506111136000830185610cf0565b6111206020830184610dbe565b9392505050565b60008115159050919050565b61113c81611127565b811461114757600080fd5b50565b60008151905061115981611133565b92915050565b60006020828403121561117557611174610d1a565b5b60006111838482850161114a565b91505092915050565b7f796f7520646f6e2774206861766520656e6f7567682073656564636f696e732160008201527f20627579206f7220747261646520736f6d650000000000000000000000000000602082015250565b60006111e8603283610b21565b91506111f38261118c565b604082019050919050565b60006020820190508181036000830152611217816111db565b9050919050565b60006060820190506112336000830186610cf0565b6112406020830185610cf0565b61124d6040830184610dbe565b949350505050565b600061126082610d1f565b915061126b83610d1f565b9250827fffffffffffffffffffffffffffffffffffffffffffffffffffffffffffffffff038211156112a05761129f611075565b5b828201905092915050565b7f4e487b7100000000000000000000000000000000000000000000000000000000600052603260045260246000fd5b60006112e582610d1f565b91507fffffffffffffffffffffffffffffffffffffffffffffffffffffffffffffffff82141561131857611317611075565b5b60018201905091905056fea26469706673582212201610b285e16cc685045274c178f4309e3596ab7a1f1567530de7cbc514924ae864736f6c63430008090033",
  "immutableReferences": {},
  "source": "pragma solidity ^0.8;\n\nimport \"./KingdomSeedCoin.sol\";\nimport \"./KingdomAttackCoin.sol\";\nimport \"./KingdomDefenseCoin.sol\";\n\ncontract KingdomBank {\n    address public owner;\n    string public name = \"Kingdom Bank\";\n    uint8 public exchangeRate = 100;\n    uint8 public exchangeRate_Attackpoints = 10;\n    uint8 public exchangeRate_Defensepoints = 8;\n    uint8 public exchangeRate_Burnpct = 10;\n    uint public stakingPeriod = 60 seconds;\n    \n    KingdomSeedCoin public kgdsc;\n    KingdomAttackCoin public kgdat;\n    KingdomDefenseCoin public kgddf;\n    \n    struct Staking {\n        uint seedCoinAmount;\n        uint8 targetCoinType; // 0 = attackCoin, 1 = defenseCoin\n        uint readyTime;\n    }\n    \n    mapping (address => Staking[]) private _Staking;\n\n    constructor(KingdomSeedCoin _kgdsc, KingdomAttackCoin _kgdat, KingdomDefenseCoin _kgddf) {\n        kgdsc = _kgdsc;\n        kgdat = _kgdat;\n        kgddf = _kgddf;\n        // after that the coins need to be transferred to KingdomBank\n        owner = msg.sender;\n    }\n    \n    // you can only buy the seed coins \n    function buyForETH() public payable {\n        require(msg.value > 0, \"you have to send some ETH to get KingdomSeedcoin\");\n        require(kgdsc.balanceOf(address(this)) > 0, \"uhoh, sry i can't send any more KingdomSeedcoin\");\n        \n        uint rewardTokens = msg.value * exchangeRate;\n        kgdsc.transfer(msg.sender, rewardTokens);\n    }\n    \n    function plantForAttackpoints(uint nrSeedCoins) public {\n        uint kgdsc_balance = kgdsc.balanceOf(msg.sender);\n        require(kgdsc_balance >= nrSeedCoins && nrSeedCoins > 0, \"you don't have enough seedcoins! buy or trade some\");\n        \n        // enter staking\n        // first transact the kgdsc\n        kgdsc.approve(address(this) , nrSeedCoins);\n        kgdsc.transferFrom(msg.sender, address(this), nrSeedCoins);\n        // kgdsc.transfer(address(this), nrSeedCoins);\n        // then store in array\n        _Staking[msg.sender].push(Staking(\n            nrSeedCoins,\n            0,\n            block.timestamp + stakingPeriod\n            ));\n    }\n    \n    function getCurrentStakes() public view returns(uint[2] memory balances){\n        uint attackPoints = 0;\n        uint defensePoints = 0;\n        for (uint i = 0; i < _Staking[msg.sender].length; i++) {\n            Staking memory stakeobj = _Staking[msg.sender][i];\n            if (stakeobj.targetCoinType == 0) {\n                attackPoints += stakeobj.seedCoinAmount;\n            }\n            else if (stakeobj.targetCoinType == 1) {\n                defensePoints += stakeobj.seedCoinAmount;\n            }\n        }\n        uint[2] memory res = [attackPoints, defensePoints];\n        return res;\n    }\n    \n    \n    \n    \n    \n    \n}",
  "sourcePath": "/home/jguese/code/solidity-course/kingdom/contracts/KingdomBank.sol",
  "compiler": {
    "name": "solc",
    "version": "0.8.9+commit.e5eed63a.Emscripten.clang"
  },
  "schemaVersion": "3.4.3",
  "updatedAt": "2021-10-19T11:17:15.495Z",
  "devdoc": {
    "kind": "dev",
    "methods": {},
    "version": 1
  },
  "userdoc": {
    "kind": "user",
    "methods": {},
    "version": 1
  }
}